{
  "contractName": "CSPDTokenWhitelisted",
  "abi": [
    {
      "inputs": [],
      "stateMutability": "nonpayable",
      "type": "constructor"
    },
    {
      "anonymous": false,
      "inputs": [
        {
          "indexed": true,
          "internalType": "address",
          "name": "owner",
          "type": "address"
        },
        {
          "indexed": true,
          "internalType": "address",
          "name": "spender",
          "type": "address"
        },
        {
          "indexed": false,
          "internalType": "uint256",
          "name": "value",
          "type": "uint256"
        }
      ],
      "name": "Approval",
      "type": "event"
    },
    {
      "anonymous": false,
      "inputs": [
        {
          "indexed": true,
          "internalType": "address",
          "name": "previousOwner",
          "type": "address"
        },
        {
          "indexed": true,
          "internalType": "address",
          "name": "newOwner",
          "type": "address"
        }
      ],
      "name": "OwnershipTransferred",
      "type": "event"
    },
    {
      "anonymous": false,
      "inputs": [
        {
          "indexed": true,
          "internalType": "address",
          "name": "from",
          "type": "address"
        },
        {
          "indexed": true,
          "internalType": "address",
          "name": "to",
          "type": "address"
        },
        {
          "indexed": false,
          "internalType": "uint256",
          "name": "value",
          "type": "uint256"
        }
      ],
      "name": "Transfer",
      "type": "event"
    },
    {
      "anonymous": false,
      "inputs": [
        {
          "indexed": true,
          "internalType": "address",
          "name": "previousWhitelister",
          "type": "address"
        },
        {
          "indexed": true,
          "internalType": "address",
          "name": "newWhitelister",
          "type": "address"
        }
      ],
      "name": "WhitelisterTransferred",
      "type": "event"
    },
    {
      "inputs": [],
      "name": "_lgePairAddress",
      "outputs": [
        {
          "internalType": "address",
          "name": "",
          "type": "address"
        }
      ],
      "stateMutability": "view",
      "type": "function"
    },
    {
      "inputs": [],
      "name": "_lgeTimestamp",
      "outputs": [
        {
          "internalType": "uint256",
          "name": "",
          "type": "uint256"
        }
      ],
      "stateMutability": "view",
      "type": "function"
    },
    {
      "inputs": [
        {
          "internalType": "uint256",
          "name": "",
          "type": "uint256"
        }
      ],
      "name": "_lgeWhitelistRounds",
      "outputs": [
        {
          "internalType": "uint256",
          "name": "duration",
          "type": "uint256"
        },
        {
          "internalType": "uint256",
          "name": "amountMax",
          "type": "uint256"
        }
      ],
      "stateMutability": "view",
      "type": "function"
    },
    {
      "inputs": [],
      "name": "_whitelister",
      "outputs": [
        {
          "internalType": "address",
          "name": "",
          "type": "address"
        }
      ],
      "stateMutability": "view",
      "type": "function"
    },
    {
      "inputs": [
        {
          "internalType": "address",
          "name": "pairAddress",
          "type": "address"
        },
        {
          "internalType": "uint256[]",
          "name": "durations",
          "type": "uint256[]"
        },
        {
          "internalType": "uint256[]",
          "name": "amountsMax",
          "type": "uint256[]"
        }
      ],
      "name": "createLGEWhitelist",
      "outputs": [],
      "stateMutability": "nonpayable",
      "type": "function"
    },
    {
      "inputs": [],
      "name": "getLGEWhitelistRound",
      "outputs": [
        {
          "internalType": "uint256",
          "name": "",
          "type": "uint256"
        },
        {
          "internalType": "uint256",
          "name": "",
          "type": "uint256"
        },
        {
          "internalType": "uint256",
          "name": "",
          "type": "uint256"
        },
        {
          "internalType": "uint256",
          "name": "",
          "type": "uint256"
        },
        {
          "internalType": "bool",
          "name": "",
          "type": "bool"
        },
        {
          "internalType": "uint256",
          "name": "",
          "type": "uint256"
        }
      ],
      "stateMutability": "view",
      "type": "function"
    },
    {
      "inputs": [
        {
          "internalType": "uint256",
          "name": "index",
          "type": "uint256"
        },
        {
          "internalType": "uint256",
          "name": "duration",
          "type": "uint256"
        },
        {
          "internalType": "uint256",
          "name": "amountMax",
          "type": "uint256"
        },
        {
          "internalType": "address[]",
          "name": "addresses",
          "type": "address[]"
        },
        {
          "internalType": "bool",
          "name": "enabled",
          "type": "bool"
        }
      ],
      "name": "modifyLGEWhitelist",
      "outputs": [],
      "stateMutability": "nonpayable",
      "type": "function"
    },
    {
      "inputs": [],
      "name": "owner",
      "outputs": [
        {
          "internalType": "address",
          "name": "",
          "type": "address"
        }
      ],
      "stateMutability": "view",
      "type": "function"
    },
    {
      "inputs": [],
      "name": "renounceOwnership",
      "outputs": [],
      "stateMutability": "nonpayable",
      "type": "function"
    },
    {
      "inputs": [],
      "name": "renounceWhitelister",
      "outputs": [],
      "stateMutability": "nonpayable",
      "type": "function"
    },
    {
      "inputs": [
        {
          "internalType": "address",
          "name": "newOwner",
          "type": "address"
        }
      ],
      "name": "transferOwnership",
      "outputs": [],
      "stateMutability": "nonpayable",
      "type": "function"
    },
    {
      "inputs": [
        {
          "internalType": "address",
          "name": "newWhitelister",
          "type": "address"
        }
      ],
      "name": "transferWhitelister",
      "outputs": [],
      "stateMutability": "nonpayable",
      "type": "function"
    },
    {
      "inputs": [],
      "name": "getOwner",
      "outputs": [
        {
          "internalType": "address",
          "name": "",
          "type": "address"
        }
      ],
      "stateMutability": "view",
      "type": "function"
    },
    {
      "inputs": [],
      "name": "decimals",
      "outputs": [
        {
          "internalType": "uint8",
          "name": "",
          "type": "uint8"
        }
      ],
      "stateMutability": "view",
      "type": "function"
    },
    {
      "inputs": [],
      "name": "symbol",
      "outputs": [
        {
          "internalType": "string",
          "name": "",
          "type": "string"
        }
      ],
      "stateMutability": "view",
      "type": "function"
    },
    {
      "inputs": [],
      "name": "name",
      "outputs": [
        {
          "internalType": "string",
          "name": "",
          "type": "string"
        }
      ],
      "stateMutability": "view",
      "type": "function"
    },
    {
      "inputs": [],
      "name": "totalSupply",
      "outputs": [
        {
          "internalType": "uint256",
          "name": "",
          "type": "uint256"
        }
      ],
      "stateMutability": "view",
      "type": "function"
    },
    {
      "inputs": [
        {
          "internalType": "address",
          "name": "account",
          "type": "address"
        }
      ],
      "name": "balanceOf",
      "outputs": [
        {
          "internalType": "uint256",
          "name": "",
          "type": "uint256"
        }
      ],
      "stateMutability": "view",
      "type": "function"
    },
    {
      "inputs": [
        {
          "internalType": "address",
          "name": "recipient",
          "type": "address"
        },
        {
          "internalType": "uint256",
          "name": "amount",
          "type": "uint256"
        }
      ],
      "name": "transfer",
      "outputs": [
        {
          "internalType": "bool",
          "name": "",
          "type": "bool"
        }
      ],
      "stateMutability": "nonpayable",
      "type": "function"
    },
    {
      "inputs": [
        {
          "internalType": "address",
          "name": "owner",
          "type": "address"
        },
        {
          "internalType": "address",
          "name": "spender",
          "type": "address"
        }
      ],
      "name": "allowance",
      "outputs": [
        {
          "internalType": "uint256",
          "name": "",
          "type": "uint256"
        }
      ],
      "stateMutability": "view",
      "type": "function"
    },
    {
      "inputs": [
        {
          "internalType": "address",
          "name": "spender",
          "type": "address"
        },
        {
          "internalType": "uint256",
          "name": "amount",
          "type": "uint256"
        }
      ],
      "name": "approve",
      "outputs": [
        {
          "internalType": "bool",
          "name": "",
          "type": "bool"
        }
      ],
      "stateMutability": "nonpayable",
      "type": "function"
    },
    {
      "inputs": [
        {
          "internalType": "address",
          "name": "sender",
          "type": "address"
        },
        {
          "internalType": "address",
          "name": "recipient",
          "type": "address"
        },
        {
          "internalType": "uint256",
          "name": "amount",
          "type": "uint256"
        }
      ],
      "name": "transferFrom",
      "outputs": [
        {
          "internalType": "bool",
          "name": "",
          "type": "bool"
        }
      ],
      "stateMutability": "nonpayable",
      "type": "function"
    },
    {
      "inputs": [
        {
          "internalType": "address",
          "name": "spender",
          "type": "address"
        },
        {
          "internalType": "uint256",
          "name": "addedValue",
          "type": "uint256"
        }
      ],
      "name": "increaseAllowance",
      "outputs": [
        {
          "internalType": "bool",
          "name": "",
          "type": "bool"
        }
      ],
      "stateMutability": "nonpayable",
      "type": "function"
    },
    {
      "inputs": [
        {
          "internalType": "address",
          "name": "spender",
          "type": "address"
        },
        {
          "internalType": "uint256",
          "name": "subtractedValue",
          "type": "uint256"
        }
      ],
      "name": "decreaseAllowance",
      "outputs": [
        {
          "internalType": "bool",
          "name": "",
          "type": "bool"
        }
      ],
      "stateMutability": "nonpayable",
      "type": "function"
    }
  ],
  "bytecode": "0x60806040523480156200001157600080fd5b50600062000024620002b160201b60201c565b9050806000806101000a81548173ffffffffffffffffffffffffffffffffffffffff021916908373ffffffffffffffffffffffffffffffffffffffff1602179055508073ffffffffffffffffffffffffffffffffffffffff16600073ffffffffffffffffffffffffffffffffffffffff167f8be0079c531659141344cd1fd0a4f28419497f9722a3daafe3b4186f6b6457e060405160405180910390a350620000d2620002b160201b60201c565b600460006101000a81548173ffffffffffffffffffffffffffffffffffffffff021916908373ffffffffffffffffffffffffffffffffffffffff1602179055506040518060400160405280600481526020017f4353504400000000000000000000000000000000000000000000000000000000815250600a90805190602001906200015f929190620002b9565b506040518060400160405280600481526020017f435350440000000000000000000000000000000000000000000000000000000081525060099080519060200190620001ad929190620002b9565b506012600860006101000a81548160ff021916908360ff1602179055506b019d971e4fe8401e7400000060078190555060075460056000620001f4620002b160201b60201c565b73ffffffffffffffffffffffffffffffffffffffff1673ffffffffffffffffffffffffffffffffffffffff1681526020019081526020016000208190555062000242620002b160201b60201c565b73ffffffffffffffffffffffffffffffffffffffff16600073ffffffffffffffffffffffffffffffffffffffff167fddf252ad1be2c89b69c2b068fc378daa952ba7f163c4a11628f55a4df523b3ef600754604051620002a391906200037a565b60405180910390a362000406565b600033905090565b828054620002c790620003a1565b90600052602060002090601f016020900481019282620002eb576000855562000337565b82601f106200030657805160ff191683800117855562000337565b8280016001018555821562000337579182015b828111156200033657825182559160200191906001019062000319565b5b5090506200034691906200034a565b5090565b5b80821115620003655760008160009055506001016200034b565b5090565b620003748162000397565b82525050565b600060208201905062000391600083018462000369565b92915050565b6000819050919050565b60006002820490506001821680620003ba57607f821691505b60208210811415620003d157620003d0620003d7565b5b50919050565b7f4e487b7100000000000000000000000000000000000000000000000000000000600052602260045260246000fd5b612ead80620004166000396000f3fe608060405234801561001057600080fd5b50600436106101585760003560e01c8063715018a6116100c3578063a77cac7a1161007c578063a77cac7a146103aa578063a9059cbb146103db578063d5215d111461040b578063da91b76e14610429578063dd62ed3e14610447578063f2fde38b1461047757610158565b8063715018a61461030c578063893d20e8146103165780638da5cb5b1461033457806395d89b41146103525780639ad3a7ba14610370578063a457c2d71461037a57610158565b8063313ce56711610115578063313ce56714610238578063395093511461025657806344ade3c51461028657806349448898146102a2578063532f1fed146102c057806370a08231146102dc57610158565b806306fdde031461015d578063095ea7b31461017b57806318160ddd146101ab5780631b29b0cd146101c957806323b872dd146101ec5780632e15e5c71461021c575b600080fd5b610165610493565b6040516101729190612578565b60405180910390f35b610195600480360381019061019091906121dc565b610525565b6040516101a2919061255d565b60405180910390f35b6101b3610543565b6040516101c0919061275a565b60405180910390f35b6101d161054d565b6040516101e39695949392919061279e565b60405180910390f35b610206600480360381019061020191906120f4565b6106b7565b604051610213919061255d565b60405180910390f35b61023660048036038101906102319190612087565b610790565b005b610240610833565b60405161024d91906127ff565b60405180910390f35b610270600480360381019061026b91906121dc565b61084a565b60405161027d919061255d565b60405180910390f35b6102a0600480360381019061029b9190612249565b6108fd565b005b6102aa610b97565b6040516102b79190612542565b60405180910390f35b6102da60048036038101906102d59190612147565b610bbd565b005b6102f660048036038101906102f19190612087565b610d89565b604051610303919061275a565b60405180910390f35b610314610dd2565b005b61031e610f0c565b60405161032b9190612542565b60405180910390f35b61033c610f1b565b6040516103499190612542565b60405180910390f35b61035a610f44565b6040516103679190612578565b60405180910390f35b610378610fd6565b005b610394600480360381019061038f91906121dc565b61112e565b6040516103a1919061255d565b60405180910390f35b6103c460048036038101906103bf919061221c565b6111fb565b6040516103d2929190612775565b60405180910390f35b6103f560048036038101906103f091906121dc565b61122f565b604051610402919061255d565b60405180910390f35b61041361124d565b6040516104209190612542565b60405180910390f35b610431611273565b60405161043e919061275a565b60405180910390f35b610461600480360381019061045c91906120b4565b611279565b60405161046e919061275a565b60405180910390f35b610491600480360381019061048c9190612087565b611300565b005b6060600a80546104a290612948565b80601f01602080910402602001604051908101604052809291908181526020018280546104ce90612948565b801561051b5780601f106104f05761010080835404028352916020019161051b565b820191906000526020600020905b8154815290600101906020018083116104fe57829003601f168201915b5050505050905090565b60006105396105326114a9565b84846114b1565b6001905092915050565b6000600754905090565b60008060008060008060006002541115610699576000600254905060005b6001805490508110156106965760006001828154811061058e5761058d612a21565b5b906000526020600020906004020190508060000154836105ae9190612836565b9250824211610682576001826105c49190612836565b81600001548483600101548460020160006105dd6114a9565b73ffffffffffffffffffffffffffffffffffffffff1673ffffffffffffffffffffffffffffffffffffffff16815260200190815260200160002060009054906101000a900460ff168560030160006106336114a9565b73ffffffffffffffffffffffffffffffffffffffff1673ffffffffffffffffffffffffffffffffffffffff168152602001908152602001600020549850985098509850985098505050506106af565b50808061068e9061297a565b91505061056b565b50505b6000806000806000809550955095509550955095505b909192939495565b60006106c484848461167c565b610785846106d06114a9565b61078085604051806060016040528060278152602001612e5160279139600660008b73ffffffffffffffffffffffffffffffffffffffff1673ffffffffffffffffffffffffffffffffffffffff16815260200190815260200160002060006107366114a9565b73ffffffffffffffffffffffffffffffffffffffff1673ffffffffffffffffffffffffffffffffffffffff168152602001908152602001600020546119159092919063ffffffff16565b6114b1565b600190509392505050565b6107986114a9565b73ffffffffffffffffffffffffffffffffffffffff16600460009054906101000a900473ffffffffffffffffffffffffffffffffffffffff1673ffffffffffffffffffffffffffffffffffffffff1614610827576040517f08c379a000000000000000000000000000000000000000000000000000000000815260040161081e9061273a565b60405180910390fd5b61083081611979565b50565b6000600860009054906101000a900460ff16905090565b60006108f36108576114a9565b846108ee85600660006108686114a9565b73ffffffffffffffffffffffffffffffffffffffff1673ffffffffffffffffffffffffffffffffffffffff16815260200190815260200160002060008973ffffffffffffffffffffffffffffffffffffffff1673ffffffffffffffffffffffffffffffffffffffff16815260200190815260200160002054611aa990919063ffffffff16565b6114b1565b6001905092915050565b6109056114a9565b73ffffffffffffffffffffffffffffffffffffffff16600460009054906101000a900473ffffffffffffffffffffffffffffffffffffffff1673ffffffffffffffffffffffffffffffffffffffff1614610994576040517f08c379a000000000000000000000000000000000000000000000000000000000815260040161098b9061273a565b60405180910390fd5b60018054905086106109db576040517f08c379a00000000000000000000000000000000000000000000000000000000081526004016109d2906125fa565b60405180910390fd5b60008411610a1e576040517f08c379a0000000000000000000000000000000000000000000000000000000008152600401610a15906126da565b60405180910390fd5b60018681548110610a3257610a31612a21565b5b9060005260206000209060040201600001548514610a75578460018781548110610a5f57610a5e612a21565b5b9060005260206000209060040201600001819055505b60018681548110610a8957610a88612a21565b5b9060005260206000209060040201600101548414610acc578360018781548110610ab657610ab5612a21565b5b9060005260206000209060040201600101819055505b60005b83839050811015610b8e578160018881548110610aef57610aee612a21565b5b90600052602060002090600402016002016000868685818110610b1557610b14612a21565b5b9050602002016020810190610b2a9190612087565b73ffffffffffffffffffffffffffffffffffffffff1673ffffffffffffffffffffffffffffffffffffffff16815260200190815260200160002060006101000a81548160ff0219169083151502179055508080610b869061297a565b915050610acf565b50505050505050565b600360009054906101000a900473ffffffffffffffffffffffffffffffffffffffff1681565b610bc56114a9565b73ffffffffffffffffffffffffffffffffffffffff16600460009054906101000a900473ffffffffffffffffffffffffffffffffffffffff1673ffffffffffffffffffffffffffffffffffffffff1614610c54576040517f08c379a0000000000000000000000000000000000000000000000000000000008152600401610c4b9061273a565b60405180910390fd5b818190508484905014610c9c576040517f08c379a0000000000000000000000000000000000000000000000000000000008152600401610c939061271a565b60405180910390fd5b84600360006101000a81548173ffffffffffffffffffffffffffffffffffffffff021916908373ffffffffffffffffffffffffffffffffffffffff1602179055506000848490501115610d825760016000610cf79190611f51565b60005b84849050811015610d80576000600180816001815401808255809150500390600052602060002090600402019050858583818110610d3b57610d3a612a21565b5b905060200201358160000181905550838383818110610d5d57610d5c612a21565b5b905060200201358160010181905550508080610d789061297a565b915050610cfa565b505b5050505050565b6000600560008373ffffffffffffffffffffffffffffffffffffffff1673ffffffffffffffffffffffffffffffffffffffff168152602001908152602001600020549050919050565b610dda6114a9565b73ffffffffffffffffffffffffffffffffffffffff16610df8610f1b565b73ffffffffffffffffffffffffffffffffffffffff1614610e4e576040517f08c379a0000000000000000000000000000000000000000000000000000000008152600401610e459061269a565b60405180910390fd5b600073ffffffffffffffffffffffffffffffffffffffff1660008054906101000a900473ffffffffffffffffffffffffffffffffffffffff1673ffffffffffffffffffffffffffffffffffffffff167f8be0079c531659141344cd1fd0a4f28419497f9722a3daafe3b4186f6b6457e060405160405180910390a360008060006101000a81548173ffffffffffffffffffffffffffffffffffffffff021916908373ffffffffffffffffffffffffffffffffffffffff160217905550565b6000610f16610f1b565b905090565b60008060009054906101000a900473ffffffffffffffffffffffffffffffffffffffff16905090565b606060098054610f5390612948565b80601f0160208091040260200160405190810160405280929190818152602001828054610f7f90612948565b8015610fcc5780601f10610fa157610100808354040283529160200191610fcc565b820191906000526020600020905b815481529060010190602001808311610faf57829003601f168201915b5050505050905090565b610fde6114a9565b73ffffffffffffffffffffffffffffffffffffffff16600460009054906101000a900473ffffffffffffffffffffffffffffffffffffffff1673ffffffffffffffffffffffffffffffffffffffff161461106d576040517f08c379a00000000000000000000000000000000000000000000000000000000081526004016110649061273a565b60405180910390fd5b600073ffffffffffffffffffffffffffffffffffffffff16600460009054906101000a900473ffffffffffffffffffffffffffffffffffffffff1673ffffffffffffffffffffffffffffffffffffffff167f4e78506f3260e366dc9440ee0b4eca2d03aa91536b7605deb90e873d3fc4e5b460405160405180910390a36000600460006101000a81548173ffffffffffffffffffffffffffffffffffffffff021916908373ffffffffffffffffffffffffffffffffffffffff160217905550565b60006111f161113b6114a9565b846111ec85604051806060016040528060248152602001612e0860249139600660006111656114a9565b73ffffffffffffffffffffffffffffffffffffffff1673ffffffffffffffffffffffffffffffffffffffff16815260200190815260200160002060008a73ffffffffffffffffffffffffffffffffffffffff1673ffffffffffffffffffffffffffffffffffffffff168152602001908152602001600020546119159092919063ffffffff16565b6114b1565b6001905092915050565b6001818154811061120b57600080fd5b90600052602060002090600402016000915090508060000154908060010154905082565b600061124361123c6114a9565b848461167c565b6001905092915050565b600460009054906101000a900473ffffffffffffffffffffffffffffffffffffffff1681565b60025481565b6000600660008473ffffffffffffffffffffffffffffffffffffffff1673ffffffffffffffffffffffffffffffffffffffff16815260200190815260200160002060008373ffffffffffffffffffffffffffffffffffffffff1673ffffffffffffffffffffffffffffffffffffffff16815260200190815260200160002054905092915050565b6113086114a9565b73ffffffffffffffffffffffffffffffffffffffff16611326610f1b565b73ffffffffffffffffffffffffffffffffffffffff161461137c576040517f08c379a00000000000000000000000000000000000000000000000000000000081526004016113739061269a565b60405180910390fd5b600073ffffffffffffffffffffffffffffffffffffffff168173ffffffffffffffffffffffffffffffffffffffff1614156113ec576040517f08c379a00000000000000000000000000000000000000000000000000000000081526004016113e3906125ba565b60405180910390fd5b8073ffffffffffffffffffffffffffffffffffffffff1660008054906101000a900473ffffffffffffffffffffffffffffffffffffffff1673ffffffffffffffffffffffffffffffffffffffff167f8be0079c531659141344cd1fd0a4f28419497f9722a3daafe3b4186f6b6457e060405160405180910390a3806000806101000a81548173ffffffffffffffffffffffffffffffffffffffff021916908373ffffffffffffffffffffffffffffffffffffffff16021790555050565b600033905090565b600073ffffffffffffffffffffffffffffffffffffffff168373ffffffffffffffffffffffffffffffffffffffff161415611521576040517f08c379a00000000000000000000000000000000000000000000000000000000081526004016115189061261a565b60405180910390fd5b600073ffffffffffffffffffffffffffffffffffffffff168273ffffffffffffffffffffffffffffffffffffffff161415611591576040517f08c379a00000000000000000000000000000000000000000000000000000000081526004016115889061263a565b60405180910390fd5b80600660008573ffffffffffffffffffffffffffffffffffffffff1673ffffffffffffffffffffffffffffffffffffffff16815260200190815260200160002060008473ffffffffffffffffffffffffffffffffffffffff1673ffffffffffffffffffffffffffffffffffffffff168152602001908152602001600020819055508173ffffffffffffffffffffffffffffffffffffffff168373ffffffffffffffffffffffffffffffffffffffff167f8c5be1e5ebec7d5bd14f71427d1e84f3dd0314c0f7b2291e5b200ac8c7c3b9258360405161166f919061275a565b60405180910390a3505050565b600073ffffffffffffffffffffffffffffffffffffffff168373ffffffffffffffffffffffffffffffffffffffff1614156116ec576040517f08c379a00000000000000000000000000000000000000000000000000000000081526004016116e39061259a565b60405180910390fd5b600073ffffffffffffffffffffffffffffffffffffffff168273ffffffffffffffffffffffffffffffffffffffff16141561175c576040517f08c379a00000000000000000000000000000000000000000000000000000000081526004016117539061265a565b60405180910390fd5b611767838383611b07565b6117d381604051806060016040528060258152602001612e2c60259139600560008773ffffffffffffffffffffffffffffffffffffffff1673ffffffffffffffffffffffffffffffffffffffff168152602001908152602001600020546119159092919063ffffffff16565b600560008573ffffffffffffffffffffffffffffffffffffffff1673ffffffffffffffffffffffffffffffffffffffff1681526020019081526020016000208190555061186881600560008573ffffffffffffffffffffffffffffffffffffffff1673ffffffffffffffffffffffffffffffffffffffff16815260200190815260200160002054611aa990919063ffffffff16565b600560008473ffffffffffffffffffffffffffffffffffffffff1673ffffffffffffffffffffffffffffffffffffffff168152602001908152602001600020819055508173ffffffffffffffffffffffffffffffffffffffff168373ffffffffffffffffffffffffffffffffffffffff167fddf252ad1be2c89b69c2b068fc378daa952ba7f163c4a11628f55a4df523b3ef83604051611908919061275a565b60405180910390a3505050565b600083831115829061195d576040517f08c379a00000000000000000000000000000000000000000000000000000000081526004016119549190612578565b60405180910390fd5b506000838561196c919061288c565b9050809150509392505050565b600073ffffffffffffffffffffffffffffffffffffffff168173ffffffffffffffffffffffffffffffffffffffff1614156119e9576040517f08c379a00000000000000000000000000000000000000000000000000000000081526004016119e0906126fa565b60405180910390fd5b8073ffffffffffffffffffffffffffffffffffffffff16600460009054906101000a900473ffffffffffffffffffffffffffffffffffffffff1673ffffffffffffffffffffffffffffffffffffffff167f4e78506f3260e366dc9440ee0b4eca2d03aa91536b7605deb90e873d3fc4e5b460405160405180910390a380600460006101000a81548173ffffffffffffffffffffffffffffffffffffffff021916908373ffffffffffffffffffffffffffffffffffffffff16021790555050565b6000808284611ab89190612836565b905083811015611afd576040517f08c379a0000000000000000000000000000000000000000000000000000000008152600401611af4906125da565b60405180910390fd5b8091505092915050565b600073ffffffffffffffffffffffffffffffffffffffff16600360009054906101000a900473ffffffffffffffffffffffffffffffffffffffff1673ffffffffffffffffffffffffffffffffffffffff161480611b6957506000600180549050145b15611b7357611f4c565b6000600254148015611bd35750600360009054906101000a900473ffffffffffffffffffffffffffffffffffffffff1673ffffffffffffffffffffffffffffffffffffffff168373ffffffffffffffffffffffffffffffffffffffff1614155b8015611c2c5750600360009054906101000a900473ffffffffffffffffffffffffffffffffffffffff1673ffffffffffffffffffffffffffffffffffffffff168273ffffffffffffffffffffffffffffffffffffffff16145b8015611c385750600081115b15611c4557426002819055505b600360009054906101000a900473ffffffffffffffffffffffffffffffffffffffff1673ffffffffffffffffffffffffffffffffffffffff168373ffffffffffffffffffffffffffffffffffffffff16148015611cf05750600360009054906101000a900473ffffffffffffffffffffffffffffffffffffffff1673ffffffffffffffffffffffffffffffffffffffff168273ffffffffffffffffffffffffffffffffffffffff1614155b15611f4b576000611cff61054d565b505050505090506000811115611f4957600060018083611d1f919061288c565b81548110611d3057611d2f612a21565b5b906000526020600020906004020190508060020160008573ffffffffffffffffffffffffffffffffffffffff1673ffffffffffffffffffffffffffffffffffffffff16815260200190815260200160002060009054906101000a900460ff16611dce576040517f08c379a0000000000000000000000000000000000000000000000000000000008152600401611dc5906126ba565b60405180910390fd5b600081600101548260030160008773ffffffffffffffffffffffffffffffffffffffff1673ffffffffffffffffffffffffffffffffffffffff168152602001908152602001600020541015611e71578160030160008673ffffffffffffffffffffffffffffffffffffffff1673ffffffffffffffffffffffffffffffffffffffff168152602001908152602001600020548260010154611e6e919061288c565b90505b80841115611eb4576040517f08c379a0000000000000000000000000000000000000000000000000000000008152600401611eab9061267a565b60405180910390fd5b838260030160008773ffffffffffffffffffffffffffffffffffffffff1673ffffffffffffffffffffffffffffffffffffffff16815260200190815260200160002054611f019190612836565b8260030160008773ffffffffffffffffffffffffffffffffffffffff1673ffffffffffffffffffffffffffffffffffffffff1681526020019081526020016000208190555050505b505b5b505050565b5080546000825560040290600052602060002090810190611f729190611f75565b50565b5b80821115611f9857600080820160009055600182016000905550600401611f76565b5090565b600081359050611fab81612dc2565b92915050565b60008083601f840112611fc757611fc6612a55565b5b8235905067ffffffffffffffff811115611fe457611fe3612a50565b5b60208301915083602082028301111561200057611fff612a5a565b5b9250929050565b60008083601f84011261201d5761201c612a55565b5b8235905067ffffffffffffffff81111561203a57612039612a50565b5b60208301915083602082028301111561205657612055612a5a565b5b9250929050565b60008135905061206c81612dd9565b92915050565b60008135905061208181612df0565b92915050565b60006020828403121561209d5761209c612a64565b5b60006120ab84828501611f9c565b91505092915050565b600080604083850312156120cb576120ca612a64565b5b60006120d985828601611f9c565b92505060206120ea85828601611f9c565b9150509250929050565b60008060006060848603121561210d5761210c612a64565b5b600061211b86828701611f9c565b935050602061212c86828701611f9c565b925050604061213d86828701612072565b9150509250925092565b60008060008060006060868803121561216357612162612a64565b5b600061217188828901611f9c565b955050602086013567ffffffffffffffff81111561219257612191612a5f565b5b61219e88828901612007565b9450945050604086013567ffffffffffffffff8111156121c1576121c0612a5f565b5b6121cd88828901612007565b92509250509295509295909350565b600080604083850312156121f3576121f2612a64565b5b600061220185828601611f9c565b925050602061221285828601612072565b9150509250929050565b60006020828403121561223257612231612a64565b5b600061224084828501612072565b91505092915050565b60008060008060008060a0878903121561226657612265612a64565b5b600061227489828a01612072565b965050602061228589828a01612072565b955050604061229689828a01612072565b945050606087013567ffffffffffffffff8111156122b7576122b6612a5f565b5b6122c389828a01611fb1565b935093505060806122d689828a0161205d565b9150509295509295509295565b6122ec816128c0565b82525050565b6122fb816128d2565b82525050565b600061230c8261281a565b6123168185612825565b9350612326818560208601612915565b61232f81612a69565b840191505092915050565b6000612347602483612825565b915061235282612a7a565b604082019050919050565b600061236a602683612825565b915061237582612ac9565b604082019050919050565b600061238d601b83612825565b915061239882612b18565b602082019050919050565b60006123b0600d83612825565b91506123bb82612b41565b602082019050919050565b60006123d3602383612825565b91506123de82612b6a565b604082019050919050565b60006123f6602183612825565b915061240182612bb9565b604082019050919050565b6000612419602283612825565b915061242482612c08565b604082019050919050565b600061243c602683612825565b915061244782612c57565b604082019050919050565b600061245f602083612825565b915061246a82612ca6565b602082019050919050565b6000612482601e83612825565b915061248d82612ccf565b602082019050919050565b60006124a5601183612825565b91506124b082612cf8565b602082019050919050565b60006124c8602383612825565b91506124d382612d21565b604082019050919050565b60006124eb601483612825565b91506124f682612d70565b602082019050919050565b600061250e601d83612825565b915061251982612d99565b602082019050919050565b61252d816128fe565b82525050565b61253c81612908565b82525050565b600060208201905061255760008301846122e3565b92915050565b600060208201905061257260008301846122f2565b92915050565b600060208201905081810360008301526125928184612301565b905092915050565b600060208201905081810360008301526125b38161233a565b9050919050565b600060208201905081810360008301526125d38161235d565b9050919050565b600060208201905081810360008301526125f381612380565b9050919050565b60006020820190508181036000830152612613816123a3565b9050919050565b60006020820190508181036000830152612633816123c6565b9050919050565b60006020820190508181036000830152612653816123e9565b9050919050565b600060208201905081810360008301526126738161240c565b9050919050565b600060208201905081810360008301526126938161242f565b9050919050565b600060208201905081810360008301526126b381612452565b9050919050565b600060208201905081810360008301526126d381612475565b9050919050565b600060208201905081810360008301526126f381612498565b9050919050565b60006020820190508181036000830152612713816124bb565b9050919050565b60006020820190508181036000830152612733816124de565b9050919050565b6000602082019050818103600083015261275381612501565b9050919050565b600060208201905061276f6000830184612524565b92915050565b600060408201905061278a6000830185612524565b6127976020830184612524565b9392505050565b600060c0820190506127b36000830189612524565b6127c06020830188612524565b6127cd6040830187612524565b6127da6060830186612524565b6127e760808301856122f2565b6127f460a0830184612524565b979650505050505050565b60006020820190506128146000830184612533565b92915050565b600081519050919050565b600082825260208201905092915050565b6000612841826128fe565b915061284c836128fe565b9250827fffffffffffffffffffffffffffffffffffffffffffffffffffffffffffffffff03821115612881576128806129c3565b5b828201905092915050565b6000612897826128fe565b91506128a2836128fe565b9250828210156128b5576128b46129c3565b5b828203905092915050565b60006128cb826128de565b9050919050565b60008115159050919050565b600073ffffffffffffffffffffffffffffffffffffffff82169050919050565b6000819050919050565b600060ff82169050919050565b60005b83811015612933578082015181840152602081019050612918565b83811115612942576000848401525b50505050565b6000600282049050600182168061296057607f821691505b60208210811415612974576129736129f2565b5b50919050565b6000612985826128fe565b91507fffffffffffffffffffffffffffffffffffffffffffffffffffffffffffffffff8214156129b8576129b76129c3565b5b600182019050919050565b7f4e487b7100000000000000000000000000000000000000000000000000000000600052601160045260246000fd5b7f4e487b7100000000000000000000000000000000000000000000000000000000600052602260045260246000fd5b7f4e487b7100000000000000000000000000000000000000000000000000000000600052603260045260246000fd5b600080fd5b600080fd5b600080fd5b600080fd5b600080fd5b6000601f19601f8301169050919050565b7f435350443a207472616e736665722066726f6d20746865207a65726f2061646460008201527f7265737300000000000000000000000000000000000000000000000000000000602082015250565b7f4f776e61626c653a206e6577206f776e657220697320746865207a65726f206160008201527f6464726573730000000000000000000000000000000000000000000000000000602082015250565b7f536166654d6174683a206164646974696f6e206f766572666c6f770000000000600082015250565b7f496e76616c696420696e64657800000000000000000000000000000000000000600082015250565b7f435350443a20617070726f76652066726f6d20746865207a65726f206164647260008201527f6573730000000000000000000000000000000000000000000000000000000000602082015250565b7f435350443a20617070726f766520746f20746865207a65726f2061646472657360008201527f7300000000000000000000000000000000000000000000000000000000000000602082015250565b7f435350443a207472616e7366657220746f20746865207a65726f20616464726560008201527f7373000000000000000000000000000000000000000000000000000000000000602082015250565b7f4c4745202d20416d6f756e7420657863656564732077686974656c697374206d60008201527f6178696d756d0000000000000000000000000000000000000000000000000000602082015250565b7f4f776e61626c653a2063616c6c6572206973206e6f7420746865206f776e6572600082015250565b7f4c4745202d204275796572206973206e6f742077686974656c69737465640000600082015250565b7f496e76616c696420616d6f756e744d6178000000000000000000000000000000600082015250565b7f4e65772077686974656c697374657220697320746865207a65726f206164647260008201527f6573730000000000000000000000000000000000000000000000000000000000602082015250565b7f496e76616c69642077686974656c697374287329000000000000000000000000600082015250565b7f43616c6c6572206973206e6f74207468652077686974656c6973746572000000600082015250565b612dcb816128c0565b8114612dd657600080fd5b50565b612de2816128d2565b8114612ded57600080fd5b50565b612df9816128fe565b8114612e0457600080fd5b5056fe435350443a2064656372656173656420616c6c6f77616e63652062656c6f77207a65726f435350443a207472616e7366657220616d6f756e7420657863656564732062616c616e6365435350443a207472616e7366657220616d6f756e74206578636565647320616c6c6f77616e6365a264697066735822122019238445aae57424772d22e22d81dd5c2ba47dedb3581257985c8e098635882d64736f6c63430008070033",
  "immutableReferences": {},
  "source": "/**\r\n *Submitted for verification at BscScan.com on 2021-10-26\r\n*/\r\n\r\n/**\r\n *Submitted for verification at BscScan.com on 2021-10-26\r\n * Verified by Ghost Ivy Team on 2021-10-26\r\n*/\r\n\r\n//SPDX-License-Identifier: Unlicense\r\n\r\npragma solidity 0.8.7;\r\n\r\ninterface IBEP20 {\r\n  /**\r\n   * @dev Returns the amount of tokens in existence.\r\n   */\r\n  function totalSupply() external view returns (uint256);\r\n\r\n  /**\r\n   * @dev Returns the token decimals.\r\n   */\r\n  function decimals() external view returns (uint8);\r\n\r\n  /**\r\n   * @dev Returns the token symbol.\r\n   */\r\n  function symbol() external view returns (string memory);\r\n\r\n  /**\r\n  * @dev Returns the token name.\r\n  */\r\n  function name() external view returns (string memory);\r\n\r\n  /**\r\n   * @dev Returns the bep token owner.\r\n   */\r\n  function getOwner() external view returns (address);\r\n\r\n  /**\r\n   * @dev Returns the amount of tokens owned by `account`.\r\n   */\r\n  function balanceOf(address account) external view returns (uint256);\r\n\r\n  /**\r\n   * @dev Moves `amount` tokens from the caller's account to `recipient`.\r\n   *\r\n   * Returns a boolean value indicating whether the operation succeeded.\r\n   *\r\n   * Emits a {Transfer} event.\r\n   */\r\n  function transfer(address recipient, uint256 amount) external returns (bool);\r\n\r\n  /**\r\n   * @dev Returns the remaining number of tokens that `spender` will be\r\n   * allowed to spend on behalf of `owner` through {transferFrom}. This is\r\n   * zero by default.\r\n   *\r\n   * This value changes when {approve} or {transferFrom} are called.\r\n   */\r\n  function allowance(address _owner, address spender) external view returns (uint256);\r\n\r\n  /**\r\n   * @dev Sets `amount` as the allowance of `spender` over the caller's tokens.\r\n   *\r\n   * Returns a boolean value indicating whether the operation succeeded.\r\n   *\r\n   * IMPORTANT: Beware that changing an allowance with this method brings the risk\r\n   * that someone may use both the old and the new allowance by unfortunate\r\n   * transaction ordering. One possible solution to mitigate this race\r\n   * condition is to first reduce the spender's allowance to 0 and set the\r\n   * desired value afterwards:\r\n   * https://github.com/ethereum/EIPs/issues/20#issuecomment-263524729\r\n   *\r\n   * Emits an {Approval} event.\r\n   */\r\n  function approve(address spender, uint256 amount) external returns (bool);\r\n\r\n  /**\r\n   * @dev Moves `amount` tokens from `sender` to `recipient` using the\r\n   * allowance mechanism. `amount` is then deducted from the caller's\r\n   * allowance.\r\n   *\r\n   * Returns a boolean value indicating whether the operation succeeded.\r\n   *\r\n   * Emits a {Transfer} event.\r\n   */\r\n  function transferFrom(address sender, address recipient, uint256 amount) external returns (bool);\r\n\r\n  /**\r\n   * @dev Emitted when `value` tokens are moved from one account (`from`) to\r\n   * another (`to`).\r\n   *\r\n   * Note that `value` may be zero.\r\n   */\r\n  event Transfer(address indexed from, address indexed to, uint256 value);\r\n\r\n  /**\r\n   * @dev Emitted when the allowance of a `spender` for an `owner` is set by\r\n   * a call to {approve}. `value` is the new allowance.\r\n   */\r\n  event Approval(address indexed owner, address indexed spender, uint256 value);\r\n}\r\n\r\n/*\r\n * @dev Provides information about the current execution context, including the\r\n * sender of the transaction and its data. While these are generally available\r\n * via msg.sender and msg.data, they should not be accessed in such a direct\r\n * manner, since when dealing with meta-transactions the account sending and\r\n * paying for execution may not be the actual sender (as far as an application\r\n * is concerned).\r\n *\r\n * This contract is only required for intermediate, library-like contracts.\r\n */\r\nabstract contract Context {\r\n    function _msgSender() internal view virtual returns (address) {\r\n        return msg.sender;\r\n    }\r\n\r\n    function _msgData() internal view virtual returns (bytes calldata) {\r\n        this; // silence state mutability warning without generating bytecode - see https://github.com/ethereum/solidity/issues/2691\r\n        return msg.data;\r\n    }\r\n}\r\n\r\n// File: @openzeppelin/contracts/access/Ownable.sol\r\n\r\n/**\r\n * @dev Contract module which provides a basic access control mechanism, where\r\n * there is an account (an owner) that can be granted exclusive access to\r\n * specific functions.\r\n *\r\n * By default, the owner account will be the one that deploys the contract. This\r\n * can later be changed with {transferOwnership}.\r\n *\r\n * This module is used through inheritance. It will make available the modifier\r\n * `onlyOwner`, which can be applied to your functions to restrict their use to\r\n * the owner.\r\n */\r\nabstract contract Ownable is Context {\r\n    address private _owner;\r\n\r\n    event OwnershipTransferred(address indexed previousOwner, address indexed newOwner);\r\n\r\n    /**\r\n     * @dev Initializes the contract setting the deployer as the initial owner.\r\n     */\r\n    constructor () {\r\n        address msgSender = _msgSender();\r\n        _owner = msgSender;\r\n        emit OwnershipTransferred(address(0), msgSender);\r\n    }\r\n\r\n    /**\r\n     * @dev Returns the address of the current owner.\r\n     */\r\n    function owner() public view virtual returns (address) {\r\n        return _owner;\r\n    }\r\n\r\n    /**\r\n     * @dev Throws if called by any account other than the owner.\r\n     */\r\n    modifier onlyOwner() {\r\n        require(owner() == _msgSender(), \"Ownable: caller is not the owner\");\r\n        _;\r\n    }\r\n\r\n    /**\r\n     * @dev Leaves the contract without owner. It will not be possible to call\r\n     * `onlyOwner` functions anymore. Can only be called by the current owner.\r\n     *\r\n     * NOTE: Renouncing ownership will leave the contract without an owner,\r\n     * thereby removing any functionality that is only available to the owner.\r\n     */\r\n    function renounceOwnership() public virtual onlyOwner {\r\n        emit OwnershipTransferred(_owner, address(0));\r\n        _owner = address(0);\r\n    }\r\n\r\n    /**\r\n     * @dev Transfers ownership of the contract to a new account (`newOwner`).\r\n     * Can only be called by the current owner.\r\n     */\r\n    function transferOwnership(address newOwner) public virtual onlyOwner {\r\n        require(newOwner != address(0), \"Ownable: new owner is the zero address\");\r\n        emit OwnershipTransferred(_owner, newOwner);\r\n        _owner = newOwner;\r\n    }\r\n}\r\n\r\n/**\r\n * @dev Wrappers over Solidity's arithmetic operations with added overflow\r\n * checks.\r\n *\r\n * Arithmetic operations in Solidity wrap on overflow. This can easily result\r\n * in bugs, because programmers usually assume that an overflow raises an\r\n * error, which is the standard behavior in high level programming languages.\r\n * `SafeMath` restores this intuition by reverting the transaction when an\r\n * operation overflows.\r\n *\r\n * Using this library instead of the unchecked operations eliminates an entire\r\n * class of bugs, so it's recommended to use it always.\r\n */\r\nlibrary SafeMath {\r\n  /**\r\n   * @dev Returns the addition of two unsigned integers, reverting on\r\n   * overflow.\r\n   *\r\n   * Counterpart to Solidity's `+` operator.\r\n   *\r\n   * Requirements:\r\n   * - Addition cannot overflow.\r\n   */\r\n  function add(uint256 a, uint256 b) internal pure returns (uint256) {\r\n    uint256 c = a + b;\r\n    require(c >= a, \"SafeMath: addition overflow\");\r\n\r\n    return c;\r\n  }\r\n\r\n  /**\r\n   * @dev Returns the subtraction of two unsigned integers, reverting on\r\n   * overflow (when the result is negative).\r\n   *\r\n   * Counterpart to Solidity's `-` operator.\r\n   *\r\n   * Requirements:\r\n   * - Subtraction cannot overflow.\r\n   */\r\n  function sub(uint256 a, uint256 b) internal pure returns (uint256) {\r\n    return sub(a, b, \"SafeMath: subtraction overflow\");\r\n  }\r\n\r\n  /**\r\n   * @dev Returns the subtraction of two unsigned integers, reverting with custom message on\r\n   * overflow (when the result is negative).\r\n   *\r\n   * Counterpart to Solidity's `-` operator.\r\n   *\r\n   * Requirements:\r\n   * - Subtraction cannot overflow.\r\n   */\r\n  function sub(uint256 a, uint256 b, string memory errorMessage) internal pure returns (uint256) {\r\n    require(b <= a, errorMessage);\r\n    uint256 c = a - b;\r\n\r\n    return c;\r\n  }\r\n\r\n  /**\r\n   * @dev Returns the multiplication of two unsigned integers, reverting on\r\n   * overflow.\r\n   *\r\n   * Counterpart to Solidity's `*` operator.\r\n   *\r\n   * Requirements:\r\n   * - Multiplication cannot overflow.\r\n   */\r\n  function mul(uint256 a, uint256 b) internal pure returns (uint256) {\r\n    // Gas optimization: this is cheaper than requiring 'a' not being zero, but the\r\n    // benefit is lost if 'b' is also tested.\r\n    // See: https://github.com/OpenZeppelin/openzeppelin-contracts/pull/522\r\n    if (a == 0) {\r\n      return 0;\r\n    }\r\n\r\n    uint256 c = a * b;\r\n    require(c / a == b, \"SafeMath: multiplication overflow\");\r\n\r\n    return c;\r\n  }\r\n\r\n  /**\r\n   * @dev Returns the integer division of two unsigned integers. Reverts on\r\n   * division by zero. The result is rounded towards zero.\r\n   *\r\n   * Counterpart to Solidity's `/` operator. Note: this function uses a\r\n   * `revert` opcode (which leaves remaining gas untouched) while Solidity\r\n   * uses an invalid opcode to revert (consuming all remaining gas).\r\n   *\r\n   * Requirements:\r\n   * - The divisor cannot be zero.\r\n   */\r\n  function div(uint256 a, uint256 b) internal pure returns (uint256) {\r\n    return div(a, b, \"SafeMath: division by zero\");\r\n  }\r\n\r\n  /**\r\n   * @dev Returns the integer division of two unsigned integers. Reverts with custom message on\r\n   * division by zero. The result is rounded towards zero.\r\n   *\r\n   * Counterpart to Solidity's `/` operator. Note: this function uses a\r\n   * `revert` opcode (which leaves remaining gas untouched) while Solidity\r\n   * uses an invalid opcode to revert (consuming all remaining gas).\r\n   *\r\n   * Requirements:\r\n   * - The divisor cannot be zero.\r\n   */\r\n  function div(uint256 a, uint256 b, string memory errorMessage) internal pure returns (uint256) {\r\n    // Solidity only automatically asserts when dividing by 0\r\n    require(b > 0, errorMessage);\r\n    uint256 c = a / b;\r\n    // assert(a == b * c + a % b); // There is no case in which this doesn't hold\r\n\r\n    return c;\r\n  }\r\n\r\n  /**\r\n   * @dev Returns the remainder of dividing two unsigned integers. (unsigned integer modulo),\r\n   * Reverts when dividing by zero.\r\n   *\r\n   * Counterpart to Solidity's `%` operator. This function uses a `revert`\r\n   * opcode (which leaves remaining gas untouched) while Solidity uses an\r\n   * invalid opcode to revert (consuming all remaining gas).\r\n   *\r\n   * Requirements:\r\n   * - The divisor cannot be zero.\r\n   */\r\n  function mod(uint256 a, uint256 b) internal pure returns (uint256) {\r\n    return mod(a, b, \"SafeMath: modulo by zero\");\r\n  }\r\n\r\n  /**\r\n   * @dev Returns the remainder of dividing two unsigned integers. (unsigned integer modulo),\r\n   * Reverts with custom message when dividing by zero.\r\n   *\r\n   * Counterpart to Solidity's `%` operator. This function uses a `revert`\r\n   * opcode (which leaves remaining gas untouched) while Solidity uses an\r\n   * invalid opcode to revert (consuming all remaining gas).\r\n   *\r\n   * Requirements:\r\n   * - The divisor cannot be zero.\r\n   */\r\n  function mod(uint256 a, uint256 b, string memory errorMessage) internal pure returns (uint256) {\r\n    require(b != 0, errorMessage);\r\n    return a % b;\r\n  }\r\n}\r\n\r\n\r\ncontract LGEWhitelisted is Context {\r\n    struct WhitelistRound {\r\n        uint256 duration;\r\n        uint256 amountMax;\r\n        mapping(address => bool) addresses;\r\n        mapping(address => uint256) purchased;\r\n    }\r\n\r\n    WhitelistRound[] public _lgeWhitelistRounds;\r\n\r\n    uint256 public _lgeTimestamp;\r\n    address public _lgePairAddress;\r\n\r\n    address public _whitelister;\r\n\r\n    event WhitelisterTransferred(address indexed previousWhitelister, address indexed newWhitelister);\r\n\r\n    constructor() {\r\n        _whitelister = _msgSender();\r\n    }\r\n\r\n    modifier onlyWhitelister() {\r\n        require(_whitelister == _msgSender(), \"Caller is not the whitelister\");\r\n        _;\r\n    }\r\n\r\n    function renounceWhitelister() external onlyWhitelister {\r\n        emit WhitelisterTransferred(_whitelister, address(0));\r\n        _whitelister = address(0);\r\n    }\r\n\r\n    function transferWhitelister(address newWhitelister) external onlyWhitelister {\r\n        _transferWhitelister(newWhitelister);\r\n    }\r\n\r\n    function _transferWhitelister(address newWhitelister) internal {\r\n        require(newWhitelister != address(0), \"New whitelister is the zero address\");\r\n        emit WhitelisterTransferred(_whitelister, newWhitelister);\r\n        _whitelister = newWhitelister;\r\n    }\r\n\r\n    /*\r\n     * createLGEWhitelist - Call this after initial Token Generation Event (TGE)\r\n     *\r\n     * pairAddress - address generated from createPair() event on DEX\r\n     * durations - array of durations (seconds) for each whitelist rounds\r\n     * amountsMax - array of max amounts (TOKEN decimals) for each whitelist round\r\n     *\r\n     */\r\n\r\n    function createLGEWhitelist(\r\n        address pairAddress,\r\n        uint256[] calldata durations,\r\n        uint256[] calldata amountsMax\r\n    ) external onlyWhitelister() {\r\n        require(durations.length == amountsMax.length, \"Invalid whitelist(s)\");\r\n\r\n        _lgePairAddress = pairAddress;\r\n\r\n        if (durations.length > 0) {\r\n            delete _lgeWhitelistRounds;\r\n\r\n            for (uint256 i = 0; i < durations.length; i++) {\r\n                WhitelistRound storage whitelistRound = _lgeWhitelistRounds.push();\r\n                whitelistRound.duration = durations[i];\r\n                whitelistRound.amountMax = amountsMax[i];\r\n            }\r\n        }\r\n    }\r\n\r\n    /*\r\n     * modifyLGEWhitelistAddresses - Define what addresses are included/excluded from a whitelist round\r\n     *\r\n     * index - 0-based index of round to modify whitelist\r\n     * duration - period in seconds from LGE event or previous whitelist round\r\n     * amountMax - max amount (TOKEN decimals) for each whitelist round\r\n     *\r\n     */\r\n\r\n    function modifyLGEWhitelist(\r\n        uint256 index,\r\n        uint256 duration,\r\n        uint256 amountMax,\r\n        address[] calldata addresses,\r\n        bool enabled\r\n    ) external onlyWhitelister() {\r\n        require(index < _lgeWhitelistRounds.length, \"Invalid index\");\r\n        require(amountMax > 0, \"Invalid amountMax\");\r\n\r\n        if (duration != _lgeWhitelistRounds[index].duration) _lgeWhitelistRounds[index].duration = duration;\r\n\r\n        if (amountMax != _lgeWhitelistRounds[index].amountMax) _lgeWhitelistRounds[index].amountMax = amountMax;\r\n\r\n        for (uint256 i = 0; i < addresses.length; i++) {\r\n            _lgeWhitelistRounds[index].addresses[addresses[i]] = enabled;\r\n        }\r\n    }\r\n\r\n    /*\r\n     *  getLGEWhitelistRound\r\n     *\r\n     *  returns:\r\n     *\r\n     *  1. whitelist round number ( 0 = no active round now )\r\n     *  2. duration, in seconds, current whitelist round is active for\r\n     *  3. timestamp current whitelist round closes at\r\n     *  4. maximum amount a whitelister can purchase in this round\r\n     *  5. is caller whitelisted\r\n     *  6. how much caller has purchased in current whitelist round\r\n     *\r\n     */\r\n\r\n    function getLGEWhitelistRound()\r\n        public\r\n        view\r\n        returns (\r\n            uint256,\r\n            uint256,\r\n            uint256,\r\n            uint256,\r\n            bool,\r\n            uint256\r\n        )\r\n    {\r\n        if (_lgeTimestamp > 0) {\r\n            uint256 wlCloseTimestampLast = _lgeTimestamp;\r\n\r\n            for (uint256 i = 0; i < _lgeWhitelistRounds.length; i++) {\r\n                WhitelistRound storage wlRound = _lgeWhitelistRounds[i];\r\n\r\n                wlCloseTimestampLast = wlCloseTimestampLast + wlRound.duration;\r\n                if (block.timestamp <= wlCloseTimestampLast)\r\n                    return (\r\n                        i + 1,\r\n                        wlRound.duration,\r\n                        wlCloseTimestampLast,\r\n                        wlRound.amountMax,\r\n                        wlRound.addresses[_msgSender()],\r\n                        wlRound.purchased[_msgSender()]\r\n                    );\r\n            }\r\n        }\r\n\r\n        return (0, 0, 0, 0, false, 0);\r\n    }\r\n\r\n    /*\r\n     * _applyLGEWhitelist - internal function to be called initially before any transfers\r\n     *\r\n     */\r\n\r\n    function _applyLGEWhitelist(\r\n        address sender,\r\n        address recipient,\r\n        uint256 amount\r\n    ) internal {\r\n        if (_lgePairAddress == address(0) || _lgeWhitelistRounds.length == 0) return;\r\n\r\n        if (_lgeTimestamp == 0 && sender != _lgePairAddress && recipient == _lgePairAddress && amount > 0)\r\n            _lgeTimestamp = block.timestamp;\r\n\r\n        if (sender == _lgePairAddress && recipient != _lgePairAddress) {\r\n            //buying\r\n\r\n            (uint256 wlRoundNumber, , , , , ) = getLGEWhitelistRound();\r\n\r\n            if (wlRoundNumber > 0) {\r\n                WhitelistRound storage wlRound = _lgeWhitelistRounds[wlRoundNumber - 1];\r\n\r\n                require(wlRound.addresses[recipient], \"LGE - Buyer is not whitelisted\");\r\n\r\n                uint256 amountRemaining = 0;\r\n\r\n                if (wlRound.purchased[recipient] < wlRound.amountMax)\r\n                    amountRemaining = wlRound.amountMax - wlRound.purchased[recipient];\r\n\r\n                require(amount <= amountRemaining, \"LGE - Amount exceeds whitelist maximum\");\r\n                wlRound.purchased[recipient] = wlRound.purchased[recipient] + amount;\r\n            }\r\n        }\r\n    }\r\n}\r\n\r\ncontract CSPDTokenWhitelisted is Context, IBEP20, Ownable, LGEWhitelisted {\r\n    \r\n    using SafeMath for uint256;\r\n    \r\n    mapping (address => uint256) private _balances;\r\n    \r\n    mapping (address => mapping (address => uint256)) private _allowances;\r\n    \r\n    uint256 private _totalSupply;\r\n    uint8 private _decimals;\r\n    string private _symbol;\r\n    string private _name;\r\n    \r\n    constructor() {\r\n        _name = \"CSPD\";\r\n        _symbol = \"CSPD\";\r\n        _decimals = 18;\r\n        _totalSupply = 500000000 * 10 ** 18;\r\n        _balances[_msgSender()] = _totalSupply;\r\n\r\n        emit Transfer(address(0), _msgSender(), _totalSupply);\r\n    }\r\n\r\n    /**\r\n    * @dev Returns the bep token owner.\r\n    */\r\n    function getOwner() external view override returns (address) {\r\n        return owner();\r\n    }\r\n    \r\n    /**\r\n    * @dev Returns the token decimals.\r\n    */\r\n    function decimals() external view override returns (uint8) {\r\n        return _decimals;\r\n    }\r\n    \r\n    /**\r\n    * @dev Returns the token symbol.\r\n    */\r\n    function symbol() external view override returns (string memory) {\r\n        return _symbol;\r\n    }\r\n    \r\n    /**\r\n    * @dev Returns the token name.\r\n    */\r\n    function name() external view override returns (string memory) {\r\n        return _name;\r\n    }\r\n    \r\n    /**\r\n    * @dev See {CSPD-totalSupply}.\r\n    */\r\n    function totalSupply() external view override returns (uint256) {\r\n        return _totalSupply;\r\n    }\r\n    \r\n    /**\r\n    * @dev See {CSPD-balanceOf}.\r\n    */\r\n    function balanceOf(address account) external view override returns (uint256) {\r\n        return _balances[account];\r\n    }\r\n    \r\n    /**\r\n    * @dev See {CSPD-transfer}.\r\n    *\r\n    * Requirements:\r\n    *\r\n    * - `recipient` cannot be the zero address.\r\n    * - the caller must have a balance of at least `amount`.\r\n    */\r\n    function transfer(address recipient, uint256 amount) external override returns (bool) {\r\n        _transfer(_msgSender(), recipient, amount);\r\n        return true;\r\n    }\r\n    \r\n    /**\r\n    * @dev See {CSPD-allowance}.\r\n    */\r\n    function allowance(address owner, address spender) external view override returns (uint256) {\r\n        return _allowances[owner][spender];\r\n    }\r\n    \r\n    /**\r\n    * @dev See {CSPD-approve}.\r\n    *\r\n    * Requirements:\r\n    *\r\n    * - `spender` cannot be the zero address.\r\n    */\r\n    function approve(address spender, uint256 amount) external override returns (bool) {\r\n        _approve(_msgSender(), spender, amount);\r\n        return true;\r\n    }\r\n    \r\n    /**\r\n    * @dev See {CSPD-transferFrom}.\r\n    *\r\n    * Emits an {Approval} event indicating the updated allowance. This is not\r\n    * required by the EIP. See the note at the beginning of {CSPD};\r\n    *\r\n    * Requirements:\r\n    * - `sender` and `recipient` cannot be the zero address.\r\n    * - `sender` must have a balance of at least `amount`.\r\n    * - the caller must have allowance for `sender`'s tokens of at least\r\n    * `amount`.\r\n    */\r\n    function transferFrom(address sender, address recipient, uint256 amount) external override returns (bool) {\r\n        _transfer(sender, recipient, amount);\r\n        _approve(sender, _msgSender(), _allowances[sender][_msgSender()].sub(amount, \"CSPD: transfer amount exceeds allowance\"));\r\n        return true;\r\n    }\r\n    \r\n    /**\r\n    * @dev Atomically increases the allowance granted to `spender` by the caller.\r\n    *\r\n    * This is an alternative to {approve} that can be used as a mitigation for\r\n    * problems described in {CSPD-approve}.\r\n    *\r\n    * Emits an {Approval} event indicating the updated allowance.\r\n    *\r\n    * Requirements:\r\n    *\r\n    * - `spender` cannot be the zero address.\r\n    */\r\n    function increaseAllowance(address spender, uint256 addedValue) external returns (bool) {\r\n        _approve(_msgSender(), spender, _allowances[_msgSender()][spender].add(addedValue));\r\n        return true;\r\n    }\r\n    \r\n    /**\r\n    * @dev Atomically decreases the allowance granted to `spender` by the caller.\r\n    *\r\n    * This is an alternative to {approve} that can be used as a mitigation for\r\n    * problems described in {CSPD-approve}.\r\n    *\r\n    * Emits an {Approval} event indicating the updated allowance.\r\n    *\r\n    * Requirements:\r\n    *\r\n    * - `spender` cannot be the zero address.\r\n    * - `spender` must have allowance for the caller of at least\r\n    * `subtractedValue`.\r\n    */\r\n    function decreaseAllowance(address spender, uint256 subtractedValue) external returns (bool) {\r\n        _approve(_msgSender(), spender, _allowances[_msgSender()][spender].sub(subtractedValue, \"CSPD: decreased allowance below zero\"));\r\n        return true;\r\n    }\r\n    \r\n    /**\r\n    * @dev Moves tokens `amount` from `sender` to `recipient`.\r\n    *\r\n    * This is internal function is equivalent to {transfer}, and can be used to\r\n    * e.g. implement automatic token fees, slashing mechanisms, etc.\r\n    *\r\n    * Emits a {Transfer} event.\r\n    *\r\n    * Requirements:\r\n    *\r\n    * - `sender` cannot be the zero address.\r\n    * - `recipient` cannot be the zero address.\r\n    * - `sender` must have a balance of at least `amount`.\r\n    */\r\n    function _transfer(address sender, address recipient, uint256 amount) internal {\r\n        require(sender != address(0), \"CSPD: transfer from the zero address\");\r\n        require(recipient != address(0), \"CSPD: transfer to the zero address\");\r\n        \r\n        _applyLGEWhitelist(sender, recipient, amount);\r\n        \r\n        _balances[sender] = _balances[sender].sub(amount, \"CSPD: transfer amount exceeds balance\");\r\n        _balances[recipient] = _balances[recipient].add(amount);\r\n        emit Transfer(sender, recipient, amount);\r\n    }\r\n    \r\n    /**\r\n    * @dev Sets `amount` as the allowance of `spender` over the `owner`s tokens.\r\n    *\r\n    * This is internal function is equivalent to `approve`, and can be used to\r\n    * e.g. set automatic allowances for certain subsystems, etc.\r\n    *\r\n    * Emits an {Approval} event.\r\n    *\r\n    * Requirements:\r\n    *\r\n    * - `owner` cannot be the zero address.\r\n    * - `spender` cannot be the zero address.\r\n    */\r\n    function _approve(address owner, address spender, uint256 amount) internal {\r\n        require(owner != address(0), \"CSPD: approve from the zero address\");\r\n        require(spender != address(0), \"CSPD: approve to the zero address\");\r\n        \r\n        _allowances[owner][spender] = amount;\r\n        emit Approval(owner, spender, amount);\r\n    }\r\n    \r\n}",
  "sourcePath": "D:\\Work Space\\CasperPad\\CasperPadToken_Contract\\contracts\\CasperPad.sol",
  "compiler": {
    "name": "solc",
    "version": "0.8.7+commit.e28d00a7.Emscripten.clang"
  },
  "schemaVersion": "3.4.3",
  "updatedAt": "2021-11-27T12:50:13.189Z",
  "devdoc": {
    "kind": "dev",
    "methods": {
      "allowance(address,address)": {
        "details": "See {CSPD-allowance}."
      },
      "approve(address,uint256)": {
        "details": "See {CSPD-approve}. Requirements: - `spender` cannot be the zero address."
      },
      "balanceOf(address)": {
        "details": "See {CSPD-balanceOf}."
      },
      "decimals()": {
        "details": "Returns the token decimals."
      },
      "decreaseAllowance(address,uint256)": {
        "details": "Atomically decreases the allowance granted to `spender` by the caller. This is an alternative to {approve} that can be used as a mitigation for problems described in {CSPD-approve}. Emits an {Approval} event indicating the updated allowance. Requirements: - `spender` cannot be the zero address. - `spender` must have allowance for the caller of at least `subtractedValue`."
      },
      "getOwner()": {
        "details": "Returns the bep token owner."
      },
      "increaseAllowance(address,uint256)": {
        "details": "Atomically increases the allowance granted to `spender` by the caller. This is an alternative to {approve} that can be used as a mitigation for problems described in {CSPD-approve}. Emits an {Approval} event indicating the updated allowance. Requirements: - `spender` cannot be the zero address."
      },
      "name()": {
        "details": "Returns the token name."
      },
      "owner()": {
        "details": "Returns the address of the current owner."
      },
      "renounceOwnership()": {
        "details": "Leaves the contract without owner. It will not be possible to call `onlyOwner` functions anymore. Can only be called by the current owner. NOTE: Renouncing ownership will leave the contract without an owner, thereby removing any functionality that is only available to the owner."
      },
      "symbol()": {
        "details": "Returns the token symbol."
      },
      "totalSupply()": {
        "details": "See {CSPD-totalSupply}."
      },
      "transfer(address,uint256)": {
        "details": "See {CSPD-transfer}. Requirements: - `recipient` cannot be the zero address. - the caller must have a balance of at least `amount`."
      },
      "transferFrom(address,address,uint256)": {
        "details": "See {CSPD-transferFrom}. Emits an {Approval} event indicating the updated allowance. This is not required by the EIP. See the note at the beginning of {CSPD}; Requirements: - `sender` and `recipient` cannot be the zero address. - `sender` must have a balance of at least `amount`. - the caller must have allowance for `sender`'s tokens of at least `amount`."
      },
      "transferOwnership(address)": {
        "details": "Transfers ownership of the contract to a new account (`newOwner`). Can only be called by the current owner."
      }
    },
    "version": 1
  },
  "userdoc": {
    "kind": "user",
    "methods": {},
    "version": 1
  }
}