{
  "contractName": "CWEVesting",
  "abi": [
    {
      "inputs": [
        {
          "internalType": "uint256",
          "name": "_start",
          "type": "uint256"
        },
        {
          "internalType": "uint256",
          "name": "_end",
          "type": "uint256"
        },
        {
          "internalType": "uint256",
          "name": "_unlockPercentsOnStart",
          "type": "uint256"
        },
        {
          "internalType": "contract IERC20",
          "name": "_token",
          "type": "address"
        }
      ],
      "stateMutability": "nonpayable",
      "type": "constructor"
    },
    {
      "anonymous": false,
      "inputs": [
        {
          "indexed": true,
          "internalType": "address",
          "name": "investor",
          "type": "address"
        },
        {
          "indexed": false,
          "internalType": "uint256",
          "name": "amount",
          "type": "uint256"
        },
        {
          "indexed": false,
          "internalType": "uint256",
          "name": "left",
          "type": "uint256"
        }
      ],
      "name": "Claimed",
      "type": "event"
    },
    {
      "anonymous": false,
      "inputs": [
        {
          "indexed": true,
          "internalType": "address",
          "name": "investor",
          "type": "address"
        },
        {
          "indexed": false,
          "internalType": "uint256",
          "name": "amount",
          "type": "uint256"
        }
      ],
      "name": "NewVesting",
      "type": "event"
    },
    {
      "anonymous": false,
      "inputs": [
        {
          "indexed": true,
          "internalType": "address",
          "name": "previousOwner",
          "type": "address"
        },
        {
          "indexed": true,
          "internalType": "address",
          "name": "newOwner",
          "type": "address"
        }
      ],
      "name": "OwnershipTransferred",
      "type": "event"
    },
    {
      "inputs": [
        {
          "internalType": "address",
          "name": "",
          "type": "address"
        }
      ],
      "name": "claimedAmount",
      "outputs": [
        {
          "internalType": "uint256",
          "name": "",
          "type": "uint256"
        }
      ],
      "stateMutability": "view",
      "type": "function"
    },
    {
      "inputs": [],
      "name": "duration",
      "outputs": [
        {
          "internalType": "uint256",
          "name": "",
          "type": "uint256"
        }
      ],
      "stateMutability": "view",
      "type": "function"
    },
    {
      "inputs": [],
      "name": "end",
      "outputs": [
        {
          "internalType": "uint256",
          "name": "",
          "type": "uint256"
        }
      ],
      "stateMutability": "view",
      "type": "function"
    },
    {
      "inputs": [],
      "name": "owner",
      "outputs": [
        {
          "internalType": "address",
          "name": "",
          "type": "address"
        }
      ],
      "stateMutability": "view",
      "type": "function"
    },
    {
      "inputs": [],
      "name": "renounceOwnership",
      "outputs": [],
      "stateMutability": "nonpayable",
      "type": "function"
    },
    {
      "inputs": [],
      "name": "start",
      "outputs": [
        {
          "internalType": "uint256",
          "name": "",
          "type": "uint256"
        }
      ],
      "stateMutability": "view",
      "type": "function"
    },
    {
      "inputs": [],
      "name": "token",
      "outputs": [
        {
          "internalType": "contract IERC20",
          "name": "",
          "type": "address"
        }
      ],
      "stateMutability": "view",
      "type": "function"
    },
    {
      "inputs": [
        {
          "internalType": "address",
          "name": "newOwner",
          "type": "address"
        }
      ],
      "name": "transferOwnership",
      "outputs": [],
      "stateMutability": "nonpayable",
      "type": "function"
    },
    {
      "inputs": [],
      "name": "unlockPercentsOnStart",
      "outputs": [
        {
          "internalType": "uint256",
          "name": "",
          "type": "uint256"
        }
      ],
      "stateMutability": "view",
      "type": "function"
    },
    {
      "inputs": [
        {
          "internalType": "address",
          "name": "",
          "type": "address"
        }
      ],
      "name": "vestedAmount",
      "outputs": [
        {
          "internalType": "uint256",
          "name": "",
          "type": "uint256"
        }
      ],
      "stateMutability": "view",
      "type": "function"
    },
    {
      "inputs": [
        {
          "internalType": "address[]",
          "name": "investors",
          "type": "address[]"
        },
        {
          "internalType": "uint256[]",
          "name": "amounts",
          "type": "uint256[]"
        }
      ],
      "name": "addInvestors",
      "outputs": [],
      "stateMutability": "nonpayable",
      "type": "function"
    },
    {
      "inputs": [
        {
          "internalType": "address",
          "name": "investor",
          "type": "address"
        },
        {
          "internalType": "uint256",
          "name": "amount",
          "type": "uint256"
        }
      ],
      "name": "addInvestor",
      "outputs": [],
      "stateMutability": "nonpayable",
      "type": "function"
    },
    {
      "inputs": [],
      "name": "claim",
      "outputs": [],
      "stateMutability": "nonpayable",
      "type": "function"
    },
    {
      "inputs": [
        {
          "internalType": "address",
          "name": "investor",
          "type": "address"
        }
      ],
      "name": "claimFor",
      "outputs": [],
      "stateMutability": "nonpayable",
      "type": "function"
    },
    {
      "inputs": [
        {
          "internalType": "address",
          "name": "investor",
          "type": "address"
        }
      ],
      "name": "claimableAmount",
      "outputs": [
        {
          "internalType": "uint256",
          "name": "",
          "type": "uint256"
        }
      ],
      "stateMutability": "view",
      "type": "function"
    }
  ],
  "bytecode": "0x6101206040523480156200001257600080fd5b50604051620021fb380380620021fb83398181016040528101906200003891906200024d565b620000586200004c6200015360201b60201c565b6200015b60201b60201c565b8383116200009d576040517f08c379a000000000000000000000000000000000000000000000000000000000815260040162000094906200032f565b60405180910390fd5b6127108210620000e4576040517f08c379a0000000000000000000000000000000000000000000000000000000008152600401620000db906200030d565b60405180910390fd5b83608081815250508260a081815250508073ffffffffffffffffffffffffffffffffffffffff1660c08173ffffffffffffffffffffffffffffffffffffffff1660601b81525050838362000139919062000362565b60e0818152505081610100818152505050505050620004a9565b600033905090565b60008060009054906101000a900473ffffffffffffffffffffffffffffffffffffffff169050816000806101000a81548173ffffffffffffffffffffffffffffffffffffffff021916908373ffffffffffffffffffffffffffffffffffffffff1602179055508173ffffffffffffffffffffffffffffffffffffffff168173ffffffffffffffffffffffffffffffffffffffff167f8be0079c531659141344cd1fd0a4f28419497f9722a3daafe3b4186f6b6457e060405160405180910390a35050565b600081519050620002308162000475565b92915050565b60008151905062000247816200048f565b92915050565b600080600080608085870312156200026a57620002696200041e565b5b60006200027a8782880162000236565b94505060206200028d8782880162000236565b9350506040620002a08782880162000236565b9250506060620002b3878288016200021f565b91505092959194509250565b6000620002ce60038362000351565b9150620002db8262000423565b602082019050919050565b6000620002f560038362000351565b915062000302826200044c565b602082019050919050565b600060208201905081810360008301526200032881620002bf565b9050919050565b600060208201905081810360008301526200034a81620002e6565b9050919050565b600082825260208201905092915050565b60006200036f82620003e5565b91506200037c83620003e5565b925082821015620003925762000391620003ef565b5b828203905092915050565b6000620003aa82620003c5565b9050919050565b6000620003be826200039d565b9050919050565b600073ffffffffffffffffffffffffffffffffffffffff82169050919050565b6000819050919050565b7f4e487b7100000000000000000000000000000000000000000000000000000000600052601160045260246000fd5b600080fd5b7f5054480000000000000000000000000000000000000000000000000000000000600082015250565b7f4547530000000000000000000000000000000000000000000000000000000000600082015250565b6200048081620003b1565b81146200048c57600080fd5b50565b6200049a81620003e5565b8114620004a657600080fd5b50565b60805160a05160c05160601c60e05161010051611ccb62000530600039600081816102c40152610d1501526000818161030001528181610d800152610ddc0152600081816105430152818161087a0152818161099d0152610b5201526000610a360152600081816106c601528181610d4d01528181610da10152610dfd0152611ccb6000f3fe608060405234801561001057600080fd5b50600436106100f55760003560e01c80638988504911610097578063ec20b45711610066578063ec20b4571461024e578063efbe1c1c1461026a578063f2fde38b14610288578063fc0c546a146102a4576100f5565b806389885049146101c65780638da5cb5b146101f6578063be9a655514610214578063ddeae03314610232576100f5565b8063249eae4d116100d3578063249eae4d14610166578063384711cc146101825780634e71d92d146101b2578063715018a6146101bc576100f5565b80630327f220146100fa57806304e86903146101185780630fb5a6b414610148575b600080fd5b6101026102c2565b60405161010f91906116d4565b60405180910390f35b610132600480360381019061012d91906112ca565b6102e6565b60405161013f91906116d4565b60405180910390f35b6101506102fe565b60405161015d91906116d4565b60405180910390f35b610180600480360381019061017b9190611337565b610322565b005b61019c600480360381019061019791906112ca565b61058e565b6040516101a991906116d4565b60405180910390f35b6101ba6105a6565b005b6101c46105b7565b005b6101e060048036038101906101db91906112ca565b61063f565b6040516101ed91906116d4565b60405180910390f35b6101fe61069b565b60405161020b919061155c565b60405180910390f35b61021c6106c4565b60405161022991906116d4565b60405180910390f35b61024c600480360381019061024791906112ca565b6106e8565b005b610268600480360381019061026391906112f7565b6108c3565b005b610272610a34565b60405161027f91906116d4565b60405180910390f35b6102a2600480360381019061029d91906112ca565b610a58565b005b6102ac610b50565b6040516102b991906115d7565b60405180910390f35b7f000000000000000000000000000000000000000000000000000000000000000081565b60026020528060005260406000206000915090505481565b7f000000000000000000000000000000000000000000000000000000000000000081565b61032a610b74565b73ffffffffffffffffffffffffffffffffffffffff1661034861069b565b73ffffffffffffffffffffffffffffffffffffffff161461039e576040517f08c379a000000000000000000000000000000000000000000000000000000000815260040161039590611674565b60405180910390fd5b60008083519050808351146103e8576040517f08c379a00000000000000000000000000000000000000000000000000000000081526004016103df90611654565b60405180910390fd5b60005b8181101561053a5783818151811061040657610405611a65565b5b60200260200101516001600087848151811061042557610424611a65565b5b602002602001015173ffffffffffffffffffffffffffffffffffffffff1673ffffffffffffffffffffffffffffffffffffffff168152602001908152602001600020600082825461047691906117c7565b925050819055508381815181106104905761048f611a65565b5b6020026020010151836104a391906117c7565b92508481815181106104b8576104b7611a65565b5b602002602001015173ffffffffffffffffffffffffffffffffffffffff167f322aa8e34b758bbd3ef99d9b6ef8bd2ad3c66079b2f0bff60fe3d221a314181c85838151811061050a57610509611a65565b5b602002602001015160405161051f91906116d4565b60405180910390a28080610532906119be565b9150506103eb565b506105883330847f000000000000000000000000000000000000000000000000000000000000000073ffffffffffffffffffffffffffffffffffffffff16610b7c909392919063ffffffff16565b50505050565b60016020528060005260406000206000915090505481565b60003390506105b4816106e8565b50565b6105bf610b74565b73ffffffffffffffffffffffffffffffffffffffff166105dd61069b565b73ffffffffffffffffffffffffffffffffffffffff1614610633576040517f08c379a000000000000000000000000000000000000000000000000000000000815260040161062a90611674565b60405180910390fd5b61063d6000610c05565b565b6000600260008373ffffffffffffffffffffffffffffffffffffffff1673ffffffffffffffffffffffffffffffffffffffff1681526020019081526020016000205461068a83610cc9565b61069491906118a8565b9050919050565b60008060009054906101000a900473ffffffffffffffffffffffffffffffffffffffff16905090565b7f000000000000000000000000000000000000000000000000000000000000000081565b60006106f38261063f565b90506000600260008473ffffffffffffffffffffffffffffffffffffffff1673ffffffffffffffffffffffffffffffffffffffff16815260200190815260200160002054600160008573ffffffffffffffffffffffffffffffffffffffff1673ffffffffffffffffffffffffffffffffffffffff1681526020019081526020016000205461078191906118a8565b905081600260008573ffffffffffffffffffffffffffffffffffffffff1673ffffffffffffffffffffffffffffffffffffffff16815260200190815260200160002060008282546107d291906117c7565b925050819055508273ffffffffffffffffffffffffffffffffffffffff167f987d620f307ff6b94d58743cb7a7509f24071586a77759b77c2d4e29f75a2f9a600260008673ffffffffffffffffffffffffffffffffffffffff1673ffffffffffffffffffffffffffffffffffffffff16815260200190815260200160002054848461085d91906118a8565b60405161086b9291906116ef565b60405180910390a26108be83837f000000000000000000000000000000000000000000000000000000000000000073ffffffffffffffffffffffffffffffffffffffff16610e5c9092919063ffffffff16565b505050565b6108cb610b74565b73ffffffffffffffffffffffffffffffffffffffff166108e961069b565b73ffffffffffffffffffffffffffffffffffffffff161461093f576040517f08c379a000000000000000000000000000000000000000000000000000000000815260040161093690611674565b60405180910390fd5b80600160008473ffffffffffffffffffffffffffffffffffffffff1673ffffffffffffffffffffffffffffffffffffffff168152602001908152602001600020600082825461098e91906117c7565b925050819055506109e23330837f000000000000000000000000000000000000000000000000000000000000000073ffffffffffffffffffffffffffffffffffffffff16610b7c909392919063ffffffff16565b8173ffffffffffffffffffffffffffffffffffffffff167f322aa8e34b758bbd3ef99d9b6ef8bd2ad3c66079b2f0bff60fe3d221a314181c82604051610a2891906116d4565b60405180910390a25050565b7f000000000000000000000000000000000000000000000000000000000000000081565b610a60610b74565b73ffffffffffffffffffffffffffffffffffffffff16610a7e61069b565b73ffffffffffffffffffffffffffffffffffffffff1614610ad4576040517f08c379a0000000000000000000000000000000000000000000000000000000008152600401610acb90611674565b60405180910390fd5b600073ffffffffffffffffffffffffffffffffffffffff168173ffffffffffffffffffffffffffffffffffffffff161415610b44576040517f08c379a0000000000000000000000000000000000000000000000000000000008152600401610b3b90611614565b60405180910390fd5b610b4d81610c05565b50565b7f000000000000000000000000000000000000000000000000000000000000000081565b600033905090565b610bff846323b872dd60e01b858585604051602401610b9d93929190611577565b604051602081830303815290604052907bffffffffffffffffffffffffffffffffffffffffffffffffffffffff19166020820180517bffffffffffffffffffffffffffffffffffffffffffffffffffffffff8381831617835250505050610ee2565b50505050565b60008060009054906101000a900473ffffffffffffffffffffffffffffffffffffffff169050816000806101000a81548173ffffffffffffffffffffffffffffffffffffffff021916908373ffffffffffffffffffffffffffffffffffffffff1602179055508173ffffffffffffffffffffffffffffffffffffffff168173ffffffffffffffffffffffffffffffffffffffff167f8be0079c531659141344cd1fd0a4f28419497f9722a3daafe3b4186f6b6457e060405160405180910390a35050565b600080600160008473ffffffffffffffffffffffffffffffffffffffff1673ffffffffffffffffffffffffffffffffffffffff16815260200190815260200160002054905060006127107f000000000000000000000000000000000000000000000000000000000000000083610d3f919061184e565b610d49919061181d565b90507f0000000000000000000000000000000000000000000000000000000000000000421015610d7e57600092505050610e57565b7f00000000000000000000000000000000000000000000000000000000000000007f0000000000000000000000000000000000000000000000000000000000000000610dca91906117c7565b4210610dda578192505050610e57565b7f00000000000000000000000000000000000000000000000000000000000000007f000000000000000000000000000000000000000000000000000000000000000042610e2791906118a8565b8284610e3391906118a8565b610e3d919061184e565b610e47919061181d565b81610e5291906117c7565b925050505b919050565b610edd8363a9059cbb60e01b8484604051602401610e7b9291906115ae565b604051602081830303815290604052907bffffffffffffffffffffffffffffffffffffffffffffffffffffffff19166020820180517bffffffffffffffffffffffffffffffffffffffffffffffffffffffff8381831617835250505050610ee2565b505050565b6000610f44826040518060400160405280602081526020017f5361666545524332303a206c6f772d6c6576656c2063616c6c206661696c65648152508573ffffffffffffffffffffffffffffffffffffffff16610fa99092919063ffffffff16565b9050600081511115610fa45780806020019051810190610f6491906113af565b610fa3576040517f08c379a0000000000000000000000000000000000000000000000000000000008152600401610f9a906116b4565b60405180910390fd5b5b505050565b6060610fb88484600085610fc1565b90509392505050565b606082471015611006576040517f08c379a0000000000000000000000000000000000000000000000000000000008152600401610ffd90611634565b60405180910390fd5b61100f856110d5565b61104e576040517f08c379a000000000000000000000000000000000000000000000000000000000815260040161104590611694565b60405180910390fd5b6000808673ffffffffffffffffffffffffffffffffffffffff1685876040516110779190611545565b60006040518083038185875af1925050503d80600081146110b4576040519150601f19603f3d011682016040523d82523d6000602084013e6110b9565b606091505b50915091506110c98282866110e8565b92505050949350505050565b600080823b905060008111915050919050565b606083156110f857829050611148565b60008351111561110b5782518084602001fd5b816040517f08c379a000000000000000000000000000000000000000000000000000000000815260040161113f91906115f2565b60405180910390fd5b9392505050565b600061116261115d8461173d565b611718565b9050808382526020820190508285602086028201111561118557611184611ac8565b5b60005b858110156111b5578161119b888261122f565b845260208401935060208301925050600181019050611188565b5050509392505050565b60006111d26111cd84611769565b611718565b905080838252602082019050828560208602820111156111f5576111f4611ac8565b5b60005b85811015611225578161120b88826112b5565b8452602084019350602083019250506001810190506111f8565b5050509392505050565b60008135905061123e81611c50565b92915050565b600082601f83011261125957611258611ac3565b5b813561126984826020860161114f565b91505092915050565b600082601f83011261128757611286611ac3565b5b81356112978482602086016111bf565b91505092915050565b6000815190506112af81611c67565b92915050565b6000813590506112c481611c7e565b92915050565b6000602082840312156112e0576112df611ad2565b5b60006112ee8482850161122f565b91505092915050565b6000806040838503121561130e5761130d611ad2565b5b600061131c8582860161122f565b925050602061132d858286016112b5565b9150509250929050565b6000806040838503121561134e5761134d611ad2565b5b600083013567ffffffffffffffff81111561136c5761136b611acd565b5b61137885828601611244565b925050602083013567ffffffffffffffff81111561139957611398611acd565b5b6113a585828601611272565b9150509250929050565b6000602082840312156113c5576113c4611ad2565b5b60006113d3848285016112a0565b91505092915050565b6113e5816118dc565b82525050565b60006113f682611795565b61140081856117ab565b935061141081856020860161195a565b80840191505092915050565b61142581611924565b82525050565b6000611436826117a0565b61144081856117b6565b935061145081856020860161195a565b61145981611ad7565b840191505092915050565b60006114716026836117b6565b915061147c82611ae8565b604082019050919050565b60006114946026836117b6565b915061149f82611b37565b604082019050919050565b60006114b76003836117b6565b91506114c282611b86565b602082019050919050565b60006114da6020836117b6565b91506114e582611baf565b602082019050919050565b60006114fd601d836117b6565b915061150882611bd8565b602082019050919050565b6000611520602a836117b6565b915061152b82611c01565b604082019050919050565b61153f8161191a565b82525050565b600061155182846113eb565b915081905092915050565b600060208201905061157160008301846113dc565b92915050565b600060608201905061158c60008301866113dc565b61159960208301856113dc565b6115a66040830184611536565b949350505050565b60006040820190506115c360008301856113dc565b6115d06020830184611536565b9392505050565b60006020820190506115ec600083018461141c565b92915050565b6000602082019050818103600083015261160c818461142b565b905092915050565b6000602082019050818103600083015261162d81611464565b9050919050565b6000602082019050818103600083015261164d81611487565b9050919050565b6000602082019050818103600083015261166d816114aa565b9050919050565b6000602082019050818103600083015261168d816114cd565b9050919050565b600060208201905081810360008301526116ad816114f0565b9050919050565b600060208201905081810360008301526116cd81611513565b9050919050565b60006020820190506116e96000830184611536565b92915050565b60006040820190506117046000830185611536565b6117116020830184611536565b9392505050565b6000611722611733565b905061172e828261198d565b919050565b6000604051905090565b600067ffffffffffffffff82111561175857611757611a94565b5b602082029050602081019050919050565b600067ffffffffffffffff82111561178457611783611a94565b5b602082029050602081019050919050565b600081519050919050565b600081519050919050565b600081905092915050565b600082825260208201905092915050565b60006117d28261191a565b91506117dd8361191a565b9250827fffffffffffffffffffffffffffffffffffffffffffffffffffffffffffffffff0382111561181257611811611a07565b5b828201905092915050565b60006118288261191a565b91506118338361191a565b92508261184357611842611a36565b5b828204905092915050565b60006118598261191a565b91506118648361191a565b9250817fffffffffffffffffffffffffffffffffffffffffffffffffffffffffffffffff048311821515161561189d5761189c611a07565b5b828202905092915050565b60006118b38261191a565b91506118be8361191a565b9250828210156118d1576118d0611a07565b5b828203905092915050565b60006118e7826118fa565b9050919050565b60008115159050919050565b600073ffffffffffffffffffffffffffffffffffffffff82169050919050565b6000819050919050565b600061192f82611936565b9050919050565b600061194182611948565b9050919050565b6000611953826118fa565b9050919050565b60005b8381101561197857808201518184015260208101905061195d565b83811115611987576000848401525b50505050565b61199682611ad7565b810181811067ffffffffffffffff821117156119b5576119b4611a94565b5b80604052505050565b60006119c98261191a565b91507fffffffffffffffffffffffffffffffffffffffffffffffffffffffffffffffff8214156119fc576119fb611a07565b5b600182019050919050565b7f4e487b7100000000000000000000000000000000000000000000000000000000600052601160045260246000fd5b7f4e487b7100000000000000000000000000000000000000000000000000000000600052601260045260246000fd5b7f4e487b7100000000000000000000000000000000000000000000000000000000600052603260045260246000fd5b7f4e487b7100000000000000000000000000000000000000000000000000000000600052604160045260246000fd5b600080fd5b600080fd5b600080fd5b600080fd5b6000601f19601f8301169050919050565b7f4f776e61626c653a206e6577206f776e657220697320746865207a65726f206160008201527f6464726573730000000000000000000000000000000000000000000000000000602082015250565b7f416464726573733a20696e73756666696369656e742062616c616e636520666f60008201527f722063616c6c0000000000000000000000000000000000000000000000000000602082015250565b7f49434c0000000000000000000000000000000000000000000000000000000000600082015250565b7f4f776e61626c653a2063616c6c6572206973206e6f7420746865206f776e6572600082015250565b7f416464726573733a2063616c6c20746f206e6f6e2d636f6e7472616374000000600082015250565b7f5361666545524332303a204552433230206f7065726174696f6e20646964206e60008201527f6f74207375636365656400000000000000000000000000000000000000000000602082015250565b611c59816118dc565b8114611c6457600080fd5b50565b611c70816118ee565b8114611c7b57600080fd5b50565b611c878161191a565b8114611c9257600080fd5b5056fea2646970667358221220f59f8c88255e5e41eda49ea7fe6835c02bd45207273462791617bb1b603c3c6064736f6c63430008070033",
  "immutableReferences": {
    "744": [
      {
        "length": 32,
        "start": 1734
      },
      {
        "length": 32,
        "start": 3405
      },
      {
        "length": 32,
        "start": 3489
      },
      {
        "length": 32,
        "start": 3581
      }
    ],
    "746": [
      {
        "length": 32,
        "start": 2614
      }
    ],
    "749": [
      {
        "length": 32,
        "start": 1347
      },
      {
        "length": 32,
        "start": 2170
      },
      {
        "length": 32,
        "start": 2461
      },
      {
        "length": 32,
        "start": 2898
      }
    ],
    "751": [
      {
        "length": 32,
        "start": 768
      },
      {
        "length": 32,
        "start": 3456
      },
      {
        "length": 32,
        "start": 3548
      }
    ],
    "753": [
      {
        "length": 32,
        "start": 708
      },
      {
        "length": 32,
        "start": 3349
      }
    ]
  },
  "source": "// SPDX-License-Identifier: MIT\npragma solidity 0.8.7;\n\nimport \"@openzeppelin/contracts/access/Ownable.sol\";\nimport \"@openzeppelin/contracts/token/ERC20/utils/SafeERC20.sol\";\n\n// @title Chain Wars Essential Vesting\n// @author Midgard Technologies\n// @notice CWEVesting Is the vesting contract for the essential token of the ChainWars\ncontract CWEVesting is Ownable {\n    using SafeERC20 for IERC20;\n\n    mapping(address => uint256) public vestedAmount;\n    mapping(address => uint256) public claimedAmount;\n\n    uint256 public immutable start;\n    uint256 public immutable end;\n    IERC20 public immutable token;\n    uint256 public immutable duration;\n    uint256 public immutable unlockPercentsOnStart;\n\n    event NewVesting(address indexed investor, uint256 amount);\n    event Claimed(address indexed investor, uint256 amount, uint256 left);\n\n    constructor(uint256 _start, uint256 _end, uint256 _unlockPercentsOnStart, IERC20 _token) {\n        require(_end > _start, \"EGS\");\n        require(_unlockPercentsOnStart < 10000, \"PTH\");\n\n        start = _start;\n        end = _end;\n        token = _token;\n        duration = _end - _start;\n        unlockPercentsOnStart = _unlockPercentsOnStart;\n    }\n\n    function addInvestors(address[] memory investors, uint256[] memory amounts) external onlyOwner {\n        uint256 totalAmount = 0;\n        uint256 length = investors.length;\n        require(amounts.length == length, \"ICL\");\n\n        for (uint256 i = 0; i < length; i++) {\n            vestedAmount[investors[i]] += amounts[i];\n            totalAmount += amounts[i];\n            emit NewVesting(investors[i], amounts[i]);\n        }\n\n        token.safeTransferFrom(msg.sender, address(this), totalAmount);\n    }\n\n    function addInvestor(address investor, uint256 amount) external onlyOwner {\n        vestedAmount[investor] += amount;\n        token.safeTransferFrom(msg.sender, address(this), amount);\n        emit NewVesting(investor, amount);\n    }\n\n    function claim() external {\n        address investor = msg.sender;\n        claimFor(investor);\n    }\n\n    function claimFor(address investor) public {\n        uint256 claimable = claimableAmount(investor);\n        uint256 totalUnclaimed = vestedAmount[investor] - claimedAmount[investor];\n\n        claimedAmount[investor] += claimable;\n        emit Claimed(investor, claimedAmount[investor], totalUnclaimed-claimable);\n\n        token.safeTransfer(investor, claimable);\n    }\n\n    function claimableAmount(address investor) public view returns (uint256) {\n        return _vestedAmount(investor) - claimedAmount[investor];\n    }\n\n    function _vestedAmount(address investor) private view returns (uint256) {\n        uint256 _vested = vestedAmount[investor];\n        uint256 unlockAtStart = _vested * unlockPercentsOnStart / 10000;\n\n        if (block.timestamp < start) {\n            return 0;\n        } else if (block.timestamp >= start + duration) {\n            return _vested;\n        } else {\n            return unlockAtStart + ((_vested - unlockAtStart) * (block.timestamp - start) / duration);\n        }\n    }\n}\n",
  "sourcePath": "D:\\Work Space\\CasperPad\\CasperPadToken_Contract\\contracts\\AddInvestorForVesting.sol",
  "compiler": {
    "name": "solc",
    "version": "0.8.7+commit.e28d00a7.Emscripten.clang"
  },
  "schemaVersion": "3.4.3",
  "updatedAt": "2021-11-27T12:50:13.159Z",
  "devdoc": {
    "kind": "dev",
    "methods": {
      "owner()": {
        "details": "Returns the address of the current owner."
      },
      "renounceOwnership()": {
        "details": "Leaves the contract without owner. It will not be possible to call `onlyOwner` functions anymore. Can only be called by the current owner. NOTE: Renouncing ownership will leave the contract without an owner, thereby removing any functionality that is only available to the owner."
      },
      "transferOwnership(address)": {
        "details": "Transfers ownership of the contract to a new account (`newOwner`). Can only be called by the current owner."
      }
    },
    "version": 1
  },
  "userdoc": {
    "kind": "user",
    "methods": {},
    "version": 1
  }
}