{
  "contractName": "LGEWhitelisted",
  "abi": [
    {
      "inputs": [],
      "stateMutability": "nonpayable",
      "type": "constructor"
    },
    {
      "anonymous": false,
      "inputs": [
        {
          "indexed": true,
          "internalType": "address",
          "name": "previousWhitelister",
          "type": "address"
        },
        {
          "indexed": true,
          "internalType": "address",
          "name": "newWhitelister",
          "type": "address"
        }
      ],
      "name": "WhitelisterTransferred",
      "type": "event"
    },
    {
      "inputs": [],
      "name": "_lgePairAddress",
      "outputs": [
        {
          "internalType": "address",
          "name": "",
          "type": "address"
        }
      ],
      "stateMutability": "view",
      "type": "function"
    },
    {
      "inputs": [],
      "name": "_lgeTimestamp",
      "outputs": [
        {
          "internalType": "uint256",
          "name": "",
          "type": "uint256"
        }
      ],
      "stateMutability": "view",
      "type": "function"
    },
    {
      "inputs": [
        {
          "internalType": "uint256",
          "name": "",
          "type": "uint256"
        }
      ],
      "name": "_lgeWhitelistRounds",
      "outputs": [
        {
          "internalType": "uint256",
          "name": "duration",
          "type": "uint256"
        },
        {
          "internalType": "uint256",
          "name": "amountMax",
          "type": "uint256"
        }
      ],
      "stateMutability": "view",
      "type": "function"
    },
    {
      "inputs": [],
      "name": "_whitelister",
      "outputs": [
        {
          "internalType": "address",
          "name": "",
          "type": "address"
        }
      ],
      "stateMutability": "view",
      "type": "function"
    },
    {
      "inputs": [],
      "name": "renounceWhitelister",
      "outputs": [],
      "stateMutability": "nonpayable",
      "type": "function"
    },
    {
      "inputs": [
        {
          "internalType": "address",
          "name": "newWhitelister",
          "type": "address"
        }
      ],
      "name": "transferWhitelister",
      "outputs": [],
      "stateMutability": "nonpayable",
      "type": "function"
    },
    {
      "inputs": [
        {
          "internalType": "address",
          "name": "pairAddress",
          "type": "address"
        },
        {
          "internalType": "uint256[]",
          "name": "durations",
          "type": "uint256[]"
        },
        {
          "internalType": "uint256[]",
          "name": "amountsMax",
          "type": "uint256[]"
        }
      ],
      "name": "createLGEWhitelist",
      "outputs": [],
      "stateMutability": "nonpayable",
      "type": "function"
    },
    {
      "inputs": [
        {
          "internalType": "uint256",
          "name": "index",
          "type": "uint256"
        },
        {
          "internalType": "uint256",
          "name": "duration",
          "type": "uint256"
        },
        {
          "internalType": "uint256",
          "name": "amountMax",
          "type": "uint256"
        },
        {
          "internalType": "address[]",
          "name": "addresses",
          "type": "address[]"
        },
        {
          "internalType": "bool",
          "name": "enabled",
          "type": "bool"
        }
      ],
      "name": "modifyLGEWhitelist",
      "outputs": [],
      "stateMutability": "nonpayable",
      "type": "function"
    },
    {
      "inputs": [],
      "name": "getLGEWhitelistRound",
      "outputs": [
        {
          "internalType": "uint256",
          "name": "",
          "type": "uint256"
        },
        {
          "internalType": "uint256",
          "name": "",
          "type": "uint256"
        },
        {
          "internalType": "uint256",
          "name": "",
          "type": "uint256"
        },
        {
          "internalType": "uint256",
          "name": "",
          "type": "uint256"
        },
        {
          "internalType": "bool",
          "name": "",
          "type": "bool"
        },
        {
          "internalType": "uint256",
          "name": "",
          "type": "uint256"
        }
      ],
      "stateMutability": "view",
      "type": "function"
    }
  ],
  "bytecode": "0x608060405234801561001057600080fd5b5061001f61006460201b60201c565b600360006101000a81548173ffffffffffffffffffffffffffffffffffffffff021916908373ffffffffffffffffffffffffffffffffffffffff16021790555061006c565b600033905090565b6113038061007b6000396000f3fe608060405234801561001057600080fd5b50600436106100935760003560e01c8063532f1fed11610066578063532f1fed146101115780639ad3a7ba1461012d578063a77cac7a14610137578063d5215d1114610168578063da91b76e1461018657610093565b80631b29b0cd146100985780632e15e5c7146100bb57806344ade3c5146100d757806349448898146100f3575b600080fd5b6100a06101a4565b6040516100b296959493929190610fc5565b60405180910390f35b6100d560048036038101906100d09190610c61565b61030d565b005b6100f160048036038101906100ec9190610d50565b6103b0565b005b6100fb61064a565b6040516101089190610ec6565b60405180910390f35b61012b60048036038101906101269190610c8e565b610670565b005b61013561083b565b005b610151600480360381019061014c9190610d23565b610993565b60405161015f929190610f9c565b60405180910390f35b6101706109c7565b60405161017d9190610ec6565b60405180910390f35b61018e6109ed565b60405161019b9190610f81565b60405180910390f35b600080600080600080600060015411156102ef576000600154905060005b6000805490508110156102ec5760008082815481106101e4576101e361114d565b5b906000526020600020906004020190508060000154836102049190611037565b92508242116102d85760018261021a9190611037565b81600001548483600101548460020160006102336109f3565b73ffffffffffffffffffffffffffffffffffffffff1673ffffffffffffffffffffffffffffffffffffffff16815260200190815260200160002060009054906101000a900460ff168560030160006102896109f3565b73ffffffffffffffffffffffffffffffffffffffff1673ffffffffffffffffffffffffffffffffffffffff16815260200190815260200160002054985098509850985098509850505050610305565b5080806102e4906110d5565b9150506101c2565b50505b6000806000806000809550955095509550955095505b909192939495565b6103156109f3565b73ffffffffffffffffffffffffffffffffffffffff16600360009054906101000a900473ffffffffffffffffffffffffffffffffffffffff1673ffffffffffffffffffffffffffffffffffffffff16146103a4576040517f08c379a000000000000000000000000000000000000000000000000000000000815260040161039b90610f61565b60405180910390fd5b6103ad816109fb565b50565b6103b86109f3565b73ffffffffffffffffffffffffffffffffffffffff16600360009054906101000a900473ffffffffffffffffffffffffffffffffffffffff1673ffffffffffffffffffffffffffffffffffffffff1614610447576040517f08c379a000000000000000000000000000000000000000000000000000000000815260040161043e90610f61565b60405180910390fd5b600080549050861061048e576040517f08c379a000000000000000000000000000000000000000000000000000000000815260040161048590610ee1565b60405180910390fd5b600084116104d1576040517f08c379a00000000000000000000000000000000000000000000000000000000081526004016104c890610f01565b60405180910390fd5b600086815481106104e5576104e461114d565b5b90600052602060002090600402016000015485146105285784600087815481106105125761051161114d565b5b9060005260206000209060040201600001819055505b6000868154811061053c5761053b61114d565b5b906000526020600020906004020160010154841461057f5783600087815481106105695761056861114d565b5b9060005260206000209060040201600101819055505b60005b838390508110156106415781600088815481106105a2576105a161114d565b5b906000526020600020906004020160020160008686858181106105c8576105c761114d565b5b90506020020160208101906105dd9190610c61565b73ffffffffffffffffffffffffffffffffffffffff1673ffffffffffffffffffffffffffffffffffffffff16815260200190815260200160002060006101000a81548160ff0219169083151502179055508080610639906110d5565b915050610582565b50505050505050565b600260009054906101000a900473ffffffffffffffffffffffffffffffffffffffff1681565b6106786109f3565b73ffffffffffffffffffffffffffffffffffffffff16600360009054906101000a900473ffffffffffffffffffffffffffffffffffffffff1673ffffffffffffffffffffffffffffffffffffffff1614610707576040517f08c379a00000000000000000000000000000000000000000000000000000000081526004016106fe90610f61565b60405180910390fd5b81819050848490501461074f576040517f08c379a000000000000000000000000000000000000000000000000000000000815260040161074690610f41565b60405180910390fd5b84600260006101000a81548173ffffffffffffffffffffffffffffffffffffffff021916908373ffffffffffffffffffffffffffffffffffffffff1602179055506000848490501115610834576000806107a99190610b2b565b60005b848490508110156108325760008060018160018154018082558091505003906000526020600020906004020190508585838181106107ed576107ec61114d565b5b90506020020135816000018190555083838381811061080f5761080e61114d565b5b90506020020135816001018190555050808061082a906110d5565b9150506107ac565b505b5050505050565b6108436109f3565b73ffffffffffffffffffffffffffffffffffffffff16600360009054906101000a900473ffffffffffffffffffffffffffffffffffffffff1673ffffffffffffffffffffffffffffffffffffffff16146108d2576040517f08c379a00000000000000000000000000000000000000000000000000000000081526004016108c990610f61565b60405180910390fd5b600073ffffffffffffffffffffffffffffffffffffffff16600360009054906101000a900473ffffffffffffffffffffffffffffffffffffffff1673ffffffffffffffffffffffffffffffffffffffff167f4e78506f3260e366dc9440ee0b4eca2d03aa91536b7605deb90e873d3fc4e5b460405160405180910390a36000600360006101000a81548173ffffffffffffffffffffffffffffffffffffffff021916908373ffffffffffffffffffffffffffffffffffffffff160217905550565b600081815481106109a357600080fd5b90600052602060002090600402016000915090508060000154908060010154905082565b600360009054906101000a900473ffffffffffffffffffffffffffffffffffffffff1681565b60015481565b600033905090565b600073ffffffffffffffffffffffffffffffffffffffff168173ffffffffffffffffffffffffffffffffffffffff161415610a6b576040517f08c379a0000000000000000000000000000000000000000000000000000000008152600401610a6290610f21565b60405180910390fd5b8073ffffffffffffffffffffffffffffffffffffffff16600360009054906101000a900473ffffffffffffffffffffffffffffffffffffffff1673ffffffffffffffffffffffffffffffffffffffff167f4e78506f3260e366dc9440ee0b4eca2d03aa91536b7605deb90e873d3fc4e5b460405160405180910390a380600360006101000a81548173ffffffffffffffffffffffffffffffffffffffff021916908373ffffffffffffffffffffffffffffffffffffffff16021790555050565b5080546000825560040290600052602060002090810190610b4c9190610b4f565b50565b5b80821115610b7257600080820160009055600182016000905550600401610b50565b5090565b600081359050610b8581611288565b92915050565b60008083601f840112610ba157610ba0611181565b5b8235905067ffffffffffffffff811115610bbe57610bbd61117c565b5b602083019150836020820283011115610bda57610bd9611186565b5b9250929050565b60008083601f840112610bf757610bf6611181565b5b8235905067ffffffffffffffff811115610c1457610c1361117c565b5b602083019150836020820283011115610c3057610c2f611186565b5b9250929050565b600081359050610c468161129f565b92915050565b600081359050610c5b816112b6565b92915050565b600060208284031215610c7757610c76611190565b5b6000610c8584828501610b76565b91505092915050565b600080600080600060608688031215610caa57610ca9611190565b5b6000610cb888828901610b76565b955050602086013567ffffffffffffffff811115610cd957610cd861118b565b5b610ce588828901610be1565b9450945050604086013567ffffffffffffffff811115610d0857610d0761118b565b5b610d1488828901610be1565b92509250509295509295909350565b600060208284031215610d3957610d38611190565b5b6000610d4784828501610c4c565b91505092915050565b60008060008060008060a08789031215610d6d57610d6c611190565b5b6000610d7b89828a01610c4c565b9650506020610d8c89828a01610c4c565b9550506040610d9d89828a01610c4c565b945050606087013567ffffffffffffffff811115610dbe57610dbd61118b565b5b610dca89828a01610b8b565b93509350506080610ddd89828a01610c37565b9150509295509295509295565b610df38161108d565b82525050565b610e028161109f565b82525050565b6000610e15600d83611026565b9150610e2082611195565b602082019050919050565b6000610e38601183611026565b9150610e43826111be565b602082019050919050565b6000610e5b602383611026565b9150610e66826111e7565b604082019050919050565b6000610e7e601483611026565b9150610e8982611236565b602082019050919050565b6000610ea1601d83611026565b9150610eac8261125f565b602082019050919050565b610ec0816110cb565b82525050565b6000602082019050610edb6000830184610dea565b92915050565b60006020820190508181036000830152610efa81610e08565b9050919050565b60006020820190508181036000830152610f1a81610e2b565b9050919050565b60006020820190508181036000830152610f3a81610e4e565b9050919050565b60006020820190508181036000830152610f5a81610e71565b9050919050565b60006020820190508181036000830152610f7a81610e94565b9050919050565b6000602082019050610f966000830184610eb7565b92915050565b6000604082019050610fb16000830185610eb7565b610fbe6020830184610eb7565b9392505050565b600060c082019050610fda6000830189610eb7565b610fe76020830188610eb7565b610ff46040830187610eb7565b6110016060830186610eb7565b61100e6080830185610df9565b61101b60a0830184610eb7565b979650505050505050565b600082825260208201905092915050565b6000611042826110cb565b915061104d836110cb565b9250827fffffffffffffffffffffffffffffffffffffffffffffffffffffffffffffffff038211156110825761108161111e565b5b828201905092915050565b6000611098826110ab565b9050919050565b60008115159050919050565b600073ffffffffffffffffffffffffffffffffffffffff82169050919050565b6000819050919050565b60006110e0826110cb565b91507fffffffffffffffffffffffffffffffffffffffffffffffffffffffffffffffff8214156111135761111261111e565b5b600182019050919050565b7f4e487b7100000000000000000000000000000000000000000000000000000000600052601160045260246000fd5b7f4e487b7100000000000000000000000000000000000000000000000000000000600052603260045260246000fd5b600080fd5b600080fd5b600080fd5b600080fd5b600080fd5b7f496e76616c696420696e64657800000000000000000000000000000000000000600082015250565b7f496e76616c696420616d6f756e744d6178000000000000000000000000000000600082015250565b7f4e65772077686974656c697374657220697320746865207a65726f206164647260008201527f6573730000000000000000000000000000000000000000000000000000000000602082015250565b7f496e76616c69642077686974656c697374287329000000000000000000000000600082015250565b7f43616c6c6572206973206e6f74207468652077686974656c6973746572000000600082015250565b6112918161108d565b811461129c57600080fd5b50565b6112a88161109f565b81146112b357600080fd5b50565b6112bf816110cb565b81146112ca57600080fd5b5056fea2646970667358221220cd1c2e5e131b2c4f45c0ac1e7b7f0cbcfcaef3b19251e19124ac4ee28ea6a97a64736f6c63430008070033",
  "immutableReferences": {},
  "source": "/**\r\n *Submitted for verification at BscScan.com on 2021-10-26\r\n*/\r\n\r\n/**\r\n *Submitted for verification at BscScan.com on 2021-10-26\r\n * Verified by Ghost Ivy Team on 2021-10-26\r\n*/\r\n\r\n//SPDX-License-Identifier: Unlicense\r\n\r\npragma solidity 0.8.7;\r\n\r\ninterface IBEP20 {\r\n  /**\r\n   * @dev Returns the amount of tokens in existence.\r\n   */\r\n  function totalSupply() external view returns (uint256);\r\n\r\n  /**\r\n   * @dev Returns the token decimals.\r\n   */\r\n  function decimals() external view returns (uint8);\r\n\r\n  /**\r\n   * @dev Returns the token symbol.\r\n   */\r\n  function symbol() external view returns (string memory);\r\n\r\n  /**\r\n  * @dev Returns the token name.\r\n  */\r\n  function name() external view returns (string memory);\r\n\r\n  /**\r\n   * @dev Returns the bep token owner.\r\n   */\r\n  function getOwner() external view returns (address);\r\n\r\n  /**\r\n   * @dev Returns the amount of tokens owned by `account`.\r\n   */\r\n  function balanceOf(address account) external view returns (uint256);\r\n\r\n  /**\r\n   * @dev Moves `amount` tokens from the caller's account to `recipient`.\r\n   *\r\n   * Returns a boolean value indicating whether the operation succeeded.\r\n   *\r\n   * Emits a {Transfer} event.\r\n   */\r\n  function transfer(address recipient, uint256 amount) external returns (bool);\r\n\r\n  /**\r\n   * @dev Returns the remaining number of tokens that `spender` will be\r\n   * allowed to spend on behalf of `owner` through {transferFrom}. This is\r\n   * zero by default.\r\n   *\r\n   * This value changes when {approve} or {transferFrom} are called.\r\n   */\r\n  function allowance(address _owner, address spender) external view returns (uint256);\r\n\r\n  /**\r\n   * @dev Sets `amount` as the allowance of `spender` over the caller's tokens.\r\n   *\r\n   * Returns a boolean value indicating whether the operation succeeded.\r\n   *\r\n   * IMPORTANT: Beware that changing an allowance with this method brings the risk\r\n   * that someone may use both the old and the new allowance by unfortunate\r\n   * transaction ordering. One possible solution to mitigate this race\r\n   * condition is to first reduce the spender's allowance to 0 and set the\r\n   * desired value afterwards:\r\n   * https://github.com/ethereum/EIPs/issues/20#issuecomment-263524729\r\n   *\r\n   * Emits an {Approval} event.\r\n   */\r\n  function approve(address spender, uint256 amount) external returns (bool);\r\n\r\n  /**\r\n   * @dev Moves `amount` tokens from `sender` to `recipient` using the\r\n   * allowance mechanism. `amount` is then deducted from the caller's\r\n   * allowance.\r\n   *\r\n   * Returns a boolean value indicating whether the operation succeeded.\r\n   *\r\n   * Emits a {Transfer} event.\r\n   */\r\n  function transferFrom(address sender, address recipient, uint256 amount) external returns (bool);\r\n\r\n  /**\r\n   * @dev Emitted when `value` tokens are moved from one account (`from`) to\r\n   * another (`to`).\r\n   *\r\n   * Note that `value` may be zero.\r\n   */\r\n  event Transfer(address indexed from, address indexed to, uint256 value);\r\n\r\n  /**\r\n   * @dev Emitted when the allowance of a `spender` for an `owner` is set by\r\n   * a call to {approve}. `value` is the new allowance.\r\n   */\r\n  event Approval(address indexed owner, address indexed spender, uint256 value);\r\n}\r\n\r\n/*\r\n * @dev Provides information about the current execution context, including the\r\n * sender of the transaction and its data. While these are generally available\r\n * via msg.sender and msg.data, they should not be accessed in such a direct\r\n * manner, since when dealing with meta-transactions the account sending and\r\n * paying for execution may not be the actual sender (as far as an application\r\n * is concerned).\r\n *\r\n * This contract is only required for intermediate, library-like contracts.\r\n */\r\nabstract contract Context {\r\n    function _msgSender() internal view virtual returns (address) {\r\n        return msg.sender;\r\n    }\r\n\r\n    function _msgData() internal view virtual returns (bytes calldata) {\r\n        this; // silence state mutability warning without generating bytecode - see https://github.com/ethereum/solidity/issues/2691\r\n        return msg.data;\r\n    }\r\n}\r\n\r\n// File: @openzeppelin/contracts/access/Ownable.sol\r\n\r\n/**\r\n * @dev Contract module which provides a basic access control mechanism, where\r\n * there is an account (an owner) that can be granted exclusive access to\r\n * specific functions.\r\n *\r\n * By default, the owner account will be the one that deploys the contract. This\r\n * can later be changed with {transferOwnership}.\r\n *\r\n * This module is used through inheritance. It will make available the modifier\r\n * `onlyOwner`, which can be applied to your functions to restrict their use to\r\n * the owner.\r\n */\r\nabstract contract Ownable is Context {\r\n    address private _owner;\r\n\r\n    event OwnershipTransferred(address indexed previousOwner, address indexed newOwner);\r\n\r\n    /**\r\n     * @dev Initializes the contract setting the deployer as the initial owner.\r\n     */\r\n    constructor () {\r\n        address msgSender = _msgSender();\r\n        _owner = msgSender;\r\n        emit OwnershipTransferred(address(0), msgSender);\r\n    }\r\n\r\n    /**\r\n     * @dev Returns the address of the current owner.\r\n     */\r\n    function owner() public view virtual returns (address) {\r\n        return _owner;\r\n    }\r\n\r\n    /**\r\n     * @dev Throws if called by any account other than the owner.\r\n     */\r\n    modifier onlyOwner() {\r\n        require(owner() == _msgSender(), \"Ownable: caller is not the owner\");\r\n        _;\r\n    }\r\n\r\n    /**\r\n     * @dev Leaves the contract without owner. It will not be possible to call\r\n     * `onlyOwner` functions anymore. Can only be called by the current owner.\r\n     *\r\n     * NOTE: Renouncing ownership will leave the contract without an owner,\r\n     * thereby removing any functionality that is only available to the owner.\r\n     */\r\n    function renounceOwnership() public virtual onlyOwner {\r\n        emit OwnershipTransferred(_owner, address(0));\r\n        _owner = address(0);\r\n    }\r\n\r\n    /**\r\n     * @dev Transfers ownership of the contract to a new account (`newOwner`).\r\n     * Can only be called by the current owner.\r\n     */\r\n    function transferOwnership(address newOwner) public virtual onlyOwner {\r\n        require(newOwner != address(0), \"Ownable: new owner is the zero address\");\r\n        emit OwnershipTransferred(_owner, newOwner);\r\n        _owner = newOwner;\r\n    }\r\n}\r\n\r\n/**\r\n * @dev Wrappers over Solidity's arithmetic operations with added overflow\r\n * checks.\r\n *\r\n * Arithmetic operations in Solidity wrap on overflow. This can easily result\r\n * in bugs, because programmers usually assume that an overflow raises an\r\n * error, which is the standard behavior in high level programming languages.\r\n * `SafeMath` restores this intuition by reverting the transaction when an\r\n * operation overflows.\r\n *\r\n * Using this library instead of the unchecked operations eliminates an entire\r\n * class of bugs, so it's recommended to use it always.\r\n */\r\nlibrary SafeMath {\r\n  /**\r\n   * @dev Returns the addition of two unsigned integers, reverting on\r\n   * overflow.\r\n   *\r\n   * Counterpart to Solidity's `+` operator.\r\n   *\r\n   * Requirements:\r\n   * - Addition cannot overflow.\r\n   */\r\n  function add(uint256 a, uint256 b) internal pure returns (uint256) {\r\n    uint256 c = a + b;\r\n    require(c >= a, \"SafeMath: addition overflow\");\r\n\r\n    return c;\r\n  }\r\n\r\n  /**\r\n   * @dev Returns the subtraction of two unsigned integers, reverting on\r\n   * overflow (when the result is negative).\r\n   *\r\n   * Counterpart to Solidity's `-` operator.\r\n   *\r\n   * Requirements:\r\n   * - Subtraction cannot overflow.\r\n   */\r\n  function sub(uint256 a, uint256 b) internal pure returns (uint256) {\r\n    return sub(a, b, \"SafeMath: subtraction overflow\");\r\n  }\r\n\r\n  /**\r\n   * @dev Returns the subtraction of two unsigned integers, reverting with custom message on\r\n   * overflow (when the result is negative).\r\n   *\r\n   * Counterpart to Solidity's `-` operator.\r\n   *\r\n   * Requirements:\r\n   * - Subtraction cannot overflow.\r\n   */\r\n  function sub(uint256 a, uint256 b, string memory errorMessage) internal pure returns (uint256) {\r\n    require(b <= a, errorMessage);\r\n    uint256 c = a - b;\r\n\r\n    return c;\r\n  }\r\n\r\n  /**\r\n   * @dev Returns the multiplication of two unsigned integers, reverting on\r\n   * overflow.\r\n   *\r\n   * Counterpart to Solidity's `*` operator.\r\n   *\r\n   * Requirements:\r\n   * - Multiplication cannot overflow.\r\n   */\r\n  function mul(uint256 a, uint256 b) internal pure returns (uint256) {\r\n    // Gas optimization: this is cheaper than requiring 'a' not being zero, but the\r\n    // benefit is lost if 'b' is also tested.\r\n    // See: https://github.com/OpenZeppelin/openzeppelin-contracts/pull/522\r\n    if (a == 0) {\r\n      return 0;\r\n    }\r\n\r\n    uint256 c = a * b;\r\n    require(c / a == b, \"SafeMath: multiplication overflow\");\r\n\r\n    return c;\r\n  }\r\n\r\n  /**\r\n   * @dev Returns the integer division of two unsigned integers. Reverts on\r\n   * division by zero. The result is rounded towards zero.\r\n   *\r\n   * Counterpart to Solidity's `/` operator. Note: this function uses a\r\n   * `revert` opcode (which leaves remaining gas untouched) while Solidity\r\n   * uses an invalid opcode to revert (consuming all remaining gas).\r\n   *\r\n   * Requirements:\r\n   * - The divisor cannot be zero.\r\n   */\r\n  function div(uint256 a, uint256 b) internal pure returns (uint256) {\r\n    return div(a, b, \"SafeMath: division by zero\");\r\n  }\r\n\r\n  /**\r\n   * @dev Returns the integer division of two unsigned integers. Reverts with custom message on\r\n   * division by zero. The result is rounded towards zero.\r\n   *\r\n   * Counterpart to Solidity's `/` operator. Note: this function uses a\r\n   * `revert` opcode (which leaves remaining gas untouched) while Solidity\r\n   * uses an invalid opcode to revert (consuming all remaining gas).\r\n   *\r\n   * Requirements:\r\n   * - The divisor cannot be zero.\r\n   */\r\n  function div(uint256 a, uint256 b, string memory errorMessage) internal pure returns (uint256) {\r\n    // Solidity only automatically asserts when dividing by 0\r\n    require(b > 0, errorMessage);\r\n    uint256 c = a / b;\r\n    // assert(a == b * c + a % b); // There is no case in which this doesn't hold\r\n\r\n    return c;\r\n  }\r\n\r\n  /**\r\n   * @dev Returns the remainder of dividing two unsigned integers. (unsigned integer modulo),\r\n   * Reverts when dividing by zero.\r\n   *\r\n   * Counterpart to Solidity's `%` operator. This function uses a `revert`\r\n   * opcode (which leaves remaining gas untouched) while Solidity uses an\r\n   * invalid opcode to revert (consuming all remaining gas).\r\n   *\r\n   * Requirements:\r\n   * - The divisor cannot be zero.\r\n   */\r\n  function mod(uint256 a, uint256 b) internal pure returns (uint256) {\r\n    return mod(a, b, \"SafeMath: modulo by zero\");\r\n  }\r\n\r\n  /**\r\n   * @dev Returns the remainder of dividing two unsigned integers. (unsigned integer modulo),\r\n   * Reverts with custom message when dividing by zero.\r\n   *\r\n   * Counterpart to Solidity's `%` operator. This function uses a `revert`\r\n   * opcode (which leaves remaining gas untouched) while Solidity uses an\r\n   * invalid opcode to revert (consuming all remaining gas).\r\n   *\r\n   * Requirements:\r\n   * - The divisor cannot be zero.\r\n   */\r\n  function mod(uint256 a, uint256 b, string memory errorMessage) internal pure returns (uint256) {\r\n    require(b != 0, errorMessage);\r\n    return a % b;\r\n  }\r\n}\r\n\r\n\r\ncontract LGEWhitelisted is Context {\r\n    struct WhitelistRound {\r\n        uint256 duration;\r\n        uint256 amountMax;\r\n        mapping(address => bool) addresses;\r\n        mapping(address => uint256) purchased;\r\n    }\r\n\r\n    WhitelistRound[] public _lgeWhitelistRounds;\r\n\r\n    uint256 public _lgeTimestamp;\r\n    address public _lgePairAddress;\r\n\r\n    address public _whitelister;\r\n\r\n    event WhitelisterTransferred(address indexed previousWhitelister, address indexed newWhitelister);\r\n\r\n    constructor() {\r\n        _whitelister = _msgSender();\r\n    }\r\n\r\n    modifier onlyWhitelister() {\r\n        require(_whitelister == _msgSender(), \"Caller is not the whitelister\");\r\n        _;\r\n    }\r\n\r\n    function renounceWhitelister() external onlyWhitelister {\r\n        emit WhitelisterTransferred(_whitelister, address(0));\r\n        _whitelister = address(0);\r\n    }\r\n\r\n    function transferWhitelister(address newWhitelister) external onlyWhitelister {\r\n        _transferWhitelister(newWhitelister);\r\n    }\r\n\r\n    function _transferWhitelister(address newWhitelister) internal {\r\n        require(newWhitelister != address(0), \"New whitelister is the zero address\");\r\n        emit WhitelisterTransferred(_whitelister, newWhitelister);\r\n        _whitelister = newWhitelister;\r\n    }\r\n\r\n    /*\r\n     * createLGEWhitelist - Call this after initial Token Generation Event (TGE)\r\n     *\r\n     * pairAddress - address generated from createPair() event on DEX\r\n     * durations - array of durations (seconds) for each whitelist rounds\r\n     * amountsMax - array of max amounts (TOKEN decimals) for each whitelist round\r\n     *\r\n     */\r\n\r\n    function createLGEWhitelist(\r\n        address pairAddress,\r\n        uint256[] calldata durations,\r\n        uint256[] calldata amountsMax\r\n    ) external onlyWhitelister() {\r\n        require(durations.length == amountsMax.length, \"Invalid whitelist(s)\");\r\n\r\n        _lgePairAddress = pairAddress;\r\n\r\n        if (durations.length > 0) {\r\n            delete _lgeWhitelistRounds;\r\n\r\n            for (uint256 i = 0; i < durations.length; i++) {\r\n                WhitelistRound storage whitelistRound = _lgeWhitelistRounds.push();\r\n                whitelistRound.duration = durations[i];\r\n                whitelistRound.amountMax = amountsMax[i];\r\n            }\r\n        }\r\n    }\r\n\r\n    /*\r\n     * modifyLGEWhitelistAddresses - Define what addresses are included/excluded from a whitelist round\r\n     *\r\n     * index - 0-based index of round to modify whitelist\r\n     * duration - period in seconds from LGE event or previous whitelist round\r\n     * amountMax - max amount (TOKEN decimals) for each whitelist round\r\n     *\r\n     */\r\n\r\n    function modifyLGEWhitelist(\r\n        uint256 index,\r\n        uint256 duration,\r\n        uint256 amountMax,\r\n        address[] calldata addresses,\r\n        bool enabled\r\n    ) external onlyWhitelister() {\r\n        require(index < _lgeWhitelistRounds.length, \"Invalid index\");\r\n        require(amountMax > 0, \"Invalid amountMax\");\r\n\r\n        if (duration != _lgeWhitelistRounds[index].duration) _lgeWhitelistRounds[index].duration = duration;\r\n\r\n        if (amountMax != _lgeWhitelistRounds[index].amountMax) _lgeWhitelistRounds[index].amountMax = amountMax;\r\n\r\n        for (uint256 i = 0; i < addresses.length; i++) {\r\n            _lgeWhitelistRounds[index].addresses[addresses[i]] = enabled;\r\n        }\r\n    }\r\n\r\n    /*\r\n     *  getLGEWhitelistRound\r\n     *\r\n     *  returns:\r\n     *\r\n     *  1. whitelist round number ( 0 = no active round now )\r\n     *  2. duration, in seconds, current whitelist round is active for\r\n     *  3. timestamp current whitelist round closes at\r\n     *  4. maximum amount a whitelister can purchase in this round\r\n     *  5. is caller whitelisted\r\n     *  6. how much caller has purchased in current whitelist round\r\n     *\r\n     */\r\n\r\n    function getLGEWhitelistRound()\r\n        public\r\n        view\r\n        returns (\r\n            uint256,\r\n            uint256,\r\n            uint256,\r\n            uint256,\r\n            bool,\r\n            uint256\r\n        )\r\n    {\r\n        if (_lgeTimestamp > 0) {\r\n            uint256 wlCloseTimestampLast = _lgeTimestamp;\r\n\r\n            for (uint256 i = 0; i < _lgeWhitelistRounds.length; i++) {\r\n                WhitelistRound storage wlRound = _lgeWhitelistRounds[i];\r\n\r\n                wlCloseTimestampLast = wlCloseTimestampLast + wlRound.duration;\r\n                if (block.timestamp <= wlCloseTimestampLast)\r\n                    return (\r\n                        i + 1,\r\n                        wlRound.duration,\r\n                        wlCloseTimestampLast,\r\n                        wlRound.amountMax,\r\n                        wlRound.addresses[_msgSender()],\r\n                        wlRound.purchased[_msgSender()]\r\n                    );\r\n            }\r\n        }\r\n\r\n        return (0, 0, 0, 0, false, 0);\r\n    }\r\n\r\n    /*\r\n     * _applyLGEWhitelist - internal function to be called initially before any transfers\r\n     *\r\n     */\r\n\r\n    function _applyLGEWhitelist(\r\n        address sender,\r\n        address recipient,\r\n        uint256 amount\r\n    ) internal {\r\n        if (_lgePairAddress == address(0) || _lgeWhitelistRounds.length == 0) return;\r\n\r\n        if (_lgeTimestamp == 0 && sender != _lgePairAddress && recipient == _lgePairAddress && amount > 0)\r\n            _lgeTimestamp = block.timestamp;\r\n\r\n        if (sender == _lgePairAddress && recipient != _lgePairAddress) {\r\n            //buying\r\n\r\n            (uint256 wlRoundNumber, , , , , ) = getLGEWhitelistRound();\r\n\r\n            if (wlRoundNumber > 0) {\r\n                WhitelistRound storage wlRound = _lgeWhitelistRounds[wlRoundNumber - 1];\r\n\r\n                require(wlRound.addresses[recipient], \"LGE - Buyer is not whitelisted\");\r\n\r\n                uint256 amountRemaining = 0;\r\n\r\n                if (wlRound.purchased[recipient] < wlRound.amountMax)\r\n                    amountRemaining = wlRound.amountMax - wlRound.purchased[recipient];\r\n\r\n                require(amount <= amountRemaining, \"LGE - Amount exceeds whitelist maximum\");\r\n                wlRound.purchased[recipient] = wlRound.purchased[recipient] + amount;\r\n            }\r\n        }\r\n    }\r\n}\r\n\r\ncontract CSPDTokenWhitelisted is Context, IBEP20, Ownable, LGEWhitelisted {\r\n    \r\n    using SafeMath for uint256;\r\n    \r\n    mapping (address => uint256) private _balances;\r\n    \r\n    mapping (address => mapping (address => uint256)) private _allowances;\r\n    \r\n    uint256 private _totalSupply;\r\n    uint8 private _decimals;\r\n    string private _symbol;\r\n    string private _name;\r\n    \r\n    constructor() {\r\n        _name = \"CSPD\";\r\n        _symbol = \"CSPD\";\r\n        _decimals = 18;\r\n        _totalSupply = 500000000 * 10 ** 18;\r\n        _balances[_msgSender()] = _totalSupply;\r\n\r\n        emit Transfer(address(0), _msgSender(), _totalSupply);\r\n    }\r\n\r\n    /**\r\n    * @dev Returns the bep token owner.\r\n    */\r\n    function getOwner() external view override returns (address) {\r\n        return owner();\r\n    }\r\n    \r\n    /**\r\n    * @dev Returns the token decimals.\r\n    */\r\n    function decimals() external view override returns (uint8) {\r\n        return _decimals;\r\n    }\r\n    \r\n    /**\r\n    * @dev Returns the token symbol.\r\n    */\r\n    function symbol() external view override returns (string memory) {\r\n        return _symbol;\r\n    }\r\n    \r\n    /**\r\n    * @dev Returns the token name.\r\n    */\r\n    function name() external view override returns (string memory) {\r\n        return _name;\r\n    }\r\n    \r\n    /**\r\n    * @dev See {CSPD-totalSupply}.\r\n    */\r\n    function totalSupply() external view override returns (uint256) {\r\n        return _totalSupply;\r\n    }\r\n    \r\n    /**\r\n    * @dev See {CSPD-balanceOf}.\r\n    */\r\n    function balanceOf(address account) external view override returns (uint256) {\r\n        return _balances[account];\r\n    }\r\n    \r\n    /**\r\n    * @dev See {CSPD-transfer}.\r\n    *\r\n    * Requirements:\r\n    *\r\n    * - `recipient` cannot be the zero address.\r\n    * - the caller must have a balance of at least `amount`.\r\n    */\r\n    function transfer(address recipient, uint256 amount) external override returns (bool) {\r\n        _transfer(_msgSender(), recipient, amount);\r\n        return true;\r\n    }\r\n    \r\n    /**\r\n    * @dev See {CSPD-allowance}.\r\n    */\r\n    function allowance(address owner, address spender) external view override returns (uint256) {\r\n        return _allowances[owner][spender];\r\n    }\r\n    \r\n    /**\r\n    * @dev See {CSPD-approve}.\r\n    *\r\n    * Requirements:\r\n    *\r\n    * - `spender` cannot be the zero address.\r\n    */\r\n    function approve(address spender, uint256 amount) external override returns (bool) {\r\n        _approve(_msgSender(), spender, amount);\r\n        return true;\r\n    }\r\n    \r\n    /**\r\n    * @dev See {CSPD-transferFrom}.\r\n    *\r\n    * Emits an {Approval} event indicating the updated allowance. This is not\r\n    * required by the EIP. See the note at the beginning of {CSPD};\r\n    *\r\n    * Requirements:\r\n    * - `sender` and `recipient` cannot be the zero address.\r\n    * - `sender` must have a balance of at least `amount`.\r\n    * - the caller must have allowance for `sender`'s tokens of at least\r\n    * `amount`.\r\n    */\r\n    function transferFrom(address sender, address recipient, uint256 amount) external override returns (bool) {\r\n        _transfer(sender, recipient, amount);\r\n        _approve(sender, _msgSender(), _allowances[sender][_msgSender()].sub(amount, \"CSPD: transfer amount exceeds allowance\"));\r\n        return true;\r\n    }\r\n    \r\n    /**\r\n    * @dev Atomically increases the allowance granted to `spender` by the caller.\r\n    *\r\n    * This is an alternative to {approve} that can be used as a mitigation for\r\n    * problems described in {CSPD-approve}.\r\n    *\r\n    * Emits an {Approval} event indicating the updated allowance.\r\n    *\r\n    * Requirements:\r\n    *\r\n    * - `spender` cannot be the zero address.\r\n    */\r\n    function increaseAllowance(address spender, uint256 addedValue) external returns (bool) {\r\n        _approve(_msgSender(), spender, _allowances[_msgSender()][spender].add(addedValue));\r\n        return true;\r\n    }\r\n    \r\n    /**\r\n    * @dev Atomically decreases the allowance granted to `spender` by the caller.\r\n    *\r\n    * This is an alternative to {approve} that can be used as a mitigation for\r\n    * problems described in {CSPD-approve}.\r\n    *\r\n    * Emits an {Approval} event indicating the updated allowance.\r\n    *\r\n    * Requirements:\r\n    *\r\n    * - `spender` cannot be the zero address.\r\n    * - `spender` must have allowance for the caller of at least\r\n    * `subtractedValue`.\r\n    */\r\n    function decreaseAllowance(address spender, uint256 subtractedValue) external returns (bool) {\r\n        _approve(_msgSender(), spender, _allowances[_msgSender()][spender].sub(subtractedValue, \"CSPD: decreased allowance below zero\"));\r\n        return true;\r\n    }\r\n    \r\n    /**\r\n    * @dev Moves tokens `amount` from `sender` to `recipient`.\r\n    *\r\n    * This is internal function is equivalent to {transfer}, and can be used to\r\n    * e.g. implement automatic token fees, slashing mechanisms, etc.\r\n    *\r\n    * Emits a {Transfer} event.\r\n    *\r\n    * Requirements:\r\n    *\r\n    * - `sender` cannot be the zero address.\r\n    * - `recipient` cannot be the zero address.\r\n    * - `sender` must have a balance of at least `amount`.\r\n    */\r\n    function _transfer(address sender, address recipient, uint256 amount) internal {\r\n        require(sender != address(0), \"CSPD: transfer from the zero address\");\r\n        require(recipient != address(0), \"CSPD: transfer to the zero address\");\r\n        \r\n        _applyLGEWhitelist(sender, recipient, amount);\r\n        \r\n        _balances[sender] = _balances[sender].sub(amount, \"CSPD: transfer amount exceeds balance\");\r\n        _balances[recipient] = _balances[recipient].add(amount);\r\n        emit Transfer(sender, recipient, amount);\r\n    }\r\n    \r\n    /**\r\n    * @dev Sets `amount` as the allowance of `spender` over the `owner`s tokens.\r\n    *\r\n    * This is internal function is equivalent to `approve`, and can be used to\r\n    * e.g. set automatic allowances for certain subsystems, etc.\r\n    *\r\n    * Emits an {Approval} event.\r\n    *\r\n    * Requirements:\r\n    *\r\n    * - `owner` cannot be the zero address.\r\n    * - `spender` cannot be the zero address.\r\n    */\r\n    function _approve(address owner, address spender, uint256 amount) internal {\r\n        require(owner != address(0), \"CSPD: approve from the zero address\");\r\n        require(spender != address(0), \"CSPD: approve to the zero address\");\r\n        \r\n        _allowances[owner][spender] = amount;\r\n        emit Approval(owner, spender, amount);\r\n    }\r\n    \r\n}",
  "sourcePath": "D:\\Work Space\\CasperPad\\CasperPadToken_Contract\\contracts\\CasperPad.sol",
  "compiler": {
    "name": "solc",
    "version": "0.8.7+commit.e28d00a7.Emscripten.clang"
  },
  "schemaVersion": "3.4.3",
  "updatedAt": "2021-11-27T12:50:13.407Z",
  "devdoc": {
    "kind": "dev",
    "methods": {},
    "version": 1
  },
  "userdoc": {
    "kind": "user",
    "methods": {},
    "version": 1
  }
}