{
  "contractName": "Vesting",
  "abi": [
    {
      "inputs": [
        {
          "internalType": "address",
          "name": "_token",
          "type": "address"
        }
      ],
      "stateMutability": "nonpayable",
      "type": "constructor"
    },
    {
      "anonymous": false,
      "inputs": [
        {
          "indexed": false,
          "internalType": "address",
          "name": "account",
          "type": "address"
        }
      ],
      "name": "Cancelled",
      "type": "event"
    },
    {
      "anonymous": false,
      "inputs": [
        {
          "indexed": true,
          "internalType": "address",
          "name": "claimer",
          "type": "address"
        },
        {
          "indexed": false,
          "internalType": "uint256",
          "name": "amount",
          "type": "uint256"
        }
      ],
      "name": "Claim",
      "type": "event"
    },
    {
      "anonymous": false,
      "inputs": [
        {
          "indexed": true,
          "internalType": "address",
          "name": "investor",
          "type": "address"
        },
        {
          "indexed": false,
          "internalType": "uint256",
          "name": "amount",
          "type": "uint256"
        }
      ],
      "name": "NewVesting",
      "type": "event"
    },
    {
      "anonymous": false,
      "inputs": [
        {
          "indexed": true,
          "internalType": "address",
          "name": "previousOwner",
          "type": "address"
        },
        {
          "indexed": true,
          "internalType": "address",
          "name": "newOwner",
          "type": "address"
        }
      ],
      "name": "OwnershipTransferred",
      "type": "event"
    },
    {
      "anonymous": false,
      "inputs": [
        {
          "indexed": true,
          "internalType": "address",
          "name": "to",
          "type": "address"
        },
        {
          "indexed": false,
          "internalType": "uint256",
          "name": "amount",
          "type": "uint256"
        },
        {
          "indexed": false,
          "internalType": "bool",
          "name": "isFixed",
          "type": "bool"
        }
      ],
      "name": "Vest",
      "type": "event"
    },
    {
      "inputs": [
        {
          "internalType": "uint256",
          "name": "",
          "type": "uint256"
        }
      ],
      "name": "amounts",
      "outputs": [
        {
          "internalType": "uint256",
          "name": "",
          "type": "uint256"
        }
      ],
      "stateMutability": "view",
      "type": "function"
    },
    {
      "inputs": [
        {
          "internalType": "address",
          "name": "",
          "type": "address"
        }
      ],
      "name": "locked",
      "outputs": [
        {
          "internalType": "uint256",
          "name": "",
          "type": "uint256"
        }
      ],
      "stateMutability": "view",
      "type": "function"
    },
    {
      "inputs": [
        {
          "internalType": "uint256",
          "name": "",
          "type": "uint256"
        }
      ],
      "name": "members",
      "outputs": [
        {
          "internalType": "address",
          "name": "",
          "type": "address"
        }
      ],
      "stateMutability": "view",
      "type": "function"
    },
    {
      "inputs": [
        {
          "internalType": "address",
          "name": "",
          "type": "address"
        }
      ],
      "name": "numberOfSchedules",
      "outputs": [
        {
          "internalType": "uint256",
          "name": "",
          "type": "uint256"
        }
      ],
      "stateMutability": "view",
      "type": "function"
    },
    {
      "inputs": [],
      "name": "numberOfTiers",
      "outputs": [
        {
          "internalType": "uint256",
          "name": "",
          "type": "uint256"
        }
      ],
      "stateMutability": "view",
      "type": "function"
    },
    {
      "inputs": [],
      "name": "owner",
      "outputs": [
        {
          "internalType": "address",
          "name": "",
          "type": "address"
        }
      ],
      "stateMutability": "view",
      "type": "function"
    },
    {
      "inputs": [],
      "name": "renounceOwnership",
      "outputs": [],
      "stateMutability": "nonpayable",
      "type": "function"
    },
    {
      "inputs": [
        {
          "internalType": "uint256",
          "name": "",
          "type": "uint256"
        }
      ],
      "name": "schedulePlain",
      "outputs": [
        {
          "internalType": "uint256",
          "name": "percentage",
          "type": "uint256"
        },
        {
          "internalType": "uint256",
          "name": "unlockTime",
          "type": "uint256"
        }
      ],
      "stateMutability": "view",
      "type": "function"
    },
    {
      "inputs": [
        {
          "internalType": "address",
          "name": "",
          "type": "address"
        },
        {
          "internalType": "uint256",
          "name": "",
          "type": "uint256"
        }
      ],
      "name": "schedules",
      "outputs": [
        {
          "internalType": "uint256",
          "name": "amount",
          "type": "uint256"
        },
        {
          "internalType": "uint256",
          "name": "claimedAmount",
          "type": "uint256"
        },
        {
          "internalType": "uint256",
          "name": "unlockTime",
          "type": "uint256"
        },
        {
          "internalType": "bool",
          "name": "isFixed",
          "type": "bool"
        }
      ],
      "stateMutability": "view",
      "type": "function"
    },
    {
      "inputs": [
        {
          "internalType": "uint256",
          "name": "",
          "type": "uint256"
        }
      ],
      "name": "tiers",
      "outputs": [
        {
          "internalType": "uint256",
          "name": "tierId",
          "type": "uint256"
        },
        {
          "internalType": "uint256",
          "name": "amountMax",
          "type": "uint256"
        }
      ],
      "stateMutability": "view",
      "type": "function"
    },
    {
      "inputs": [],
      "name": "token",
      "outputs": [
        {
          "internalType": "contract IBEP20",
          "name": "",
          "type": "address"
        }
      ],
      "stateMutability": "view",
      "type": "function"
    },
    {
      "inputs": [
        {
          "internalType": "address",
          "name": "newOwner",
          "type": "address"
        }
      ],
      "name": "transferOwnership",
      "outputs": [],
      "stateMutability": "nonpayable",
      "type": "function"
    },
    {
      "inputs": [
        {
          "internalType": "uint256",
          "name": "",
          "type": "uint256"
        }
      ],
      "name": "vestingTimeList",
      "outputs": [
        {
          "internalType": "uint256",
          "name": "",
          "type": "uint256"
        }
      ],
      "stateMutability": "view",
      "type": "function"
    },
    {
      "inputs": [
        {
          "internalType": "address",
          "name": "",
          "type": "address"
        }
      ],
      "name": "whitelistOfTiers",
      "outputs": [
        {
          "internalType": "uint256",
          "name": "",
          "type": "uint256"
        }
      ],
      "stateMutability": "view",
      "type": "function"
    },
    {
      "inputs": [
        {
          "internalType": "address",
          "name": "account",
          "type": "address"
        },
        {
          "internalType": "uint256",
          "name": "amount",
          "type": "uint256"
        },
        {
          "internalType": "bool",
          "name": "isFixed",
          "type": "bool"
        }
      ],
      "name": "addVest",
      "outputs": [],
      "stateMutability": "nonpayable",
      "type": "function"
    },
    {
      "inputs": [
        {
          "internalType": "address[]",
          "name": "accounts",
          "type": "address[]"
        },
        {
          "internalType": "uint256[]",
          "name": "amount",
          "type": "uint256[]"
        },
        {
          "internalType": "bool",
          "name": "isFixed",
          "type": "bool"
        }
      ],
      "name": "addMultiVest",
      "outputs": [],
      "stateMutability": "nonpayable",
      "type": "function"
    },
    {
      "inputs": [
        {
          "internalType": "uint256",
          "name": "scheduleNumber",
          "type": "uint256"
        }
      ],
      "name": "claim",
      "outputs": [],
      "stateMutability": "nonpayable",
      "type": "function"
    },
    {
      "inputs": [
        {
          "internalType": "address",
          "name": "account",
          "type": "address"
        },
        {
          "internalType": "uint256",
          "name": "scheduleId",
          "type": "uint256"
        }
      ],
      "name": "rug",
      "outputs": [],
      "stateMutability": "nonpayable",
      "type": "function"
    },
    {
      "inputs": [
        {
          "internalType": "uint256",
          "name": "amount",
          "type": "uint256"
        }
      ],
      "name": "withdraw",
      "outputs": [],
      "stateMutability": "nonpayable",
      "type": "function"
    },
    {
      "inputs": [
        {
          "internalType": "uint256[]",
          "name": "tierIds",
          "type": "uint256[]"
        },
        {
          "internalType": "uint256[]",
          "name": "amountsMax",
          "type": "uint256[]"
        }
      ],
      "name": "setTiers",
      "outputs": [],
      "stateMutability": "nonpayable",
      "type": "function"
    },
    {
      "inputs": [
        {
          "internalType": "address",
          "name": "account",
          "type": "address"
        },
        {
          "internalType": "uint256",
          "name": "indexOfTier",
          "type": "uint256"
        }
      ],
      "name": "setTierOfAccount",
      "outputs": [],
      "stateMutability": "nonpayable",
      "type": "function"
    },
    {
      "inputs": [
        {
          "internalType": "address",
          "name": "account",
          "type": "address"
        }
      ],
      "name": "getTierIdOfAccount",
      "outputs": [
        {
          "internalType": "uint256",
          "name": "",
          "type": "uint256"
        }
      ],
      "stateMutability": "view",
      "type": "function"
    },
    {
      "inputs": [
        {
          "internalType": "address",
          "name": "account",
          "type": "address"
        }
      ],
      "name": "getTierAmountMaxOfAccount",
      "outputs": [
        {
          "internalType": "uint256",
          "name": "",
          "type": "uint256"
        }
      ],
      "stateMutability": "view",
      "type": "function"
    }
  ],
  "bytecode": "0x60806040523480156200001157600080fd5b50604051620040433803806200404383398181016040528101906200003791906200102f565b620000576200004b620009d260201b60201c565b620009da60201b60201c565b80600160006101000a81548173ffffffffffffffffffffffffffffffffffffffff021916908373ffffffffffffffffffffffffffffffffffffffff1602179055506002730c25363022587299510774e036ad0786829912569080600181540180825580915050600190039060005260206000200160009091909190916101000a81548173ffffffffffffffffffffffffffffffffffffffff021916908373ffffffffffffffffffffffffffffffffffffffff160217905550600273026116102ae7e558cd436325158d54020efcf0ef9080600181540180825580915050600190039060005260206000200160009091909190916101000a81548173ffffffffffffffffffffffffffffffffffffffff021916908373ffffffffffffffffffffffffffffffffffffffff1602179055506002734b674da5e20067b8213263720d958b5e7abd7d8c9080600181540180825580915050600190039060005260206000200160009091909190916101000a81548173ffffffffffffffffffffffffffffffffffffffff021916908373ffffffffffffffffffffffffffffffffffffffff160217905550600273d157d2ff5393c509777765cf612284d53d38de309080600181540180825580915050600190039060005260206000200160009091909190916101000a81548173ffffffffffffffffffffffffffffffffffffffff021916908373ffffffffffffffffffffffffffffffffffffffff160217905550600273fcf2668c4ec68d2bbd36a476e30227744a0f5eb89080600181540180825580915050600190039060005260206000200160009091909190916101000a81548173ffffffffffffffffffffffffffffffffffffffff021916908373ffffffffffffffffffffffffffffffffffffffff1602179055506002733719d24fa12f32877f894c6f51feecf91f16b44f9080600181540180825580915050600190039060005260206000200160009091909190916101000a81548173ffffffffffffffffffffffffffffffffffffffff021916908373ffffffffffffffffffffffffffffffffffffffff160217905550600273c0eaa0018b1192de0c8ca46e57b84ee907e01bac9080600181540180825580915050600190039060005260206000200160009091909190916101000a81548173ffffffffffffffffffffffffffffffffffffffff021916908373ffffffffffffffffffffffffffffffffffffffff160217905550600273c50dd8028b1c6914b67f4657f0155e5d2ce1e2269080600181540180825580915050600190039060005260206000200160009091909190916101000a81548173ffffffffffffffffffffffffffffffffffffffff021916908373ffffffffffffffffffffffffffffffffffffffff1602179055506002735b588e36ff358d4376a76fb163fd69da02a2a9a59080600181540180825580915050600190039060005260206000200160009091909190916101000a81548173ffffffffffffffffffffffffffffffffffffffff021916908373ffffffffffffffffffffffffffffffffffffffff160217905550600273a5664dc01bb8369edc6116d3b267d6014681dd2f9080600181540180825580915050600190039060005260206000200160009091909190916101000a81548173ffffffffffffffffffffffffffffffffffffffff021916908373ffffffffffffffffffffffffffffffffffffffff1602179055506003624c4b4090806001815401808255809150506001900390600052602060002001600090919091909150556003624c4b4090806001815401808255809150506001900390600052602060002001600090919091909150556003624c4b4090806001815401808255809150506001900390600052602060002001600090919091909150556003624c4b4090806001815401808255809150506001900390600052602060002001600090919091909150556003624c4b4090806001815401808255809150506001900390600052602060002001600090919091909150556003624c4b4090806001815401808255809150506001900390600052602060002001600090919091909150556003624c4b4090806001815401808255809150506001900390600052602060002001600090919091909150556003624c4b4090806001815401808255809150506001900390600052602060002001600090919091909150556003624c4b4090806001815401808255809150506001900390600052602060002001600090919091909150556003624c4b409080600181540180825580915050600190039060005260206000200160009091909190915055600463617c2890908060018154018082558091505060019003906000526020600020016000909190919091505560046361a50710908060018154018082558091505060019003906000526020600020016000909190919091505560046361cde590908060018154018082558091505060019003906000526020600020016000909190919091505560046361f6c4109080600181540180825580915050600190039060005260206000200160009091909190915055600463621bae10908060018154018082558091505060019003906000526020600020016000909190919091505560046362448c90908060018154018082558091505060019003906000526020600020016000909190919091505560005b6004805490508110156200092c5760008114156200089d576008604051806040016040528060058152602001600484815481106200084a576200084962001431565b5b906000526020600020015481525090806001815401808255809150506001900390600052602060002090600202016000909190919091506000820151816000015560208201518160010155505062000916565b600860405180604001604052806013815260200160048481548110620008c857620008c762001431565b5b90600052602060002001548152509080600181540180825580915050600190039060005260206000209060020201600090919091909150600082015181600001556020820151816001015550505b8080620009239062001385565b91505062000807565b5060005b600280549050811015620009ca57620009b46002828154811062000959576200095862001431565b5b9060005260206000200160009054906101000a900473ffffffffffffffffffffffffffffffffffffffff16600383815481106200099b576200099a62001431565b5b9060005260206000200154600162000a9e60201b60201c565b8080620009c19062001385565b91505062000930565b50506200153d565b600033905090565b60008060009054906101000a900473ffffffffffffffffffffffffffffffffffffffff169050816000806101000a81548173ffffffffffffffffffffffffffffffffffffffff021916908373ffffffffffffffffffffffffffffffffffffffff1602179055508173ffffffffffffffffffffffffffffffffffffffff168173ffffffffffffffffffffffffffffffffffffffff167f8be0079c531659141344cd1fd0a4f28419497f9722a3daafe3b4186f6b6457e060405160405180910390a35050565b62000aae620009d260201b60201c565b73ffffffffffffffffffffffffffffffffffffffff1662000ad462000fd860201b60201c565b73ffffffffffffffffffffffffffffffffffffffff161462000b2d576040517f08c379a000000000000000000000000000000000000000000000000000000000815260040162000b2490620011a1565b60405180910390fd5b6000821162000b73576040517f08c379a000000000000000000000000000000000000000000000000000000000815260040162000b6a906200117f565b60405180910390fd5b6000600b6000600160009054906101000a900473ffffffffffffffffffffffffffffffffffffffff1673ffffffffffffffffffffffffffffffffffffffff1673ffffffffffffffffffffffffffffffffffffffff168152602001908152602001600020549050828162000be7919062001245565b600160009054906101000a900473ffffffffffffffffffffffffffffffffffffffff1673ffffffffffffffffffffffffffffffffffffffff166370a08231306040518263ffffffff1660e01b815260040162000c44919062001162565b60206040518083038186803b15801562000c5d57600080fd5b505afa15801562000c72573d6000803e3d6000fd5b505050506040513d601f19601f8201168201806040525081019062000c98919062001061565b101562000cdc576040517f08c379a000000000000000000000000000000000000000000000000000000000815260040162000cd390620011e5565b60405180910390fd5b6000600a60008673ffffffffffffffffffffffffffffffffffffffff1673ffffffffffffffffffffffffffffffffffffffff1681526020019081526020016000205490506000811462000d66576040517f08c379a000000000000000000000000000000000000000000000000000000000815260040162000d5d90620011c3565b60405180910390fd5b60005b60088054905081101562000f7e57600060646008838154811062000d925762000d9162001431565b5b9060005260206000209060020201600001548762000db19190620012da565b62000dbd9190620012a2565b905060006008838154811062000dd85762000dd762001431565b5b9060005260206000209060020201600101549050604051806080016040528083815260200160008152602001828152602001871515815250600960008a73ffffffffffffffffffffffffffffffffffffffff1673ffffffffffffffffffffffffffffffffffffffff168152602001908152602001600020600086815260200190815260200160002060008201518160000155602082015181600101556040820151816002015560608201518160030160006101000a81548160ff02191690831515021790555090505060018462000eb0919062001245565b600a60008a73ffffffffffffffffffffffffffffffffffffffff1673ffffffffffffffffffffffffffffffffffffffff16815260200190815260200160002081905550868562000f01919062001245565b600b6000600160009054906101000a900473ffffffffffffffffffffffffffffffffffffffff1673ffffffffffffffffffffffffffffffffffffffff1673ffffffffffffffffffffffffffffffffffffffff168152602001908152602001600020819055505050808062000f759062001385565b91505062000d69565b508473ffffffffffffffffffffffffffffffffffffffff167fc2235e7a8f71f215b03c512b1b98b5a986c2e8d8ea18654d45e710a1a4ce399a858560405162000fc992919062001207565b60405180910390a25050505050565b60008060009054906101000a900473ffffffffffffffffffffffffffffffffffffffff16905090565b600081519050620010128162001509565b92915050565b600081519050620010298162001523565b92915050565b60006020828403121562001048576200104762001460565b5b6000620010588482850162001001565b91505092915050565b6000602082840312156200107a576200107962001460565b5b60006200108a8482850162001018565b91505092915050565b6200109e816200133b565b82525050565b620010af816200134f565b82525050565b6000620010c4601f8362001234565b9150620010d18262001465565b602082019050919050565b6000620010eb60208362001234565b9150620010f8826200148e565b602082019050919050565b60006200111260128362001234565b91506200111f82620014b7565b602082019050919050565b600062001139601a8362001234565b91506200114682620014e0565b602082019050919050565b6200115c816200137b565b82525050565b600060208201905062001179600083018462001093565b92915050565b600060208201905081810360008301526200119a81620010b5565b9050919050565b60006020820190508181036000830152620011bc81620010dc565b9050919050565b60006020820190508181036000830152620011de8162001103565b9050919050565b6000602082019050818103600083015262001200816200112a565b9050919050565b60006040820190506200121e600083018562001151565b6200122d6020830184620010a4565b9392505050565b600082825260208201905092915050565b600062001252826200137b565b91506200125f836200137b565b9250827fffffffffffffffffffffffffffffffffffffffffffffffffffffffffffffffff03821115620012975762001296620013d3565b5b828201905092915050565b6000620012af826200137b565b9150620012bc836200137b565b925082620012cf57620012ce62001402565b5b828204905092915050565b6000620012e7826200137b565b9150620012f4836200137b565b9250817fffffffffffffffffffffffffffffffffffffffffffffffffffffffffffffffff048311821515161562001330576200132f620013d3565b5b828202905092915050565b600062001348826200135b565b9050919050565b60008115159050919050565b600073ffffffffffffffffffffffffffffffffffffffff82169050919050565b6000819050919050565b600062001392826200137b565b91507fffffffffffffffffffffffffffffffffffffffffffffffffffffffffffffffff821415620013c857620013c7620013d3565b5b600182019050919050565b7f4e487b7100000000000000000000000000000000000000000000000000000000600052601160045260246000fd5b7f4e487b7100000000000000000000000000000000000000000000000000000000600052601260045260246000fd5b7f4e487b7100000000000000000000000000000000000000000000000000000000600052603260045260246000fd5b600080fd5b7f56657374696e673a20696e76616c69642076657374696e6720706172616d7300600082015250565b7f4f776e61626c653a2063616c6c6572206973206e6f7420746865206f776e6572600082015250565b7f616c726561647920657869737420757365720000000000000000000000000000600082015250565b7f56657374696e673a204e6f7420656e6f75676820746f6b656e73000000000000600082015250565b62001514816200133b565b81146200152057600080fd5b50565b6200152e816200137b565b81146200153a57600080fd5b50565b612af6806200154d6000396000f3fe608060405234801561001057600080fd5b506004361061014d5760003560e01c8063715018a6116100c3578063cbf9fe5f1161007c578063cbf9fe5f146103c5578063d018eb0f146103f5578063df681c1414610425578063f2fde38b14610455578063fc0c546a14610471578063ffb4b1be1461048f5761014d565b8063715018a6146102ee57806373bea3b2146102f857806382c72ba114610314578063854e9682146103445780638da5cb5b14610377578063b17a58cf146103955761014d565b80633405ba2f116101155780633405ba2f146101f3578063379607f51461022457806345f0a44f146102405780635daf08ca14610270578063654bf2f7146102a05780636e27a2e5146102d05761014d565b8063039af9eb146101525780631b8ebc3c1461018357806329c6a24e1461019f5780632e1a7d4d146101bb5780632fe5a51f146101d7575b600080fd5b61016c60048036038101906101679190611f5b565b6104ab565b60405161017a9291906124c4565b60405180910390f35b61019d60048036038101906101989190611ead565b6104cf565b005b6101b960048036038101906101b49190611d85565b6106be565b005b6101d560048036038101906101d09190611f5b565b6107d3565b005b6101f160048036038101906101ec9190611e18565b610aa0565b005b61020d60048036038101906102089190611f5b565b610bdb565b60405161021b9291906124c4565b60405180910390f35b61023e60048036038101906102399190611f5b565b610c0f565b005b61025a60048036038101906102559190611f5b565b610f2d565b6040516102679190612480565b60405180910390f35b61028a60048036038101906102859190611f5b565b610f51565b6040516102979190612221565b60405180910390f35b6102ba60048036038101906102b59190611d58565b610f90565b6040516102c79190612480565b60405180910390f35b6102d8610ff4565b6040516102e59190612480565b60405180910390f35b6102f6610ffa565b005b610312600480360381019061030d9190611dc5565b611082565b005b61032e60048036038101906103299190611d58565b611584565b60405161033b9190612480565b60405180910390f35b61035e60048036038101906103599190611d85565b6115ee565b60405161036e94939291906124ed565b60405180910390f35b61037f611638565b60405161038c9190612221565b60405180910390f35b6103af60048036038101906103aa9190611d58565b611661565b6040516103bc9190612480565b60405180910390f35b6103df60048036038101906103da9190611d58565b611679565b6040516103ec9190612480565b60405180910390f35b61040f600480360381019061040a9190611f5b565b611691565b60405161041c9190612480565b60405180910390f35b61043f600480360381019061043a9190611d58565b6116b5565b60405161044c9190612480565b60405180910390f35b61046f600480360381019061046a9190611d58565b6116cd565b005b6104796117c5565b6040516104869190612265565b60405180910390f35b6104a960048036038101906104a49190611d85565b6117eb565b005b60066020528060005260406000206000915090508060000154908060010154905082565b6104d7611b77565b73ffffffffffffffffffffffffffffffffffffffff166104f5611638565b73ffffffffffffffffffffffffffffffffffffffff161461054b576040517f08c379a0000000000000000000000000000000000000000000000000000000008152600401610542906123c0565b60405180910390fd5b6000848490509050808383905014610598576040517f08c379a000000000000000000000000000000000000000000000000000000000815260040161058f90612460565b60405180910390fd5b60005b818110156106af576001151560008787848181106105bc576105bb61277d565b5b905060200201351115151480156105ec575060008484838181106105e3576105e261277d565b5b90506020020135115b61062b576040517f08c379a0000000000000000000000000000000000000000000000000000000008152600401610622906123a0565b60405180910390fd5b60405180604001604052808787848181106106495761064861277d565b5b9050602002013581526020018585848181106106685761066761277d565b5b9050602002013581525060066000838152602001908152602001600020600082015181600001556020820151816001015590505080806106a7906126d6565b91505061059b565b50806005819055505050505050565b6106c6611b77565b73ffffffffffffffffffffffffffffffffffffffff166106e4611638565b73ffffffffffffffffffffffffffffffffffffffff161461073a576040517f08c379a0000000000000000000000000000000000000000000000000000000008152600401610731906123c0565b60405180910390fd5b6000811015801561074c575060055481105b61078b576040517f08c379a000000000000000000000000000000000000000000000000000000000815260040161078290612320565b60405180910390fd5b80600760008473ffffffffffffffffffffffffffffffffffffffff1673ffffffffffffffffffffffffffffffffffffffff168152602001908152602001600020819055505050565b6107db611b77565b73ffffffffffffffffffffffffffffffffffffffff166107f9611638565b73ffffffffffffffffffffffffffffffffffffffff161461084f576040517f08c379a0000000000000000000000000000000000000000000000000000000008152600401610846906123c0565b60405180910390fd5b80600b6000600160009054906101000a900473ffffffffffffffffffffffffffffffffffffffff1673ffffffffffffffffffffffffffffffffffffffff1673ffffffffffffffffffffffffffffffffffffffff16815260200190815260200160002054600160009054906101000a900473ffffffffffffffffffffffffffffffffffffffff1673ffffffffffffffffffffffffffffffffffffffff166370a08231306040518263ffffffff1660e01b815260040161090d9190612221565b60206040518083038186803b15801561092557600080fd5b505afa158015610939573d6000803e3d6000fd5b505050506040513d601f19601f8201168201806040525081019061095d9190611f88565b6109679190612624565b10156109a8576040517f08c379a000000000000000000000000000000000000000000000000000000000815260040161099f90612280565b60405180910390fd5b600160009054906101000a900473ffffffffffffffffffffffffffffffffffffffff1673ffffffffffffffffffffffffffffffffffffffff1663a9059cbb6109ee611638565b836040518363ffffffff1660e01b8152600401610a0c92919061223c565b602060405180830381600087803b158015610a2657600080fd5b505af1158015610a3a573d6000803e3d6000fd5b505050506040513d601f19601f82011682018060405250810190610a5e9190611f2e565b610a9d576040517f08c379a0000000000000000000000000000000000000000000000000000000008152600401610a94906122c0565b60405180910390fd5b50565b610aa8611b77565b73ffffffffffffffffffffffffffffffffffffffff16610ac6611638565b73ffffffffffffffffffffffffffffffffffffffff1614610b1c576040517f08c379a0000000000000000000000000000000000000000000000000000000008152600401610b13906123c0565b60405180910390fd5b6000858590509050808484905014610b69576040517f08c379a0000000000000000000000000000000000000000000000000000000008152600401610b6090612340565b60405180910390fd5b60005b81811015610bd257610bbf878783818110610b8a57610b8961277d565b5b9050602002016020810190610b9f9190611d58565b868684818110610bb257610bb161277d565b5b9050602002013585611082565b8080610bca906126d6565b915050610b6c565b50505050505050565b60088181548110610beb57600080fd5b90600052602060002090600202016000915090508060000154908060010154905082565b6000600960003373ffffffffffffffffffffffffffffffffffffffff1673ffffffffffffffffffffffffffffffffffffffff168152602001908152602001600020600083815260200190815260200160002090504281600201541115610caa576040517f08c379a0000000000000000000000000000000000000000000000000000000008152600401610ca190612380565b60405180910390fd5b6000816000015411610cf1576040517f08c379a0000000000000000000000000000000000000000000000000000000008152600401610ce890612440565b60405180910390fd5b600081600101548260000154610d079190612624565b90508160000154826001018190555080600b6000600160009054906101000a900473ffffffffffffffffffffffffffffffffffffffff1673ffffffffffffffffffffffffffffffffffffffff1673ffffffffffffffffffffffffffffffffffffffff16815260200190815260200160002054610d839190612624565b600b6000600160009054906101000a900473ffffffffffffffffffffffffffffffffffffffff1673ffffffffffffffffffffffffffffffffffffffff1673ffffffffffffffffffffffffffffffffffffffff16815260200190815260200160002081905550600160009054906101000a900473ffffffffffffffffffffffffffffffffffffffff1673ffffffffffffffffffffffffffffffffffffffff1663a9059cbb33836040518363ffffffff1660e01b8152600401610e4592919061223c565b602060405180830381600087803b158015610e5f57600080fd5b505af1158015610e73573d6000803e3d6000fd5b505050506040513d601f19601f82011682018060405250810190610e979190611f2e565b610ed6576040517f08c379a0000000000000000000000000000000000000000000000000000000008152600401610ecd90612360565b60405180910390fd5b3373ffffffffffffffffffffffffffffffffffffffff167f47cee97cb7acd717b3c0aa1435d004cd5b3c8c57d70dbceb4e4458bbd60e39d48360000154604051610f209190612480565b60405180910390a2505050565b60038181548110610f3d57600080fd5b906000526020600020016000915090505481565b60028181548110610f6157600080fd5b906000526020600020016000915054906101000a900473ffffffffffffffffffffffffffffffffffffffff1681565b600080600760008473ffffffffffffffffffffffffffffffffffffffff1673ffffffffffffffffffffffffffffffffffffffff1681526020019081526020016000205490506006600082815260200190815260200160002060010154915050919050565b60055481565b611002611b77565b73ffffffffffffffffffffffffffffffffffffffff16611020611638565b73ffffffffffffffffffffffffffffffffffffffff1614611076576040517f08c379a000000000000000000000000000000000000000000000000000000000815260040161106d906123c0565b60405180910390fd5b6110806000611b7f565b565b61108a611b77565b73ffffffffffffffffffffffffffffffffffffffff166110a8611638565b73ffffffffffffffffffffffffffffffffffffffff16146110fe576040517f08c379a00000000000000000000000000000000000000000000000000000000081526004016110f5906123c0565b60405180910390fd5b60008211611141576040517f08c379a0000000000000000000000000000000000000000000000000000000008152600401611138906122e0565b60405180910390fd5b6000600b6000600160009054906101000a900473ffffffffffffffffffffffffffffffffffffffff1673ffffffffffffffffffffffffffffffffffffffff1673ffffffffffffffffffffffffffffffffffffffff16815260200190815260200160002054905082816111b39190612543565b600160009054906101000a900473ffffffffffffffffffffffffffffffffffffffff1673ffffffffffffffffffffffffffffffffffffffff166370a08231306040518263ffffffff1660e01b815260040161120e9190612221565b60206040518083038186803b15801561122657600080fd5b505afa15801561123a573d6000803e3d6000fd5b505050506040513d601f19601f8201168201806040525081019061125e9190611f88565b101561129f576040517f08c379a000000000000000000000000000000000000000000000000000000000815260040161129690612420565b60405180910390fd5b6000600a60008673ffffffffffffffffffffffffffffffffffffffff1673ffffffffffffffffffffffffffffffffffffffff16815260200190815260200160002054905060008114611326576040517f08c379a000000000000000000000000000000000000000000000000000000000815260040161131d906123e0565b60405180910390fd5b60005b60088054905081101561152c57600060646008838154811061134e5761134d61277d565b5b9060005260206000209060020201600001548761136b91906125ca565b6113759190612599565b905060006008838154811061138d5761138c61277d565b5b9060005260206000209060020201600101549050604051806080016040528083815260200160008152602001828152602001871515815250600960008a73ffffffffffffffffffffffffffffffffffffffff1673ffffffffffffffffffffffffffffffffffffffff168152602001908152602001600020600086815260200190815260200160002060008201518160000155602082015181600101556040820151816002015560608201518160030160006101000a81548160ff0219169083151502179055509050506001846114639190612543565b600a60008a73ffffffffffffffffffffffffffffffffffffffff1673ffffffffffffffffffffffffffffffffffffffff1681526020019081526020016000208190555086856114b29190612543565b600b6000600160009054906101000a900473ffffffffffffffffffffffffffffffffffffffff1673ffffffffffffffffffffffffffffffffffffffff1673ffffffffffffffffffffffffffffffffffffffff1681526020019081526020016000208190555050508080611524906126d6565b915050611329565b508473ffffffffffffffffffffffffffffffffffffffff167fc2235e7a8f71f215b03c512b1b98b5a986c2e8d8ea18654d45e710a1a4ce399a858560405161157592919061249b565b60405180910390a25050505050565b600080600760008473ffffffffffffffffffffffffffffffffffffffff1673ffffffffffffffffffffffffffffffffffffffff1681526020019081526020016000205490506000600660008381526020019081526020016000209050806000015492505050919050565b6009602052816000526040600020602052806000526040600020600091509150508060000154908060010154908060020154908060030160009054906101000a900460ff16905084565b60008060009054906101000a900473ffffffffffffffffffffffffffffffffffffffff16905090565b60076020528060005260406000206000915090505481565b600b6020528060005260406000206000915090505481565b600481815481106116a157600080fd5b906000526020600020016000915090505481565b600a6020528060005260406000206000915090505481565b6116d5611b77565b73ffffffffffffffffffffffffffffffffffffffff166116f3611638565b73ffffffffffffffffffffffffffffffffffffffff1614611749576040517f08c379a0000000000000000000000000000000000000000000000000000000008152600401611740906123c0565b60405180910390fd5b600073ffffffffffffffffffffffffffffffffffffffff168173ffffffffffffffffffffffffffffffffffffffff1614156117b9576040517f08c379a00000000000000000000000000000000000000000000000000000000081526004016117b0906122a0565b60405180910390fd5b6117c281611b7f565b50565b600160009054906101000a900473ffffffffffffffffffffffffffffffffffffffff1681565b6117f3611b77565b73ffffffffffffffffffffffffffffffffffffffff16611811611638565b73ffffffffffffffffffffffffffffffffffffffff1614611867576040517f08c379a000000000000000000000000000000000000000000000000000000000815260040161185e906123c0565b60405180910390fd5b6000600960008473ffffffffffffffffffffffffffffffffffffffff1673ffffffffffffffffffffffffffffffffffffffff168152602001908152602001600020600083815260200190815260200160002090508060030160009054906101000a900460ff161561190d576040517f08c379a000000000000000000000000000000000000000000000000000000000815260040161190490612300565b60405180910390fd5b6000816001015482600001546119239190612624565b90506000811415611969576040517f08c379a000000000000000000000000000000000000000000000000000000000815260040161196090612400565b60405180910390fd5b6000826000018190555080600b6000600160009054906101000a900473ffffffffffffffffffffffffffffffffffffffff1673ffffffffffffffffffffffffffffffffffffffff1673ffffffffffffffffffffffffffffffffffffffff168152602001908152602001600020546119e09190612624565b600b6000600160009054906101000a900473ffffffffffffffffffffffffffffffffffffffff1673ffffffffffffffffffffffffffffffffffffffff1673ffffffffffffffffffffffffffffffffffffffff16815260200190815260200160002081905550600160009054906101000a900473ffffffffffffffffffffffffffffffffffffffff1673ffffffffffffffffffffffffffffffffffffffff1663a9059cbb611a8b611638565b836040518363ffffffff1660e01b8152600401611aa992919061223c565b602060405180830381600087803b158015611ac357600080fd5b505af1158015611ad7573d6000803e3d6000fd5b505050506040513d601f19601f82011682018060405250810190611afb9190611f2e565b611b3a576040517f08c379a0000000000000000000000000000000000000000000000000000000008152600401611b3190612360565b60405180910390fd5b7f398bd6b21ae4164ec322fb0eb8c2eb6277f36fd41903fbbed594dfe12559128184604051611b699190612221565b60405180910390a150505050565b600033905090565b60008060009054906101000a900473ffffffffffffffffffffffffffffffffffffffff169050816000806101000a81548173ffffffffffffffffffffffffffffffffffffffff021916908373ffffffffffffffffffffffffffffffffffffffff1602179055508173ffffffffffffffffffffffffffffffffffffffff168173ffffffffffffffffffffffffffffffffffffffff167f8be0079c531659141344cd1fd0a4f28419497f9722a3daafe3b4186f6b6457e060405160405180910390a35050565b600081359050611c5281612a7b565b92915050565b60008083601f840112611c6e57611c6d6127b1565b5b8235905067ffffffffffffffff811115611c8b57611c8a6127ac565b5b602083019150836020820283011115611ca757611ca66127b6565b5b9250929050565b60008083601f840112611cc457611cc36127b1565b5b8235905067ffffffffffffffff811115611ce157611ce06127ac565b5b602083019150836020820283011115611cfd57611cfc6127b6565b5b9250929050565b600081359050611d1381612a92565b92915050565b600081519050611d2881612a92565b92915050565b600081359050611d3d81612aa9565b92915050565b600081519050611d5281612aa9565b92915050565b600060208284031215611d6e57611d6d6127c0565b5b6000611d7c84828501611c43565b91505092915050565b60008060408385031215611d9c57611d9b6127c0565b5b6000611daa85828601611c43565b9250506020611dbb85828601611d2e565b9150509250929050565b600080600060608486031215611dde57611ddd6127c0565b5b6000611dec86828701611c43565b9350506020611dfd86828701611d2e565b9250506040611e0e86828701611d04565b9150509250925092565b600080600080600060608688031215611e3457611e336127c0565b5b600086013567ffffffffffffffff811115611e5257611e516127bb565b5b611e5e88828901611c58565b9550955050602086013567ffffffffffffffff811115611e8157611e806127bb565b5b611e8d88828901611cae565b93509350506040611ea088828901611d04565b9150509295509295909350565b60008060008060408587031215611ec757611ec66127c0565b5b600085013567ffffffffffffffff811115611ee557611ee46127bb565b5b611ef187828801611cae565b9450945050602085013567ffffffffffffffff811115611f1457611f136127bb565b5b611f2087828801611cae565b925092505092959194509250565b600060208284031215611f4457611f436127c0565b5b6000611f5284828501611d19565b91505092915050565b600060208284031215611f7157611f706127c0565b5b6000611f7f84828501611d2e565b91505092915050565b600060208284031215611f9e57611f9d6127c0565b5b6000611fac84828501611d43565b91505092915050565b611fbe81612658565b82525050565b611fcd8161266a565b82525050565b611fdc816126a0565b82525050565b6000611fef601783612532565b9150611ffa826127c5565b602082019050919050565b6000612012602683612532565b915061201d826127ee565b604082019050919050565b6000612035601883612532565b91506120408261283d565b602082019050919050565b6000612058601f83612532565b915061206382612866565b602082019050919050565b600061207b601983612532565b91506120868261288f565b602082019050919050565b600061209e601e83612532565b91506120a9826128b8565b602082019050919050565b60006120c1601d83612532565b91506120cc826128e1565b602082019050919050565b60006120e4601883612532565b91506120ef8261290a565b602082019050919050565b6000612107601f83612532565b915061211282612933565b602082019050919050565b600061212a601983612532565b91506121358261295c565b602082019050919050565b600061214d602083612532565b915061215882612985565b602082019050919050565b6000612170601283612532565b915061217b826129ae565b602082019050919050565b6000612193601e83612532565b915061219e826129d7565b602082019050919050565b60006121b6601a83612532565b91506121c182612a00565b602082019050919050565b60006121d9601683612532565b91506121e482612a29565b602082019050919050565b60006121fc601a83612532565b915061220782612a52565b602082019050919050565b61221b81612696565b82525050565b60006020820190506122366000830184611fb5565b92915050565b60006040820190506122516000830185611fb5565b61225e6020830184612212565b9392505050565b600060208201905061227a6000830184611fd3565b92915050565b6000602082019050818103600083015261229981611fe2565b9050919050565b600060208201905081810360008301526122b981612005565b9050919050565b600060208201905081810360008301526122d981612028565b9050919050565b600060208201905081810360008301526122f98161204b565b9050919050565b600060208201905081810360008301526123198161206e565b9050919050565b6000602082019050818103600083015261233981612091565b9050919050565b60006020820190508181036000830152612359816120b4565b9050919050565b60006020820190508181036000830152612379816120d7565b9050919050565b60006020820190508181036000830152612399816120fa565b9050919050565b600060208201905081810360008301526123b98161211d565b9050919050565b600060208201905081810360008301526123d981612140565b9050919050565b600060208201905081810360008301526123f981612163565b9050919050565b6000602082019050818103600083015261241981612186565b9050919050565b60006020820190508181036000830152612439816121a9565b9050919050565b60006020820190508181036000830152612459816121cc565b9050919050565b60006020820190508181036000830152612479816121ef565b9050919050565b60006020820190506124956000830184612212565b92915050565b60006040820190506124b06000830185612212565b6124bd6020830184611fc4565b9392505050565b60006040820190506124d96000830185612212565b6124e66020830184612212565b9392505050565b60006080820190506125026000830187612212565b61250f6020830186612212565b61251c6040830185612212565b6125296060830184611fc4565b95945050505050565b600082825260208201905092915050565b600061254e82612696565b915061255983612696565b9250827fffffffffffffffffffffffffffffffffffffffffffffffffffffffffffffffff0382111561258e5761258d61271f565b5b828201905092915050565b60006125a482612696565b91506125af83612696565b9250826125bf576125be61274e565b5b828204905092915050565b60006125d582612696565b91506125e083612696565b9250817fffffffffffffffffffffffffffffffffffffffffffffffffffffffffffffffff04831182151516156126195761261861271f565b5b828202905092915050565b600061262f82612696565b915061263a83612696565b92508282101561264d5761264c61271f565b5b828203905092915050565b600061266382612676565b9050919050565b60008115159050919050565b600073ffffffffffffffffffffffffffffffffffffffff82169050919050565b6000819050919050565b60006126ab826126b2565b9050919050565b60006126bd826126c4565b9050919050565b60006126cf82612676565b9050919050565b60006126e182612696565b91507fffffffffffffffffffffffffffffffffffffffffffffffffffffffffffffffff8214156127145761271361271f565b5b600182019050919050565b7f4e487b7100000000000000000000000000000000000000000000000000000000600052601160045260246000fd5b7f4e487b7100000000000000000000000000000000000000000000000000000000600052601260045260246000fd5b7f4e487b7100000000000000000000000000000000000000000000000000000000600052603260045260246000fd5b600080fd5b600080fd5b600080fd5b600080fd5b600080fd5b7f56657374696e673a2043616e2774207769746864726177000000000000000000600082015250565b7f4f776e61626c653a206e6577206f776e657220697320746865207a65726f206160008201527f6464726573730000000000000000000000000000000000000000000000000000602082015250565b7f56657374696e673a207769746864726177206661696c65640000000000000000600082015250565b7f56657374696e673a20696e76616c69642076657374696e6720706172616d7300600082015250565b7f56657374696e673a204163636f756e7420697320666978656400000000000000600082015250565b7f546965723a20696e646578206f66207469657220697320696e76616c69640000600082015250565b7f56657374696e673a204172726179206c656e6774687320646966666572000000600082015250565b7f56657374696e673a207472616e73666572206661696c65640000000000000000600082015250565b7f56657374696e673a20756e6c6f636b54696d65206e6f74207265616368656400600082015250565b7f546965723a20696e76616c6964207469657220706172616d7300000000000000600082015250565b7f4f776e61626c653a2063616c6c6572206973206e6f7420746865206f776e6572600082015250565b7f616c726561647920657869737420757365720000000000000000000000000000600082015250565b7f56657374696e673a206e6f206f75747374616e64696e6720746f6b656e730000600082015250565b7f56657374696e673a204e6f7420656e6f75676820746f6b656e73000000000000600082015250565b7f56657374696e673a206e6f7420636c61696d61626c6500000000000000000000600082015250565b7f546965723a204172726179206c656e6774687320646966666572000000000000600082015250565b612a8481612658565b8114612a8f57600080fd5b50565b612a9b8161266a565b8114612aa657600080fd5b50565b612ab281612696565b8114612abd57600080fd5b5056fea264697066735822122086f8e7ed726435a4f7b4776b4a4250b2b6ff55fb2e23659aa7aa0d01cbba40c664736f6c63430008070033",
  "immutableReferences": {},
  "source": "// SPDX-License-Identifier: GPL-3.0-only\r\npragma solidity 0.8.7;\r\n\r\nimport \"@openzeppelin/contracts/token/ERC20/IERC20.sol\";\r\nimport \"@openzeppelin/contracts/access/Ownable.sol\";\r\n\r\ninterface IBEP20 {\r\n    \r\n  /**\r\n   * @dev Returns the amount of tokens in existence.\r\n   */\r\n  function totalSupply() external view returns (uint256);\r\n\r\n  /**\r\n   * @dev Returns the token decimals.\r\n   */\r\n  function decimals() external view returns (uint8);\r\n\r\n  /**\r\n   * @dev Returns the token symbol.\r\n   */\r\n  function symbol() external view returns (string memory);\r\n\r\n  /**\r\n  * @dev Returns the token name.\r\n  */\r\n  function name() external view returns (string memory);\r\n\r\n  /**\r\n   * @dev Returns the bep token owner.\r\n   */\r\n  function getOwner() external view returns (address);\r\n\r\n  /**\r\n   * @dev Returns the amount of tokens owned by `account`.\r\n   */\r\n  function balanceOf(address account) external view returns (uint256);\r\n\r\n  /**\r\n   * @dev Moves `amount` tokens from the caller's account to `recipient`.\r\n   *\r\n   * Returns a boolean value indicating whether the operation succeeded.\r\n   *\r\n   * Emits a {Transfer} event.\r\n   */\r\n  function transfer(address recipient, uint256 amount) external returns (bool);\r\n\r\n  /**\r\n   * @dev Returns the remaining number of tokens that `spender` will be\r\n   * allowed to spend on behalf of `owner` through {transferFrom}. This is\r\n   * zero by default.\r\n   *\r\n   * This value changes when {approve} or {transferFrom} are called.\r\n   */\r\n  function allowance(address _owner, address spender) external view returns (uint256);\r\n\r\n  /**\r\n   * @dev Sets `amount` as the allowance of `spender` over the caller's tokens.\r\n   *\r\n   * Returns a boolean value indicating whether the operation succeeded.\r\n   *\r\n   * IMPORTANT: Beware that changing an allowance with this method brings the risk\r\n   * that someone may use both the old and the new allowance by unfortunate\r\n   * transaction ordering. One possible solution to mitigate this race\r\n   * condition is to first reduce the spender's allowance to 0 and set the\r\n   * desired value afterwards:\r\n   * https://github.com/ethereum/EIPs/issues/20#issuecomment-263524729\r\n   *\r\n   * Emits an {Approval} event.\r\n   */\r\n  function approve(address spender, uint256 amount) external returns (bool);\r\n\r\n  /**\r\n   * @dev Moves `amount` tokens from `sender` to `recipient` using the\r\n   * allowance mechanism. `amount` is then deducted from the caller's\r\n   * allowance.\r\n   *\r\n   * Returns a boolean value indicating whether the operation succeeded.\r\n   *\r\n   * Emits a {Transfer} event.\r\n   */\r\n  function transferFrom(address sender, address recipient, uint256 amount) external returns (bool);\r\n\r\n  /**\r\n   * @dev Emitted when `value` tokens are moved from one account (`from`) to\r\n   * another (`to`).\r\n   *\r\n   * Note that `value` may be zero.\r\n   */\r\n  event Transfer(address indexed from, address indexed to, uint256 value);\r\n\r\n  /**\r\n   * @dev Emitted when the allowance of a `spender` for an `owner` is set by\r\n   * a call to {approve}. `value` is the new allowance.\r\n   */\r\n  event Approval(address indexed owner, address indexed spender, uint256 value);\r\n  \r\n}\r\n/**\r\n * Tracer Standard Vesting Contract\r\n */\r\ncontract Vesting is Ownable {\r\n\r\n    //initialize data: token, member, vesting time\r\n    IBEP20 public token;\r\n    address[] public members;\r\n    uint256[] public amounts;\r\n    uint256[] public vestingTimeList;\r\n\r\n    //tiger of members\r\n    struct Tier {\r\n        uint256 tierId;\r\n        uint256 amountMax;\r\n    }\r\n\r\n    uint256 public numberOfTiers; // count of tiger\r\n    mapping(uint256 => Tier) public tiers; //mapping data of tier: (index => tier)\r\n    mapping(address => uint256) public whitelistOfTiers; //whitelist: (address => maxamount)\r\n\r\n    struct Schedule {\r\n        uint256 amount;\r\n        uint256 claimedAmount;\r\n        uint256 unlockTime;\r\n        bool isFixed;\r\n    }\r\n\r\n    struct Plain {\r\n        uint256 percentage;\r\n        uint256 unlockTime;\r\n    }\r\n    Plain[] public schedulePlain; // array of plains\r\n\r\n    // user => scheduleId => schedule\r\n    mapping(address => mapping(uint256 => Schedule)) public schedules;\r\n    mapping(address => uint256) public numberOfSchedules; //number of the schedule by address\r\n    mapping(address => uint256) public locked; //locked amount mapping by address\r\n\r\n    event Claim(address indexed claimer, uint256 amount);\r\n    event Vest(address indexed to, uint256 amount, bool isFixed);\r\n    event Cancelled(address account);\r\n\r\n    event NewVesting(address indexed investor, uint256 amount);\r\n\r\n    constructor(address _token) {\r\n        token = IBEP20(_token);\r\n\r\n        //addresses for public sale\r\n        members.push(address(0x0C25363022587299510774E036ad078682991256));\r\n        members.push(address(0x026116102Ae7e558Cd436325158d54020EFCf0eF));\r\n        members.push(address(0x4B674Da5E20067B8213263720d958B5e7AbD7d8c));\r\n        members.push(address(0xD157D2Ff5393c509777765Cf612284d53d38dE30));\r\n        members.push(address(0xFcf2668C4EC68D2bbd36a476e30227744A0f5EB8));\r\n        members.push(address(0x3719D24Fa12f32877f894c6F51FeECF91F16b44f));\r\n        members.push(address(0xc0eaA0018b1192dE0c8ca46E57B84Ee907e01baC));\r\n        members.push(address(0xc50dD8028B1C6914B67F4657F0155e5D2cE1E226));\r\n        members.push(address(0x5B588e36FF358D4376A76FB163fd69Da02A2A9a5));\r\n        members.push(address(0xA5664dC01BB8369EDc6116d3B267d6014681dD2F));\r\n\r\n        //amount for public sale\r\n        amounts.push(5000000);\r\n        amounts.push(5000000);\r\n        amounts.push(5000000);\r\n        amounts.push(5000000);\r\n        amounts.push(5000000);\r\n        amounts.push(5000000);\r\n        amounts.push(5000000);\r\n        amounts.push(5000000);\r\n        amounts.push(5000000);\r\n        amounts.push(5000000);\r\n\r\n        // add schedule time\r\n        vestingTimeList.push(1635526800); // 2021-10-30\r\n        vestingTimeList.push(1638205200); // 2021-11-30\r\n        vestingTimeList.push(1640883600); // 2021-12-31\r\n        vestingTimeList.push(1643562000); // 2022-01-31\r\n        vestingTimeList.push(1645981200); // 2022-02-28\r\n        vestingTimeList.push(1648659600); // 2022-03-31\r\n\r\n        //set the schedule plain\r\n        for(uint256 i = 0; i < vestingTimeList.length; i++){\r\n            if(i == 0) { // after TGE \r\n                schedulePlain.push(Plain(\r\n                    5, //%\r\n                    vestingTimeList[i]\r\n                ));\r\n            }else { // next steps\r\n                schedulePlain.push(Plain(\r\n                    19, //%\r\n                    vestingTimeList[i]\r\n                ));\r\n            }\r\n        }\r\n\r\n        //initialize the vesting schedule\r\n        for(uint256 i = 0; i < members.length; i++){\r\n            addVest(members[i], amounts[i], true);\r\n        }\r\n    }\r\n\r\n    /**\r\n     * @notice Sets up a vesting schedule for a set user.\r\n     * @dev adds a new Schedule to the schedules mapping.\r\n     * @param account the account that a vesting schedule is being set up for. Will be able to claim tokens after\r\n     *                the cliff period.\r\n     * @param amount the amount of tokens being vested for the user.\r\n     * @param isFixed a flag for if the vesting schedule is fixed or not. Fixed vesting schedules can't be cancelled.\r\n     */\r\n    function addVest(\r\n        address account,\r\n        uint256 amount,\r\n        bool isFixed\r\n    ) public onlyOwner {\r\n        // check amount\r\n        require(\r\n            amount > 0,\r\n            \"Vesting: invalid vesting params\"\r\n        );\r\n\r\n        uint256 currentLocked = locked[address(token)];\r\n\r\n        // require the token is present\r\n        require(\r\n            IBEP20(token).balanceOf(address(this)) >= currentLocked + amount,\r\n            \"Vesting: Not enough tokens\"\r\n        );\r\n\r\n        // create the schedule\r\n        uint256 currentNumSchedules = numberOfSchedules[account];\r\n        require(currentNumSchedules == 0, \"already exist user\");\r\n        \r\n        for(uint256 i = 0; i < schedulePlain.length; i++){\r\n            uint256 _amount = amount * schedulePlain[i].percentage / 100;\r\n            uint256 _unlockTime = schedulePlain[i].unlockTime;\r\n\r\n            schedules[account][currentNumSchedules] = Schedule(\r\n                _amount,\r\n                0,\r\n                _unlockTime,\r\n                isFixed\r\n            );\r\n\r\n            numberOfSchedules[account] = currentNumSchedules + 1;\r\n            locked[address(token)] = currentLocked + amount;\r\n        }\r\n        emit Vest(account, amount, isFixed);\r\n    }\r\n\r\n    /**\r\n     * @notice Sets up vesting schedules for multiple users within 1 transaction.\r\n     * @dev adds a new Schedule to the schedules mapping.\r\n     * @param accounts an array of the accounts that the vesting schedules are being set up for.\r\n     *                 Will be able to claim tokens after the cliff period.\r\n     * @param amount an array of the amount of tokens being vested for each user.\r\n     * @param isFixed bool setting if these vesting schedules can be rugged or not.\r\n     */\r\n    function addMultiVest(\r\n        address[] calldata accounts,\r\n        uint256[] calldata amount,\r\n        bool isFixed\r\n    ) external onlyOwner {\r\n        uint256 numberOfAccounts = accounts.length;\r\n        require(\r\n            amount.length == numberOfAccounts,\r\n            \"Vesting: Array lengths differ\"\r\n        );\r\n        for (uint256 i = 0; i < numberOfAccounts; i++) {\r\n            addVest(\r\n                accounts[i],\r\n                amount[i],\r\n                isFixed\r\n            );\r\n        }\r\n    }\r\n\r\n    /**\r\n     * @notice allows users to claim vested tokens if the cliff time has passed.\r\n     * @param scheduleNumber which schedule the user is claiming against\r\n     */\r\n    function claim(uint256 scheduleNumber) external {\r\n        Schedule storage schedule = schedules[msg.sender][scheduleNumber];\r\n        require(\r\n            schedule.unlockTime <= block.timestamp,\r\n            \"Vesting: unlockTime not reached\"\r\n        );\r\n        require(schedule.amount > 0, \"Vesting: not claimable\");\r\n\r\n        uint256 amountToTransfer = schedule.amount - schedule.claimedAmount;\r\n        schedule.claimedAmount = schedule.amount; // set new claimed amount based off the curve\r\n        locked[address(token)] = locked[address(token)] - amountToTransfer;\r\n        require(IBEP20(token).transfer(msg.sender, amountToTransfer), \"Vesting: transfer failed\");\r\n        emit Claim(msg.sender, schedule.amount);\r\n    }\r\n\r\n    /**\r\n     * @notice Allows a vesting schedule to be cancelled.\r\n     * @dev Any outstanding tokens are returned to the system.\r\n     * @param account the account of the user whos vesting schedule is being cancelled.\r\n     */\r\n    function rug(address account, uint256 scheduleId) external onlyOwner {\r\n        Schedule storage schedule = schedules[account][scheduleId];\r\n        require(!schedule.isFixed, \"Vesting: Account is fixed\");\r\n        uint256 outstandingAmount = schedule.amount -\r\n            schedule.claimedAmount;\r\n        require(outstandingAmount != 0, \"Vesting: no outstanding tokens\");\r\n        schedule.amount = 0;\r\n        locked[address(token)] = locked[address(token)] - outstandingAmount;\r\n        require(IBEP20(token).transfer(owner(), outstandingAmount), \"Vesting: transfer failed\");\r\n        emit Cancelled(account);\r\n    }\r\n\r\n    /**\r\n     * @return calculates the amount of tokens to distribute to an account at any instance in time, based off some\r\n     *         total claimable amount.\r\n     * @param amount the total outstanding amount to be claimed for this vesting schedule.\r\n     * @param currentTime the current timestamp.\r\n     * @param startTime the timestamp this vesting schedule started.\r\n     * @param endTime the timestamp this vesting schedule ends.\r\n     */\r\n    \r\n    /**\r\n     * @notice Withdraws CSPD tokens from the contract.\r\n     * @dev blocks withdrawing locked tokens.\r\n     */\r\n    function withdraw(uint256 amount) external onlyOwner {\r\n        require(\r\n            token.balanceOf(address(this)) - locked[address(token)] >= amount,\r\n            \"Vesting: Can't withdraw\"\r\n        );\r\n        require(token.transfer(owner(), amount), \"Vesting: withdraw failed\");\r\n    }\r\n\r\n    function setTiers(\r\n        uint256[] calldata tierIds,\r\n        uint256[] calldata amountsMax\r\n    ) external onlyOwner {\r\n        uint256 _numberOfTiers = tierIds.length;\r\n        require(\r\n            amountsMax.length == _numberOfTiers,\r\n            \"Tier: Array lengths differ\"\r\n        );\r\n        for (uint256 i = 0; i < _numberOfTiers; i++) {\r\n            require(\r\n                tierIds[i] > 0 == true && amountsMax[i] > 0,\r\n                \"Tier: invalid tier params\"\r\n            );\r\n\r\n            tiers[i] = Tier(\r\n                tierIds[i],\r\n                amountsMax[i]\r\n            );\r\n        }\r\n\r\n        numberOfTiers = _numberOfTiers;\r\n    }\r\n\r\n    function setTierOfAccount(\r\n        address account,\r\n        uint256 indexOfTier\r\n    ) external onlyOwner {\r\n        require(\r\n            indexOfTier >= 0 && indexOfTier < numberOfTiers,\r\n            \"Tier: index of tier is invalid\"\r\n        );\r\n\r\n        whitelistOfTiers[account] = indexOfTier;\r\n    }\r\n\r\n    function getTierIdOfAccount(\r\n        address account\r\n    ) public view returns (uint256){\r\n        uint256 indexOfTier = whitelistOfTiers[account];\r\n        Tier storage _tier = tiers[indexOfTier];\r\n        return _tier.tierId;\r\n    }\r\n\r\n    function getTierAmountMaxOfAccount(\r\n        address account\r\n    ) public view returns (uint256){\r\n        uint256 indexOfTier = whitelistOfTiers[account];\r\n        return tiers[indexOfTier].amountMax;\r\n    }\r\n}",
  "sourcePath": "D:\\Work Space\\CasperPad\\CasperPadToken_Contract\\contracts\\Vesting.sol",
  "compiler": {
    "name": "solc",
    "version": "0.8.7+commit.e28d00a7.Emscripten.clang"
  },
  "schemaVersion": "3.4.3",
  "updatedAt": "2021-11-28T07:54:57.066Z",
  "devdoc": {
    "kind": "dev",
    "methods": {
      "addMultiVest(address[],uint256[],bool)": {
        "details": "adds a new Schedule to the schedules mapping.",
        "params": {
          "accounts": "an array of the accounts that the vesting schedules are being set up for.                 Will be able to claim tokens after the cliff period.",
          "amount": "an array of the amount of tokens being vested for each user.",
          "isFixed": "bool setting if these vesting schedules can be rugged or not."
        }
      },
      "addVest(address,uint256,bool)": {
        "details": "adds a new Schedule to the schedules mapping.",
        "params": {
          "account": "the account that a vesting schedule is being set up for. Will be able to claim tokens after                the cliff period.",
          "amount": "the amount of tokens being vested for the user.",
          "isFixed": "a flag for if the vesting schedule is fixed or not. Fixed vesting schedules can't be cancelled."
        }
      },
      "claim(uint256)": {
        "params": {
          "scheduleNumber": "which schedule the user is claiming against"
        }
      },
      "owner()": {
        "details": "Returns the address of the current owner."
      },
      "renounceOwnership()": {
        "details": "Leaves the contract without owner. It will not be possible to call `onlyOwner` functions anymore. Can only be called by the current owner. NOTE: Renouncing ownership will leave the contract without an owner, thereby removing any functionality that is only available to the owner."
      },
      "rug(address,uint256)": {
        "details": "Any outstanding tokens are returned to the system.",
        "params": {
          "account": "the account of the user whos vesting schedule is being cancelled."
        }
      },
      "transferOwnership(address)": {
        "details": "Transfers ownership of the contract to a new account (`newOwner`). Can only be called by the current owner."
      },
      "withdraw(uint256)": {
        "details": "blocks withdrawing locked tokens."
      }
    },
    "version": 1
  },
  "userdoc": {
    "kind": "user",
    "methods": {
      "addMultiVest(address[],uint256[],bool)": {
        "notice": "Sets up vesting schedules for multiple users within 1 transaction."
      },
      "addVest(address,uint256,bool)": {
        "notice": "Sets up a vesting schedule for a set user."
      },
      "claim(uint256)": {
        "notice": "allows users to claim vested tokens if the cliff time has passed."
      },
      "rug(address,uint256)": {
        "notice": "Allows a vesting schedule to be cancelled."
      },
      "withdraw(uint256)": {
        "notice": "Withdraws CSPD tokens from the contract."
      }
    },
    "notice": "Tracer Standard Vesting Contract",
    "version": 1
  }
}