{
  "contractName": "Vesting",
  "abi": [
    {
      "inputs": [
        {
          "internalType": "contract IBEP20",
          "name": "_token",
          "type": "address"
        }
      ],
      "stateMutability": "nonpayable",
      "type": "constructor"
    },
    {
      "anonymous": false,
      "inputs": [
        {
          "indexed": false,
          "internalType": "address",
          "name": "account",
          "type": "address"
        }
      ],
      "name": "Cancelled",
      "type": "event"
    },
    {
      "anonymous": false,
      "inputs": [
        {
          "indexed": true,
          "internalType": "address",
          "name": "claimer",
          "type": "address"
        },
        {
          "indexed": false,
          "internalType": "uint256",
          "name": "amount",
          "type": "uint256"
        }
      ],
      "name": "Claim",
      "type": "event"
    },
    {
      "anonymous": false,
      "inputs": [
        {
          "indexed": true,
          "internalType": "address",
          "name": "investor",
          "type": "address"
        },
        {
          "indexed": false,
          "internalType": "uint256",
          "name": "amount",
          "type": "uint256"
        }
      ],
      "name": "NewVesting",
      "type": "event"
    },
    {
      "anonymous": false,
      "inputs": [
        {
          "indexed": true,
          "internalType": "address",
          "name": "previousOwner",
          "type": "address"
        },
        {
          "indexed": true,
          "internalType": "address",
          "name": "newOwner",
          "type": "address"
        }
      ],
      "name": "OwnershipTransferred",
      "type": "event"
    },
    {
      "anonymous": false,
      "inputs": [
        {
          "indexed": true,
          "internalType": "address",
          "name": "to",
          "type": "address"
        },
        {
          "indexed": false,
          "internalType": "uint256",
          "name": "amount",
          "type": "uint256"
        }
      ],
      "name": "Vest",
      "type": "event"
    },
    {
      "inputs": [
        {
          "internalType": "address",
          "name": "",
          "type": "address"
        }
      ],
      "name": "claimedAmount",
      "outputs": [
        {
          "internalType": "uint256",
          "name": "",
          "type": "uint256"
        }
      ],
      "stateMutability": "view",
      "type": "function"
    },
    {
      "inputs": [
        {
          "internalType": "address",
          "name": "",
          "type": "address"
        }
      ],
      "name": "locked",
      "outputs": [
        {
          "internalType": "uint256",
          "name": "",
          "type": "uint256"
        }
      ],
      "stateMutability": "view",
      "type": "function"
    },
    {
      "inputs": [
        {
          "internalType": "address",
          "name": "",
          "type": "address"
        }
      ],
      "name": "numberOfSchedules",
      "outputs": [
        {
          "internalType": "uint256",
          "name": "",
          "type": "uint256"
        }
      ],
      "stateMutability": "view",
      "type": "function"
    },
    {
      "inputs": [],
      "name": "numberOfTiers",
      "outputs": [
        {
          "internalType": "uint256",
          "name": "",
          "type": "uint256"
        }
      ],
      "stateMutability": "view",
      "type": "function"
    },
    {
      "inputs": [],
      "name": "owner",
      "outputs": [
        {
          "internalType": "address",
          "name": "",
          "type": "address"
        }
      ],
      "stateMutability": "view",
      "type": "function"
    },
    {
      "inputs": [],
      "name": "renounceOwnership",
      "outputs": [],
      "stateMutability": "nonpayable",
      "type": "function"
    },
    {
      "inputs": [
        {
          "internalType": "address",
          "name": "",
          "type": "address"
        },
        {
          "internalType": "uint256",
          "name": "",
          "type": "uint256"
        }
      ],
      "name": "schedules",
      "outputs": [
        {
          "internalType": "uint256",
          "name": "totalAmount",
          "type": "uint256"
        },
        {
          "internalType": "uint256",
          "name": "claimedAmount",
          "type": "uint256"
        },
        {
          "internalType": "uint256",
          "name": "startTime",
          "type": "uint256"
        },
        {
          "internalType": "uint256",
          "name": "cliffTime",
          "type": "uint256"
        },
        {
          "internalType": "uint256",
          "name": "endTime",
          "type": "uint256"
        },
        {
          "internalType": "bool",
          "name": "isFixed",
          "type": "bool"
        },
        {
          "internalType": "address",
          "name": "asset",
          "type": "address"
        }
      ],
      "stateMutability": "view",
      "type": "function"
    },
    {
      "inputs": [
        {
          "internalType": "uint256",
          "name": "",
          "type": "uint256"
        }
      ],
      "name": "tiers",
      "outputs": [
        {
          "internalType": "uint256",
          "name": "tierId",
          "type": "uint256"
        },
        {
          "internalType": "uint256",
          "name": "amountMax",
          "type": "uint256"
        }
      ],
      "stateMutability": "view",
      "type": "function"
    },
    {
      "inputs": [],
      "name": "token",
      "outputs": [
        {
          "internalType": "contract IBEP20",
          "name": "",
          "type": "address"
        }
      ],
      "stateMutability": "view",
      "type": "function"
    },
    {
      "inputs": [
        {
          "internalType": "address",
          "name": "newOwner",
          "type": "address"
        }
      ],
      "name": "transferOwnership",
      "outputs": [],
      "stateMutability": "nonpayable",
      "type": "function"
    },
    {
      "inputs": [
        {
          "internalType": "address",
          "name": "",
          "type": "address"
        }
      ],
      "name": "vestedAmount",
      "outputs": [
        {
          "internalType": "uint256",
          "name": "",
          "type": "uint256"
        }
      ],
      "stateMutability": "view",
      "type": "function"
    },
    {
      "inputs": [
        {
          "internalType": "address",
          "name": "",
          "type": "address"
        }
      ],
      "name": "whitelistOfTiers",
      "outputs": [
        {
          "internalType": "uint256",
          "name": "",
          "type": "uint256"
        }
      ],
      "stateMutability": "view",
      "type": "function"
    },
    {
      "inputs": [
        {
          "internalType": "address",
          "name": "account",
          "type": "address"
        },
        {
          "internalType": "uint256",
          "name": "amount",
          "type": "uint256"
        },
        {
          "internalType": "address",
          "name": "asset",
          "type": "address"
        },
        {
          "internalType": "bool",
          "name": "isFixed",
          "type": "bool"
        },
        {
          "internalType": "uint256",
          "name": "cliffDays",
          "type": "uint256"
        },
        {
          "internalType": "uint256",
          "name": "vestingDays",
          "type": "uint256"
        },
        {
          "internalType": "uint256",
          "name": "startTime",
          "type": "uint256"
        }
      ],
      "name": "vest",
      "outputs": [],
      "stateMutability": "nonpayable",
      "type": "function"
    },
    {
      "inputs": [
        {
          "internalType": "address[]",
          "name": "accounts",
          "type": "address[]"
        },
        {
          "internalType": "uint256[]",
          "name": "amount",
          "type": "uint256[]"
        },
        {
          "internalType": "address",
          "name": "asset",
          "type": "address"
        },
        {
          "internalType": "bool",
          "name": "isFixed",
          "type": "bool"
        },
        {
          "internalType": "uint256",
          "name": "cliffDays",
          "type": "uint256"
        },
        {
          "internalType": "uint256",
          "name": "vestingDays",
          "type": "uint256"
        },
        {
          "internalType": "uint256",
          "name": "startTime",
          "type": "uint256"
        }
      ],
      "name": "multiVest",
      "outputs": [],
      "stateMutability": "nonpayable",
      "type": "function"
    },
    {
      "inputs": [
        {
          "internalType": "uint256",
          "name": "scheduleNumber",
          "type": "uint256"
        }
      ],
      "name": "claim",
      "outputs": [],
      "stateMutability": "nonpayable",
      "type": "function"
    },
    {
      "inputs": [
        {
          "internalType": "address",
          "name": "account",
          "type": "address"
        },
        {
          "internalType": "uint256",
          "name": "scheduleId",
          "type": "uint256"
        }
      ],
      "name": "rug",
      "outputs": [],
      "stateMutability": "nonpayable",
      "type": "function"
    },
    {
      "inputs": [
        {
          "internalType": "uint256",
          "name": "amount",
          "type": "uint256"
        },
        {
          "internalType": "uint256",
          "name": "currentTime",
          "type": "uint256"
        },
        {
          "internalType": "uint256",
          "name": "startTime",
          "type": "uint256"
        },
        {
          "internalType": "uint256",
          "name": "endTime",
          "type": "uint256"
        }
      ],
      "name": "calcDistribution",
      "outputs": [
        {
          "internalType": "uint256",
          "name": "",
          "type": "uint256"
        }
      ],
      "stateMutability": "pure",
      "type": "function"
    },
    {
      "inputs": [
        {
          "internalType": "uint256",
          "name": "amount",
          "type": "uint256"
        },
        {
          "internalType": "address",
          "name": "asset",
          "type": "address"
        }
      ],
      "name": "withdraw",
      "outputs": [],
      "stateMutability": "nonpayable",
      "type": "function"
    },
    {
      "inputs": [
        {
          "internalType": "address[]",
          "name": "investors",
          "type": "address[]"
        },
        {
          "internalType": "uint256[]",
          "name": "amounts",
          "type": "uint256[]"
        }
      ],
      "name": "addInvestors",
      "outputs": [],
      "stateMutability": "nonpayable",
      "type": "function"
    },
    {
      "inputs": [
        {
          "internalType": "address",
          "name": "investor",
          "type": "address"
        },
        {
          "internalType": "uint256",
          "name": "amount",
          "type": "uint256"
        }
      ],
      "name": "addInvestor",
      "outputs": [],
      "stateMutability": "nonpayable",
      "type": "function"
    },
    {
      "inputs": [
        {
          "internalType": "uint256[]",
          "name": "tierIds",
          "type": "uint256[]"
        },
        {
          "internalType": "uint256[]",
          "name": "amountsMax",
          "type": "uint256[]"
        }
      ],
      "name": "setTiers",
      "outputs": [],
      "stateMutability": "nonpayable",
      "type": "function"
    },
    {
      "inputs": [
        {
          "internalType": "address",
          "name": "account",
          "type": "address"
        },
        {
          "internalType": "uint256",
          "name": "indexOfTier",
          "type": "uint256"
        }
      ],
      "name": "setTierOfAccount",
      "outputs": [],
      "stateMutability": "nonpayable",
      "type": "function"
    },
    {
      "inputs": [
        {
          "internalType": "address",
          "name": "account",
          "type": "address"
        }
      ],
      "name": "gettierIdOfAccount",
      "outputs": [
        {
          "internalType": "uint256",
          "name": "",
          "type": "uint256"
        }
      ],
      "stateMutability": "view",
      "type": "function"
    },
    {
      "inputs": [
        {
          "internalType": "address",
          "name": "account",
          "type": "address"
        }
      ],
      "name": "getTierAmountMaxOfAccount",
      "outputs": [
        {
          "internalType": "uint256",
          "name": "",
          "type": "uint256"
        }
      ],
      "stateMutability": "view",
      "type": "function"
    }
  ],
  "bytecode": "0x60a06040523480156200001157600080fd5b506040516200358738038062003587833981810160405281019062000037919062000178565b620000576200004b6200009560201b60201c565b6200009d60201b60201c565b8073ffffffffffffffffffffffffffffffffffffffff1660808173ffffffffffffffffffffffffffffffffffffffff1660601b815250505062000211565b600033905090565b60008060009054906101000a900473ffffffffffffffffffffffffffffffffffffffff169050816000806101000a81548173ffffffffffffffffffffffffffffffffffffffff021916908373ffffffffffffffffffffffffffffffffffffffff1602179055508173ffffffffffffffffffffffffffffffffffffffff168173ffffffffffffffffffffffffffffffffffffffff167f8be0079c531659141344cd1fd0a4f28419497f9722a3daafe3b4186f6b6457e060405160405180910390a35050565b6000815190506200017281620001f7565b92915050565b600060208284031215620001915762000190620001f2565b5b6000620001a18482850162000161565b91505092915050565b6000620001b782620001d2565b9050919050565b6000620001cb82620001aa565b9050919050565b600073ffffffffffffffffffffffffffffffffffffffff82169050919050565b600080fd5b6200020281620001be565b81146200020e57600080fd5b50565b60805160601c61333b6200024c6000396000818161057e015281816106720152818161104401528181611a230152611c22015261333b6000f3fe608060405234801561001057600080fd5b50600436106101575760003560e01c8063715018a6116100c3578063cbf9fe5f1161007c578063cbf9fe5f146103ed578063df681c141461041d578063ec20b4571461044d578063f2fde38b14610469578063fc0c546a14610485578063ffb4b1be146104a357610157565b8063715018a6146102ff578063854e96821461030957806389d981ae1461033f5780638da5cb5b1461036f5780639c4e64e01461038d578063b17a58cf146103bd57610157565b80632976113611610115578063297611361461022d57806329c6a24e14610249578063379607f514610265578063384711cc14610281578063654bf2f7146102b15780636e27a2e5146102e157610157565b8062f714ce1461015c578063039af9eb1461017857806304e86903146101a95780630d535883146101d95780631b8ebc3c146101f5578063249eae4d14610211575b600080fd5b61017660048036038101906101719190612664565b6104bf565b005b610192600480360381019061018d919061260a565b610767565b6040516101a0929190612bf1565b60405180910390f35b6101c360048036038101906101be91906122f3565b61078b565b6040516101d09190612bd6565b60405180910390f35b6101f360048036038101906101ee9190612360565b6107a3565b005b61020f600480360381019061020a919061255c565b610c3a565b005b61022b600480360381019061022691906124e4565b610e29565b005b61024760048036038101906102429190612402565b6110fd565b005b610263600480360381019061025e9190612320565b611240565b005b61027f600480360381019061027a919061260a565b611355565b005b61029b600480360381019061029691906122f3565b6116a3565b6040516102a89190612bd6565b60405180910390f35b6102cb60048036038101906102c691906122f3565b6116bb565b6040516102d89190612bd6565b60405180910390f35b6102e961171f565b6040516102f69190612bd6565b60405180910390f35b610307611725565b005b610323600480360381019061031e9190612320565b6117ad565b6040516103369796959493929190612c1a565b60405180910390f35b610359600480360381019061035491906122f3565b611829565b6040516103669190612bd6565b60405180910390f35b610377611893565b6040516103849190612977565b60405180910390f35b6103a760048036038101906103a291906126a4565b6118bc565b6040516103b49190612bd6565b60405180910390f35b6103d760048036038101906103d291906122f3565b611907565b6040516103e49190612bd6565b60405180910390f35b610407600480360381019061040291906122f3565b61191f565b6040516104149190612bd6565b60405180910390f35b610437600480360381019061043291906122f3565b611937565b6040516104449190612bd6565b60405180910390f35b61046760048036038101906104629190612320565b61194f565b005b610483600480360381019061047e91906122f3565b611b28565b005b61048d611c20565b60405161049a91906129bb565b60405180910390f35b6104bd60048036038101906104b89190612320565b611c44565b005b6104c7611fd6565b73ffffffffffffffffffffffffffffffffffffffff166104e5611893565b73ffffffffffffffffffffffffffffffffffffffff161461053b576040517f08c379a000000000000000000000000000000000000000000000000000000000815260040161053290612b36565b60405180910390fd5b81600860008373ffffffffffffffffffffffffffffffffffffffff1673ffffffffffffffffffffffffffffffffffffffff168152602001908152602001600020547f000000000000000000000000000000000000000000000000000000000000000073ffffffffffffffffffffffffffffffffffffffff166370a08231306040518263ffffffff1660e01b81526004016105d59190612977565b60206040518083038186803b1580156105ed57600080fd5b505afa158015610601573d6000803e3d6000fd5b505050506040513d601f19601f820116820180604052508101906106259190612637565b61062f9190612df8565b1015610670576040517f08c379a0000000000000000000000000000000000000000000000000000000008152600401610667906129d6565b60405180910390fd5b7f000000000000000000000000000000000000000000000000000000000000000073ffffffffffffffffffffffffffffffffffffffff1663a9059cbb6106b4611893565b846040518363ffffffff1660e01b81526004016106d2929190612992565b602060405180830381600087803b1580156106ec57600080fd5b505af1158015610700573d6000803e3d6000fd5b505050506040513d601f19601f8201168201806040525081019061072491906125dd565b610763576040517f08c379a000000000000000000000000000000000000000000000000000000000815260040161075a90612a16565b60405180910390fd5b5050565b60046020528060005260406000206000915090508060000154908060010154905082565b60026020528060005260406000206000915090505481565b6107ab611fd6565b73ffffffffffffffffffffffffffffffffffffffff166107c9611893565b73ffffffffffffffffffffffffffffffffffffffff161461081f576040517f08c379a000000000000000000000000000000000000000000000000000000000815260040161081690612b36565b60405180910390fd5b60008211801561082f5750828210155b801561083b5750600086115b61087a576040517f08c379a000000000000000000000000000000000000000000000000000000000815260040161087190612a36565b60405180910390fd5b6000600860008773ffffffffffffffffffffffffffffffffffffffff1673ffffffffffffffffffffffffffffffffffffffff16815260200190815260200160002054905086816108ca9190612d17565b8673ffffffffffffffffffffffffffffffffffffffff166370a08231306040518263ffffffff1660e01b81526004016109039190612977565b60206040518083038186803b15801561091b57600080fd5b505afa15801561092f573d6000803e3d6000fd5b505050506040513d601f19601f820116820180604052508101906109539190612637565b1015610994576040517f08c379a000000000000000000000000000000000000000000000000000000000815260040161098b90612b76565b60405180910390fd5b6000600760008a73ffffffffffffffffffffffffffffffffffffffff1673ffffffffffffffffffffffffffffffffffffffff1681526020019081526020016000205490506040518060e00160405280898152602001600081526020018481526020016201518087610a059190612d9e565b85610a109190612d17565b81526020016201518086610a249190612d9e565b85610a2f9190612d17565b815260200187151581526020018873ffffffffffffffffffffffffffffffffffffffff16815250600660008b73ffffffffffffffffffffffffffffffffffffffff1673ffffffffffffffffffffffffffffffffffffffff1681526020019081526020016000206000838152602001908152602001600020600082015181600001556020820151816001015560408201518160020155606082015181600301556080820151816004015560a08201518160050160006101000a81548160ff02191690831515021790555060c08201518160050160016101000a81548173ffffffffffffffffffffffffffffffffffffffff021916908373ffffffffffffffffffffffffffffffffffffffff160217905550905050600181610b4f9190612d17565b600760008b73ffffffffffffffffffffffffffffffffffffffff1673ffffffffffffffffffffffffffffffffffffffff168152602001908152602001600020819055508782610b9e9190612d17565b600860008973ffffffffffffffffffffffffffffffffffffffff1673ffffffffffffffffffffffffffffffffffffffff168152602001908152602001600020819055508873ffffffffffffffffffffffffffffffffffffffff167fd4a50953e9ae2104f507446be8391c79b33e1e86e626473e34bb79eb5fea1f3e89604051610c279190612bd6565b60405180910390a2505050505050505050565b610c42611fd6565b73ffffffffffffffffffffffffffffffffffffffff16610c60611893565b73ffffffffffffffffffffffffffffffffffffffff1614610cb6576040517f08c379a0000000000000000000000000000000000000000000000000000000008152600401610cad90612b36565b60405180910390fd5b6000848490509050808383905014610d03576040517f08c379a0000000000000000000000000000000000000000000000000000000008152600401610cfa90612bb6565b60405180910390fd5b60005b81811015610e1a57600115156000878784818110610d2757610d26612f82565b5b90506020020135111515148015610d5757506000848483818110610d4e57610d4d612f82565b5b90506020020135115b610d96576040517f08c379a0000000000000000000000000000000000000000000000000000000008152600401610d8d90612b16565b60405180910390fd5b6040518060400160405280878784818110610db457610db3612f82565b5b905060200201358152602001858584818110610dd357610dd2612f82565b5b905060200201358152506004600083815260200190815260200160002060008201518160000155602082015181600101559050508080610e1290612edb565b915050610d06565b50806003819055505050505050565b610e31611fd6565b73ffffffffffffffffffffffffffffffffffffffff16610e4f611893565b73ffffffffffffffffffffffffffffffffffffffff1614610ea5576040517f08c379a0000000000000000000000000000000000000000000000000000000008152600401610e9c90612b36565b60405180910390fd5b6000808351905080835114610eef576040517f08c379a0000000000000000000000000000000000000000000000000000000008152600401610ee690612a96565b60405180910390fd5b60005b8181101561104157838181518110610f0d57610f0c612f82565b5b602002602001015160016000878481518110610f2c57610f2b612f82565b5b602002602001015173ffffffffffffffffffffffffffffffffffffffff1673ffffffffffffffffffffffffffffffffffffffff1681526020019081526020016000206000828254610f7d9190612d17565b92505081905550838181518110610f9757610f96612f82565b5b602002602001015183610faa9190612d17565b9250848181518110610fbf57610fbe612f82565b5b602002602001015173ffffffffffffffffffffffffffffffffffffffff167f322aa8e34b758bbd3ef99d9b6ef8bd2ad3c66079b2f0bff60fe3d221a314181c85838151811061101157611010612f82565b5b60200260200101516040516110269190612bd6565b60405180910390a2808061103990612edb565b915050610ef2565b507f000000000000000000000000000000000000000000000000000000000000000073ffffffffffffffffffffffffffffffffffffffff1663a9059cbb611086611893565b846040518363ffffffff1660e01b81526004016110a4929190612992565b602060405180830381600087803b1580156110be57600080fd5b505af11580156110d2573d6000803e3d6000fd5b505050506040513d601f19601f820116820180604052508101906110f691906125dd565b5050505050565b611105611fd6565b73ffffffffffffffffffffffffffffffffffffffff16611123611893565b73ffffffffffffffffffffffffffffffffffffffff1614611179576040517f08c379a000000000000000000000000000000000000000000000000000000000815260040161117090612b36565b60405180910390fd5b60008989905090508088889050146111c6576040517f08c379a00000000000000000000000000000000000000000000000000000000081526004016111bd90612ad6565b60405180910390fd5b60005b81811015611233576112208b8b838181106111e7576111e6612f82565b5b90506020020160208101906111fc91906122f3565b8a8a8481811061120f5761120e612f82565b5b9050602002013589898989896107a3565b808061122b90612edb565b9150506111c9565b5050505050505050505050565b611248611fd6565b73ffffffffffffffffffffffffffffffffffffffff16611266611893565b73ffffffffffffffffffffffffffffffffffffffff16146112bc576040517f08c379a00000000000000000000000000000000000000000000000000000000081526004016112b390612b36565b60405180910390fd5b600081101580156112ce575060035481105b61130d576040517f08c379a000000000000000000000000000000000000000000000000000000000815260040161130490612ab6565b60405180910390fd5b80600560008473ffffffffffffffffffffffffffffffffffffffff1673ffffffffffffffffffffffffffffffffffffffff168152602001908152602001600020819055505050565b6000600660003373ffffffffffffffffffffffffffffffffffffffff1673ffffffffffffffffffffffffffffffffffffffff1681526020019081526020016000206000838152602001908152602001600020905042816003015411156113f0576040517f08c379a00000000000000000000000000000000000000000000000000000000081526004016113e790612a76565b60405180910390fd5b6000816000015411611437576040517f08c379a000000000000000000000000000000000000000000000000000000000815260040161142e90612b96565b60405180910390fd5b6000611451826000015442846002015485600401546118bc565b905081600001548111611464578061146a565b81600001545b9050600082600101548261147e9190612df8565b905081836001018190555080600860008560050160019054906101000a900473ffffffffffffffffffffffffffffffffffffffff1673ffffffffffffffffffffffffffffffffffffffff1673ffffffffffffffffffffffffffffffffffffffff168152602001908152602001600020546114f89190612df8565b600860008560050160019054906101000a900473ffffffffffffffffffffffffffffffffffffffff1673ffffffffffffffffffffffffffffffffffffffff1673ffffffffffffffffffffffffffffffffffffffff168152602001908152602001600020819055508260050160019054906101000a900473ffffffffffffffffffffffffffffffffffffffff1673ffffffffffffffffffffffffffffffffffffffff1663a9059cbb33836040518363ffffffff1660e01b81526004016115be929190612992565b602060405180830381600087803b1580156115d857600080fd5b505af11580156115ec573d6000803e3d6000fd5b505050506040513d601f19601f8201168201806040525081019061161091906125dd565b61164f576040517f08c379a000000000000000000000000000000000000000000000000000000000815260040161164690612af6565b60405180910390fd5b3373ffffffffffffffffffffffffffffffffffffffff167f47cee97cb7acd717b3c0aa1435d004cd5b3c8c57d70dbceb4e4458bbd60e39d4836040516116959190612bd6565b60405180910390a250505050565b60016020528060005260406000206000915090505481565b600080600560008473ffffffffffffffffffffffffffffffffffffffff1673ffffffffffffffffffffffffffffffffffffffff1681526020019081526020016000205490506004600082815260200190815260200160002060010154915050919050565b60035481565b61172d611fd6565b73ffffffffffffffffffffffffffffffffffffffff1661174b611893565b73ffffffffffffffffffffffffffffffffffffffff16146117a1576040517f08c379a000000000000000000000000000000000000000000000000000000000815260040161179890612b36565b60405180910390fd5b6117ab6000611fde565b565b6006602052816000526040600020602052806000526040600020600091509150508060000154908060010154908060020154908060030154908060040154908060050160009054906101000a900460ff16908060050160019054906101000a900473ffffffffffffffffffffffffffffffffffffffff16905087565b600080600560008473ffffffffffffffffffffffffffffffffffffffff1673ffffffffffffffffffffffffffffffffffffffff1681526020019081526020016000205490506000600460008381526020019081526020016000209050806000015492505050919050565b60008060009054906101000a900473ffffffffffffffffffffffffffffffffffffffff16905090565b6000828410156118cf57600090506118ff565b82826118db9190612df8565b83856118e79190612df8565b866118f29190612d9e565b6118fc9190612d6d565b90505b949350505050565b60056020528060005260406000206000915090505481565b60086020528060005260406000206000915090505481565b60076020528060005260406000206000915090505481565b611957611fd6565b73ffffffffffffffffffffffffffffffffffffffff16611975611893565b73ffffffffffffffffffffffffffffffffffffffff16146119cb576040517f08c379a00000000000000000000000000000000000000000000000000000000081526004016119c290612b36565b60405180910390fd5b80600160008473ffffffffffffffffffffffffffffffffffffffff1673ffffffffffffffffffffffffffffffffffffffff1681526020019081526020016000206000828254611a1a9190612d17565b925050819055507f000000000000000000000000000000000000000000000000000000000000000073ffffffffffffffffffffffffffffffffffffffff1663a9059cbb611a65611893565b836040518363ffffffff1660e01b8152600401611a83929190612992565b602060405180830381600087803b158015611a9d57600080fd5b505af1158015611ab1573d6000803e3d6000fd5b505050506040513d601f19601f82011682018060405250810190611ad591906125dd565b508173ffffffffffffffffffffffffffffffffffffffff167f322aa8e34b758bbd3ef99d9b6ef8bd2ad3c66079b2f0bff60fe3d221a314181c82604051611b1c9190612bd6565b60405180910390a25050565b611b30611fd6565b73ffffffffffffffffffffffffffffffffffffffff16611b4e611893565b73ffffffffffffffffffffffffffffffffffffffff1614611ba4576040517f08c379a0000000000000000000000000000000000000000000000000000000008152600401611b9b90612b36565b60405180910390fd5b600073ffffffffffffffffffffffffffffffffffffffff168173ffffffffffffffffffffffffffffffffffffffff161415611c14576040517f08c379a0000000000000000000000000000000000000000000000000000000008152600401611c0b906129f6565b60405180910390fd5b611c1d81611fde565b50565b7f000000000000000000000000000000000000000000000000000000000000000081565b611c4c611fd6565b73ffffffffffffffffffffffffffffffffffffffff16611c6a611893565b73ffffffffffffffffffffffffffffffffffffffff1614611cc0576040517f08c379a0000000000000000000000000000000000000000000000000000000008152600401611cb790612b36565b60405180910390fd5b6000600660008473ffffffffffffffffffffffffffffffffffffffff1673ffffffffffffffffffffffffffffffffffffffff168152602001908152602001600020600083815260200190815260200160002090508060050160009054906101000a900460ff1615611d66576040517f08c379a0000000000000000000000000000000000000000000000000000000008152600401611d5d90612a56565b60405180910390fd5b600081600101548260000154611d7c9190612df8565b90506000811415611dc2576040517f08c379a0000000000000000000000000000000000000000000000000000000008152600401611db990612b56565b60405180910390fd5b6000826000018190555080600860008460050160019054906101000a900473ffffffffffffffffffffffffffffffffffffffff1673ffffffffffffffffffffffffffffffffffffffff1673ffffffffffffffffffffffffffffffffffffffff16815260200190815260200160002054611e3b9190612df8565b600860008460050160019054906101000a900473ffffffffffffffffffffffffffffffffffffffff1673ffffffffffffffffffffffffffffffffffffffff1673ffffffffffffffffffffffffffffffffffffffff168152602001908152602001600020819055508160050160019054906101000a900473ffffffffffffffffffffffffffffffffffffffff1673ffffffffffffffffffffffffffffffffffffffff1663a9059cbb611eea611893565b836040518363ffffffff1660e01b8152600401611f08929190612992565b602060405180830381600087803b158015611f2257600080fd5b505af1158015611f36573d6000803e3d6000fd5b505050506040513d601f19601f82011682018060405250810190611f5a91906125dd565b611f99576040517f08c379a0000000000000000000000000000000000000000000000000000000008152600401611f9090612af6565b60405180910390fd5b7f398bd6b21ae4164ec322fb0eb8c2eb6277f36fd41903fbbed594dfe12559128184604051611fc89190612977565b60405180910390a150505050565b600033905090565b60008060009054906101000a900473ffffffffffffffffffffffffffffffffffffffff169050816000806101000a81548173ffffffffffffffffffffffffffffffffffffffff021916908373ffffffffffffffffffffffffffffffffffffffff1602179055508173ffffffffffffffffffffffffffffffffffffffff168173ffffffffffffffffffffffffffffffffffffffff167f8be0079c531659141344cd1fd0a4f28419497f9722a3daafe3b4186f6b6457e060405160405180910390a35050565b60006120b56120b084612cae565b612c89565b905080838252602082019050828560208602820111156120d8576120d7612fea565b5b60005b8581101561210857816120ee8882612182565b8452602084019350602083019250506001810190506120db565b5050509392505050565b600061212561212084612cda565b612c89565b9050808382526020820190508285602086028201111561214857612147612fea565b5b60005b85811015612178578161215e88826122c9565b84526020840193506020830192505060018101905061214b565b5050509392505050565b600081359050612191816132c0565b92915050565b60008083601f8401126121ad576121ac612fe5565b5b8235905067ffffffffffffffff8111156121ca576121c9612fe0565b5b6020830191508360208202830111156121e6576121e5612fea565b5b9250929050565b600082601f83011261220257612201612fe5565b5b81356122128482602086016120a2565b91505092915050565b60008083601f84011261223157612230612fe5565b5b8235905067ffffffffffffffff81111561224e5761224d612fe0565b5b60208301915083602082028301111561226a57612269612fea565b5b9250929050565b600082601f83011261228657612285612fe5565b5b8135612296848260208601612112565b91505092915050565b6000813590506122ae816132d7565b92915050565b6000815190506122c3816132d7565b92915050565b6000813590506122d8816132ee565b92915050565b6000815190506122ed816132ee565b92915050565b60006020828403121561230957612308612ff4565b5b600061231784828501612182565b91505092915050565b6000806040838503121561233757612336612ff4565b5b600061234585828601612182565b9250506020612356858286016122c9565b9150509250929050565b600080600080600080600060e0888a03121561237f5761237e612ff4565b5b600061238d8a828b01612182565b975050602061239e8a828b016122c9565b96505060406123af8a828b01612182565b95505060606123c08a828b0161229f565b94505060806123d18a828b016122c9565b93505060a06123e28a828b016122c9565b92505060c06123f38a828b016122c9565b91505092959891949750929550565b600080600080600080600080600060e08a8c03121561242457612423612ff4565b5b60008a013567ffffffffffffffff81111561244257612441612fef565b5b61244e8c828d01612197565b995099505060208a013567ffffffffffffffff81111561247157612470612fef565b5b61247d8c828d0161221b565b975097505060406124908c828d01612182565b95505060606124a18c828d0161229f565b94505060806124b28c828d016122c9565b93505060a06124c38c828d016122c9565b92505060c06124d48c828d016122c9565b9150509295985092959850929598565b600080604083850312156124fb576124fa612ff4565b5b600083013567ffffffffffffffff81111561251957612518612fef565b5b612525858286016121ed565b925050602083013567ffffffffffffffff81111561254657612545612fef565b5b61255285828601612271565b9150509250929050565b6000806000806040858703121561257657612575612ff4565b5b600085013567ffffffffffffffff81111561259457612593612fef565b5b6125a08782880161221b565b9450945050602085013567ffffffffffffffff8111156125c3576125c2612fef565b5b6125cf8782880161221b565b925092505092959194509250565b6000602082840312156125f3576125f2612ff4565b5b6000612601848285016122b4565b91505092915050565b6000602082840312156126205761261f612ff4565b5b600061262e848285016122c9565b91505092915050565b60006020828403121561264d5761264c612ff4565b5b600061265b848285016122de565b91505092915050565b6000806040838503121561267b5761267a612ff4565b5b6000612689858286016122c9565b925050602061269a85828601612182565b9150509250929050565b600080600080608085870312156126be576126bd612ff4565b5b60006126cc878288016122c9565b94505060206126dd878288016122c9565b93505060406126ee878288016122c9565b92505060606126ff878288016122c9565b91505092959194509250565b61271481612e2c565b82525050565b61272381612e3e565b82525050565b61273281612e74565b82525050565b6000612745601783612d06565b91506127508261300a565b602082019050919050565b6000612768602683612d06565b915061277382613033565b604082019050919050565b600061278b601883612d06565b915061279682613082565b602082019050919050565b60006127ae601f83612d06565b91506127b9826130ab565b602082019050919050565b60006127d1601983612d06565b91506127dc826130d4565b602082019050919050565b60006127f4601a83612d06565b91506127ff826130fd565b602082019050919050565b6000612817600383612d06565b915061282282613126565b602082019050919050565b600061283a601e83612d06565b91506128458261314f565b602082019050919050565b600061285d601d83612d06565b915061286882613178565b602082019050919050565b6000612880601883612d06565b915061288b826131a1565b602082019050919050565b60006128a3601983612d06565b91506128ae826131ca565b602082019050919050565b60006128c6602083612d06565b91506128d1826131f3565b602082019050919050565b60006128e9601e83612d06565b91506128f48261321c565b602082019050919050565b600061290c601a83612d06565b915061291782613245565b602082019050919050565b600061292f601683612d06565b915061293a8261326e565b602082019050919050565b6000612952601a83612d06565b915061295d82613297565b602082019050919050565b61297181612e6a565b82525050565b600060208201905061298c600083018461270b565b92915050565b60006040820190506129a7600083018561270b565b6129b46020830184612968565b9392505050565b60006020820190506129d06000830184612729565b92915050565b600060208201905081810360008301526129ef81612738565b9050919050565b60006020820190508181036000830152612a0f8161275b565b9050919050565b60006020820190508181036000830152612a2f8161277e565b9050919050565b60006020820190508181036000830152612a4f816127a1565b9050919050565b60006020820190508181036000830152612a6f816127c4565b9050919050565b60006020820190508181036000830152612a8f816127e7565b9050919050565b60006020820190508181036000830152612aaf8161280a565b9050919050565b60006020820190508181036000830152612acf8161282d565b9050919050565b60006020820190508181036000830152612aef81612850565b9050919050565b60006020820190508181036000830152612b0f81612873565b9050919050565b60006020820190508181036000830152612b2f81612896565b9050919050565b60006020820190508181036000830152612b4f816128b9565b9050919050565b60006020820190508181036000830152612b6f816128dc565b9050919050565b60006020820190508181036000830152612b8f816128ff565b9050919050565b60006020820190508181036000830152612baf81612922565b9050919050565b60006020820190508181036000830152612bcf81612945565b9050919050565b6000602082019050612beb6000830184612968565b92915050565b6000604082019050612c066000830185612968565b612c136020830184612968565b9392505050565b600060e082019050612c2f600083018a612968565b612c3c6020830189612968565b612c496040830188612968565b612c566060830187612968565b612c636080830186612968565b612c7060a083018561271a565b612c7d60c083018461270b565b98975050505050505050565b6000612c93612ca4565b9050612c9f8282612eaa565b919050565b6000604051905090565b600067ffffffffffffffff821115612cc957612cc8612fb1565b5b602082029050602081019050919050565b600067ffffffffffffffff821115612cf557612cf4612fb1565b5b602082029050602081019050919050565b600082825260208201905092915050565b6000612d2282612e6a565b9150612d2d83612e6a565b9250827fffffffffffffffffffffffffffffffffffffffffffffffffffffffffffffffff03821115612d6257612d61612f24565b5b828201905092915050565b6000612d7882612e6a565b9150612d8383612e6a565b925082612d9357612d92612f53565b5b828204905092915050565b6000612da982612e6a565b9150612db483612e6a565b9250817fffffffffffffffffffffffffffffffffffffffffffffffffffffffffffffffff0483118215151615612ded57612dec612f24565b5b828202905092915050565b6000612e0382612e6a565b9150612e0e83612e6a565b925082821015612e2157612e20612f24565b5b828203905092915050565b6000612e3782612e4a565b9050919050565b60008115159050919050565b600073ffffffffffffffffffffffffffffffffffffffff82169050919050565b6000819050919050565b6000612e7f82612e86565b9050919050565b6000612e9182612e98565b9050919050565b6000612ea382612e4a565b9050919050565b612eb382612ff9565b810181811067ffffffffffffffff82111715612ed257612ed1612fb1565b5b80604052505050565b6000612ee682612e6a565b91507fffffffffffffffffffffffffffffffffffffffffffffffffffffffffffffffff821415612f1957612f18612f24565b5b600182019050919050565b7f4e487b7100000000000000000000000000000000000000000000000000000000600052601160045260246000fd5b7f4e487b7100000000000000000000000000000000000000000000000000000000600052601260045260246000fd5b7f4e487b7100000000000000000000000000000000000000000000000000000000600052603260045260246000fd5b7f4e487b7100000000000000000000000000000000000000000000000000000000600052604160045260246000fd5b600080fd5b600080fd5b600080fd5b600080fd5b600080fd5b6000601f19601f8301169050919050565b7f56657374696e673a2043616e2774207769746864726177000000000000000000600082015250565b7f4f776e61626c653a206e6577206f776e657220697320746865207a65726f206160008201527f6464726573730000000000000000000000000000000000000000000000000000602082015250565b7f56657374696e673a207769746864726177206661696c65640000000000000000600082015250565b7f56657374696e673a20696e76616c69642076657374696e6720706172616d7300600082015250565b7f56657374696e673a204163636f756e7420697320666978656400000000000000600082015250565b7f56657374696e673a20636c696666206e6f742072656163686564000000000000600082015250565b7f49434c0000000000000000000000000000000000000000000000000000000000600082015250565b7f546965723a20696e646578206f66207469657220697320696e76616c69640000600082015250565b7f56657374696e673a204172726179206c656e6774687320646966666572000000600082015250565b7f56657374696e673a207472616e73666572206661696c65640000000000000000600082015250565b7f546965723a20696e76616c6964207469657220706172616d7300000000000000600082015250565b7f4f776e61626c653a2063616c6c6572206973206e6f7420746865206f776e6572600082015250565b7f56657374696e673a206e6f206f75747374616e64696e6720746f6b656e730000600082015250565b7f56657374696e673a204e6f7420656e6f75676820746f6b656e73000000000000600082015250565b7f56657374696e673a206e6f7420636c61696d61626c6500000000000000000000600082015250565b7f546965723a204172726179206c656e6774687320646966666572000000000000600082015250565b6132c981612e2c565b81146132d457600080fd5b50565b6132e081612e3e565b81146132eb57600080fd5b50565b6132f781612e6a565b811461330257600080fd5b5056fea2646970667358221220ebc461faed3816faa5f6108ad970353b776d001324eb1b4b948fa4dece9b969464736f6c63430008070033",
  "immutableReferences": {
    "2554": [
      {
        "length": 32,
        "start": 1406
      },
      {
        "length": 32,
        "start": 1650
      },
      {
        "length": 32,
        "start": 4164
      },
      {
        "length": 32,
        "start": 6691
      },
      {
        "length": 32,
        "start": 7202
      }
    ]
  },
  "source": "// SPDX-License-Identifier: GPL-3.0-only\r\npragma solidity 0.8.7;\r\n\r\nimport \"@openzeppelin/contracts/token/ERC20/IERC20.sol\";\r\nimport \"@openzeppelin/contracts/access/Ownable.sol\";\r\n\r\ninterface IBEP20 {\r\n    \r\n  /**\r\n   * @dev Returns the amount of tokens in existence.\r\n   */\r\n  function totalSupply() external view returns (uint256);\r\n\r\n  /**\r\n   * @dev Returns the token decimals.\r\n   */\r\n  function decimals() external view returns (uint8);\r\n\r\n  /**\r\n   * @dev Returns the token symbol.\r\n   */\r\n  function symbol() external view returns (string memory);\r\n\r\n  /**\r\n  * @dev Returns the token name.\r\n  */\r\n  function name() external view returns (string memory);\r\n\r\n  /**\r\n   * @dev Returns the bep token owner.\r\n   */\r\n  function getOwner() external view returns (address);\r\n\r\n  /**\r\n   * @dev Returns the amount of tokens owned by `account`.\r\n   */\r\n  function balanceOf(address account) external view returns (uint256);\r\n\r\n  /**\r\n   * @dev Moves `amount` tokens from the caller's account to `recipient`.\r\n   *\r\n   * Returns a boolean value indicating whether the operation succeeded.\r\n   *\r\n   * Emits a {Transfer} event.\r\n   */\r\n  function transfer(address recipient, uint256 amount) external returns (bool);\r\n\r\n  /**\r\n   * @dev Returns the remaining number of tokens that `spender` will be\r\n   * allowed to spend on behalf of `owner` through {transferFrom}. This is\r\n   * zero by default.\r\n   *\r\n   * This value changes when {approve} or {transferFrom} are called.\r\n   */\r\n  function allowance(address _owner, address spender) external view returns (uint256);\r\n\r\n  /**\r\n   * @dev Sets `amount` as the allowance of `spender` over the caller's tokens.\r\n   *\r\n   * Returns a boolean value indicating whether the operation succeeded.\r\n   *\r\n   * IMPORTANT: Beware that changing an allowance with this method brings the risk\r\n   * that someone may use both the old and the new allowance by unfortunate\r\n   * transaction ordering. One possible solution to mitigate this race\r\n   * condition is to first reduce the spender's allowance to 0 and set the\r\n   * desired value afterwards:\r\n   * https://github.com/ethereum/EIPs/issues/20#issuecomment-263524729\r\n   *\r\n   * Emits an {Approval} event.\r\n   */\r\n  function approve(address spender, uint256 amount) external returns (bool);\r\n\r\n  /**\r\n   * @dev Moves `amount` tokens from `sender` to `recipient` using the\r\n   * allowance mechanism. `amount` is then deducted from the caller's\r\n   * allowance.\r\n   *\r\n   * Returns a boolean value indicating whether the operation succeeded.\r\n   *\r\n   * Emits a {Transfer} event.\r\n   */\r\n  function transferFrom(address sender, address recipient, uint256 amount) external returns (bool);\r\n\r\n  /**\r\n   * @dev Emitted when `value` tokens are moved from one account (`from`) to\r\n   * another (`to`).\r\n   *\r\n   * Note that `value` may be zero.\r\n   */\r\n  event Transfer(address indexed from, address indexed to, uint256 value);\r\n\r\n  /**\r\n   * @dev Emitted when the allowance of a `spender` for an `owner` is set by\r\n   * a call to {approve}. `value` is the new allowance.\r\n   */\r\n  event Approval(address indexed owner, address indexed spender, uint256 value);\r\n  \r\n}\r\n/**\r\n * Tracer Standard Vesting Contract\r\n */\r\ncontract Vesting is Ownable {\r\n    mapping(address => uint256) public vestedAmount;\r\n    mapping(address => uint256) public claimedAmount;\r\n\r\n    struct Tier {\r\n        uint256 tierId;\r\n        uint256 amountMax;\r\n    }\r\n    uint256 public numberOfTiers;\r\n    mapping(uint256 => Tier) public tiers;\r\n    mapping(address => uint256) public whitelistOfTiers;     \r\n\r\n    struct Schedule {\r\n        uint256 totalAmount;\r\n        uint256 claimedAmount;\r\n        uint256 startTime;\r\n        uint256 cliffTime;\r\n        uint256 endTime;\r\n        bool isFixed;\r\n        address asset;\r\n    }\r\n\r\n    // user => scheduleId => schedule\r\n    mapping(address => mapping(uint256 => Schedule)) public schedules;\r\n    mapping(address => uint256) public numberOfSchedules;\r\n\r\n    mapping(address => uint256) public locked;\r\n    IBEP20 public immutable token;\r\n\r\n    event Claim(address indexed claimer, uint256 amount);\r\n    event Vest(address indexed to, uint256 amount);\r\n    event Cancelled(address account);\r\n\r\n    event NewVesting(address indexed investor, uint256 amount);\r\n\r\n    constructor(IBEP20 _token) {\r\n        token = _token;\r\n    }\r\n\r\n    /**\r\n     * @notice Sets up a vesting schedule for a set user.\r\n     * @dev adds a new Schedule to the schedules mapping.\r\n     * @param account the account that a vesting schedule is being set up for. Will be able to claim tokens after\r\n     *                the cliff period.\r\n     * @param amount the amount of tokens being vested for the user.\r\n     * @param asset the asset that the user is being vested\r\n     * @param isFixed a flag for if the vesting schedule is fixed or not. Fixed vesting schedules can't be cancelled.\r\n     * @param cliffDays the number of days that the cliff will be present at.\r\n     * @param vestingDays the number of days the tokens will vest over (linearly)\r\n     * @param startTime the timestamp for when this vesting should have started\r\n     */\r\n    function vest(\r\n        address account,\r\n        uint256 amount,\r\n        address asset,\r\n        bool isFixed,\r\n        uint256 cliffDays,\r\n        uint256 vestingDays,\r\n        uint256 startTime\r\n    ) public onlyOwner {\r\n        // ensure cliff is shorter than vesting\r\n        require(\r\n            vestingDays > 0 && \r\n            vestingDays >= cliffDays &&\r\n            amount > 0,\r\n            \"Vesting: invalid vesting params\"\r\n        );\r\n\r\n        uint256 currentLocked = locked[asset];\r\n\r\n        // require the token is present\r\n        require(\r\n            IBEP20(asset).balanceOf(address(this)) >= currentLocked + amount,\r\n            \"Vesting: Not enough tokens\"\r\n        );\r\n\r\n        // create the schedule\r\n        uint256 currentNumSchedules = numberOfSchedules[account];\r\n        schedules[account][currentNumSchedules] = Schedule(\r\n            amount,\r\n            0,\r\n            startTime,\r\n            startTime + (cliffDays * 1 days),\r\n            startTime + (vestingDays * 1 days),\r\n            isFixed,\r\n            asset\r\n        );\r\n        numberOfSchedules[account] = currentNumSchedules + 1;\r\n        locked[asset] = currentLocked + amount;\r\n        emit Vest(account, amount);\r\n    }\r\n\r\n    /**\r\n     * @notice Sets up vesting schedules for multiple users within 1 transaction.\r\n     * @dev adds a new Schedule to the schedules mapping.\r\n     * @param accounts an array of the accounts that the vesting schedules are being set up for.\r\n     *                 Will be able to claim tokens after the cliff period.\r\n     * @param amount an array of the amount of tokens being vested for each user.\r\n     * @param asset the asset that the user is being vested\r\n     * @param isFixed bool setting if these vesting schedules can be rugged or not.\r\n     * @param cliffDays the number of days that the cliff will be present at.\r\n     * @param vestingDays the number of days the tokens will vest over (linearly)\r\n     * @param startTime the timestamp for when this vesting should have started\r\n     */\r\n    function multiVest(\r\n        address[] calldata accounts,\r\n        uint256[] calldata amount,\r\n        address asset,\r\n        bool isFixed,\r\n        uint256 cliffDays,\r\n        uint256 vestingDays,\r\n        uint256 startTime\r\n    ) external onlyOwner {\r\n        uint256 numberOfAccounts = accounts.length;\r\n        require(\r\n            amount.length == numberOfAccounts,\r\n            \"Vesting: Array lengths differ\"\r\n        );\r\n        for (uint256 i = 0; i < numberOfAccounts; i++) {\r\n            vest(\r\n                accounts[i],\r\n                amount[i],\r\n                asset,\r\n                isFixed,\r\n                cliffDays,\r\n                vestingDays,\r\n                startTime\r\n            );\r\n        }\r\n    }\r\n\r\n    /**\r\n     * @notice allows users to claim vested tokens if the cliff time has passed.\r\n     * @param scheduleNumber which schedule the user is claiming against\r\n     */\r\n    function claim(uint256 scheduleNumber) external {\r\n        Schedule storage schedule = schedules[msg.sender][scheduleNumber];\r\n        require(\r\n            schedule.cliffTime <= block.timestamp,\r\n            \"Vesting: cliff not reached\"\r\n        );\r\n        require(schedule.totalAmount > 0, \"Vesting: not claimable\");\r\n\r\n        // Get the amount to be distributed\r\n        uint256 amount = calcDistribution(\r\n            schedule.totalAmount,\r\n            block.timestamp,\r\n            schedule.startTime,\r\n            schedule.endTime\r\n        );\r\n\r\n        // Cap the amount at the total amount\r\n        amount = amount > schedule.totalAmount ? schedule.totalAmount : amount;\r\n        uint256 amountToTransfer = amount - schedule.claimedAmount;\r\n        schedule.claimedAmount = amount; // set new claimed amount based off the curve\r\n        locked[schedule.asset] = locked[schedule.asset] - amountToTransfer;\r\n        require(IBEP20(schedule.asset).transfer(msg.sender, amountToTransfer), \"Vesting: transfer failed\");\r\n        emit Claim(msg.sender, amount);\r\n    }\r\n\r\n    /**\r\n     * @notice Allows a vesting schedule to be cancelled.\r\n     * @dev Any outstanding tokens are returned to the system.\r\n     * @param account the account of the user whos vesting schedule is being cancelled.\r\n     */\r\n    function rug(address account, uint256 scheduleId) external onlyOwner {\r\n        Schedule storage schedule = schedules[account][scheduleId];\r\n        require(!schedule.isFixed, \"Vesting: Account is fixed\");\r\n        uint256 outstandingAmount = schedule.totalAmount -\r\n            schedule.claimedAmount;\r\n        require(outstandingAmount != 0, \"Vesting: no outstanding tokens\");\r\n        schedule.totalAmount = 0;\r\n        locked[schedule.asset] = locked[schedule.asset] - outstandingAmount;\r\n        require(IBEP20(schedule.asset).transfer(owner(), outstandingAmount), \"Vesting: transfer failed\");\r\n        emit Cancelled(account);\r\n    }\r\n\r\n    /**\r\n     * @return calculates the amount of tokens to distribute to an account at any instance in time, based off some\r\n     *         total claimable amount.\r\n     * @param amount the total outstanding amount to be claimed for this vesting schedule.\r\n     * @param currentTime the current timestamp.\r\n     * @param startTime the timestamp this vesting schedule started.\r\n     * @param endTime the timestamp this vesting schedule ends.\r\n     */\r\n    function calcDistribution(\r\n        uint256 amount,\r\n        uint256 currentTime,\r\n        uint256 startTime,\r\n        uint256 endTime\r\n    ) public pure returns (uint256) {\r\n        // avoid uint underflow\r\n        if (currentTime < startTime) {\r\n            return 0;\r\n        }\r\n\r\n        // if endTime < startTime, this will throw. Since endTime should never be\r\n        // less than startTime in safe operation, this is fine.\r\n        return (amount * (currentTime - startTime)) / (endTime - startTime);\r\n    }\r\n\r\n    /**\r\n     * @notice Withdraws CSPD tokens from the contract.\r\n     * @dev blocks withdrawing locked tokens.\r\n     */\r\n    function withdraw(uint256 amount, address asset) external onlyOwner {\r\n        require(\r\n            token.balanceOf(address(this)) - locked[asset] >= amount,\r\n            \"Vesting: Can't withdraw\"\r\n        );\r\n        require(token.transfer(owner(), amount), \"Vesting: withdraw failed\");\r\n    }\r\n\r\n     /**\r\n     * @notice add multi investor to vesting.\r\n     * @dev admin add the multi investor to vesting.\r\n     */\r\n    function addInvestors(address[] memory investors, uint256[] memory amounts) external onlyOwner {\r\n        uint256 totalAmount = 0;\r\n        uint256 length = investors.length;\r\n        require(amounts.length == length, \"ICL\");\r\n\r\n        for (uint256 i = 0; i < length; i++) {\r\n            vestedAmount[investors[i]] += amounts[i];\r\n            totalAmount += amounts[i];\r\n            emit NewVesting(investors[i], amounts[i]);\r\n        }\r\n\r\n        token.transfer(owner(), totalAmount);\r\n    }\r\n\r\n     /**\r\n     * @notice add investor to vesting.\r\n     * @dev admin add the investor to vesting.\r\n     */\r\n    function addInvestor(address investor, uint256 amount) external onlyOwner {\r\n        vestedAmount[investor] += amount;\r\n        token.transfer(owner(), amount);\r\n        emit NewVesting(investor, amount);\r\n    }\r\n\r\n    function setTiers(\r\n        uint256[] calldata tierIds,\r\n        uint256[] calldata amountsMax\r\n    ) external onlyOwner {\r\n        uint256 _numberOfTiers = tierIds.length;\r\n        require(\r\n            amountsMax.length == _numberOfTiers,\r\n            \"Tier: Array lengths differ\"\r\n        );\r\n        for (uint256 i = 0; i < _numberOfTiers; i++) {\r\n            require(\r\n                tierIds[i] > 0 == true && amountsMax[i] > 0,\r\n                \"Tier: invalid tier params\"\r\n            );\r\n\r\n            tiers[i] = Tier(\r\n                tierIds[i],\r\n                amountsMax[i]\r\n            );\r\n        }\r\n\r\n        numberOfTiers = _numberOfTiers;\r\n    }\r\n\r\n    function setTierOfAccount(\r\n        address account,\r\n        uint256 indexOfTier\r\n    ) external onlyOwner {\r\n        require(\r\n            indexOfTier >= 0 && indexOfTier < numberOfTiers,\r\n            \"Tier: index of tier is invalid\"\r\n        );\r\n\r\n        whitelistOfTiers[account] = indexOfTier;\r\n    }\r\n\r\n    function gettierIdOfAccount(\r\n        address account\r\n    ) public view returns (uint256){\r\n        uint256 indexOfTier = whitelistOfTiers[account];\r\n        Tier storage _tier = tiers[indexOfTier];\r\n        return _tier.tierId;\r\n    }\r\n\r\n    function getTierAmountMaxOfAccount(\r\n        address account\r\n    ) public view returns (uint256){\r\n        uint256 indexOfTier = whitelistOfTiers[account];\r\n        return tiers[indexOfTier].amountMax;\r\n    }\r\n}",
  "sourcePath": "D:\\Work Space\\CasperPad\\CasperPadToken_Contract\\contracts\\Vesting.sol",
  "compiler": {
    "name": "solc",
    "version": "0.8.7+commit.e28d00a7.Emscripten.clang"
  },
  "schemaVersion": "3.4.3",
  "updatedAt": "2021-11-27T12:50:13.538Z",
  "devdoc": {
    "kind": "dev",
    "methods": {
      "addInvestor(address,uint256)": {
        "details": "admin add the investor to vesting."
      },
      "addInvestors(address[],uint256[])": {
        "details": "admin add the multi investor to vesting."
      },
      "calcDistribution(uint256,uint256,uint256,uint256)": {
        "params": {
          "amount": "the total outstanding amount to be claimed for this vesting schedule.",
          "currentTime": "the current timestamp.",
          "endTime": "the timestamp this vesting schedule ends.",
          "startTime": "the timestamp this vesting schedule started."
        },
        "returns": {
          "_0": "calculates the amount of tokens to distribute to an account at any instance in time, based off some         total claimable amount."
        }
      },
      "claim(uint256)": {
        "params": {
          "scheduleNumber": "which schedule the user is claiming against"
        }
      },
      "multiVest(address[],uint256[],address,bool,uint256,uint256,uint256)": {
        "details": "adds a new Schedule to the schedules mapping.",
        "params": {
          "accounts": "an array of the accounts that the vesting schedules are being set up for.                 Will be able to claim tokens after the cliff period.",
          "amount": "an array of the amount of tokens being vested for each user.",
          "asset": "the asset that the user is being vested",
          "cliffDays": "the number of days that the cliff will be present at.",
          "isFixed": "bool setting if these vesting schedules can be rugged or not.",
          "startTime": "the timestamp for when this vesting should have started",
          "vestingDays": "the number of days the tokens will vest over (linearly)"
        }
      },
      "owner()": {
        "details": "Returns the address of the current owner."
      },
      "renounceOwnership()": {
        "details": "Leaves the contract without owner. It will not be possible to call `onlyOwner` functions anymore. Can only be called by the current owner. NOTE: Renouncing ownership will leave the contract without an owner, thereby removing any functionality that is only available to the owner."
      },
      "rug(address,uint256)": {
        "details": "Any outstanding tokens are returned to the system.",
        "params": {
          "account": "the account of the user whos vesting schedule is being cancelled."
        }
      },
      "transferOwnership(address)": {
        "details": "Transfers ownership of the contract to a new account (`newOwner`). Can only be called by the current owner."
      },
      "vest(address,uint256,address,bool,uint256,uint256,uint256)": {
        "details": "adds a new Schedule to the schedules mapping.",
        "params": {
          "account": "the account that a vesting schedule is being set up for. Will be able to claim tokens after                the cliff period.",
          "amount": "the amount of tokens being vested for the user.",
          "asset": "the asset that the user is being vested",
          "cliffDays": "the number of days that the cliff will be present at.",
          "isFixed": "a flag for if the vesting schedule is fixed or not. Fixed vesting schedules can't be cancelled.",
          "startTime": "the timestamp for when this vesting should have started",
          "vestingDays": "the number of days the tokens will vest over (linearly)"
        }
      },
      "withdraw(uint256,address)": {
        "details": "blocks withdrawing locked tokens."
      }
    },
    "version": 1
  },
  "userdoc": {
    "kind": "user",
    "methods": {
      "addInvestor(address,uint256)": {
        "notice": "add investor to vesting."
      },
      "addInvestors(address[],uint256[])": {
        "notice": "add multi investor to vesting."
      },
      "claim(uint256)": {
        "notice": "allows users to claim vested tokens if the cliff time has passed."
      },
      "multiVest(address[],uint256[],address,bool,uint256,uint256,uint256)": {
        "notice": "Sets up vesting schedules for multiple users within 1 transaction."
      },
      "rug(address,uint256)": {
        "notice": "Allows a vesting schedule to be cancelled."
      },
      "vest(address,uint256,address,bool,uint256,uint256,uint256)": {
        "notice": "Sets up a vesting schedule for a set user."
      },
      "withdraw(uint256,address)": {
        "notice": "Withdraws CSPD tokens from the contract."
      }
    },
    "notice": "Tracer Standard Vesting Contract",
    "version": 1
  }
}