{
  "contractName": "Vesting",
  "abi": [
    {
      "inputs": [
        {
          "internalType": "address",
          "name": "_token",
          "type": "address"
        }
      ],
      "stateMutability": "nonpayable",
      "type": "constructor"
    },
    {
      "anonymous": false,
      "inputs": [
        {
          "indexed": false,
          "internalType": "address",
          "name": "_address",
          "type": "address"
        }
      ],
      "name": "AddNewAdmin",
      "type": "event"
    },
    {
      "anonymous": false,
      "inputs": [
        {
          "indexed": false,
          "internalType": "address",
          "name": "account",
          "type": "address"
        }
      ],
      "name": "Cancelled",
      "type": "event"
    },
    {
      "anonymous": false,
      "inputs": [
        {
          "indexed": true,
          "internalType": "address",
          "name": "claimer",
          "type": "address"
        },
        {
          "indexed": false,
          "internalType": "uint256",
          "name": "amount",
          "type": "uint256"
        }
      ],
      "name": "Claim",
      "type": "event"
    },
    {
      "anonymous": false,
      "inputs": [
        {
          "indexed": true,
          "internalType": "address",
          "name": "investor",
          "type": "address"
        },
        {
          "indexed": false,
          "internalType": "uint256",
          "name": "amount",
          "type": "uint256"
        },
        {
          "indexed": false,
          "internalType": "bool",
          "name": "isFixed",
          "type": "bool"
        }
      ],
      "name": "NewVesting",
      "type": "event"
    },
    {
      "anonymous": false,
      "inputs": [
        {
          "indexed": true,
          "internalType": "address",
          "name": "previousOwner",
          "type": "address"
        },
        {
          "indexed": true,
          "internalType": "address",
          "name": "newOwner",
          "type": "address"
        }
      ],
      "name": "OwnershipTransferred",
      "type": "event"
    },
    {
      "anonymous": false,
      "inputs": [
        {
          "indexed": false,
          "internalType": "uint256",
          "name": "_timestamp",
          "type": "uint256"
        }
      ],
      "name": "UnlockTokens",
      "type": "event"
    },
    {
      "inputs": [
        {
          "internalType": "address",
          "name": "",
          "type": "address"
        }
      ],
      "name": "admins",
      "outputs": [
        {
          "internalType": "bool",
          "name": "",
          "type": "bool"
        }
      ],
      "stateMutability": "view",
      "type": "function"
    },
    {
      "inputs": [
        {
          "internalType": "uint256",
          "name": "",
          "type": "uint256"
        }
      ],
      "name": "amounts",
      "outputs": [
        {
          "internalType": "uint256",
          "name": "",
          "type": "uint256"
        }
      ],
      "stateMutability": "view",
      "type": "function"
    },
    {
      "inputs": [
        {
          "internalType": "address",
          "name": "",
          "type": "address"
        }
      ],
      "name": "locked",
      "outputs": [
        {
          "internalType": "uint256",
          "name": "",
          "type": "uint256"
        }
      ],
      "stateMutability": "view",
      "type": "function"
    },
    {
      "inputs": [
        {
          "internalType": "uint256",
          "name": "",
          "type": "uint256"
        }
      ],
      "name": "members",
      "outputs": [
        {
          "internalType": "address",
          "name": "",
          "type": "address"
        }
      ],
      "stateMutability": "view",
      "type": "function"
    },
    {
      "inputs": [
        {
          "internalType": "address",
          "name": "",
          "type": "address"
        }
      ],
      "name": "numberOfSchedules",
      "outputs": [
        {
          "internalType": "uint256",
          "name": "",
          "type": "uint256"
        }
      ],
      "stateMutability": "view",
      "type": "function"
    },
    {
      "inputs": [],
      "name": "owner",
      "outputs": [
        {
          "internalType": "address",
          "name": "",
          "type": "address"
        }
      ],
      "stateMutability": "view",
      "type": "function"
    },
    {
      "inputs": [],
      "name": "renounceOwnership",
      "outputs": [],
      "stateMutability": "nonpayable",
      "type": "function"
    },
    {
      "inputs": [
        {
          "internalType": "uint256",
          "name": "",
          "type": "uint256"
        }
      ],
      "name": "schedulePlain",
      "outputs": [
        {
          "internalType": "uint256",
          "name": "percentage",
          "type": "uint256"
        },
        {
          "internalType": "uint256",
          "name": "unlockTime",
          "type": "uint256"
        },
        {
          "internalType": "bool",
          "name": "isSent",
          "type": "bool"
        }
      ],
      "stateMutability": "view",
      "type": "function"
    },
    {
      "inputs": [
        {
          "internalType": "address",
          "name": "",
          "type": "address"
        },
        {
          "internalType": "uint256",
          "name": "",
          "type": "uint256"
        }
      ],
      "name": "schedules",
      "outputs": [
        {
          "internalType": "uint256",
          "name": "amount",
          "type": "uint256"
        },
        {
          "internalType": "uint256",
          "name": "claimedAmount",
          "type": "uint256"
        },
        {
          "internalType": "uint256",
          "name": "unlockTime",
          "type": "uint256"
        },
        {
          "internalType": "bool",
          "name": "isFixed",
          "type": "bool"
        }
      ],
      "stateMutability": "view",
      "type": "function"
    },
    {
      "inputs": [],
      "name": "token",
      "outputs": [
        {
          "internalType": "contract IBEP20",
          "name": "",
          "type": "address"
        }
      ],
      "stateMutability": "view",
      "type": "function"
    },
    {
      "inputs": [
        {
          "internalType": "address",
          "name": "newOwner",
          "type": "address"
        }
      ],
      "name": "transferOwnership",
      "outputs": [],
      "stateMutability": "nonpayable",
      "type": "function"
    },
    {
      "inputs": [
        {
          "internalType": "uint256",
          "name": "",
          "type": "uint256"
        }
      ],
      "name": "vestingTimeList",
      "outputs": [
        {
          "internalType": "uint256",
          "name": "",
          "type": "uint256"
        }
      ],
      "stateMutability": "view",
      "type": "function"
    },
    {
      "inputs": [
        {
          "internalType": "address",
          "name": "",
          "type": "address"
        }
      ],
      "name": "whitelistOfTiers",
      "outputs": [
        {
          "internalType": "uint256",
          "name": "",
          "type": "uint256"
        }
      ],
      "stateMutability": "view",
      "type": "function"
    },
    {
      "inputs": [
        {
          "internalType": "uint256",
          "name": "totalAmount",
          "type": "uint256"
        }
      ],
      "name": "totalSupply",
      "outputs": [],
      "stateMutability": "nonpayable",
      "type": "function"
    },
    {
      "inputs": [
        {
          "internalType": "address",
          "name": "_address",
          "type": "address"
        }
      ],
      "name": "addAdmin",
      "outputs": [],
      "stateMutability": "nonpayable",
      "type": "function"
    },
    {
      "inputs": [
        {
          "internalType": "address",
          "name": "account",
          "type": "address"
        },
        {
          "internalType": "uint256",
          "name": "amount",
          "type": "uint256"
        },
        {
          "internalType": "bool",
          "name": "isFixed",
          "type": "bool"
        }
      ],
      "name": "addVest",
      "outputs": [],
      "stateMutability": "nonpayable",
      "type": "function"
    },
    {
      "inputs": [
        {
          "internalType": "address[]",
          "name": "accounts",
          "type": "address[]"
        },
        {
          "internalType": "uint256[]",
          "name": "amount",
          "type": "uint256[]"
        },
        {
          "internalType": "bool",
          "name": "isFixed",
          "type": "bool"
        }
      ],
      "name": "addMultiVest",
      "outputs": [],
      "stateMutability": "nonpayable",
      "type": "function"
    },
    {
      "inputs": [
        {
          "internalType": "uint256",
          "name": "scheduleNumber",
          "type": "uint256"
        }
      ],
      "name": "claim",
      "outputs": [],
      "stateMutability": "nonpayable",
      "type": "function"
    },
    {
      "inputs": [
        {
          "internalType": "address",
          "name": "account",
          "type": "address"
        },
        {
          "internalType": "uint256",
          "name": "scheduleId",
          "type": "uint256"
        }
      ],
      "name": "rug",
      "outputs": [],
      "stateMutability": "nonpayable",
      "type": "function"
    },
    {
      "inputs": [
        {
          "internalType": "uint256",
          "name": "amount",
          "type": "uint256"
        }
      ],
      "name": "withdraw",
      "outputs": [],
      "stateMutability": "nonpayable",
      "type": "function"
    },
    {
      "inputs": [
        {
          "internalType": "address[]",
          "name": "accounts",
          "type": "address[]"
        },
        {
          "internalType": "uint256[]",
          "name": "_maxAmount",
          "type": "uint256[]"
        }
      ],
      "name": "multiSetTierOfAccount",
      "outputs": [],
      "stateMutability": "nonpayable",
      "type": "function"
    },
    {
      "inputs": [
        {
          "internalType": "address",
          "name": "account",
          "type": "address"
        },
        {
          "internalType": "uint256",
          "name": "_maxAmount",
          "type": "uint256"
        }
      ],
      "name": "setTierOfAccount",
      "outputs": [],
      "stateMutability": "nonpayable",
      "type": "function"
    },
    {
      "inputs": [
        {
          "internalType": "address",
          "name": "account",
          "type": "address"
        }
      ],
      "name": "getTierOfAccount",
      "outputs": [
        {
          "internalType": "uint256",
          "name": "",
          "type": "uint256"
        }
      ],
      "stateMutability": "view",
      "type": "function"
    },
    {
      "inputs": [],
      "name": "unlockToken",
      "outputs": [],
      "stateMutability": "nonpayable",
      "type": "function"
    }
  ],
  "bytecode": "0x60806040523480156200001157600080fd5b5060405162004aa238038062004aa2833981810160405281019062000037919062000b7c565b620000576200004b62000a5960201b60201c565b62000a6160201b60201c565b600073ffffffffffffffffffffffffffffffffffffffff168173ffffffffffffffffffffffffffffffffffffffff1614156200009257600080fd5b80600160006101000a81548173ffffffffffffffffffffffffffffffffffffffff021916908373ffffffffffffffffffffffffffffffffffffffff16021790555060006a295be96e640669720000009050808273ffffffffffffffffffffffffffffffffffffffff166370a082316200011062000b2560201b60201c565b6040518263ffffffff1660e01b81526004016200012e919062000c18565b60206040518083038186803b1580156200014757600080fd5b505afa1580156200015c573d6000803e3d6000fd5b505050506040513d601f19601f8201168201806040525081019062000182919062000bae565b1015620001c6576040517f08c379a0000000000000000000000000000000000000000000000000000000008152600401620001bd9062000c35565b60405180910390fd5b600160066000620001dc62000b2560201b60201c565b73ffffffffffffffffffffffffffffffffffffffff1673ffffffffffffffffffffffffffffffffffffffff16815260200190815260200160002060006101000a81548160ff02191690831515021790555060006005819055506002730c25363022587299510774e036ad0786829912569080600181540180825580915050600190039060005260206000200160009091909190916101000a81548173ffffffffffffffffffffffffffffffffffffffff021916908373ffffffffffffffffffffffffffffffffffffffff160217905550600273026116102ae7e558cd436325158d54020efcf0ef9080600181540180825580915050600190039060005260206000200160009091909190916101000a81548173ffffffffffffffffffffffffffffffffffffffff021916908373ffffffffffffffffffffffffffffffffffffffff1602179055506002734b674da5e20067b8213263720d958b5e7abd7d8c9080600181540180825580915050600190039060005260206000200160009091909190916101000a81548173ffffffffffffffffffffffffffffffffffffffff021916908373ffffffffffffffffffffffffffffffffffffffff160217905550600273d157d2ff5393c509777765cf612284d53d38de309080600181540180825580915050600190039060005260206000200160009091909190916101000a81548173ffffffffffffffffffffffffffffffffffffffff021916908373ffffffffffffffffffffffffffffffffffffffff160217905550600273fcf2668c4ec68d2bbd36a476e30227744a0f5eb89080600181540180825580915050600190039060005260206000200160009091909190916101000a81548173ffffffffffffffffffffffffffffffffffffffff021916908373ffffffffffffffffffffffffffffffffffffffff1602179055506002733719d24fa12f32877f894c6f51feecf91f16b44f9080600181540180825580915050600190039060005260206000200160009091909190916101000a81548173ffffffffffffffffffffffffffffffffffffffff021916908373ffffffffffffffffffffffffffffffffffffffff160217905550600273c0eaa0018b1192de0c8ca46e57b84ee907e01bac9080600181540180825580915050600190039060005260206000200160009091909190916101000a81548173ffffffffffffffffffffffffffffffffffffffff021916908373ffffffffffffffffffffffffffffffffffffffff160217905550600273c50dd8028b1c6914b67f4657f0155e5d2ce1e2269080600181540180825580915050600190039060005260206000200160009091909190916101000a81548173ffffffffffffffffffffffffffffffffffffffff021916908373ffffffffffffffffffffffffffffffffffffffff1602179055506002735b588e36ff358d4376a76fb163fd69da02a2a9a59080600181540180825580915050600190039060005260206000200160009091909190916101000a81548173ffffffffffffffffffffffffffffffffffffffff021916908373ffffffffffffffffffffffffffffffffffffffff160217905550600273a5664dc01bb8369edc6116d3b267d6014681dd2f9080600181540180825580915050600190039060005260206000200160009091909190916101000a81548173ffffffffffffffffffffffffffffffffffffffff021916908373ffffffffffffffffffffffffffffffffffffffff1602179055506003624c4b4090806001815401808255809150506001900390600052602060002001600090919091909150556003624c4b4090806001815401808255809150506001900390600052602060002001600090919091909150556003624c4b4090806001815401808255809150506001900390600052602060002001600090919091909150556003624c4b4090806001815401808255809150506001900390600052602060002001600090919091909150556003624c4b4090806001815401808255809150506001900390600052602060002001600090919091909150556003624c4b4090806001815401808255809150506001900390600052602060002001600090919091909150556003624c4b4090806001815401808255809150506001900390600052602060002001600090919091909150556003624c4b4090806001815401808255809150506001900390600052602060002001600090919091909150556003624c4b4090806001815401808255809150506001900390600052602060002001600090919091909150556003624c4b40908060018154018082558091505060019003906000526020600020016000909190919091505560046361b26e50908060018154018082558091505060019003906000526020600020016000909190919091505560046361db4cd0908060018154018082558091505060019003906000526020600020016000909190919091505560046362042b5090806001815401808255809150506001900390600052602060002001600090919091909150556004636229155090806001815401808255809150506001900390600052602060002001600090919091909150556004636251f3d09080600181540180825580915050600190039060005260206000200160009091909190915055600463627980d0908060018154018082558091505060019003906000526020600020016000909190919091505560005b60028054905081101562000a5057624c4b406007600060028481548110620009d157620009d062000d23565b5b9060005260206000200160009054906101000a900473ffffffffffffffffffffffffffffffffffffffff1673ffffffffffffffffffffffffffffffffffffffff1673ffffffffffffffffffffffffffffffffffffffff16815260200190815260200160002081905550808062000a479062000ca6565b915050620009a4565b50505062000db4565b600033905090565b60008060009054906101000a900473ffffffffffffffffffffffffffffffffffffffff169050816000806101000a81548173ffffffffffffffffffffffffffffffffffffffff021916908373ffffffffffffffffffffffffffffffffffffffff1602179055508173ffffffffffffffffffffffffffffffffffffffff168173ffffffffffffffffffffffffffffffffffffffff167f8be0079c531659141344cd1fd0a4f28419497f9722a3daafe3b4186f6b6457e060405160405180910390a35050565b60008060009054906101000a900473ffffffffffffffffffffffffffffffffffffffff16905090565b60008151905062000b5f8162000d80565b92915050565b60008151905062000b768162000d9a565b92915050565b60006020828403121562000b955762000b9462000d52565b5b600062000ba58482850162000b4e565b91505092915050565b60006020828403121562000bc75762000bc662000d52565b5b600062000bd78482850162000b65565b91505092915050565b62000beb8162000c68565b82525050565b600062000c00601d8362000c57565b915062000c0d8262000d57565b602082019050919050565b600060208201905062000c2f600083018462000be0565b92915050565b6000602082019050818103600083015262000c508162000bf1565b9050919050565b600082825260208201905092915050565b600062000c758262000c7c565b9050919050565b600073ffffffffffffffffffffffffffffffffffffffff82169050919050565b6000819050919050565b600062000cb38262000c9c565b91507fffffffffffffffffffffffffffffffffffffffffffffffffffffffffffffffff82141562000ce95762000ce862000cf4565b5b600182019050919050565b7f4e487b7100000000000000000000000000000000000000000000000000000000600052601160045260246000fd5b7f4e487b7100000000000000000000000000000000000000000000000000000000600052603260045260246000fd5b600080fd5b7f6f776e657227732062616c616e6365206973206e6f7420656e6f756768000000600082015250565b62000d8b8162000c68565b811462000d9757600080fd5b50565b62000da58162000c9c565b811462000db157600080fd5b50565b613cde8062000dc46000396000f3fe608060405234801561001057600080fd5b50600436106101585760003560e01c8063854e9682116100c3578063d018eb0f1161007c578063d018eb0f146103d8578063df681c1414610408578063efa6d0df14610438578063f2fde38b14610454578063fc0c546a14610470578063ffb4b1be1461048e57610158565b8063854e9682146102db5780638da5cb5b1461030e578063b17a58cf1461032c578063bd85b0391461035c578063cbf9fe5f14610378578063ceb9c752146103a857610158565b8063429b62e511610115578063429b62e51461020957806345f0a44f146102395780635daf08ca146102695780637048027514610299578063715018a6146102b557806373bea3b2146102bf57610158565b806318a24b5b1461015d57806329c6a24e146101675780632e1a7d4d146101835780632fe5a51f1461019f5780633405ba2f146101bb578063379607f5146101ed575b600080fd5b6101656104aa565b005b610181600480360381019061017c9190612a94565b610a73565b005b61019d60048036038101906101989190612c6a565b610bd1565b005b6101b960048036038101906101b49190612ba8565b610ef5565b005b6101d560048036038101906101d09190612c6a565b611087565b6040516101e493929190613449565b60405180910390f35b61020760048036038101906102029190612c6a565b6110ce565b005b610223600480360381019061021e9190612a67565b6113ec565b60405161023091906130af565b60405180910390f35b610253600480360381019061024e9190612c6a565b61140c565b6040516102609190613405565b60405180910390f35b610283600480360381019061027e9190612c6a565b611430565b604051610290919061306b565b60405180910390f35b6102b360048036038101906102ae9190612a67565b61146f565b005b6102bd61167a565b005b6102d960048036038101906102d49190612ad4565b611702565b005b6102f560048036038101906102f09190612a94565b611d57565b6040516103059493929190613480565b60405180910390f35b610316611da1565b604051610323919061306b565b60405180910390f35b61034660048036038101906103419190612a67565b611dca565b6040516103539190613405565b60405180910390f35b61037660048036038101906103719190612c6a565b611de2565b005b610392600480360381019061038d9190612a67565b612062565b60405161039f9190613405565b60405180910390f35b6103c260048036038101906103bd9190612a67565b61207a565b6040516103cf9190613405565b60405180910390f35b6103f260048036038101906103ed9190612c6a565b6120c3565b6040516103ff9190613405565b60405180910390f35b610422600480360381019061041d9190612a67565b6120e7565b60405161042f9190613405565b60405180910390f35b610452600480360381019061044d9190612b27565b6120ff565b005b61046e60048036038101906104699190612a67565b612385565b005b61047861247d565b60405161048591906130ca565b60405180910390f35b6104a860048036038101906104a39190612a94565b6124a3565b005b600073ffffffffffffffffffffffffffffffffffffffff166104ca612886565b73ffffffffffffffffffffffffffffffffffffffff161415801561053e5750600660006104f5612886565b73ffffffffffffffffffffffffffffffffffffffff1673ffffffffffffffffffffffffffffffffffffffff16815260200190815260200160002060009054906101000a900460ff165b61057d576040517f08c379a000000000000000000000000000000000000000000000000000000000815260040161057490613305565b60405180910390fd5b6000429050600060086005548154811061059a57610599613710565b5b9060005260206000209060030201600101549050808210156105f1576040517f08c379a00000000000000000000000000000000000000000000000000000000081526004016105e8906132e5565b60405180910390fd5b600660055410610636576040517f08c379a000000000000000000000000000000000000000000000000000000000815260040161062d906131e5565b60405180910390fd5b60086005548154811061064c5761064b613710565b5b906000526020600020906003020160020160009054906101000a900460ff16156106ab576040517f08c379a00000000000000000000000000000000000000000000000000000000081526004016106a290613385565b60405180910390fd5b600060055414156107a757622625a0600160009054906101000a900473ffffffffffffffffffffffffffffffffffffffff1673ffffffffffffffffffffffffffffffffffffffff166370a08231306040518263ffffffff1660e01b8152600401610715919061306b565b60206040518083038186803b15801561072d57600080fd5b505afa158015610741573d6000803e3d6000fd5b505050506040513d601f19601f820116820180604052508101906107659190612c97565b10156107a6576040517f08c379a000000000000000000000000000000000000000000000000000000000815260040161079d90613345565b60405180910390fd5b5b60005b6002805490508110156109c257600060096000600284815481106107d1576107d0613710565b5b9060005260206000200160009054906101000a900473ffffffffffffffffffffffffffffffffffffffff1673ffffffffffffffffffffffffffffffffffffffff1673ffffffffffffffffffffffffffffffffffffffff168152602001908152602001600020600060055481526020019081526020016000206040518060800160405290816000820154815260200160018201548152602001600282015481526020016003820160009054906101000a900460ff161515151581525050905080602001518160000151146109ae576000816020015182600001516108b491906135b7565b9050600160009054906101000a900473ffffffffffffffffffffffffffffffffffffffff1673ffffffffffffffffffffffffffffffffffffffff1663a9059cbb6002858154811061090857610907613710565b5b9060005260206000200160009054906101000a900473ffffffffffffffffffffffffffffffffffffffff16836040518363ffffffff1660e01b8152600401610951929190613086565b602060405180830381600087803b15801561096b57600080fd5b505af115801561097f573d6000803e3d6000fd5b505050506040513d601f19601f820116820180604052508101906109a39190612c3d565b6109ac57600080fd5b505b5080806109ba90613669565b9150506107aa565b507fe468a184bc2a1e5c9c5fbd34dda66145a553603678c8c126b4ff137d17f527a26004600554815481106109fa576109f9613710565b5b9060005260206000200154604051610a129190613405565b60405180910390a16001600860055481548110610a3257610a31613710565b5b906000526020600020906003020160020160006101000a81548160ff0219169083151502179055506001600554610a6991906134d6565b6005819055505050565b600073ffffffffffffffffffffffffffffffffffffffff16610a93612886565b73ffffffffffffffffffffffffffffffffffffffff1614158015610b07575060066000610abe612886565b73ffffffffffffffffffffffffffffffffffffffff1673ffffffffffffffffffffffffffffffffffffffff16815260200190815260200160002060009054906101000a900460ff165b610b46576040517f08c379a0000000000000000000000000000000000000000000000000000000008152600401610b3d90613305565b60405180910390fd5b60008111610b89576040517f08c379a0000000000000000000000000000000000000000000000000000000008152600401610b8090613225565b60405180910390fd5b80600760008473ffffffffffffffffffffffffffffffffffffffff1673ffffffffffffffffffffffffffffffffffffffff168152602001908152602001600020819055505050565b600073ffffffffffffffffffffffffffffffffffffffff16610bf1612886565b73ffffffffffffffffffffffffffffffffffffffff1614158015610c65575060066000610c1c612886565b73ffffffffffffffffffffffffffffffffffffffff1673ffffffffffffffffffffffffffffffffffffffff16815260200190815260200160002060009054906101000a900460ff165b610ca4576040517f08c379a0000000000000000000000000000000000000000000000000000000008152600401610c9b90613305565b60405180910390fd5b80600b6000600160009054906101000a900473ffffffffffffffffffffffffffffffffffffffff1673ffffffffffffffffffffffffffffffffffffffff1673ffffffffffffffffffffffffffffffffffffffff16815260200190815260200160002054600160009054906101000a900473ffffffffffffffffffffffffffffffffffffffff1673ffffffffffffffffffffffffffffffffffffffff166370a08231306040518263ffffffff1660e01b8152600401610d62919061306b565b60206040518083038186803b158015610d7a57600080fd5b505afa158015610d8e573d6000803e3d6000fd5b505050506040513d601f19601f82011682018060405250810190610db29190612c97565b610dbc91906135b7565b1015610dfd576040517f08c379a0000000000000000000000000000000000000000000000000000000008152600401610df490613105565b60405180910390fd5b600160009054906101000a900473ffffffffffffffffffffffffffffffffffffffff1673ffffffffffffffffffffffffffffffffffffffff1663a9059cbb610e43611da1565b836040518363ffffffff1660e01b8152600401610e61929190613086565b602060405180830381600087803b158015610e7b57600080fd5b505af1158015610e8f573d6000803e3d6000fd5b505050506040513d601f19601f82011682018060405250810190610eb39190612c3d565b610ef2576040517f08c379a0000000000000000000000000000000000000000000000000000000008152600401610ee990613165565b60405180910390fd5b50565b600073ffffffffffffffffffffffffffffffffffffffff16610f15612886565b73ffffffffffffffffffffffffffffffffffffffff1614158015610f89575060066000610f40612886565b73ffffffffffffffffffffffffffffffffffffffff1673ffffffffffffffffffffffffffffffffffffffff16815260200190815260200160002060009054906101000a900460ff165b610fc8576040517f08c379a0000000000000000000000000000000000000000000000000000000008152600401610fbf90613305565b60405180910390fd5b6000858590509050808484905014611015576040517f08c379a000000000000000000000000000000000000000000000000000000000815260040161100c90613245565b60405180910390fd5b60005b8181101561107e5761106b87878381811061103657611035613710565b5b905060200201602081019061104b9190612a67565b86868481811061105e5761105d613710565b5b9050602002013585611702565b808061107690613669565b915050611018565b50505050505050565b6008818154811061109757600080fd5b90600052602060002090600302016000915090508060000154908060010154908060020160009054906101000a900460ff16905083565b6000600960003373ffffffffffffffffffffffffffffffffffffffff1673ffffffffffffffffffffffffffffffffffffffff168152602001908152602001600020600083815260200190815260200160002090504281600201541115611169576040517f08c379a000000000000000000000000000000000000000000000000000000000815260040161116090613285565b60405180910390fd5b60008160000154116111b0576040517f08c379a00000000000000000000000000000000000000000000000000000000081526004016111a7906133c5565b60405180910390fd5b6000816001015482600001546111c691906135b7565b90508160000154826001018190555080600b6000600160009054906101000a900473ffffffffffffffffffffffffffffffffffffffff1673ffffffffffffffffffffffffffffffffffffffff1673ffffffffffffffffffffffffffffffffffffffff1681526020019081526020016000205461124291906135b7565b600b6000600160009054906101000a900473ffffffffffffffffffffffffffffffffffffffff1673ffffffffffffffffffffffffffffffffffffffff1673ffffffffffffffffffffffffffffffffffffffff16815260200190815260200160002081905550600160009054906101000a900473ffffffffffffffffffffffffffffffffffffffff1673ffffffffffffffffffffffffffffffffffffffff1663a9059cbb33836040518363ffffffff1660e01b8152600401611304929190613086565b602060405180830381600087803b15801561131e57600080fd5b505af1158015611332573d6000803e3d6000fd5b505050506040513d601f19601f820116820180604052508101906113569190612c3d565b611395576040517f08c379a000000000000000000000000000000000000000000000000000000000815260040161138c90613265565b60405180910390fd5b3373ffffffffffffffffffffffffffffffffffffffff167f47cee97cb7acd717b3c0aa1435d004cd5b3c8c57d70dbceb4e4458bbd60e39d483600001546040516113df9190613405565b60405180910390a2505050565b60066020528060005260406000206000915054906101000a900460ff1681565b6003818154811061141c57600080fd5b906000526020600020016000915090505481565b6002818154811061144057600080fd5b906000526020600020016000915054906101000a900473ffffffffffffffffffffffffffffffffffffffff1681565b611477612886565b73ffffffffffffffffffffffffffffffffffffffff16611495611da1565b73ffffffffffffffffffffffffffffffffffffffff16146114eb576040517f08c379a00000000000000000000000000000000000000000000000000000000081526004016114e2906132c5565b60405180910390fd5b600073ffffffffffffffffffffffffffffffffffffffff168173ffffffffffffffffffffffffffffffffffffffff16141561155b576040517f08c379a0000000000000000000000000000000000000000000000000000000008152600401611552906131c5565b60405180910390fd5b600660008273ffffffffffffffffffffffffffffffffffffffff1673ffffffffffffffffffffffffffffffffffffffff16815260200190815260200160002060009054906101000a900460ff16156115e8576040517f08c379a00000000000000000000000000000000000000000000000000000000081526004016115df906130e5565b60405180910390fd5b6001600660008373ffffffffffffffffffffffffffffffffffffffff1673ffffffffffffffffffffffffffffffffffffffff16815260200190815260200160002060006101000a81548160ff0219169083151502179055507fe8545298d4f2a47282e100b4cbcf2645ab4d367b85c00b0fc35e03f4ee409b7f8160405161166f919061306b565b60405180910390a150565b611682612886565b73ffffffffffffffffffffffffffffffffffffffff166116a0611da1565b73ffffffffffffffffffffffffffffffffffffffff16146116f6576040517f08c379a00000000000000000000000000000000000000000000000000000000081526004016116ed906132c5565b60405180910390fd5b611700600061288e565b565b600073ffffffffffffffffffffffffffffffffffffffff16611722612886565b73ffffffffffffffffffffffffffffffffffffffff161415801561179657506006600061174d612886565b73ffffffffffffffffffffffffffffffffffffffff1673ffffffffffffffffffffffffffffffffffffffff16815260200190815260200160002060009054906101000a900460ff165b6117d5576040517f08c379a00000000000000000000000000000000000000000000000000000000081526004016117cc90613305565b60405180910390fd5b82826000600760008473ffffffffffffffffffffffffffffffffffffffff1673ffffffffffffffffffffffffffffffffffffffff1681526020019081526020016000205490506000811415801561182c5750818110155b61186b576040517f08c379a000000000000000000000000000000000000000000000000000000000815260040161186290613205565b60405180910390fd5b600085116118ae576040517f08c379a00000000000000000000000000000000000000000000000000000000081526004016118a590613185565b60405180910390fd5b6000600b6000600160009054906101000a900473ffffffffffffffffffffffffffffffffffffffff1673ffffffffffffffffffffffffffffffffffffffff1673ffffffffffffffffffffffffffffffffffffffff168152602001908152602001600020549050858161192091906134d6565b600160009054906101000a900473ffffffffffffffffffffffffffffffffffffffff1673ffffffffffffffffffffffffffffffffffffffff166370a08231306040518263ffffffff1660e01b815260040161197b919061306b565b60206040518083038186803b15801561199357600080fd5b505afa1580156119a7573d6000803e3d6000fd5b505050506040513d601f19601f820116820180604052508101906119cb9190612c97565b1015611a0c576040517f08c379a0000000000000000000000000000000000000000000000000000000008152600401611a03906133a5565b60405180910390fd5b6000600a60008973ffffffffffffffffffffffffffffffffffffffff1673ffffffffffffffffffffffffffffffffffffffff16815260200190815260200160002054905060008114611a93576040517f08c379a0000000000000000000000000000000000000000000000000000000008152600401611a8a90613325565b60405180910390fd5b60005b600880549050811015611c99576000606460088381548110611abb57611aba613710565b5b9060005260206000209060030201600001548a611ad8919061355d565b611ae2919061352c565b9050600060088381548110611afa57611af9613710565b5b90600052602060002090600302016001015490506040518060800160405280838152602001600081526020018281526020018a1515815250600960008d73ffffffffffffffffffffffffffffffffffffffff1673ffffffffffffffffffffffffffffffffffffffff168152602001908152602001600020600086815260200190815260200160002060008201518160000155602082015181600101556040820151816002015560608201518160030160006101000a81548160ff021916908315150217905550905050600184611bd091906134d6565b600a60008d73ffffffffffffffffffffffffffffffffffffffff1673ffffffffffffffffffffffffffffffffffffffff168152602001908152602001600020819055508985611c1f91906134d6565b600b6000600160009054906101000a900473ffffffffffffffffffffffffffffffffffffffff1673ffffffffffffffffffffffffffffffffffffffff1673ffffffffffffffffffffffffffffffffffffffff1681526020019081526020016000208190555050508080611c9190613669565b915050611a96565b506002889080600181540180825580915050600190039060005260206000200160009091909190916101000a81548173ffffffffffffffffffffffffffffffffffffffff021916908373ffffffffffffffffffffffffffffffffffffffff1602179055508773ffffffffffffffffffffffffffffffffffffffff167fe3b9a78308fbd313c084842efc8429b592f3980a893be12ed39018b5b16deb098888604051611d45929190613420565b60405180910390a25050505050505050565b6009602052816000526040600020602052806000526040600020600091509150508060000154908060010154908060020154908060030160009054906101000a900460ff16905084565b60008060009054906101000a900473ffffffffffffffffffffffffffffffffffffffff16905090565b60076020528060005260406000206000915090505481565b600073ffffffffffffffffffffffffffffffffffffffff16611e02612886565b73ffffffffffffffffffffffffffffffffffffffff1614158015611e76575060066000611e2d612886565b73ffffffffffffffffffffffffffffffffffffffff1673ffffffffffffffffffffffffffffffffffffffff16815260200190815260200160002060009054906101000a900460ff165b611eb5576040517f08c379a0000000000000000000000000000000000000000000000000000000008152600401611eac90613305565b60405180910390fd5b600081905080600160009054906101000a900473ffffffffffffffffffffffffffffffffffffffff1673ffffffffffffffffffffffffffffffffffffffff166370a08231611f01611da1565b6040518263ffffffff1660e01b8152600401611f1d919061306b565b60206040518083038186803b158015611f3557600080fd5b505afa158015611f49573d6000803e3d6000fd5b505050506040513d601f19601f82011682018060405250810190611f6d9190612c97565b1015611fae576040517f08c379a0000000000000000000000000000000000000000000000000000000008152600401611fa590613125565b60405180910390fd5b600160009054906101000a900473ffffffffffffffffffffffffffffffffffffffff1673ffffffffffffffffffffffffffffffffffffffff1663a9059cbb30836040518363ffffffff1660e01b815260040161200b929190613086565b602060405180830381600087803b15801561202557600080fd5b505af1158015612039573d6000803e3d6000fd5b505050506040513d601f19601f8201168201806040525081019061205d9190612c3d565b505050565b600b6020528060005260406000206000915090505481565b6000600760008373ffffffffffffffffffffffffffffffffffffffff1673ffffffffffffffffffffffffffffffffffffffff168152602001908152602001600020549050919050565b600481815481106120d357600080fd5b906000526020600020016000915090505481565b600a6020528060005260406000206000915090505481565b600073ffffffffffffffffffffffffffffffffffffffff1661211f612886565b73ffffffffffffffffffffffffffffffffffffffff161415801561219357506006600061214a612886565b73ffffffffffffffffffffffffffffffffffffffff1673ffffffffffffffffffffffffffffffffffffffff16815260200190815260200160002060009054906101000a900460ff165b6121d2576040517f08c379a00000000000000000000000000000000000000000000000000000000081526004016121c990613305565b60405180910390fd5b600084849050905080838390501461221f576040517f08c379a0000000000000000000000000000000000000000000000000000000008152600401612216906133e5565b60405180910390fd5b60005b8181101561237d57600073ffffffffffffffffffffffffffffffffffffffff1686868381811061225557612254613710565b5b905060200201602081019061226a9190612a67565b73ffffffffffffffffffffffffffffffffffffffff16141580156122a75750600084848381811061229e5761229d613710565b5b90506020020135115b6122e6576040517f08c379a00000000000000000000000000000000000000000000000000000000081526004016122dd906132a5565b60405180910390fd5b8383828181106122f9576122f8613710565b5b905060200201356007600088888581811061231757612316613710565b5b905060200201602081019061232c9190612a67565b73ffffffffffffffffffffffffffffffffffffffff1673ffffffffffffffffffffffffffffffffffffffff16815260200190815260200160002081905550808061237590613669565b915050612222565b505050505050565b61238d612886565b73ffffffffffffffffffffffffffffffffffffffff166123ab611da1565b73ffffffffffffffffffffffffffffffffffffffff1614612401576040517f08c379a00000000000000000000000000000000000000000000000000000000081526004016123f8906132c5565b60405180910390fd5b600073ffffffffffffffffffffffffffffffffffffffff168173ffffffffffffffffffffffffffffffffffffffff161415612471576040517f08c379a000000000000000000000000000000000000000000000000000000000815260040161246890613145565b60405180910390fd5b61247a8161288e565b50565b600160009054906101000a900473ffffffffffffffffffffffffffffffffffffffff1681565b600073ffffffffffffffffffffffffffffffffffffffff166124c3612886565b73ffffffffffffffffffffffffffffffffffffffff16141580156125375750600660006124ee612886565b73ffffffffffffffffffffffffffffffffffffffff1673ffffffffffffffffffffffffffffffffffffffff16815260200190815260200160002060009054906101000a900460ff165b612576576040517f08c379a000000000000000000000000000000000000000000000000000000000815260040161256d90613305565b60405180910390fd5b6000600960008473ffffffffffffffffffffffffffffffffffffffff1673ffffffffffffffffffffffffffffffffffffffff168152602001908152602001600020600083815260200190815260200160002090508060030160009054906101000a900460ff161561261c576040517f08c379a0000000000000000000000000000000000000000000000000000000008152600401612613906131a5565b60405180910390fd5b60008160010154826000015461263291906135b7565b90506000811415612678576040517f08c379a000000000000000000000000000000000000000000000000000000000815260040161266f90613365565b60405180910390fd5b6000826000018190555080600b6000600160009054906101000a900473ffffffffffffffffffffffffffffffffffffffff1673ffffffffffffffffffffffffffffffffffffffff1673ffffffffffffffffffffffffffffffffffffffff168152602001908152602001600020546126ef91906135b7565b600b6000600160009054906101000a900473ffffffffffffffffffffffffffffffffffffffff1673ffffffffffffffffffffffffffffffffffffffff1673ffffffffffffffffffffffffffffffffffffffff16815260200190815260200160002081905550600160009054906101000a900473ffffffffffffffffffffffffffffffffffffffff1673ffffffffffffffffffffffffffffffffffffffff1663a9059cbb61279a611da1565b836040518363ffffffff1660e01b81526004016127b8929190613086565b602060405180830381600087803b1580156127d257600080fd5b505af11580156127e6573d6000803e3d6000fd5b505050506040513d601f19601f8201168201806040525081019061280a9190612c3d565b612849576040517f08c379a000000000000000000000000000000000000000000000000000000000815260040161284090613265565b60405180910390fd5b7f398bd6b21ae4164ec322fb0eb8c2eb6277f36fd41903fbbed594dfe12559128184604051612878919061306b565b60405180910390a150505050565b600033905090565b60008060009054906101000a900473ffffffffffffffffffffffffffffffffffffffff169050816000806101000a81548173ffffffffffffffffffffffffffffffffffffffff021916908373ffffffffffffffffffffffffffffffffffffffff1602179055508173ffffffffffffffffffffffffffffffffffffffff168173ffffffffffffffffffffffffffffffffffffffff167f8be0079c531659141344cd1fd0a4f28419497f9722a3daafe3b4186f6b6457e060405160405180910390a35050565b60008135905061296181613c63565b92915050565b60008083601f84011261297d5761297c613744565b5b8235905067ffffffffffffffff81111561299a5761299961373f565b5b6020830191508360208202830111156129b6576129b5613749565b5b9250929050565b60008083601f8401126129d3576129d2613744565b5b8235905067ffffffffffffffff8111156129f0576129ef61373f565b5b602083019150836020820283011115612a0c57612a0b613749565b5b9250929050565b600081359050612a2281613c7a565b92915050565b600081519050612a3781613c7a565b92915050565b600081359050612a4c81613c91565b92915050565b600081519050612a6181613c91565b92915050565b600060208284031215612a7d57612a7c613753565b5b6000612a8b84828501612952565b91505092915050565b60008060408385031215612aab57612aaa613753565b5b6000612ab985828601612952565b9250506020612aca85828601612a3d565b9150509250929050565b600080600060608486031215612aed57612aec613753565b5b6000612afb86828701612952565b9350506020612b0c86828701612a3d565b9250506040612b1d86828701612a13565b9150509250925092565b60008060008060408587031215612b4157612b40613753565b5b600085013567ffffffffffffffff811115612b5f57612b5e61374e565b5b612b6b87828801612967565b9450945050602085013567ffffffffffffffff811115612b8e57612b8d61374e565b5b612b9a878288016129bd565b925092505092959194509250565b600080600080600060608688031215612bc457612bc3613753565b5b600086013567ffffffffffffffff811115612be257612be161374e565b5b612bee88828901612967565b9550955050602086013567ffffffffffffffff811115612c1157612c1061374e565b5b612c1d888289016129bd565b93509350506040612c3088828901612a13565b9150509295509295909350565b600060208284031215612c5357612c52613753565b5b6000612c6184828501612a28565b91505092915050565b600060208284031215612c8057612c7f613753565b5b6000612c8e84828501612a3d565b91505092915050565b600060208284031215612cad57612cac613753565b5b6000612cbb84828501612a52565b91505092915050565b612ccd816135eb565b82525050565b612cdc816135fd565b82525050565b612ceb81613633565b82525050565b6000612cfe6029836134c5565b9150612d0982613758565b604082019050919050565b6000612d216017836134c5565b9150612d2c826137a7565b602082019050919050565b6000612d44601d836134c5565b9150612d4f826137d0565b602082019050919050565b6000612d676026836134c5565b9150612d72826137f9565b604082019050919050565b6000612d8a6018836134c5565b9150612d9582613848565b602082019050919050565b6000612dad601f836134c5565b9150612db882613871565b602082019050919050565b6000612dd06019836134c5565b9150612ddb8261389a565b602082019050919050565b6000612df3600c836134c5565b9150612dfe826138c3565b602082019050919050565b6000612e166033836134c5565b9150612e21826138ec565b604082019050919050565b6000612e396019836134c5565b9150612e448261393b565b602082019050919050565b6000612e5c601e836134c5565b9150612e6782613964565b602082019050919050565b6000612e7f601d836134c5565b9150612e8a8261398d565b602082019050919050565b6000612ea26018836134c5565b9150612ead826139b6565b602082019050919050565b6000612ec5601f836134c5565b9150612ed0826139df565b602082019050919050565b6000612ee86019836134c5565b9150612ef382613a08565b602082019050919050565b6000612f0b6020836134c5565b9150612f1682613a31565b602082019050919050565b6000612f2e6026836134c5565b9150612f3982613a5a565b604082019050919050565b6000612f516017836134c5565b9150612f5c82613aa9565b602082019050919050565b6000612f746012836134c5565b9150612f7f82613ad2565b602082019050919050565b6000612f976054836134c5565b9150612fa282613afb565b606082019050919050565b6000612fba601e836134c5565b9150612fc582613b70565b602082019050919050565b6000612fdd6028836134c5565b9150612fe882613b99565b604082019050919050565b6000613000601a836134c5565b915061300b82613be8565b602082019050919050565b60006130236016836134c5565b915061302e82613c11565b602082019050919050565b6000613046601a836134c5565b915061305182613c3a565b602082019050919050565b61306581613629565b82525050565b60006020820190506130806000830184612cc4565b92915050565b600060408201905061309b6000830185612cc4565b6130a8602083018461305c565b9392505050565b60006020820190506130c46000830184612cd3565b92915050565b60006020820190506130df6000830184612ce2565b92915050565b600060208201905081810360008301526130fe81612cf1565b9050919050565b6000602082019050818103600083015261311e81612d14565b9050919050565b6000602082019050818103600083015261313e81612d37565b9050919050565b6000602082019050818103600083015261315e81612d5a565b9050919050565b6000602082019050818103600083015261317e81612d7d565b9050919050565b6000602082019050818103600083015261319e81612da0565b9050919050565b600060208201905081810360008301526131be81612dc3565b9050919050565b600060208201905081810360008301526131de81612de6565b9050919050565b600060208201905081810360008301526131fe81612e09565b9050919050565b6000602082019050818103600083015261321e81612e2c565b9050919050565b6000602082019050818103600083015261323e81612e4f565b9050919050565b6000602082019050818103600083015261325e81612e72565b9050919050565b6000602082019050818103600083015261327e81612e95565b9050919050565b6000602082019050818103600083015261329e81612eb8565b9050919050565b600060208201905081810360008301526132be81612edb565b9050919050565b600060208201905081810360008301526132de81612efe565b9050919050565b600060208201905081810360008301526132fe81612f21565b9050919050565b6000602082019050818103600083015261331e81612f44565b9050919050565b6000602082019050818103600083015261333e81612f67565b9050919050565b6000602082019050818103600083015261335e81612f8a565b9050919050565b6000602082019050818103600083015261337e81612fad565b9050919050565b6000602082019050818103600083015261339e81612fd0565b9050919050565b600060208201905081810360008301526133be81612ff3565b9050919050565b600060208201905081810360008301526133de81613016565b9050919050565b600060208201905081810360008301526133fe81613039565b9050919050565b600060208201905061341a600083018461305c565b92915050565b6000604082019050613435600083018561305c565b6134426020830184612cd3565b9392505050565b600060608201905061345e600083018661305c565b61346b602083018561305c565b6134786040830184612cd3565b949350505050565b6000608082019050613495600083018761305c565b6134a2602083018661305c565b6134af604083018561305c565b6134bc6060830184612cd3565b95945050505050565b600082825260208201905092915050565b60006134e182613629565b91506134ec83613629565b9250827fffffffffffffffffffffffffffffffffffffffffffffffffffffffffffffffff03821115613521576135206136b2565b5b828201905092915050565b600061353782613629565b915061354283613629565b925082613552576135516136e1565b5b828204905092915050565b600061356882613629565b915061357383613629565b9250817fffffffffffffffffffffffffffffffffffffffffffffffffffffffffffffffff04831182151516156135ac576135ab6136b2565b5b828202905092915050565b60006135c282613629565b91506135cd83613629565b9250828210156135e0576135df6136b2565b5b828203905092915050565b60006135f682613609565b9050919050565b60008115159050919050565b600073ffffffffffffffffffffffffffffffffffffffff82169050919050565b6000819050919050565b600061363e82613645565b9050919050565b600061365082613657565b9050919050565b600061366282613609565b9050919050565b600061367482613629565b91507fffffffffffffffffffffffffffffffffffffffffffffffffffffffffffffffff8214156136a7576136a66136b2565b5b600182019050919050565b7f4e487b7100000000000000000000000000000000000000000000000000000000600052601160045260246000fd5b7f4e487b7100000000000000000000000000000000000000000000000000000000600052601260045260246000fd5b7f4e487b7100000000000000000000000000000000000000000000000000000000600052603260045260246000fd5b600080fd5b600080fd5b600080fd5b600080fd5b600080fd5b7f54686973206164647265737320697320616c726561647920616464656420617360008201527f20616e2061646d696e0000000000000000000000000000000000000000000000602082015250565b7f56657374696e673a2043616e2774207769746864726177000000000000000000600082015250565b7f6f776e657227732062616c616e6365206973206e6f7420656e6f756768000000600082015250565b7f4f776e61626c653a206e6577206f776e657220697320746865207a65726f206160008201527f6464726573730000000000000000000000000000000000000000000000000000602082015250565b7f56657374696e673a207769746864726177206661696c65640000000000000000600082015250565b7f56657374696e673a20696e76616c69642076657374696e6720706172616d7300600082015250565b7f56657374696e673a204163636f756e7420697320666978656400000000000000600082015250565b7f5a65726f20616464726573730000000000000000000000000000000000000000600082015250565b7f4c6f636b20706572696f6420456e6420616e6420416c6c206c6f636b6564207460008201527f6f6b656e73207765726520756e6c6f636b656400000000000000000000000000602082015250565b7f496e76616c69642077686974656c697374206d656d6265722100000000000000600082015250565b7f546965723a20696e646578206f66207469657220697320696e76616c69640000600082015250565b7f56657374696e673a204172726179206c656e6774687320646966666572000000600082015250565b7f56657374696e673a207472616e73666572206661696c65640000000000000000600082015250565b7f56657374696e673a20756e6c6f636b54696d65206e6f74207265616368656400600082015250565b7f546965723a20696e76616c6964207469657220706172616d7300000000000000600082015250565b7f4f776e61626c653a2063616c6c6572206973206e6f7420746865206f776e6572600082015250565b7f596f752063616e27742072756e20756e6c6f636b546f6b656e2066756e63746960008201527f6f6e206e6f770000000000000000000000000000000000000000000000000000602082015250565b7f43616c6c6572206973206e6f74207468652061646d696e000000000000000000600082015250565b7f616c726561647920657869737420757365720000000000000000000000000000600082015250565b7f596f75206e65656420746f206465706f7369742032353030303030204353504460008201527f7320696e746f207468697320636f6e7472616374206265666f726520796f752060208201527f7374617274207468697320636f6e74726163742e000000000000000000000000604082015250565b7f56657374696e673a206e6f206f75747374616e64696e6720746f6b656e730000600082015250565b7f416c726561647920756e6c6f636b656420746f6b656e73206f6620746869732060008201527f7363686564756c65000000000000000000000000000000000000000000000000602082015250565b7f56657374696e673a204e6f7420656e6f75676820746f6b656e73000000000000600082015250565b7f56657374696e673a206e6f7420636c61696d61626c6500000000000000000000600082015250565b7f546965723a204172726179206c656e6774687320646966666572000000000000600082015250565b613c6c816135eb565b8114613c7757600080fd5b50565b613c83816135fd565b8114613c8e57600080fd5b50565b613c9a81613629565b8114613ca557600080fd5b5056fea264697066735822122025461584d0122a793329c59c2bc41c117bf0dc61442e63361d016db32265210e64736f6c63430008070033",
  "immutableReferences": {},
  "source": "// SPDX-License-Identifier: GPL-3.0-only\r\npragma solidity 0.8.7;\r\n\r\nimport \"@openzeppelin/contracts/token/ERC20/IERC20.sol\";\r\nimport \"@openzeppelin/contracts/access/Ownable.sol\";\r\n\r\ninterface IBEP20 {\r\n    \r\n  /**\r\n   * @dev Returns the amount of tokens in existence.\r\n   */\r\n  function totalSupply() external view returns (uint256);\r\n\r\n  /**\r\n   * @dev Returns the token decimals.\r\n   */\r\n  function decimals() external view returns (uint8);\r\n\r\n  /**\r\n   * @dev Returns the token symbol.\r\n   */\r\n  function symbol() external view returns (string memory);\r\n\r\n  /**\r\n  * @dev Returns the token name.\r\n  */\r\n  function name() external view returns (string memory);\r\n\r\n  /**\r\n   * @dev Returns the bep token owner.\r\n   */\r\n  function getOwner() external view returns (address);\r\n\r\n  /**\r\n   * @dev Returns the amount of tokens owned by `account`.\r\n   */\r\n  function balanceOf(address account) external view returns (uint256);\r\n\r\n  /**\r\n   * @dev Moves `amount` tokens from the caller's account to `recipient`.\r\n   *\r\n   * Returns a boolean value indicating whether the operation succeeded.\r\n   *\r\n   * Emits a {Transfer} event.\r\n   */\r\n  function transfer(address recipient, uint256 amount) external returns (bool);\r\n\r\n  /**\r\n   * @dev Returns the remaining number of tokens that `spender` will be\r\n   * allowed to spend on behalf of `owner` through {transferFrom}. This is\r\n   * zero by default.\r\n   *\r\n   * This value changes when {approve} or {transferFrom} are called.\r\n   */\r\n  function allowance(address _owner, address spender) external view returns (uint256);\r\n\r\n  /**\r\n   * @dev Sets `amount` as the allowance of `spender` over the caller's tokens.\r\n   *\r\n   * Returns a boolean value indicating whether the operation succeeded.\r\n   *\r\n   * IMPORTANT: Beware that changing an allowance with this method brings the risk\r\n   * that someone may use both the old and the new allowance by unfortunate\r\n   * transaction ordering. One possible solution to mitigate this race\r\n   * condition is to first reduce the spender's allowance to 0 and set the\r\n   * desired value afterwards:\r\n   * https://github.com/ethereum/EIPs/issues/20#issuecomment-263524729\r\n   *\r\n   * Emits an {Approval} event.\r\n   */\r\n  function approve(address spender, uint256 amount) external returns (bool);\r\n\r\n  /**\r\n   * @dev Moves `amount` tokens from `sender` to `recipient` using the\r\n   * allowance mechanism. `amount` is then deducted from the caller's\r\n   * allowance.\r\n   *\r\n   * Returns a boolean value indicating whether the operation succeeded.\r\n   *\r\n   * Emits a {Transfer} event.\r\n   */\r\n  function transferFrom(address sender, address recipient, uint256 amount) external returns (bool);\r\n\r\n  /**\r\n   * @dev Emitted when `value` tokens are moved from one account (`from`) to\r\n   * another (`to`).\r\n   *\r\n   * Note that `value` may be zero.\r\n   */\r\n  event Transfer(address indexed from, address indexed to, uint256 value);\r\n\r\n  /**\r\n   * @dev Emitted when the allowance of a `spender` for an `owner` is set by\r\n   * a call to {approve}. `value` is the new allowance.\r\n   */\r\n  event Approval(address indexed owner, address indexed spender, uint256 value);\r\n  \r\n}\r\n/**\r\n * Tracer Standard Vesting Contract\r\n */\r\ncontract Vesting is Ownable {\r\n\r\n    //initialize data: token, member, vesting time\r\n    IBEP20 public token;\r\n    address[] public members;\r\n    uint256[] public amounts;\r\n    uint256[] public vestingTimeList;\r\n    uint256 releasedVestingId;\r\n    mapping(address => bool) public admins;\r\n\r\n\r\n    //tiger of members\r\n    struct Tier {\r\n        uint256 tierId;\r\n        uint256 amountMax;\r\n    }\r\n\r\n    mapping(address => uint256) public whitelistOfTiers; //whitelist: (address => maxAmount)\r\n\r\n    struct Schedule {\r\n        uint256 amount;\r\n        uint256 claimedAmount;\r\n        uint256 unlockTime;\r\n        bool isFixed;\r\n    }\r\n\r\n    struct Plain {\r\n        uint256 percentage;\r\n        uint256 unlockTime;\r\n        bool isSent;\r\n    }\r\n    Plain[] public schedulePlain; // array of plains\r\n\r\n    // user => scheduleId => schedule\r\n    mapping(address => mapping(uint256 => Schedule)) public schedules;\r\n    mapping(address => uint256) public numberOfSchedules; //number of the schedule by address\r\n    mapping(address => uint256) public locked; //locked amount mapping by address\r\n\r\n    event Claim(address indexed claimer, uint256 amount);\r\n    event Cancelled(address account);\r\n    event NewVesting(address indexed investor, uint256 amount, bool isFixed);\r\n    event AddNewAdmin(address _address);\r\n    event UnlockTokens(uint256 _timestamp);\r\n\r\n    modifier onlyAdmin() {\r\n        require(_msgSender() != address(0x0) && admins[_msgSender()], \"Caller is not the admin\");\r\n        _;\r\n    }\r\n\r\n    modifier checkWhitelist(address account, uint256 amount) {\r\n        uint256 maxAmount = whitelistOfTiers[account];\r\n        require(maxAmount != 0 && maxAmount >= amount, \"Invalid whitelist member!\");\r\n        _;\r\n    }\r\n\r\n    constructor(address _token) {\r\n        require(_token != address(0x0));\r\n        token = IBEP20(_token); // token address\r\n\r\n        uint256 _preSaleAmount = 50000000 * 10 ** 18; //CSPD amount for presale\r\n        require(IBEP20(_token).balanceOf(owner()) >= _preSaleAmount, \"owner's balance is not enough\");\r\n        // IBEP20(_token).transfer(address(this), _preSaleAmount);\r\n\r\n        admins[owner()] = true;  // add owner to admin role\r\n        releasedVestingId = 0;   // set the initial releasedVestingId\r\n\r\n        //addresses for public sale\r\n        members.push(address(0x0C25363022587299510774E036ad078682991256));\r\n        members.push(address(0x026116102Ae7e558Cd436325158d54020EFCf0eF));\r\n        members.push(address(0x4B674Da5E20067B8213263720d958B5e7AbD7d8c));\r\n        members.push(address(0xD157D2Ff5393c509777765Cf612284d53d38dE30));\r\n        members.push(address(0xFcf2668C4EC68D2bbd36a476e30227744A0f5EB8));\r\n        members.push(address(0x3719D24Fa12f32877f894c6F51FeECF91F16b44f));\r\n        members.push(address(0xc0eaA0018b1192dE0c8ca46E57B84Ee907e01baC));\r\n        members.push(address(0xc50dD8028B1C6914B67F4657F0155e5D2cE1E226));\r\n        members.push(address(0x5B588e36FF358D4376A76FB163fd69Da02A2A9a5));\r\n        members.push(address(0xA5664dC01BB8369EDc6116d3B267d6014681dD2F));\r\n\r\n        //amount for public sale\r\n        amounts.push(5000000);\r\n        amounts.push(5000000);\r\n        amounts.push(5000000);\r\n        amounts.push(5000000);\r\n        amounts.push(5000000);\r\n        amounts.push(5000000);\r\n        amounts.push(5000000);\r\n        amounts.push(5000000);\r\n        amounts.push(5000000);\r\n        amounts.push(5000000);\r\n\r\n        // add schedule time\r\n        vestingTimeList.push(1639083600); // 2021-12-10 00:00:00\r\n        vestingTimeList.push(1641762000); // 2022-01-10 00:00:00\r\n        vestingTimeList.push(1644440400); // 2022-02-10 00:00:00\r\n        vestingTimeList.push(1646859600); // 2022-03-10 00:00:00\r\n        vestingTimeList.push(1649538000); // 2022-04-10 00:00:00\r\n        vestingTimeList.push(1652130000); // 2022-05-10 00:00:00\r\n\r\n        //initial kWhitelist\r\n        for(uint256 i = 0; i < members.length; i++){\r\n            whitelistOfTiers[members[i]] = 5000000;\r\n        }\r\n    }\r\n\r\n    function totalSupply(uint256 totalAmount) external onlyAdmin {\r\n        uint256 _preSaleAmount = totalAmount; //CSPD amount for presale 50000000\r\n        require(IBEP20(token).balanceOf(owner()) >= _preSaleAmount, \"owner's balance is not enough\");\r\n        IBEP20(token).transfer(address(this), _preSaleAmount);\r\n    }\r\n\r\n    function addAdmin(address _address) external onlyOwner {\r\n        require(_address != address(0x0), \"Zero address\");\r\n        require(!admins[_address], \"This address is already added as an admin\");\r\n        admins[_address] = true;\r\n        emit AddNewAdmin(_address);\r\n    }\r\n\r\n    /**\r\n     * @notice Sets up a vesting schedule for a set user.\r\n     * @dev adds a new Schedule to the schedules mapping.\r\n     * @param account the account that a vesting schedule is being set up for. Will be able to claim tokens after\r\n     *                the cliff period.\r\n     * @param amount the amount of tokens being vested for the user.\r\n     * @param isFixed a flag for if the vesting schedule is fixed or not. Fixed vesting schedules can't be cancelled.\r\n     */\r\n    function addVest(\r\n        address account,\r\n        uint256 amount,\r\n        bool isFixed\r\n    ) public onlyAdmin checkWhitelist(account, amount) {\r\n        // check amount\r\n        require(amount > 0, \"Vesting: invalid vesting params\");\r\n\r\n        uint256 currentLocked = locked[address(token)];\r\n\r\n        // require the token is present\r\n        require(IBEP20(token).balanceOf(address(this)) >= currentLocked + amount, \"Vesting: Not enough tokens\");\r\n\r\n        // create the schedule\r\n        uint256 currentNumSchedules = numberOfSchedules[account];\r\n        require(currentNumSchedules == 0, \"already exist user\");\r\n        \r\n        for(uint256 i = 0; i < schedulePlain.length; i++){\r\n            uint256 _amount = amount * schedulePlain[i].percentage / 100;\r\n            uint256 _unlockTime = schedulePlain[i].unlockTime;\r\n\r\n            schedules[account][currentNumSchedules] = Schedule(\r\n                _amount,\r\n                0,\r\n                _unlockTime,\r\n                isFixed\r\n            );\r\n\r\n            numberOfSchedules[account] = currentNumSchedules + 1;\r\n            locked[address(token)] = currentLocked + amount;\r\n        }\r\n        members.push(account);\r\n        emit NewVesting(account, amount, isFixed);\r\n    }\r\n\r\n    /**\r\n     * @notice Sets up vesting schedules for multiple users within 1 transaction.\r\n     * @dev adds a new Schedule to the schedules mapping.\r\n     * @param accounts an array of the accounts that the vesting schedules are being set up for.\r\n     *                 Will be able to claim tokens after the cliff period.\r\n     * @param amount an array of the amount of tokens being vested for each user.\r\n     * @param isFixed bool setting if these vesting schedules can be rugged or not.\r\n     */\r\n    function addMultiVest(\r\n        address[] calldata accounts,\r\n        uint256[] calldata amount,\r\n        bool isFixed\r\n    ) external onlyAdmin {\r\n        uint256 numberOfAccounts = accounts.length;\r\n        require(\r\n            amount.length == numberOfAccounts,\r\n            \"Vesting: Array lengths differ\"\r\n        );\r\n        for (uint256 i = 0; i < numberOfAccounts; i++) {\r\n            addVest(\r\n                accounts[i],\r\n                amount[i],\r\n                isFixed\r\n            );\r\n        }\r\n    }\r\n\r\n    /**\r\n     * @notice allows users to claim vested tokens if the cliff time has passed.\r\n     * @param scheduleNumber which schedule the user is claiming against\r\n     */\r\n    function claim(uint256 scheduleNumber) external {\r\n        Schedule storage schedule = schedules[msg.sender][scheduleNumber];\r\n        require(\r\n            schedule.unlockTime <= block.timestamp,\r\n            \"Vesting: unlockTime not reached\"\r\n        );\r\n        require(schedule.amount > 0, \"Vesting: not claimable\");\r\n\r\n        uint256 amountToTransfer = schedule.amount - schedule.claimedAmount;\r\n        schedule.claimedAmount = schedule.amount; // set new claimed amount based off the curve\r\n        locked[address(token)] = locked[address(token)] - amountToTransfer;\r\n        require(IBEP20(token).transfer(msg.sender, amountToTransfer), \"Vesting: transfer failed\");\r\n        emit Claim(msg.sender, schedule.amount);\r\n    }\r\n\r\n    /**\r\n     * @notice Allows a vesting schedule to be cancelled.\r\n     * @dev Any outstanding tokens are returned to the system.\r\n     * @param account the account of the user whos vesting schedule is being cancelled.\r\n     */\r\n    function rug(address account, uint256 scheduleId) external onlyAdmin {\r\n        Schedule storage schedule = schedules[account][scheduleId];\r\n        require(!schedule.isFixed, \"Vesting: Account is fixed\");\r\n        uint256 outstandingAmount = schedule.amount -\r\n            schedule.claimedAmount;\r\n        require(outstandingAmount != 0, \"Vesting: no outstanding tokens\");\r\n        schedule.amount = 0;\r\n        locked[address(token)] = locked[address(token)] - outstandingAmount;\r\n        require(IBEP20(token).transfer(owner(), outstandingAmount), \"Vesting: transfer failed\");\r\n        emit Cancelled(account);\r\n    }\r\n\r\n    /**\r\n     * @return calculates the amount of tokens to distribute to an account at any instance in time, based off some\r\n     *         total claimable amount.\r\n     * @param amount the total outstanding amount to be claimed for this vesting schedule.\r\n     * @param currentTime the current timestamp.\r\n     * @param startTime the timestamp this vesting schedule started.\r\n     * @param endTime the timestamp this vesting schedule ends.\r\n     */\r\n    \r\n    /**\r\n     * @notice Withdraws CSPD tokens from the contract.\r\n     * @dev blocks withdrawing locked tokens.\r\n     */\r\n    function withdraw(uint256 amount) external onlyAdmin {\r\n        require(\r\n            token.balanceOf(address(this)) - locked[address(token)] >= amount,\r\n            \"Vesting: Can't withdraw\"\r\n        );\r\n        require(token.transfer(owner(), amount), \"Vesting: withdraw failed\");\r\n    }\r\n\r\n    function multiSetTierOfAccount(\r\n        address[] calldata accounts,\r\n        uint256[] calldata _maxAmount\r\n    ) external onlyAdmin {\r\n        uint256 _numberOfAccounts = accounts.length;\r\n        require( _maxAmount.length == _numberOfAccounts, \"Tier: Array lengths differ\");\r\n\r\n        for (uint256 i = 0; i < _numberOfAccounts; i++) {\r\n            require( accounts[i] != address(0x0) && _maxAmount[i] > 0, \"Tier: invalid tier params\");\r\n            whitelistOfTiers[accounts[i]] = _maxAmount[i];\r\n        }\r\n    }\r\n\r\n    function setTierOfAccount(\r\n        address account,\r\n        uint256 _maxAmount\r\n    ) external onlyAdmin {\r\n        require(_maxAmount > 0, \"Tier: index of tier is invalid\");\r\n        whitelistOfTiers[account] = _maxAmount;\r\n    }\r\n\r\n    function getTierOfAccount(\r\n        address account\r\n    ) public view returns (uint256){\r\n        return whitelistOfTiers[account];\r\n    }\r\n\r\n    function unlockToken() external onlyAdmin {\r\n        uint256 currentTime = block.timestamp;\r\n        uint256 startTime = schedulePlain[releasedVestingId].unlockTime;\r\n        require(currentTime >= startTime, \"You can't run unlockToken function now\");\r\n        require(releasedVestingId < 6, \"Lock period End and All locked tokens were unlocked\");\r\n        require(!schedulePlain[releasedVestingId].isSent, \"Already unlocked tokens of this schedule\");\r\n\r\n        if (releasedVestingId == 0) {\r\n            require(token.balanceOf(address(this)) >= 2500000, \"You need to deposit 2500000 CSPDs into this contract before you start this contract.\");\r\n        }\r\n        for (uint256 i = 0; i < members.length; i++) {\r\n            Schedule memory _schedule = schedules[members[i]][releasedVestingId];\r\n            if (_schedule.amount != _schedule.claimedAmount) {\r\n                uint256 transferAmount = _schedule.amount - _schedule.claimedAmount;\r\n                require(token.transfer(members[i], transferAmount));\r\n            }\r\n        }\r\n        emit UnlockTokens(vestingTimeList[releasedVestingId]);\r\n        schedulePlain[releasedVestingId].isSent = true;\r\n        releasedVestingId = releasedVestingId + 1;\r\n    }\r\n}",
  "sourcePath": "D:\\Work Space\\CasperPad\\CasperPadToken_Contract\\contracts\\Vesting.sol",
  "compiler": {
    "name": "solc",
    "version": "0.8.7+commit.e28d00a7.Emscripten.clang"
  },
  "schemaVersion": "3.4.3",
  "updatedAt": "2021-12-02T12:19:28.233Z",
  "devdoc": {
    "kind": "dev",
    "methods": {
      "addMultiVest(address[],uint256[],bool)": {
        "details": "adds a new Schedule to the schedules mapping.",
        "params": {
          "accounts": "an array of the accounts that the vesting schedules are being set up for.                 Will be able to claim tokens after the cliff period.",
          "amount": "an array of the amount of tokens being vested for each user.",
          "isFixed": "bool setting if these vesting schedules can be rugged or not."
        }
      },
      "addVest(address,uint256,bool)": {
        "details": "adds a new Schedule to the schedules mapping.",
        "params": {
          "account": "the account that a vesting schedule is being set up for. Will be able to claim tokens after                the cliff period.",
          "amount": "the amount of tokens being vested for the user.",
          "isFixed": "a flag for if the vesting schedule is fixed or not. Fixed vesting schedules can't be cancelled."
        }
      },
      "claim(uint256)": {
        "params": {
          "scheduleNumber": "which schedule the user is claiming against"
        }
      },
      "owner()": {
        "details": "Returns the address of the current owner."
      },
      "renounceOwnership()": {
        "details": "Leaves the contract without owner. It will not be possible to call `onlyOwner` functions anymore. Can only be called by the current owner. NOTE: Renouncing ownership will leave the contract without an owner, thereby removing any functionality that is only available to the owner."
      },
      "rug(address,uint256)": {
        "details": "Any outstanding tokens are returned to the system.",
        "params": {
          "account": "the account of the user whos vesting schedule is being cancelled."
        }
      },
      "transferOwnership(address)": {
        "details": "Transfers ownership of the contract to a new account (`newOwner`). Can only be called by the current owner."
      },
      "withdraw(uint256)": {
        "details": "blocks withdrawing locked tokens."
      }
    },
    "version": 1
  },
  "userdoc": {
    "kind": "user",
    "methods": {
      "addMultiVest(address[],uint256[],bool)": {
        "notice": "Sets up vesting schedules for multiple users within 1 transaction."
      },
      "addVest(address,uint256,bool)": {
        "notice": "Sets up a vesting schedule for a set user."
      },
      "claim(uint256)": {
        "notice": "allows users to claim vested tokens if the cliff time has passed."
      },
      "rug(address,uint256)": {
        "notice": "Allows a vesting schedule to be cancelled."
      },
      "withdraw(uint256)": {
        "notice": "Withdraws CSPD tokens from the contract."
      }
    },
    "notice": "Tracer Standard Vesting Contract",
    "version": 1
  }
}