{
  "contractName": "Vesting",
  "abi": [
    {
      "inputs": [
        {
          "internalType": "address",
          "name": "_token",
          "type": "address"
        }
      ],
      "stateMutability": "nonpayable",
      "type": "constructor"
    },
    {
      "anonymous": false,
      "inputs": [
        {
          "indexed": false,
          "internalType": "address",
          "name": "_address",
          "type": "address"
        }
      ],
      "name": "AddNewAdmin",
      "type": "event"
    },
    {
      "anonymous": false,
      "inputs": [
        {
          "indexed": false,
          "internalType": "address",
          "name": "account",
          "type": "address"
        }
      ],
      "name": "Cancelled",
      "type": "event"
    },
    {
      "anonymous": false,
      "inputs": [
        {
          "indexed": true,
          "internalType": "address",
          "name": "claimer",
          "type": "address"
        },
        {
          "indexed": false,
          "internalType": "uint256",
          "name": "amount",
          "type": "uint256"
        }
      ],
      "name": "Claim",
      "type": "event"
    },
    {
      "anonymous": false,
      "inputs": [
        {
          "indexed": true,
          "internalType": "address",
          "name": "investor",
          "type": "address"
        },
        {
          "indexed": false,
          "internalType": "uint256",
          "name": "amount",
          "type": "uint256"
        },
        {
          "indexed": false,
          "internalType": "bool",
          "name": "isFixed",
          "type": "bool"
        }
      ],
      "name": "NewVesting",
      "type": "event"
    },
    {
      "anonymous": false,
      "inputs": [
        {
          "indexed": true,
          "internalType": "address",
          "name": "previousOwner",
          "type": "address"
        },
        {
          "indexed": true,
          "internalType": "address",
          "name": "newOwner",
          "type": "address"
        }
      ],
      "name": "OwnershipTransferred",
      "type": "event"
    },
    {
      "anonymous": false,
      "inputs": [
        {
          "indexed": false,
          "internalType": "address",
          "name": "_address",
          "type": "address"
        }
      ],
      "name": "RemoveAdminAddress",
      "type": "event"
    },
    {
      "anonymous": false,
      "inputs": [
        {
          "indexed": false,
          "internalType": "uint256",
          "name": "_timestamp",
          "type": "uint256"
        }
      ],
      "name": "UnlockTokens",
      "type": "event"
    },
    {
      "inputs": [
        {
          "internalType": "address",
          "name": "",
          "type": "address"
        }
      ],
      "name": "admins",
      "outputs": [
        {
          "internalType": "bool",
          "name": "",
          "type": "bool"
        }
      ],
      "stateMutability": "view",
      "type": "function",
      "constant": true
    },
    {
      "inputs": [
        {
          "internalType": "uint256",
          "name": "",
          "type": "uint256"
        }
      ],
      "name": "amounts",
      "outputs": [
        {
          "internalType": "uint256",
          "name": "",
          "type": "uint256"
        }
      ],
      "stateMutability": "view",
      "type": "function",
      "constant": true
    },
    {
      "inputs": [
        {
          "internalType": "address",
          "name": "",
          "type": "address"
        }
      ],
      "name": "locked",
      "outputs": [
        {
          "internalType": "uint256",
          "name": "",
          "type": "uint256"
        }
      ],
      "stateMutability": "view",
      "type": "function",
      "constant": true
    },
    {
      "inputs": [
        {
          "internalType": "uint256",
          "name": "",
          "type": "uint256"
        }
      ],
      "name": "members",
      "outputs": [
        {
          "internalType": "address",
          "name": "",
          "type": "address"
        }
      ],
      "stateMutability": "view",
      "type": "function",
      "constant": true
    },
    {
      "inputs": [
        {
          "internalType": "address",
          "name": "",
          "type": "address"
        }
      ],
      "name": "numberOfSchedules",
      "outputs": [
        {
          "internalType": "uint256",
          "name": "",
          "type": "uint256"
        }
      ],
      "stateMutability": "view",
      "type": "function",
      "constant": true
    },
    {
      "inputs": [],
      "name": "owner",
      "outputs": [
        {
          "internalType": "address",
          "name": "",
          "type": "address"
        }
      ],
      "stateMutability": "view",
      "type": "function",
      "constant": true
    },
    {
      "inputs": [],
      "name": "renounceOwnership",
      "outputs": [],
      "stateMutability": "nonpayable",
      "type": "function"
    },
    {
      "inputs": [
        {
          "internalType": "uint256",
          "name": "",
          "type": "uint256"
        }
      ],
      "name": "schedulePlain",
      "outputs": [
        {
          "internalType": "uint256",
          "name": "percentage",
          "type": "uint256"
        },
        {
          "internalType": "uint256",
          "name": "unlockTime",
          "type": "uint256"
        },
        {
          "internalType": "bool",
          "name": "isSent",
          "type": "bool"
        }
      ],
      "stateMutability": "view",
      "type": "function",
      "constant": true
    },
    {
      "inputs": [
        {
          "internalType": "address",
          "name": "",
          "type": "address"
        },
        {
          "internalType": "uint256",
          "name": "",
          "type": "uint256"
        }
      ],
      "name": "schedules",
      "outputs": [
        {
          "internalType": "uint256",
          "name": "amount",
          "type": "uint256"
        },
        {
          "internalType": "uint256",
          "name": "claimedAmount",
          "type": "uint256"
        },
        {
          "internalType": "uint256",
          "name": "unlockTime",
          "type": "uint256"
        },
        {
          "internalType": "bool",
          "name": "isFixed",
          "type": "bool"
        }
      ],
      "stateMutability": "view",
      "type": "function",
      "constant": true
    },
    {
      "inputs": [],
      "name": "token",
      "outputs": [
        {
          "internalType": "contract IBEP20",
          "name": "",
          "type": "address"
        }
      ],
      "stateMutability": "view",
      "type": "function",
      "constant": true
    },
    {
      "inputs": [
        {
          "internalType": "address",
          "name": "newOwner",
          "type": "address"
        }
      ],
      "name": "transferOwnership",
      "outputs": [],
      "stateMutability": "nonpayable",
      "type": "function"
    },
    {
      "inputs": [
        {
          "internalType": "uint256",
          "name": "",
          "type": "uint256"
        }
      ],
      "name": "vestingTimeList",
      "outputs": [
        {
          "internalType": "uint256",
          "name": "",
          "type": "uint256"
        }
      ],
      "stateMutability": "view",
      "type": "function",
      "constant": true
    },
    {
      "inputs": [
        {
          "internalType": "address",
          "name": "",
          "type": "address"
        }
      ],
      "name": "whitelistOfTiers",
      "outputs": [
        {
          "internalType": "uint256",
          "name": "",
          "type": "uint256"
        }
      ],
      "stateMutability": "view",
      "type": "function",
      "constant": true
    },
    {
      "inputs": [
        {
          "internalType": "uint256",
          "name": "totalAmount",
          "type": "uint256"
        }
      ],
      "name": "tokenSupply",
      "outputs": [],
      "stateMutability": "payable",
      "type": "function",
      "payable": true
    },
    {
      "inputs": [
        {
          "internalType": "address",
          "name": "_address",
          "type": "address"
        }
      ],
      "name": "addAdmin",
      "outputs": [],
      "stateMutability": "nonpayable",
      "type": "function"
    },
    {
      "inputs": [
        {
          "internalType": "address",
          "name": "_address",
          "type": "address"
        }
      ],
      "name": "removeAdmin",
      "outputs": [],
      "stateMutability": "nonpayable",
      "type": "function"
    },
    {
      "inputs": [],
      "name": "getTotalSoldAmount",
      "outputs": [
        {
          "internalType": "uint256",
          "name": "",
          "type": "uint256"
        }
      ],
      "stateMutability": "view",
      "type": "function",
      "constant": true
    },
    {
      "inputs": [],
      "name": "getParticipants",
      "outputs": [
        {
          "internalType": "uint256",
          "name": "",
          "type": "uint256"
        }
      ],
      "stateMutability": "view",
      "type": "function",
      "constant": true
    },
    {
      "inputs": [
        {
          "internalType": "address",
          "name": "account",
          "type": "address"
        },
        {
          "internalType": "uint256",
          "name": "amount",
          "type": "uint256"
        },
        {
          "internalType": "bool",
          "name": "isFixed",
          "type": "bool"
        }
      ],
      "name": "addVest",
      "outputs": [],
      "stateMutability": "nonpayable",
      "type": "function"
    },
    {
      "inputs": [
        {
          "internalType": "address[]",
          "name": "accounts",
          "type": "address[]"
        },
        {
          "internalType": "uint256[]",
          "name": "amount",
          "type": "uint256[]"
        },
        {
          "internalType": "bool",
          "name": "isFixed",
          "type": "bool"
        }
      ],
      "name": "addMultiVest",
      "outputs": [],
      "stateMutability": "nonpayable",
      "type": "function"
    },
    {
      "inputs": [
        {
          "internalType": "uint256",
          "name": "scheduleNumber",
          "type": "uint256"
        }
      ],
      "name": "claim",
      "outputs": [],
      "stateMutability": "nonpayable",
      "type": "function"
    },
    {
      "inputs": [
        {
          "internalType": "address",
          "name": "account",
          "type": "address"
        },
        {
          "internalType": "uint256",
          "name": "scheduleId",
          "type": "uint256"
        }
      ],
      "name": "rug",
      "outputs": [],
      "stateMutability": "nonpayable",
      "type": "function"
    },
    {
      "inputs": [
        {
          "internalType": "uint256",
          "name": "amount",
          "type": "uint256"
        }
      ],
      "name": "withdraw",
      "outputs": [],
      "stateMutability": "nonpayable",
      "type": "function"
    },
    {
      "inputs": [
        {
          "internalType": "address[]",
          "name": "accounts",
          "type": "address[]"
        },
        {
          "internalType": "uint256[]",
          "name": "_maxAmount",
          "type": "uint256[]"
        }
      ],
      "name": "multiSetTierOfAccount",
      "outputs": [],
      "stateMutability": "nonpayable",
      "type": "function"
    },
    {
      "inputs": [
        {
          "internalType": "address",
          "name": "account",
          "type": "address"
        },
        {
          "internalType": "uint256",
          "name": "_maxAmount",
          "type": "uint256"
        }
      ],
      "name": "setTierOfAccount",
      "outputs": [],
      "stateMutability": "nonpayable",
      "type": "function"
    },
    {
      "inputs": [
        {
          "internalType": "address",
          "name": "account",
          "type": "address"
        }
      ],
      "name": "getTierOfAccount",
      "outputs": [
        {
          "internalType": "uint256",
          "name": "",
          "type": "uint256"
        }
      ],
      "stateMutability": "view",
      "type": "function",
      "constant": true
    },
    {
      "inputs": [],
      "name": "unlockToken",
      "outputs": [],
      "stateMutability": "nonpayable",
      "type": "function"
    }
  ],
  "bytecode": "0x608060405260006006553480156200001657600080fd5b50604051620052673803806200526783398181016040528101906200003c919062000d0c565b6200005c6200005062000be960201b60201c565b62000bf160201b60201c565b600073ffffffffffffffffffffffffffffffffffffffff168173ffffffffffffffffffffffffffffffffffffffff1614156200009757600080fd5b80600160006101000a81548173ffffffffffffffffffffffffffffffffffffffff021916908373ffffffffffffffffffffffffffffffffffffffff16021790555060006a295be96e640669720000009050808273ffffffffffffffffffffffffffffffffffffffff166370a082316200011562000cb560201b60201c565b6040518263ffffffff1660e01b815260040162000133919062000da8565b60206040518083038186803b1580156200014c57600080fd5b505afa15801562000161573d6000803e3d6000fd5b505050506040513d601f19601f8201168201806040525081019062000187919062000d3e565b1015620001cb576040517f08c379a0000000000000000000000000000000000000000000000000000000008152600401620001c29062000dc5565b60405180910390fd5b6000600781905550600160086000620001e962000cb560201b60201c565b73ffffffffffffffffffffffffffffffffffffffff1673ffffffffffffffffffffffffffffffffffffffff16815260200190815260200160002060006101000a81548160ff02191690831515021790555060006005819055506002735b38da6a701c568545dcfcb03fcb875f56beddc49080600181540180825580915050600190039060005260206000200160009091909190916101000a81548173ffffffffffffffffffffffffffffffffffffffff021916908373ffffffffffffffffffffffffffffffffffffffff160217905550600273026116102ae7e558cd436325158d54020efcf0ef9080600181540180825580915050600190039060005260206000200160009091909190916101000a81548173ffffffffffffffffffffffffffffffffffffffff021916908373ffffffffffffffffffffffffffffffffffffffff1602179055506002734b674da5e20067b8213263720d958b5e7abd7d8c9080600181540180825580915050600190039060005260206000200160009091909190916101000a81548173ffffffffffffffffffffffffffffffffffffffff021916908373ffffffffffffffffffffffffffffffffffffffff160217905550600273d157d2ff5393c509777765cf612284d53d38de309080600181540180825580915050600190039060005260206000200160009091909190916101000a81548173ffffffffffffffffffffffffffffffffffffffff021916908373ffffffffffffffffffffffffffffffffffffffff160217905550600273fcf2668c4ec68d2bbd36a476e30227744a0f5eb89080600181540180825580915050600190039060005260206000200160009091909190916101000a81548173ffffffffffffffffffffffffffffffffffffffff021916908373ffffffffffffffffffffffffffffffffffffffff1602179055506002733719d24fa12f32877f894c6f51feecf91f16b44f9080600181540180825580915050600190039060005260206000200160009091909190916101000a81548173ffffffffffffffffffffffffffffffffffffffff021916908373ffffffffffffffffffffffffffffffffffffffff160217905550600273c0eaa0018b1192de0c8ca46e57b84ee907e01bac9080600181540180825580915050600190039060005260206000200160009091909190916101000a81548173ffffffffffffffffffffffffffffffffffffffff021916908373ffffffffffffffffffffffffffffffffffffffff160217905550600273c50dd8028b1c6914b67f4657f0155e5d2ce1e2269080600181540180825580915050600190039060005260206000200160009091909190916101000a81548173ffffffffffffffffffffffffffffffffffffffff021916908373ffffffffffffffffffffffffffffffffffffffff1602179055506002735b588e36ff358d4376a76fb163fd69da02a2a9a59080600181540180825580915050600190039060005260206000200160009091909190916101000a81548173ffffffffffffffffffffffffffffffffffffffff021916908373ffffffffffffffffffffffffffffffffffffffff160217905550600273a5664dc01bb8369edc6116d3b267d6014681dd2f9080600181540180825580915050600190039060005260206000200160009091909190916101000a81548173ffffffffffffffffffffffffffffffffffffffff021916908373ffffffffffffffffffffffffffffffffffffffff1602179055506003624c4b4090806001815401808255809150506001900390600052602060002001600090919091909150556003624c4b4090806001815401808255809150506001900390600052602060002001600090919091909150556003624c4b4090806001815401808255809150506001900390600052602060002001600090919091909150556003624c4b4090806001815401808255809150506001900390600052602060002001600090919091909150556003624c4b4090806001815401808255809150506001900390600052602060002001600090919091909150556003624c4b4090806001815401808255809150506001900390600052602060002001600090919091909150556003624c4b4090806001815401808255809150506001900390600052602060002001600090919091909150556003624c4b4090806001815401808255809150506001900390600052602060002001600090919091909150556003624c4b4090806001815401808255809150506001900390600052602060002001600090919091909150556003624c4b4090806001815401808255809150506001900390600052602060002001600090919091909150556004635bbc8d5090806001815401808255809150506001900390600052602060002001600090919091909150556004635bbc8e7c908060018154018082558091505060019003906000526020600020016000909190919091505560046362042b5090806001815401808255809150506001900390600052602060002001600090919091909150556004636229155090806001815401808255809150506001900390600052602060002001600090919091909150556004636251f3d09080600181540180825580915050600190039060005260206000200160009091909190915055600463627980d0908060018154018082558091505060019003906000526020600020016000909190919091505560005b60048054905081101562000b2857600081141562000a7057600a60405180606001604052806005815260200160048481548110620009f457620009f362000eb3565b5b90600052602060002001548152602001600015158152509080600181540180825580915050600190039060005260206000209060030201600090919091909150600082015181600001556020820151816001015560408201518160020160006101000a81548160ff021916908315150217905550505062000b12565b600a6040518060600160405280601381526020016004848154811062000a9b5762000a9a62000eb3565b5b90600052602060002001548152602001600015158152509080600181540180825580915050600190039060005260206000209060030201600090919091909150600082015181600001556020820151816001015560408201518160020160006101000a81548160ff02191690831515021790555050505b808062000b1f9062000e36565b915050620009b1565b5060005b60028054905081101562000be0576a0422ca8b0a00a425000000600960006002848154811062000b615762000b6062000eb3565b5b9060005260206000200160009054906101000a900473ffffffffffffffffffffffffffffffffffffffff1673ffffffffffffffffffffffffffffffffffffffff1673ffffffffffffffffffffffffffffffffffffffff16815260200190815260200160002081905550808062000bd79062000e36565b91505062000b2c565b50505062000f44565b600033905090565b60008060009054906101000a900473ffffffffffffffffffffffffffffffffffffffff169050816000806101000a81548173ffffffffffffffffffffffffffffffffffffffff021916908373ffffffffffffffffffffffffffffffffffffffff1602179055508173ffffffffffffffffffffffffffffffffffffffff168173ffffffffffffffffffffffffffffffffffffffff167f8be0079c531659141344cd1fd0a4f28419497f9722a3daafe3b4186f6b6457e060405160405180910390a35050565b60008060009054906101000a900473ffffffffffffffffffffffffffffffffffffffff16905090565b60008151905062000cef8162000f10565b92915050565b60008151905062000d068162000f2a565b92915050565b60006020828403121562000d255762000d2462000ee2565b5b600062000d358482850162000cde565b91505092915050565b60006020828403121562000d575762000d5662000ee2565b5b600062000d678482850162000cf5565b91505092915050565b62000d7b8162000df8565b82525050565b600062000d90601d8362000de7565b915062000d9d8262000ee7565b602082019050919050565b600060208201905062000dbf600083018462000d70565b92915050565b6000602082019050818103600083015262000de08162000d81565b9050919050565b600082825260208201905092915050565b600062000e058262000e0c565b9050919050565b600073ffffffffffffffffffffffffffffffffffffffff82169050919050565b6000819050919050565b600062000e438262000e2c565b91507fffffffffffffffffffffffffffffffffffffffffffffffffffffffffffffffff82141562000e795762000e7862000e84565b5b600182019050919050565b7f4e487b7100000000000000000000000000000000000000000000000000000000600052601160045260246000fd5b7f4e487b7100000000000000000000000000000000000000000000000000000000600052603260045260246000fd5b600080fd5b7f6f776e657227732062616c616e6365206973206e6f7420656e6f756768000000600082015250565b62000f1b8162000df8565b811462000f2757600080fd5b50565b62000f358162000e2c565b811462000f4157600080fd5b50565b6143138062000f546000396000f3fe60806040526004361061019c5760003560e01c8063715018a6116100ec578063ceb9c7521161008a578063efa6d0df11610064578063efa6d0df146105f2578063f2fde38b1461061b578063fc0c546a14610644578063ffb4b1be1461066f5761019c565b8063ceb9c7521461053b578063d018eb0f14610578578063df681c14146105b55761019c565b80638da5cb5b116100c65780638da5cb5b1461046b578063933bdb9014610496578063b17a58cf146104c1578063cbf9fe5f146104fe5761019c565b8063715018a6146103eb57806373bea3b214610402578063854e96821461042b5761019c565b80633405ba2f1161015957806345f0a44f1161013357806345f0a44f1461031d5780635aa68ac01461035a5780635daf08ca1461038557806370480275146103c25761019c565b80633405ba2f14610278578063379607f5146102b7578063429b62e5146102e05761019c565b80631785f53c146101a157806318a24b5b146101ca5780632693ebf2146101e157806329c6a24e146101fd5780632e1a7d4d146102265780632fe5a51f1461024f575b600080fd5b3480156101ad57600080fd5b506101c860048036038101906101c3919061300a565b610698565b005b3480156101d657600080fd5b506101df6108a2565b005b6101fb60048036038101906101f6919061320d565b610f8d565b005b34801561020957600080fd5b50610224600480360381019061021f9190613037565b6111c9565b005b34801561023257600080fd5b5061024d6004803603810190610248919061320d565b61133a565b005b34801561025b57600080fd5b506102766004803603810190610271919061314b565b611674565b005b34801561028457600080fd5b5061029f600480360381019061029a919061320d565b611806565b6040516102ae93929190613a2f565b60405180910390f35b3480156102c357600080fd5b506102de60048036038101906102d9919061320d565b61184d565b005b3480156102ec57600080fd5b506103076004803603810190610302919061300a565b611b6b565b6040516103149190613675565b60405180910390f35b34801561032957600080fd5b50610344600480360381019061033f919061320d565b611b8b565b60405161035191906139eb565b60405180910390f35b34801561036657600080fd5b5061036f611baf565b60405161037c91906139eb565b60405180910390f35b34801561039157600080fd5b506103ac60048036038101906103a7919061320d565b611bb9565b6040516103b99190613631565b60405180910390f35b3480156103ce57600080fd5b506103e960048036038101906103e4919061300a565b611bf8565b005b3480156103f757600080fd5b50610400611e03565b005b34801561040e57600080fd5b5061042960048036038101906104249190613077565b611e8b565b005b34801561043757600080fd5b50610452600480360381019061044d9190613037565b61255d565b6040516104629493929190613a66565b60405180910390f35b34801561047757600080fd5b506104806125a7565b60405161048d9190613631565b60405180910390f35b3480156104a257600080fd5b506104ab6125d0565b6040516104b891906139eb565b60405180910390f35b3480156104cd57600080fd5b506104e860048036038101906104e3919061300a565b6125da565b6040516104f591906139eb565b60405180910390f35b34801561050a57600080fd5b506105256004803603810190610520919061300a565b6125f2565b60405161053291906139eb565b60405180910390f35b34801561054757600080fd5b50610562600480360381019061055d919061300a565b61260a565b60405161056f91906139eb565b60405180910390f35b34801561058457600080fd5b5061059f600480360381019061059a919061320d565b612653565b6040516105ac91906139eb565b60405180910390f35b3480156105c157600080fd5b506105dc60048036038101906105d7919061300a565b612677565b6040516105e991906139eb565b60405180910390f35b3480156105fe57600080fd5b50610619600480360381019061061491906130ca565b61268f565b005b34801561062757600080fd5b50610642600480360381019061063d919061300a565b612928565b005b34801561065057600080fd5b50610659612a20565b6040516106669190613690565b60405180910390f35b34801561067b57600080fd5b5061069660048036038101906106919190613037565b612a46565b005b6106a0612e29565b73ffffffffffffffffffffffffffffffffffffffff166106be6125a7565b73ffffffffffffffffffffffffffffffffffffffff1614610714576040517f08c379a000000000000000000000000000000000000000000000000000000000815260040161070b906138ab565b60405180910390fd5b600073ffffffffffffffffffffffffffffffffffffffff168173ffffffffffffffffffffffffffffffffffffffff161415610784576040517f08c379a000000000000000000000000000000000000000000000000000000000815260040161077b9061378b565b60405180910390fd5b600860008273ffffffffffffffffffffffffffffffffffffffff1673ffffffffffffffffffffffffffffffffffffffff16815260200190815260200160002060009054906101000a900460ff16610810576040517f08c379a0000000000000000000000000000000000000000000000000000000008152600401610807906139cb565b60405180910390fd5b6000600860008373ffffffffffffffffffffffffffffffffffffffff1673ffffffffffffffffffffffffffffffffffffffff16815260200190815260200160002060006101000a81548160ff0219169083151502179055507f33bc9e3b4b0d976d5663b552f0d1aa59f10b338ef8cd23229b8e4554e342b67c816040516108979190613631565b60405180910390a150565b600073ffffffffffffffffffffffffffffffffffffffff166108c2612e29565b73ffffffffffffffffffffffffffffffffffffffff16141580156109365750600860006108ed612e29565b73ffffffffffffffffffffffffffffffffffffffff1673ffffffffffffffffffffffffffffffffffffffff16815260200190815260200160002060009054906101000a900460ff165b610975576040517f08c379a000000000000000000000000000000000000000000000000000000000815260040161096c906138eb565b60405180910390fd5b60004290506000600a6005548154811061099257610991613cf6565b5b9060005260206000209060030201600101549050808210156109e9576040517f08c379a00000000000000000000000000000000000000000000000000000000081526004016109e0906138cb565b60405180910390fd5b600660055410610a2e576040517f08c379a0000000000000000000000000000000000000000000000000000000008152600401610a25906137ab565b60405180910390fd5b600a60055481548110610a4457610a43613cf6565b5b906000526020600020906003020160020160009054906101000a900460ff1615610aa3576040517f08c379a0000000000000000000000000000000000000000000000000000000008152600401610a9a9061394b565b60405180910390fd5b60006005541415610b9f57622625a0600160009054906101000a900473ffffffffffffffffffffffffffffffffffffffff1673ffffffffffffffffffffffffffffffffffffffff166370a08231306040518263ffffffff1660e01b8152600401610b0d9190613631565b60206040518083038186803b158015610b2557600080fd5b505afa158015610b39573d6000803e3d6000fd5b505050506040513d601f19601f82011682018060405250810190610b5d919061323a565b1015610b9e576040517f08c379a0000000000000000000000000000000000000000000000000000000008152600401610b959061390b565b60405180910390fd5b5b60005b600280549050811015610edc576000600b600060028481548110610bc957610bc8613cf6565b5b9060005260206000200160009054906101000a900473ffffffffffffffffffffffffffffffffffffffff1673ffffffffffffffffffffffffffffffffffffffff1673ffffffffffffffffffffffffffffffffffffffff168152602001908152602001600020600060055481526020019081526020016000206040518060800160405290816000820154815260200160018201548152602001600282015481526020016003820160009054906101000a900460ff16151515158152505090508060200151816000015114610ec857600081602001518260000151610cac9190613b9d565b9050600160009054906101000a900473ffffffffffffffffffffffffffffffffffffffff1673ffffffffffffffffffffffffffffffffffffffff1663a9059cbb60028581548110610d0057610cff613cf6565b5b9060005260206000200160009054906101000a900473ffffffffffffffffffffffffffffffffffffffff16836040518363ffffffff1660e01b8152600401610d4992919061364c565b602060405180830381600087803b158015610d6357600080fd5b505af1158015610d77573d6000803e3d6000fd5b505050506040513d601f19601f82011682018060405250810190610d9b91906131e0565b610da457600080fd5b80600d6000600160009054906101000a900473ffffffffffffffffffffffffffffffffffffffff1673ffffffffffffffffffffffffffffffffffffffff1673ffffffffffffffffffffffffffffffffffffffff1681526020019081526020016000206000828254610e159190613b9d565b9250508190555080600b600060028681548110610e3557610e34613cf6565b5b9060005260206000200160009054906101000a900473ffffffffffffffffffffffffffffffffffffffff1673ffffffffffffffffffffffffffffffffffffffff1673ffffffffffffffffffffffffffffffffffffffff168152602001908152602001600020600060055481526020019081526020016000206001016000828254610ebf9190613abc565b92505081905550505b508080610ed490613c4f565b915050610ba2565b507fe468a184bc2a1e5c9c5fbd34dda66145a553603678c8c126b4ff137d17f527a2600460055481548110610f1457610f13613cf6565b5b9060005260206000200154604051610f2c91906139eb565b60405180910390a16001600a60055481548110610f4c57610f4b613cf6565b5b906000526020600020906003020160020160006101000a81548160ff0219169083151502179055506001600554610f839190613abc565b6005819055505050565b610f95612e29565b73ffffffffffffffffffffffffffffffffffffffff16610fb36125a7565b73ffffffffffffffffffffffffffffffffffffffff1614611009576040517f08c379a0000000000000000000000000000000000000000000000000000000008152600401611000906138ab565b60405180910390fd5b6000670de0b6b3a76400008261101f9190613b43565b905080600160009054906101000a900473ffffffffffffffffffffffffffffffffffffffff1673ffffffffffffffffffffffffffffffffffffffff166370a082316110686125a7565b6040518263ffffffff1660e01b81526004016110849190613631565b60206040518083038186803b15801561109c57600080fd5b505afa1580156110b0573d6000803e3d6000fd5b505050506040513d601f19601f820116820180604052508101906110d4919061323a565b1015611115576040517f08c379a000000000000000000000000000000000000000000000000000000000815260040161110c906136eb565b60405180910390fd5b600160009054906101000a900473ffffffffffffffffffffffffffffffffffffffff1673ffffffffffffffffffffffffffffffffffffffff1663a9059cbb30836040518363ffffffff1660e01b815260040161117292919061364c565b602060405180830381600087803b15801561118c57600080fd5b505af11580156111a0573d6000803e3d6000fd5b505050506040513d601f19601f820116820180604052508101906111c491906131e0565b505050565b600073ffffffffffffffffffffffffffffffffffffffff166111e9612e29565b73ffffffffffffffffffffffffffffffffffffffff161415801561125d575060086000611214612e29565b73ffffffffffffffffffffffffffffffffffffffff1673ffffffffffffffffffffffffffffffffffffffff16815260200190815260200160002060009054906101000a900460ff165b61129c576040517f08c379a0000000000000000000000000000000000000000000000000000000008152600401611293906138eb565b60405180910390fd5b600081116112df576040517f08c379a00000000000000000000000000000000000000000000000000000000081526004016112d69061380b565b60405180910390fd5b670de0b6b3a7640000816112f39190613b43565b600960008473ffffffffffffffffffffffffffffffffffffffff1673ffffffffffffffffffffffffffffffffffffffff168152602001908152602001600020819055505050565b600073ffffffffffffffffffffffffffffffffffffffff1661135a612e29565b73ffffffffffffffffffffffffffffffffffffffff16141580156113ce575060086000611385612e29565b73ffffffffffffffffffffffffffffffffffffffff1673ffffffffffffffffffffffffffffffffffffffff16815260200190815260200160002060009054906101000a900460ff165b61140d576040517f08c379a0000000000000000000000000000000000000000000000000000000008152600401611404906138eb565b60405180910390fd5b670de0b6b3a7640000816114219190613b43565b905080600d6000600160009054906101000a900473ffffffffffffffffffffffffffffffffffffffff1673ffffffffffffffffffffffffffffffffffffffff1673ffffffffffffffffffffffffffffffffffffffff16815260200190815260200160002054600160009054906101000a900473ffffffffffffffffffffffffffffffffffffffff1673ffffffffffffffffffffffffffffffffffffffff166370a08231306040518263ffffffff1660e01b81526004016114e19190613631565b60206040518083038186803b1580156114f957600080fd5b505afa15801561150d573d6000803e3d6000fd5b505050506040513d601f19601f82011682018060405250810190611531919061323a565b61153b9190613b9d565b101561157c576040517f08c379a0000000000000000000000000000000000000000000000000000000008152600401611573906136cb565b60405180910390fd5b600160009054906101000a900473ffffffffffffffffffffffffffffffffffffffff1673ffffffffffffffffffffffffffffffffffffffff1663a9059cbb6115c26125a7565b836040518363ffffffff1660e01b81526004016115e092919061364c565b602060405180830381600087803b1580156115fa57600080fd5b505af115801561160e573d6000803e3d6000fd5b505050506040513d601f19601f8201168201806040525081019061163291906131e0565b611671576040517f08c379a00000000000000000000000000000000000000000000000000000000081526004016116689061372b565b60405180910390fd5b50565b600073ffffffffffffffffffffffffffffffffffffffff16611694612e29565b73ffffffffffffffffffffffffffffffffffffffff16141580156117085750600860006116bf612e29565b73ffffffffffffffffffffffffffffffffffffffff1673ffffffffffffffffffffffffffffffffffffffff16815260200190815260200160002060009054906101000a900460ff165b611747576040517f08c379a000000000000000000000000000000000000000000000000000000000815260040161173e906138eb565b60405180910390fd5b6000858590509050808484905014611794576040517f08c379a000000000000000000000000000000000000000000000000000000000815260040161178b9061382b565b60405180910390fd5b60005b818110156117fd576117ea8787838181106117b5576117b4613cf6565b5b90506020020160208101906117ca919061300a565b8686848181106117dd576117dc613cf6565b5b9050602002013585611e8b565b80806117f590613c4f565b915050611797565b50505050505050565b600a818154811061181657600080fd5b90600052602060002090600302016000915090508060000154908060010154908060020160009054906101000a900460ff16905083565b6000600b60003373ffffffffffffffffffffffffffffffffffffffff1673ffffffffffffffffffffffffffffffffffffffff1681526020019081526020016000206000838152602001908152602001600020905042816002015411156118e8576040517f08c379a00000000000000000000000000000000000000000000000000000000081526004016118df9061386b565b60405180910390fd5b600081600001541161192f576040517f08c379a00000000000000000000000000000000000000000000000000000000081526004016119269061398b565b60405180910390fd5b6000816001015482600001546119459190613b9d565b90508160000154826001018190555080600d6000600160009054906101000a900473ffffffffffffffffffffffffffffffffffffffff1673ffffffffffffffffffffffffffffffffffffffff1673ffffffffffffffffffffffffffffffffffffffff168152602001908152602001600020546119c19190613b9d565b600d6000600160009054906101000a900473ffffffffffffffffffffffffffffffffffffffff1673ffffffffffffffffffffffffffffffffffffffff1673ffffffffffffffffffffffffffffffffffffffff16815260200190815260200160002081905550600160009054906101000a900473ffffffffffffffffffffffffffffffffffffffff1673ffffffffffffffffffffffffffffffffffffffff1663a9059cbb33836040518363ffffffff1660e01b8152600401611a8392919061364c565b602060405180830381600087803b158015611a9d57600080fd5b505af1158015611ab1573d6000803e3d6000fd5b505050506040513d601f19601f82011682018060405250810190611ad591906131e0565b611b14576040517f08c379a0000000000000000000000000000000000000000000000000000000008152600401611b0b9061384b565b60405180910390fd5b3373ffffffffffffffffffffffffffffffffffffffff167f47cee97cb7acd717b3c0aa1435d004cd5b3c8c57d70dbceb4e4458bbd60e39d48360000154604051611b5e91906139eb565b60405180910390a2505050565b60086020528060005260406000206000915054906101000a900460ff1681565b60038181548110611b9b57600080fd5b906000526020600020016000915090505481565b6000600754905090565b60028181548110611bc957600080fd5b906000526020600020016000915054906101000a900473ffffffffffffffffffffffffffffffffffffffff1681565b611c00612e29565b73ffffffffffffffffffffffffffffffffffffffff16611c1e6125a7565b73ffffffffffffffffffffffffffffffffffffffff1614611c74576040517f08c379a0000000000000000000000000000000000000000000000000000000008152600401611c6b906138ab565b60405180910390fd5b600073ffffffffffffffffffffffffffffffffffffffff168173ffffffffffffffffffffffffffffffffffffffff161415611ce4576040517f08c379a0000000000000000000000000000000000000000000000000000000008152600401611cdb9061378b565b60405180910390fd5b600860008273ffffffffffffffffffffffffffffffffffffffff1673ffffffffffffffffffffffffffffffffffffffff16815260200190815260200160002060009054906101000a900460ff1615611d71576040517f08c379a0000000000000000000000000000000000000000000000000000000008152600401611d68906136ab565b60405180910390fd5b6001600860008373ffffffffffffffffffffffffffffffffffffffff1673ffffffffffffffffffffffffffffffffffffffff16815260200190815260200160002060006101000a81548160ff0219169083151502179055507fe8545298d4f2a47282e100b4cbcf2645ab4d367b85c00b0fc35e03f4ee409b7f81604051611df89190613631565b60405180910390a150565b611e0b612e29565b73ffffffffffffffffffffffffffffffffffffffff16611e296125a7565b73ffffffffffffffffffffffffffffffffffffffff1614611e7f576040517f08c379a0000000000000000000000000000000000000000000000000000000008152600401611e76906138ab565b60405180910390fd5b611e896000612e31565b565b600073ffffffffffffffffffffffffffffffffffffffff16611eab612e29565b73ffffffffffffffffffffffffffffffffffffffff1614158015611f1f575060086000611ed6612e29565b73ffffffffffffffffffffffffffffffffffffffff1673ffffffffffffffffffffffffffffffffffffffff16815260200190815260200160002060009054906101000a900460ff165b611f5e576040517f08c379a0000000000000000000000000000000000000000000000000000000008152600401611f55906138eb565b60405180910390fd5b82826000600960008473ffffffffffffffffffffffffffffffffffffffff1673ffffffffffffffffffffffffffffffffffffffff16815260200190815260200160002054905060008114158015611fc85750670de0b6b3a764000082611fc49190613b43565b8110155b612007576040517f08c379a0000000000000000000000000000000000000000000000000000000008152600401611ffe906137eb565b60405180910390fd5b6000851161204a576040517f08c379a00000000000000000000000000000000000000000000000000000000081526004016120419061374b565b60405180910390fd5b6000600d6000600160009054906101000a900473ffffffffffffffffffffffffffffffffffffffff1673ffffffffffffffffffffffffffffffffffffffff1673ffffffffffffffffffffffffffffffffffffffff168152602001908152602001600020549050670de0b6b3a7640000866120c49190613b43565b816120cf9190613abc565b600160009054906101000a900473ffffffffffffffffffffffffffffffffffffffff1673ffffffffffffffffffffffffffffffffffffffff166370a08231306040518263ffffffff1660e01b815260040161212a9190613631565b60206040518083038186803b15801561214257600080fd5b505afa158015612156573d6000803e3d6000fd5b505050506040513d601f19601f8201168201806040525081019061217a919061323a565b10156121bb576040517f08c379a00000000000000000000000000000000000000000000000000000000081526004016121b29061396b565b60405180910390fd5b6000600c60008973ffffffffffffffffffffffffffffffffffffffff1673ffffffffffffffffffffffffffffffffffffffff16815260200190815260200160002054905060008114612242576040517f08c379a0000000000000000000000000000000000000000000000000000000008152600401612239906137cb565b60405180910390fd5b60005b600a805490508110156124875760006064600a838154811061226a57612269613cf6565b5b906000526020600020906003020160000154670de0b6b3a76400008b6122909190613b43565b61229a9190613b43565b6122a49190613b12565b90506000600a83815481106122bc576122bb613cf6565b5b90600052602060002090600302016001015490506040518060800160405280838152602001600081526020018281526020018a1515815250600b60008d73ffffffffffffffffffffffffffffffffffffffff1673ffffffffffffffffffffffffffffffffffffffff168152602001908152602001600020600085815260200190815260200160002060008201518160000155602082015181600101556040820151816002015560608201518160030160006101000a81548160ff0219169083151502179055509050506001836123929190613abc565b600c60008d73ffffffffffffffffffffffffffffffffffffffff1673ffffffffffffffffffffffffffffffffffffffff16815260200190815260200160002081905550670de0b6b3a76400008a6123e99190613b43565b856123f49190613abc565b600d6000600160009054906101000a900473ffffffffffffffffffffffffffffffffffffffff1673ffffffffffffffffffffffffffffffffffffffff1673ffffffffffffffffffffffffffffffffffffffff16815260200190815260200160002081905550816006600082825461246b9190613abc565b925050819055505050808061247f90613c4f565b915050612245565b506002889080600181540180825580915050600190039060005260206000200160009091909190916101000a81548173ffffffffffffffffffffffffffffffffffffffff021916908373ffffffffffffffffffffffffffffffffffffffff160217905550600760008154809291906124fe90613c4f565b91905055508773ffffffffffffffffffffffffffffffffffffffff167fe3b9a78308fbd313c084842efc8429b592f3980a893be12ed39018b5b16deb09888860405161254b929190613a06565b60405180910390a25050505050505050565b600b602052816000526040600020602052806000526040600020600091509150508060000154908060010154908060020154908060030160009054906101000a900460ff16905084565b60008060009054906101000a900473ffffffffffffffffffffffffffffffffffffffff16905090565b6000600654905090565b60096020528060005260406000206000915090505481565b600d6020528060005260406000206000915090505481565b6000600960008373ffffffffffffffffffffffffffffffffffffffff1673ffffffffffffffffffffffffffffffffffffffff168152602001908152602001600020549050919050565b6004818154811061266357600080fd5b906000526020600020016000915090505481565b600c6020528060005260406000206000915090505481565b600073ffffffffffffffffffffffffffffffffffffffff166126af612e29565b73ffffffffffffffffffffffffffffffffffffffff16141580156127235750600860006126da612e29565b73ffffffffffffffffffffffffffffffffffffffff1673ffffffffffffffffffffffffffffffffffffffff16815260200190815260200160002060009054906101000a900460ff165b612762576040517f08c379a0000000000000000000000000000000000000000000000000000000008152600401612759906138eb565b60405180910390fd5b60008484905090508083839050146127af576040517f08c379a00000000000000000000000000000000000000000000000000000000081526004016127a6906139ab565b60405180910390fd5b60005b8181101561292057600073ffffffffffffffffffffffffffffffffffffffff168686838181106127e5576127e4613cf6565b5b90506020020160208101906127fa919061300a565b73ffffffffffffffffffffffffffffffffffffffff16141580156128375750600084848381811061282e5761282d613cf6565b5b90506020020135115b612876576040517f08c379a000000000000000000000000000000000000000000000000000000000815260040161286d9061388b565b60405180910390fd5b670de0b6b3a764000084848381811061289257612891613cf6565b5b905060200201356128a39190613b43565b600960008888858181106128ba576128b9613cf6565b5b90506020020160208101906128cf919061300a565b73ffffffffffffffffffffffffffffffffffffffff1673ffffffffffffffffffffffffffffffffffffffff16815260200190815260200160002081905550808061291890613c4f565b9150506127b2565b505050505050565b612930612e29565b73ffffffffffffffffffffffffffffffffffffffff1661294e6125a7565b73ffffffffffffffffffffffffffffffffffffffff16146129a4576040517f08c379a000000000000000000000000000000000000000000000000000000000815260040161299b906138ab565b60405180910390fd5b600073ffffffffffffffffffffffffffffffffffffffff168173ffffffffffffffffffffffffffffffffffffffff161415612a14576040517f08c379a0000000000000000000000000000000000000000000000000000000008152600401612a0b9061370b565b60405180910390fd5b612a1d81612e31565b50565b600160009054906101000a900473ffffffffffffffffffffffffffffffffffffffff1681565b600073ffffffffffffffffffffffffffffffffffffffff16612a66612e29565b73ffffffffffffffffffffffffffffffffffffffff1614158015612ada575060086000612a91612e29565b73ffffffffffffffffffffffffffffffffffffffff1673ffffffffffffffffffffffffffffffffffffffff16815260200190815260200160002060009054906101000a900460ff165b612b19576040517f08c379a0000000000000000000000000000000000000000000000000000000008152600401612b10906138eb565b60405180910390fd5b6000600b60008473ffffffffffffffffffffffffffffffffffffffff1673ffffffffffffffffffffffffffffffffffffffff168152602001908152602001600020600083815260200190815260200160002090508060030160009054906101000a900460ff1615612bbf576040517f08c379a0000000000000000000000000000000000000000000000000000000008152600401612bb69061376b565b60405180910390fd5b600081600101548260000154612bd59190613b9d565b90506000811415612c1b576040517f08c379a0000000000000000000000000000000000000000000000000000000008152600401612c129061392b565b60405180910390fd5b6000826000018190555080600d6000600160009054906101000a900473ffffffffffffffffffffffffffffffffffffffff1673ffffffffffffffffffffffffffffffffffffffff1673ffffffffffffffffffffffffffffffffffffffff16815260200190815260200160002054612c929190613b9d565b600d6000600160009054906101000a900473ffffffffffffffffffffffffffffffffffffffff1673ffffffffffffffffffffffffffffffffffffffff1673ffffffffffffffffffffffffffffffffffffffff16815260200190815260200160002081905550600160009054906101000a900473ffffffffffffffffffffffffffffffffffffffff1673ffffffffffffffffffffffffffffffffffffffff1663a9059cbb612d3d6125a7565b836040518363ffffffff1660e01b8152600401612d5b92919061364c565b602060405180830381600087803b158015612d7557600080fd5b505af1158015612d89573d6000803e3d6000fd5b505050506040513d601f19601f82011682018060405250810190612dad91906131e0565b612dec576040517f08c379a0000000000000000000000000000000000000000000000000000000008152600401612de39061384b565b60405180910390fd5b7f398bd6b21ae4164ec322fb0eb8c2eb6277f36fd41903fbbed594dfe12559128184604051612e1b9190613631565b60405180910390a150505050565b600033905090565b60008060009054906101000a900473ffffffffffffffffffffffffffffffffffffffff169050816000806101000a81548173ffffffffffffffffffffffffffffffffffffffff021916908373ffffffffffffffffffffffffffffffffffffffff1602179055508173ffffffffffffffffffffffffffffffffffffffff168173ffffffffffffffffffffffffffffffffffffffff167f8be0079c531659141344cd1fd0a4f28419497f9722a3daafe3b4186f6b6457e060405160405180910390a35050565b600081359050612f0481614298565b92915050565b60008083601f840112612f2057612f1f613d2a565b5b8235905067ffffffffffffffff811115612f3d57612f3c613d25565b5b602083019150836020820283011115612f5957612f58613d2f565b5b9250929050565b60008083601f840112612f7657612f75613d2a565b5b8235905067ffffffffffffffff811115612f9357612f92613d25565b5b602083019150836020820283011115612faf57612fae613d2f565b5b9250929050565b600081359050612fc5816142af565b92915050565b600081519050612fda816142af565b92915050565b600081359050612fef816142c6565b92915050565b600081519050613004816142c6565b92915050565b6000602082840312156130205761301f613d39565b5b600061302e84828501612ef5565b91505092915050565b6000806040838503121561304e5761304d613d39565b5b600061305c85828601612ef5565b925050602061306d85828601612fe0565b9150509250929050565b6000806000606084860312156130905761308f613d39565b5b600061309e86828701612ef5565b93505060206130af86828701612fe0565b92505060406130c086828701612fb6565b9150509250925092565b600080600080604085870312156130e4576130e3613d39565b5b600085013567ffffffffffffffff81111561310257613101613d34565b5b61310e87828801612f0a565b9450945050602085013567ffffffffffffffff81111561313157613130613d34565b5b61313d87828801612f60565b925092505092959194509250565b60008060008060006060868803121561316757613166613d39565b5b600086013567ffffffffffffffff81111561318557613184613d34565b5b61319188828901612f0a565b9550955050602086013567ffffffffffffffff8111156131b4576131b3613d34565b5b6131c088828901612f60565b935093505060406131d388828901612fb6565b9150509295509295909350565b6000602082840312156131f6576131f5613d39565b5b600061320484828501612fcb565b91505092915050565b60006020828403121561322357613222613d39565b5b600061323184828501612fe0565b91505092915050565b6000602082840312156132505761324f613d39565b5b600061325e84828501612ff5565b91505092915050565b61327081613bd1565b82525050565b61327f81613be3565b82525050565b61328e81613c19565b82525050565b60006132a1602983613aab565b91506132ac82613d3e565b604082019050919050565b60006132c4601783613aab565b91506132cf82613d8d565b602082019050919050565b60006132e7601d83613aab565b91506132f282613db6565b602082019050919050565b600061330a602683613aab565b915061331582613ddf565b604082019050919050565b600061332d601883613aab565b915061333882613e2e565b602082019050919050565b6000613350601f83613aab565b915061335b82613e57565b602082019050919050565b6000613373601983613aab565b915061337e82613e80565b602082019050919050565b6000613396600c83613aab565b91506133a182613ea9565b602082019050919050565b60006133b9603383613aab565b91506133c482613ed2565b604082019050919050565b60006133dc602183613aab565b91506133e782613f21565b604082019050919050565b60006133ff601983613aab565b915061340a82613f70565b602082019050919050565b6000613422601e83613aab565b915061342d82613f99565b602082019050919050565b6000613445601d83613aab565b915061345082613fc2565b602082019050919050565b6000613468601883613aab565b915061347382613feb565b602082019050919050565b600061348b601f83613aab565b915061349682614014565b602082019050919050565b60006134ae601983613aab565b91506134b98261403d565b602082019050919050565b60006134d1602083613aab565b91506134dc82614066565b602082019050919050565b60006134f4602683613aab565b91506134ff8261408f565b604082019050919050565b6000613517601783613aab565b9150613522826140de565b602082019050919050565b600061353a605483613aab565b915061354582614107565b606082019050919050565b600061355d601e83613aab565b91506135688261417c565b602082019050919050565b6000613580602883613aab565b915061358b826141a5565b604082019050919050565b60006135a3601a83613aab565b91506135ae826141f4565b602082019050919050565b60006135c6601683613aab565b91506135d18261421d565b602082019050919050565b60006135e9601a83613aab565b91506135f482614246565b602082019050919050565b600061360c601983613aab565b91506136178261426f565b602082019050919050565b61362b81613c0f565b82525050565b60006020820190506136466000830184613267565b92915050565b60006040820190506136616000830185613267565b61366e6020830184613622565b9392505050565b600060208201905061368a6000830184613276565b92915050565b60006020820190506136a56000830184613285565b92915050565b600060208201905081810360008301526136c481613294565b9050919050565b600060208201905081810360008301526136e4816132b7565b9050919050565b60006020820190508181036000830152613704816132da565b9050919050565b60006020820190508181036000830152613724816132fd565b9050919050565b6000602082019050818103600083015261374481613320565b9050919050565b6000602082019050818103600083015261376481613343565b9050919050565b6000602082019050818103600083015261378481613366565b9050919050565b600060208201905081810360008301526137a481613389565b9050919050565b600060208201905081810360008301526137c4816133ac565b9050919050565b600060208201905081810360008301526137e4816133cf565b9050919050565b60006020820190508181036000830152613804816133f2565b9050919050565b6000602082019050818103600083015261382481613415565b9050919050565b6000602082019050818103600083015261384481613438565b9050919050565b600060208201905081810360008301526138648161345b565b9050919050565b600060208201905081810360008301526138848161347e565b9050919050565b600060208201905081810360008301526138a4816134a1565b9050919050565b600060208201905081810360008301526138c4816134c4565b9050919050565b600060208201905081810360008301526138e4816134e7565b9050919050565b600060208201905081810360008301526139048161350a565b9050919050565b600060208201905081810360008301526139248161352d565b9050919050565b6000602082019050818103600083015261394481613550565b9050919050565b6000602082019050818103600083015261396481613573565b9050919050565b6000602082019050818103600083015261398481613596565b9050919050565b600060208201905081810360008301526139a4816135b9565b9050919050565b600060208201905081810360008301526139c4816135dc565b9050919050565b600060208201905081810360008301526139e4816135ff565b9050919050565b6000602082019050613a006000830184613622565b92915050565b6000604082019050613a1b6000830185613622565b613a286020830184613276565b9392505050565b6000606082019050613a446000830186613622565b613a516020830185613622565b613a5e6040830184613276565b949350505050565b6000608082019050613a7b6000830187613622565b613a886020830186613622565b613a956040830185613622565b613aa26060830184613276565b95945050505050565b600082825260208201905092915050565b6000613ac782613c0f565b9150613ad283613c0f565b9250827fffffffffffffffffffffffffffffffffffffffffffffffffffffffffffffffff03821115613b0757613b06613c98565b5b828201905092915050565b6000613b1d82613c0f565b9150613b2883613c0f565b925082613b3857613b37613cc7565b5b828204905092915050565b6000613b4e82613c0f565b9150613b5983613c0f565b9250817fffffffffffffffffffffffffffffffffffffffffffffffffffffffffffffffff0483118215151615613b9257613b91613c98565b5b828202905092915050565b6000613ba882613c0f565b9150613bb383613c0f565b925082821015613bc657613bc5613c98565b5b828203905092915050565b6000613bdc82613bef565b9050919050565b60008115159050919050565b600073ffffffffffffffffffffffffffffffffffffffff82169050919050565b6000819050919050565b6000613c2482613c2b565b9050919050565b6000613c3682613c3d565b9050919050565b6000613c4882613bef565b9050919050565b6000613c5a82613c0f565b91507fffffffffffffffffffffffffffffffffffffffffffffffffffffffffffffffff821415613c8d57613c8c613c98565b5b600182019050919050565b7f4e487b7100000000000000000000000000000000000000000000000000000000600052601160045260246000fd5b7f4e487b7100000000000000000000000000000000000000000000000000000000600052601260045260246000fd5b7f4e487b7100000000000000000000000000000000000000000000000000000000600052603260045260246000fd5b600080fd5b600080fd5b600080fd5b600080fd5b600080fd5b7f54686973206164647265737320697320616c726561647920616464656420617360008201527f20616e2061646d696e0000000000000000000000000000000000000000000000602082015250565b7f56657374696e673a2043616e2774207769746864726177000000000000000000600082015250565b7f6f776e657227732062616c616e6365206973206e6f7420656e6f756768000000600082015250565b7f4f776e61626c653a206e6577206f776e657220697320746865207a65726f206160008201527f6464726573730000000000000000000000000000000000000000000000000000602082015250565b7f56657374696e673a207769746864726177206661696c65640000000000000000600082015250565b7f56657374696e673a20696e76616c69642076657374696e6720706172616d7300600082015250565b7f56657374696e673a204163636f756e7420697320666978656400000000000000600082015250565b7f5a65726f20616464726573730000000000000000000000000000000000000000600082015250565b7f4c6f636b20706572696f6420456e6420616e6420416c6c206c6f636b6564207460008201527f6f6b656e73207765726520756e6c6f636b656400000000000000000000000000602082015250565b7f74686973206163636f756e742068617320616c7265616479207363686564756c60008201527f6500000000000000000000000000000000000000000000000000000000000000602082015250565b7f496e76616c69642077686974656c697374206d656d6265722100000000000000600082015250565b7f546965723a20696e646578206f66207469657220697320696e76616c69640000600082015250565b7f56657374696e673a204172726179206c656e6774687320646966666572000000600082015250565b7f56657374696e673a207472616e73666572206661696c65640000000000000000600082015250565b7f56657374696e673a20756e6c6f636b54696d65206e6f74207265616368656400600082015250565b7f546965723a20696e76616c6964207469657220706172616d7300000000000000600082015250565b7f4f776e61626c653a2063616c6c6572206973206e6f7420746865206f776e6572600082015250565b7f596f752063616e27742072756e20756e6c6f636b546f6b656e2066756e63746960008201527f6f6e206e6f770000000000000000000000000000000000000000000000000000602082015250565b7f43616c6c6572206973206e6f74207468652061646d696e000000000000000000600082015250565b7f596f75206e65656420746f206465706f7369742032353030303030204353504460008201527f7320696e746f207468697320636f6e7472616374206265666f726520796f752060208201527f7374617274207468697320636f6e74726163742e000000000000000000000000604082015250565b7f56657374696e673a206e6f206f75747374616e64696e6720746f6b656e730000600082015250565b7f416c726561647920756e6c6f636b656420746f6b656e73206f6620746869732060008201527f7363686564756c65000000000000000000000000000000000000000000000000602082015250565b7f56657374696e673a204e6f7420656e6f75676820746f6b656e73000000000000600082015250565b7f56657374696e673a206e6f7420636c61696d61626c6500000000000000000000600082015250565b7f546965723a204172726179206c656e6774687320646966666572000000000000600082015250565b7f546869732061646472657373206973206e6f742061646d696e00000000000000600082015250565b6142a181613bd1565b81146142ac57600080fd5b50565b6142b881613be3565b81146142c357600080fd5b50565b6142cf81613c0f565b81146142da57600080fd5b5056fea264697066735822122028319532206b378c95186554b19915f2f273df486781d7b57c7f72047cf2260d64736f6c63430008070033",
  "immutableReferences": {},
  "source": "// SPDX-License-Identifier: GPL-3.0-only\r\npragma solidity 0.8.7;\r\n\r\nimport \"@openzeppelin/contracts/token/ERC20/IERC20.sol\";\r\nimport \"@openzeppelin/contracts/access/Ownable.sol\";\r\n\r\ninterface IBEP20 {\r\n    \r\n  /**\r\n   * @dev Returns the amount of tokens in existence.\r\n   */\r\n  function totalSupply() external view returns (uint256);\r\n\r\n  /**\r\n   * @dev Returns the token decimals.\r\n   */\r\n  function decimals() external view returns (uint8);\r\n\r\n  /**\r\n   * @dev Returns the token symbol.\r\n   */\r\n  function symbol() external view returns (string memory);\r\n\r\n  /**\r\n  * @dev Returns the token name.\r\n  */\r\n  function name() external view returns (string memory);\r\n\r\n  /**\r\n   * @dev Returns the bep token owner.\r\n   */\r\n  function getOwner() external view returns (address);\r\n\r\n  /**\r\n   * @dev Returns the amount of tokens owned by `account`.\r\n   */\r\n  function balanceOf(address account) external view returns (uint256);\r\n\r\n  /**\r\n   * @dev Moves `amount` tokens from the caller's account to `recipient`.\r\n   *\r\n   * Returns a boolean value indicating whether the operation succeeded.\r\n   *\r\n   * Emits a {Transfer} event.\r\n   */\r\n  function transfer(address recipient, uint256 amount) external returns (bool);\r\n\r\n  /**\r\n   * @dev Returns the remaining number of tokens that `spender` will be\r\n   * allowed to spend on behalf of `owner` through {transferFrom}. This is\r\n   * zero by default.\r\n   *\r\n   * This value changes when {approve} or {transferFrom} are called.\r\n   */\r\n  function allowance(address _owner, address spender) external view returns (uint256);\r\n\r\n  /**\r\n   * @dev Sets `amount` as the allowance of `spender` over the caller's tokens.\r\n   *\r\n   * Returns a boolean value indicating whether the operation succeeded.\r\n   *\r\n   * IMPORTANT: Beware that changing an allowance with this method brings the risk\r\n   * that someone may use both the old and the new allowance by unfortunate\r\n   * transaction ordering. One possible solution to mitigate this race\r\n   * condition is to first reduce the spender's allowance to 0 and set the\r\n   * desired value afterwards:\r\n   * https://github.com/ethereum/EIPs/issues/20#issuecomment-263524729\r\n   *\r\n   * Emits an {Approval} event.\r\n   */\r\n  function approve(address spender, uint256 amount) external returns (bool);\r\n\r\n  /**\r\n   * @dev Moves `amount` tokens from `sender` to `recipient` using the\r\n   * allowance mechanism. `amount` is then deducted from the caller's\r\n   * allowance.\r\n   *\r\n   * Returns a boolean value indicating whether the operation succeeded.\r\n   *\r\n   * Emits a {Transfer} event.\r\n   */\r\n  function transferFrom(address sender, address recipient, uint256 amount) external returns (bool);\r\n\r\n  /**\r\n   * @dev Emitted when `value` tokens are moved from one account (`from`) to\r\n   * another (`to`).\r\n   *\r\n   * Note that `value` may be zero.\r\n   */\r\n  event Transfer(address indexed from, address indexed to, uint256 value);\r\n\r\n  /**\r\n   * @dev Emitted when the allowance of a `spender` for an `owner` is set by\r\n   * a call to {approve}. `value` is the new allowance.\r\n   */\r\n  event Approval(address indexed owner, address indexed spender, uint256 value);\r\n  \r\n}\r\n/**\r\n * Tracer Standard Vesting Contract\r\n */\r\ncontract Vesting is Ownable {\r\n\r\n    //initialize data: token, member, vesting time\r\n    IBEP20 public token;\r\n    address[] public members;\r\n    uint256[] public amounts;\r\n    uint256[] public vestingTimeList;\r\n    uint256 releasedVestingId;\r\n    uint256 totalSoldAmount = 0;\r\n    uint256 participants;\r\n    mapping(address => bool) public admins;\r\n\r\n\r\n    //tiger of members\r\n    struct Tier {\r\n        uint256 tierId;\r\n        uint256 amountMax;\r\n    }\r\n\r\n    mapping(address => uint256) public whitelistOfTiers; //whitelist: (address => maxAmount)\r\n\r\n    struct Schedule {\r\n        uint256 amount;\r\n        uint256 claimedAmount;\r\n        uint256 unlockTime;\r\n        bool isFixed;\r\n    }\r\n\r\n    struct Plain {\r\n        uint256 percentage;\r\n        uint256 unlockTime;\r\n        bool isSent;\r\n    }\r\n    Plain[] public schedulePlain; // array of plains\r\n\r\n    // user => scheduleId => schedule\r\n    mapping(address => mapping(uint256 => Schedule)) public schedules;\r\n    mapping(address => uint256) public numberOfSchedules; //number of the schedule by address\r\n    mapping(address => uint256) public locked; //locked amount mapping by address\r\n\r\n    event Claim(address indexed claimer, uint256 amount);\r\n    event Cancelled(address account);\r\n    event NewVesting(address indexed investor, uint256 amount, bool isFixed);\r\n    event AddNewAdmin(address _address);\r\n    event RemoveAdminAddress(address _address);\r\n    event UnlockTokens(uint256 _timestamp);\r\n\r\n    modifier onlyAdmin() {\r\n        require(_msgSender() != address(0x0) && admins[_msgSender()], \"Caller is not the admin\");\r\n        _;\r\n    }\r\n\r\n    modifier checkWhitelist(address account, uint256 amount) {\r\n        uint256 maxAmount = whitelistOfTiers[account];\r\n        require(maxAmount != 0 && maxAmount >= amount * 10 ** 18, \"Invalid whitelist member!\");\r\n        _;\r\n    }\r\n\r\n    constructor(address _token) {\r\n        require(_token != address(0x0));\r\n        token = IBEP20(_token); // token address\r\n\r\n        uint256 _preSaleAmount = 50000000 * 10 ** 18; //CSPD amount for presale\r\n        require(IBEP20(_token).balanceOf(owner()) >= _preSaleAmount, \"owner's balance is not enough\");\r\n        participants = 0;\r\n        // IBEP20(_token).transfer(address(this), _preSaleAmount);\r\n\r\n        admins[owner()] = true;  // add owner to admin role\r\n        releasedVestingId = 0;   // set the initial releasedVestingId\r\n\r\n        //addresses for public sale\r\n        members.push(address(0x5B38Da6a701c568545dCfcB03FcB875f56beddC4));\r\n        members.push(address(0x026116102Ae7e558Cd436325158d54020EFCf0eF));\r\n        members.push(address(0x4B674Da5E20067B8213263720d958B5e7AbD7d8c));\r\n        members.push(address(0xD157D2Ff5393c509777765Cf612284d53d38dE30));\r\n        members.push(address(0xFcf2668C4EC68D2bbd36a476e30227744A0f5EB8));\r\n        members.push(address(0x3719D24Fa12f32877f894c6F51FeECF91F16b44f));\r\n        members.push(address(0xc0eaA0018b1192dE0c8ca46E57B84Ee907e01baC));\r\n        members.push(address(0xc50dD8028B1C6914B67F4657F0155e5D2cE1E226));\r\n        members.push(address(0x5B588e36FF358D4376A76FB163fd69Da02A2A9a5));\r\n        members.push(address(0xA5664dC01BB8369EDc6116d3B267d6014681dD2F));\r\n\r\n        //amount for public sale\r\n        amounts.push(5000000);\r\n        amounts.push(5000000);\r\n        amounts.push(5000000);\r\n        amounts.push(5000000);\r\n        amounts.push(5000000);\r\n        amounts.push(5000000);\r\n        amounts.push(5000000);\r\n        amounts.push(5000000);\r\n        amounts.push(5000000);\r\n        amounts.push(5000000);\r\n\r\n        // add schedule time\r\n        vestingTimeList.push(1539083600); // 2021-12-10 00:00:00\r\n        vestingTimeList.push(1539083900); // 2021-12-10 00:00:00\r\n        // vestingTimeList.push(1639083600); // 2021-12-10 00:00:00\r\n        // vestingTimeList.push(1641762000); // 2022-01-10 00:00:00\r\n        vestingTimeList.push(1644440400); // 2022-02-10 00:00:00\r\n        vestingTimeList.push(1646859600); // 2022-03-10 00:00:00\r\n        vestingTimeList.push(1649538000); // 2022-04-10 00:00:00\r\n        vestingTimeList.push(1652130000); // 2022-05-10 00:00:00\r\n\r\n        //set the schedule plain\r\n        for(uint256 i = 0; i < vestingTimeList.length; i++){\r\n            if(i == 0) { // after TGE \r\n                schedulePlain.push(Plain(\r\n                    5, //%\r\n                    vestingTimeList[i],\r\n                    false\r\n                ));\r\n            }else { // next steps\r\n                schedulePlain.push(Plain(\r\n                    19, //%\r\n                    vestingTimeList[i],\r\n                    false\r\n                ));\r\n            }\r\n        }\r\n        //initial kWhitelist\r\n        for(uint256 i = 0; i < members.length; i++){\r\n            whitelistOfTiers[members[i]] = 5000000 * 10 ** 18;\r\n        }\r\n    }\r\n\r\n    function tokenSupply(uint256 totalAmount) external payable onlyOwner {\r\n        uint256 _preSaleAmount = totalAmount * 10 ** 18; //CSPD amount for presale 50000000\r\n        require(IBEP20(token).balanceOf(owner()) >= _preSaleAmount, \"owner's balance is not enough\");\r\n        token.transfer(address(this), _preSaleAmount);\r\n    }\r\n\r\n    function addAdmin(address _address) external onlyOwner {\r\n        require(_address != address(0x0), \"Zero address\");\r\n        require(!admins[_address], \"This address is already added as an admin\");\r\n        admins[_address] = true;\r\n        emit AddNewAdmin(_address);\r\n    }\r\n\r\n    function removeAdmin(address _address) external onlyOwner {\r\n        require(_address != address(0x0), \"Zero address\");\r\n        require(admins[_address], \"This address is not admin\");\r\n        admins[_address] = false;\r\n        emit RemoveAdminAddress(_address);\r\n    }\r\n\r\n    function getTotalSoldAmount() external view returns(uint256) {\r\n        return totalSoldAmount;\r\n    }\r\n\r\n    function getParticipants() external view returns(uint256) {\r\n        return participants;\r\n    }\r\n    /**\r\n     * @notice Sets up a vesting schedule for a set user.\r\n     * @dev adds a new Schedule to the schedules mapping.\r\n     * @param account the account that a vesting schedule is being set up for. Will be able to claim tokens after\r\n     *                the cliff period.\r\n     * @param amount the amount of tokens being vested for the user.\r\n     * @param isFixed a flag for if the vesting schedule is fixed or not. Fixed vesting schedules can't be cancelled.\r\n     */\r\n    function addVest(\r\n        address account,\r\n        uint256 amount,\r\n        bool isFixed\r\n    ) public onlyAdmin checkWhitelist(account, amount) {\r\n        // check amount\r\n        require(amount > 0, \"Vesting: invalid vesting params\");\r\n\r\n        uint256 currentLocked = locked[address(token)];\r\n\r\n        // require the token is present\r\n        require(IBEP20(token).balanceOf(address(this)) >= currentLocked + amount * 10 ** 18, \"Vesting: Not enough tokens\");\r\n\r\n        // create the schedule\r\n        uint256 currentNumSchedules = numberOfSchedules[account];\r\n        require(currentNumSchedules == 0, \"this account has already schedule\");\r\n        \r\n        for(uint256 i = 0; i < schedulePlain.length; i++){\r\n            uint256 _amount = amount * 10 ** 18 * schedulePlain[i].percentage / 100;\r\n            uint256 _unlockTime = schedulePlain[i].unlockTime;\r\n\r\n            schedules[account][i] = Schedule(\r\n                _amount,\r\n                0,\r\n                _unlockTime,\r\n                isFixed\r\n            );\r\n\r\n            numberOfSchedules[account] = i + 1;\r\n            locked[address(token)] = currentLocked + amount * 10 ** 18;\r\n            totalSoldAmount += _amount;\r\n        }\r\n        members.push(account);\r\n        participants ++;\r\n        emit NewVesting(account, amount, isFixed);\r\n    }\r\n\r\n    /**\r\n     * @notice Sets up vesting schedules for multiple users within 1 transaction.\r\n     * @dev adds a new Schedule to the schedules mapping.\r\n     * @param accounts an array of the accounts that the vesting schedules are being set up for.\r\n     *                 Will be able to claim tokens after the cliff period.\r\n     * @param amount an array of the amount of tokens being vested for each user.\r\n     * @param isFixed bool setting if these vesting schedules can be rugged or not.\r\n     */\r\n    function addMultiVest(\r\n        address[] calldata accounts,\r\n        uint256[] calldata amount,\r\n        bool isFixed\r\n    ) external onlyAdmin {\r\n        uint256 numberOfAccounts = accounts.length;\r\n        require(\r\n            amount.length == numberOfAccounts,\r\n            \"Vesting: Array lengths differ\"\r\n        );\r\n        for (uint256 i = 0; i < numberOfAccounts; i++) {\r\n            addVest(\r\n                accounts[i],\r\n                amount[i],\r\n                isFixed\r\n            );\r\n        }\r\n    }\r\n\r\n    /**\r\n     * @notice allows users to claim vested tokens if the cliff time has passed.\r\n     * @param scheduleNumber which schedule the user is claiming against\r\n     */\r\n    function claim(uint256 scheduleNumber) external {\r\n        Schedule storage schedule = schedules[msg.sender][scheduleNumber];\r\n        require(\r\n            schedule.unlockTime <= block.timestamp,\r\n            \"Vesting: unlockTime not reached\"\r\n        );\r\n        require(schedule.amount > 0, \"Vesting: not claimable\");\r\n\r\n        uint256 amountToTransfer = schedule.amount - schedule.claimedAmount;\r\n        schedule.claimedAmount = schedule.amount; // set new claimed amount based off the curve\r\n        locked[address(token)] = locked[address(token)] - amountToTransfer;\r\n        require(IBEP20(token).transfer(msg.sender, amountToTransfer), \"Vesting: transfer failed\");\r\n        emit Claim(msg.sender, schedule.amount);\r\n    }\r\n\r\n    /**\r\n     * @notice Allows a vesting schedule to be cancelled.\r\n     * @dev Any outstanding tokens are returned to the system.\r\n     * @param account the account of the user whos vesting schedule is being cancelled.\r\n     */\r\n    function rug(address account, uint256 scheduleId) external onlyAdmin {\r\n        Schedule storage schedule = schedules[account][scheduleId];\r\n        require(!schedule.isFixed, \"Vesting: Account is fixed\");\r\n        uint256 outstandingAmount = schedule.amount -\r\n            schedule.claimedAmount;\r\n        require(outstandingAmount != 0, \"Vesting: no outstanding tokens\");\r\n        schedule.amount = 0;\r\n        locked[address(token)] = locked[address(token)] - outstandingAmount;\r\n        require(IBEP20(token).transfer(owner(), outstandingAmount), \"Vesting: transfer failed\");\r\n        emit Cancelled(account);\r\n    }\r\n\r\n    /**\r\n     * @return calculates the amount of tokens to distribute to an account at any instance in time, based off some\r\n     *         total claimable amount.\r\n     * @param amount the total outstanding amount to be claimed for this vesting schedule.\r\n     * @param currentTime the current timestamp.\r\n     * @param startTime the timestamp this vesting schedule started.\r\n     * @param endTime the timestamp this vesting schedule ends.\r\n     */\r\n    \r\n    /**\r\n     * @notice Withdraws CSPD tokens from the contract.\r\n     * @dev blocks withdrawing locked tokens.\r\n     */\r\n    function withdraw(uint256 amount) external onlyAdmin {\r\n        amount = amount * 10 ** 18;\r\n        require(\r\n            token.balanceOf(address(this)) - locked[address(token)] >= amount,\r\n            \"Vesting: Can't withdraw\"\r\n        );\r\n        require(token.transfer(owner(), amount), \"Vesting: withdraw failed\");\r\n    }\r\n\r\n    function multiSetTierOfAccount(\r\n        address[] calldata accounts,\r\n        uint256[] calldata _maxAmount\r\n    ) external onlyAdmin {\r\n        uint256 _numberOfAccounts = accounts.length;\r\n        require( _maxAmount.length == _numberOfAccounts, \"Tier: Array lengths differ\");\r\n\r\n        for (uint256 i = 0; i < _numberOfAccounts; i++) {\r\n            require( accounts[i] != address(0x0) && _maxAmount[i] > 0, \"Tier: invalid tier params\");\r\n            whitelistOfTiers[accounts[i]] = _maxAmount[i] * 10 ** 18;\r\n        }\r\n    }\r\n\r\n    function setTierOfAccount(\r\n        address account,\r\n        uint256 _maxAmount\r\n    ) external onlyAdmin {\r\n        require(_maxAmount > 0, \"Tier: index of tier is invalid\");\r\n        whitelistOfTiers[account] = _maxAmount * 10 ** 18;\r\n    }\r\n\r\n    function getTierOfAccount(\r\n        address account\r\n    ) public view returns (uint256){\r\n        return whitelistOfTiers[account];\r\n    }\r\n\r\n    function unlockToken() external onlyAdmin {\r\n        uint256 currentTime = block.timestamp;\r\n        uint256 startTime = schedulePlain[releasedVestingId].unlockTime;\r\n        require(currentTime >= startTime, \"You can't run unlockToken function now\");\r\n        require(releasedVestingId < 6, \"Lock period End and All locked tokens were unlocked\");\r\n        require(!schedulePlain[releasedVestingId].isSent, \"Already unlocked tokens of this schedule\");\r\n\r\n        if (releasedVestingId == 0) {\r\n            require(token.balanceOf(address(this)) >= 2500000, \"You need to deposit 2500000 CSPDs into this contract before you start this contract.\");\r\n        }\r\n        for (uint256 i = 0; i < members.length; i++) {\r\n            Schedule memory _schedule = schedules[members[i]][releasedVestingId];\r\n            if (_schedule.amount != _schedule.claimedAmount) {\r\n                uint256 transferAmount = _schedule.amount - _schedule.claimedAmount;\r\n                require(token.transfer(members[i], transferAmount));\r\n                locked[address(token)] -= transferAmount;\r\n                schedules[members[i]][releasedVestingId].claimedAmount += transferAmount;\r\n            }\r\n        }\r\n        emit UnlockTokens(vestingTimeList[releasedVestingId]);\r\n        schedulePlain[releasedVestingId].isSent = true;\r\n        releasedVestingId = releasedVestingId + 1;\r\n    }\r\n}",
  "sourcePath": "D:\\Work Space\\CasperPad\\CasperPadToken_Contract\\contracts\\Vesting.sol",
  "compiler": {
    "name": "solc",
    "version": "0.8.7+commit.e28d00a7.Emscripten.clang"
  },
  "schemaVersion": "3.4.3",
  "updatedAt": "2021-12-04T16:12:33.138Z",
  "networkType": "ethereum",
  "devdoc": {
    "kind": "dev",
    "methods": {
      "addMultiVest(address[],uint256[],bool)": {
        "details": "adds a new Schedule to the schedules mapping.",
        "params": {
          "accounts": "an array of the accounts that the vesting schedules are being set up for.                 Will be able to claim tokens after the cliff period.",
          "amount": "an array of the amount of tokens being vested for each user.",
          "isFixed": "bool setting if these vesting schedules can be rugged or not."
        }
      },
      "addVest(address,uint256,bool)": {
        "details": "adds a new Schedule to the schedules mapping.",
        "params": {
          "account": "the account that a vesting schedule is being set up for. Will be able to claim tokens after                the cliff period.",
          "amount": "the amount of tokens being vested for the user.",
          "isFixed": "a flag for if the vesting schedule is fixed or not. Fixed vesting schedules can't be cancelled."
        }
      },
      "claim(uint256)": {
        "params": {
          "scheduleNumber": "which schedule the user is claiming against"
        }
      },
      "owner()": {
        "details": "Returns the address of the current owner."
      },
      "renounceOwnership()": {
        "details": "Leaves the contract without owner. It will not be possible to call `onlyOwner` functions anymore. Can only be called by the current owner. NOTE: Renouncing ownership will leave the contract without an owner, thereby removing any functionality that is only available to the owner."
      },
      "rug(address,uint256)": {
        "details": "Any outstanding tokens are returned to the system.",
        "params": {
          "account": "the account of the user whos vesting schedule is being cancelled."
        }
      },
      "transferOwnership(address)": {
        "details": "Transfers ownership of the contract to a new account (`newOwner`). Can only be called by the current owner."
      },
      "withdraw(uint256)": {
        "details": "blocks withdrawing locked tokens."
      }
    },
    "version": 1
  },
  "userdoc": {
    "kind": "user",
    "methods": {
      "addMultiVest(address[],uint256[],bool)": {
        "notice": "Sets up vesting schedules for multiple users within 1 transaction."
      },
      "addVest(address,uint256,bool)": {
        "notice": "Sets up a vesting schedule for a set user."
      },
      "claim(uint256)": {
        "notice": "allows users to claim vested tokens if the cliff time has passed."
      },
      "rug(address,uint256)": {
        "notice": "Allows a vesting schedule to be cancelled."
      },
      "withdraw(uint256)": {
        "notice": "Withdraws CSPD tokens from the contract."
      }
    },
    "notice": "Tracer Standard Vesting Contract",
    "version": 1
  }
}