{
  "contractName": "Vesting",
  "abi": [
    {
      "inputs": [
        {
          "internalType": "address",
          "name": "_token",
          "type": "address"
        }
      ],
      "stateMutability": "nonpayable",
      "type": "constructor"
    },
    {
      "anonymous": false,
      "inputs": [
        {
          "indexed": false,
          "internalType": "address",
          "name": "_address",
          "type": "address"
        }
      ],
      "name": "AddNewAdmin",
      "type": "event"
    },
    {
      "anonymous": false,
      "inputs": [
        {
          "indexed": false,
          "internalType": "address",
          "name": "account",
          "type": "address"
        }
      ],
      "name": "Cancelled",
      "type": "event"
    },
    {
      "anonymous": false,
      "inputs": [
        {
          "indexed": true,
          "internalType": "address",
          "name": "claimer",
          "type": "address"
        },
        {
          "indexed": false,
          "internalType": "uint256",
          "name": "amount",
          "type": "uint256"
        }
      ],
      "name": "Claim",
      "type": "event"
    },
    {
      "anonymous": false,
      "inputs": [
        {
          "indexed": true,
          "internalType": "address",
          "name": "investor",
          "type": "address"
        },
        {
          "indexed": false,
          "internalType": "uint256",
          "name": "amount",
          "type": "uint256"
        },
        {
          "indexed": false,
          "internalType": "bool",
          "name": "isFixed",
          "type": "bool"
        }
      ],
      "name": "NewVesting",
      "type": "event"
    },
    {
      "anonymous": false,
      "inputs": [
        {
          "indexed": true,
          "internalType": "address",
          "name": "previousOwner",
          "type": "address"
        },
        {
          "indexed": true,
          "internalType": "address",
          "name": "newOwner",
          "type": "address"
        }
      ],
      "name": "OwnershipTransferred",
      "type": "event"
    },
    {
      "anonymous": false,
      "inputs": [
        {
          "indexed": false,
          "internalType": "uint256",
          "name": "_timestamp",
          "type": "uint256"
        }
      ],
      "name": "UnlockTokens",
      "type": "event"
    },
    {
      "inputs": [
        {
          "internalType": "address",
          "name": "",
          "type": "address"
        }
      ],
      "name": "admins",
      "outputs": [
        {
          "internalType": "bool",
          "name": "",
          "type": "bool"
        }
      ],
      "stateMutability": "view",
      "type": "function"
    },
    {
      "inputs": [
        {
          "internalType": "uint256",
          "name": "",
          "type": "uint256"
        }
      ],
      "name": "amounts",
      "outputs": [
        {
          "internalType": "uint256",
          "name": "",
          "type": "uint256"
        }
      ],
      "stateMutability": "view",
      "type": "function"
    },
    {
      "inputs": [
        {
          "internalType": "address",
          "name": "",
          "type": "address"
        }
      ],
      "name": "locked",
      "outputs": [
        {
          "internalType": "uint256",
          "name": "",
          "type": "uint256"
        }
      ],
      "stateMutability": "view",
      "type": "function"
    },
    {
      "inputs": [
        {
          "internalType": "uint256",
          "name": "",
          "type": "uint256"
        }
      ],
      "name": "members",
      "outputs": [
        {
          "internalType": "address",
          "name": "",
          "type": "address"
        }
      ],
      "stateMutability": "view",
      "type": "function"
    },
    {
      "inputs": [
        {
          "internalType": "address",
          "name": "",
          "type": "address"
        }
      ],
      "name": "numberOfSchedules",
      "outputs": [
        {
          "internalType": "uint256",
          "name": "",
          "type": "uint256"
        }
      ],
      "stateMutability": "view",
      "type": "function"
    },
    {
      "inputs": [],
      "name": "owner",
      "outputs": [
        {
          "internalType": "address",
          "name": "",
          "type": "address"
        }
      ],
      "stateMutability": "view",
      "type": "function"
    },
    {
      "inputs": [],
      "name": "renounceOwnership",
      "outputs": [],
      "stateMutability": "nonpayable",
      "type": "function"
    },
    {
      "inputs": [
        {
          "internalType": "uint256",
          "name": "",
          "type": "uint256"
        }
      ],
      "name": "schedulePlain",
      "outputs": [
        {
          "internalType": "uint256",
          "name": "percentage",
          "type": "uint256"
        },
        {
          "internalType": "uint256",
          "name": "unlockTime",
          "type": "uint256"
        },
        {
          "internalType": "bool",
          "name": "isSent",
          "type": "bool"
        }
      ],
      "stateMutability": "view",
      "type": "function"
    },
    {
      "inputs": [
        {
          "internalType": "address",
          "name": "",
          "type": "address"
        },
        {
          "internalType": "uint256",
          "name": "",
          "type": "uint256"
        }
      ],
      "name": "schedules",
      "outputs": [
        {
          "internalType": "uint256",
          "name": "amount",
          "type": "uint256"
        },
        {
          "internalType": "uint256",
          "name": "claimedAmount",
          "type": "uint256"
        },
        {
          "internalType": "uint256",
          "name": "unlockTime",
          "type": "uint256"
        },
        {
          "internalType": "bool",
          "name": "isFixed",
          "type": "bool"
        }
      ],
      "stateMutability": "view",
      "type": "function"
    },
    {
      "inputs": [],
      "name": "token",
      "outputs": [
        {
          "internalType": "contract IBEP20",
          "name": "",
          "type": "address"
        }
      ],
      "stateMutability": "view",
      "type": "function"
    },
    {
      "inputs": [
        {
          "internalType": "address",
          "name": "newOwner",
          "type": "address"
        }
      ],
      "name": "transferOwnership",
      "outputs": [],
      "stateMutability": "nonpayable",
      "type": "function"
    },
    {
      "inputs": [
        {
          "internalType": "uint256",
          "name": "",
          "type": "uint256"
        }
      ],
      "name": "vestingTimeList",
      "outputs": [
        {
          "internalType": "uint256",
          "name": "",
          "type": "uint256"
        }
      ],
      "stateMutability": "view",
      "type": "function"
    },
    {
      "inputs": [
        {
          "internalType": "address",
          "name": "",
          "type": "address"
        }
      ],
      "name": "whitelistOfTiers",
      "outputs": [
        {
          "internalType": "uint256",
          "name": "",
          "type": "uint256"
        }
      ],
      "stateMutability": "view",
      "type": "function"
    },
    {
      "inputs": [
        {
          "internalType": "uint256",
          "name": "totalAmount",
          "type": "uint256"
        }
      ],
      "name": "totalSupply",
      "outputs": [],
      "stateMutability": "nonpayable",
      "type": "function"
    },
    {
      "inputs": [
        {
          "internalType": "address",
          "name": "_address",
          "type": "address"
        }
      ],
      "name": "addAdmin",
      "outputs": [],
      "stateMutability": "nonpayable",
      "type": "function"
    },
    {
      "inputs": [],
      "name": "getTotalSoldAmount",
      "outputs": [
        {
          "internalType": "uint256",
          "name": "",
          "type": "uint256"
        }
      ],
      "stateMutability": "nonpayable",
      "type": "function"
    },
    {
      "inputs": [
        {
          "internalType": "address",
          "name": "account",
          "type": "address"
        },
        {
          "internalType": "uint256",
          "name": "amount",
          "type": "uint256"
        },
        {
          "internalType": "bool",
          "name": "isFixed",
          "type": "bool"
        }
      ],
      "name": "addVest",
      "outputs": [],
      "stateMutability": "nonpayable",
      "type": "function"
    },
    {
      "inputs": [
        {
          "internalType": "address[]",
          "name": "accounts",
          "type": "address[]"
        },
        {
          "internalType": "uint256[]",
          "name": "amount",
          "type": "uint256[]"
        },
        {
          "internalType": "bool",
          "name": "isFixed",
          "type": "bool"
        }
      ],
      "name": "addMultiVest",
      "outputs": [],
      "stateMutability": "nonpayable",
      "type": "function"
    },
    {
      "inputs": [
        {
          "internalType": "uint256",
          "name": "scheduleNumber",
          "type": "uint256"
        }
      ],
      "name": "claim",
      "outputs": [],
      "stateMutability": "nonpayable",
      "type": "function"
    },
    {
      "inputs": [
        {
          "internalType": "address",
          "name": "account",
          "type": "address"
        },
        {
          "internalType": "uint256",
          "name": "scheduleId",
          "type": "uint256"
        }
      ],
      "name": "rug",
      "outputs": [],
      "stateMutability": "nonpayable",
      "type": "function"
    },
    {
      "inputs": [
        {
          "internalType": "uint256",
          "name": "amount",
          "type": "uint256"
        }
      ],
      "name": "withdraw",
      "outputs": [],
      "stateMutability": "nonpayable",
      "type": "function"
    },
    {
      "inputs": [
        {
          "internalType": "address[]",
          "name": "accounts",
          "type": "address[]"
        },
        {
          "internalType": "uint256[]",
          "name": "_maxAmount",
          "type": "uint256[]"
        }
      ],
      "name": "multiSetTierOfAccount",
      "outputs": [],
      "stateMutability": "nonpayable",
      "type": "function"
    },
    {
      "inputs": [
        {
          "internalType": "address",
          "name": "account",
          "type": "address"
        },
        {
          "internalType": "uint256",
          "name": "_maxAmount",
          "type": "uint256"
        }
      ],
      "name": "setTierOfAccount",
      "outputs": [],
      "stateMutability": "nonpayable",
      "type": "function"
    },
    {
      "inputs": [
        {
          "internalType": "address",
          "name": "account",
          "type": "address"
        }
      ],
      "name": "getTierOfAccount",
      "outputs": [
        {
          "internalType": "uint256",
          "name": "",
          "type": "uint256"
        }
      ],
      "stateMutability": "view",
      "type": "function"
    },
    {
      "inputs": [],
      "name": "unlockToken",
      "outputs": [],
      "stateMutability": "nonpayable",
      "type": "function"
    }
  ],
  "bytecode": "0x608060405260006006553480156200001657600080fd5b5060405162004c7e38038062004c7e83398181016040528101906200003c919062000cfc565b6200005c6200005062000bd960201b60201c565b62000be160201b60201c565b600073ffffffffffffffffffffffffffffffffffffffff168173ffffffffffffffffffffffffffffffffffffffff1614156200009757600080fd5b80600160006101000a81548173ffffffffffffffffffffffffffffffffffffffff021916908373ffffffffffffffffffffffffffffffffffffffff16021790555060006a295be96e640669720000009050808273ffffffffffffffffffffffffffffffffffffffff166370a082316200011562000ca560201b60201c565b6040518263ffffffff1660e01b815260040162000133919062000d98565b60206040518083038186803b1580156200014c57600080fd5b505afa15801562000161573d6000803e3d6000fd5b505050506040513d601f19601f8201168201806040525081019062000187919062000d2e565b1015620001cb576040517f08c379a0000000000000000000000000000000000000000000000000000000008152600401620001c29062000db5565b60405180910390fd5b600160076000620001e162000ca560201b60201c565b73ffffffffffffffffffffffffffffffffffffffff1673ffffffffffffffffffffffffffffffffffffffff16815260200190815260200160002060006101000a81548160ff02191690831515021790555060006005819055506002730c25363022587299510774e036ad0786829912569080600181540180825580915050600190039060005260206000200160009091909190916101000a81548173ffffffffffffffffffffffffffffffffffffffff021916908373ffffffffffffffffffffffffffffffffffffffff160217905550600273026116102ae7e558cd436325158d54020efcf0ef9080600181540180825580915050600190039060005260206000200160009091909190916101000a81548173ffffffffffffffffffffffffffffffffffffffff021916908373ffffffffffffffffffffffffffffffffffffffff1602179055506002734b674da5e20067b8213263720d958b5e7abd7d8c9080600181540180825580915050600190039060005260206000200160009091909190916101000a81548173ffffffffffffffffffffffffffffffffffffffff021916908373ffffffffffffffffffffffffffffffffffffffff160217905550600273d157d2ff5393c509777765cf612284d53d38de309080600181540180825580915050600190039060005260206000200160009091909190916101000a81548173ffffffffffffffffffffffffffffffffffffffff021916908373ffffffffffffffffffffffffffffffffffffffff160217905550600273fcf2668c4ec68d2bbd36a476e30227744a0f5eb89080600181540180825580915050600190039060005260206000200160009091909190916101000a81548173ffffffffffffffffffffffffffffffffffffffff021916908373ffffffffffffffffffffffffffffffffffffffff1602179055506002733719d24fa12f32877f894c6f51feecf91f16b44f9080600181540180825580915050600190039060005260206000200160009091909190916101000a81548173ffffffffffffffffffffffffffffffffffffffff021916908373ffffffffffffffffffffffffffffffffffffffff160217905550600273c0eaa0018b1192de0c8ca46e57b84ee907e01bac9080600181540180825580915050600190039060005260206000200160009091909190916101000a81548173ffffffffffffffffffffffffffffffffffffffff021916908373ffffffffffffffffffffffffffffffffffffffff160217905550600273c50dd8028b1c6914b67f4657f0155e5d2ce1e2269080600181540180825580915050600190039060005260206000200160009091909190916101000a81548173ffffffffffffffffffffffffffffffffffffffff021916908373ffffffffffffffffffffffffffffffffffffffff1602179055506002735b588e36ff358d4376a76fb163fd69da02a2a9a59080600181540180825580915050600190039060005260206000200160009091909190916101000a81548173ffffffffffffffffffffffffffffffffffffffff021916908373ffffffffffffffffffffffffffffffffffffffff160217905550600273a5664dc01bb8369edc6116d3b267d6014681dd2f9080600181540180825580915050600190039060005260206000200160009091909190916101000a81548173ffffffffffffffffffffffffffffffffffffffff021916908373ffffffffffffffffffffffffffffffffffffffff1602179055506003624c4b4090806001815401808255809150506001900390600052602060002001600090919091909150556003624c4b4090806001815401808255809150506001900390600052602060002001600090919091909150556003624c4b4090806001815401808255809150506001900390600052602060002001600090919091909150556003624c4b4090806001815401808255809150506001900390600052602060002001600090919091909150556003624c4b4090806001815401808255809150506001900390600052602060002001600090919091909150556003624c4b4090806001815401808255809150506001900390600052602060002001600090919091909150556003624c4b4090806001815401808255809150506001900390600052602060002001600090919091909150556003624c4b4090806001815401808255809150506001900390600052602060002001600090919091909150556003624c4b4090806001815401808255809150506001900390600052602060002001600090919091909150556003624c4b40908060018154018082558091505060019003906000526020600020016000909190919091505560046361b26e50908060018154018082558091505060019003906000526020600020016000909190919091505560046361db4cd0908060018154018082558091505060019003906000526020600020016000909190919091505560046362042b5090806001815401808255809150506001900390600052602060002001600090919091909150556004636229155090806001815401808255809150506001900390600052602060002001600090919091909150556004636251f3d09080600181540180825580915050600190039060005260206000200160009091909190915055600463627980d0908060018154018082558091505060019003906000526020600020016000909190919091505560005b60048054905081101562000b2057600081141562000a6857600960405180606001604052806005815260200160048481548110620009ec57620009eb62000ea3565b5b90600052602060002001548152602001600015158152509080600181540180825580915050600190039060005260206000209060030201600090919091909150600082015181600001556020820151816001015560408201518160020160006101000a81548160ff021916908315150217905550505062000b0a565b60096040518060600160405280601381526020016004848154811062000a935762000a9262000ea3565b5b90600052602060002001548152602001600015158152509080600181540180825580915050600190039060005260206000209060030201600090919091909150600082015181600001556020820151816001015560408201518160020160006101000a81548160ff02191690831515021790555050505b808062000b179062000e26565b915050620009a9565b5060005b60028054905081101562000bd057624c4b40600860006002848154811062000b515762000b5062000ea3565b5b9060005260206000200160009054906101000a900473ffffffffffffffffffffffffffffffffffffffff1673ffffffffffffffffffffffffffffffffffffffff1673ffffffffffffffffffffffffffffffffffffffff16815260200190815260200160002081905550808062000bc79062000e26565b91505062000b24565b50505062000f34565b600033905090565b60008060009054906101000a900473ffffffffffffffffffffffffffffffffffffffff169050816000806101000a81548173ffffffffffffffffffffffffffffffffffffffff021916908373ffffffffffffffffffffffffffffffffffffffff1602179055508173ffffffffffffffffffffffffffffffffffffffff168173ffffffffffffffffffffffffffffffffffffffff167f8be0079c531659141344cd1fd0a4f28419497f9722a3daafe3b4186f6b6457e060405160405180910390a35050565b60008060009054906101000a900473ffffffffffffffffffffffffffffffffffffffff16905090565b60008151905062000cdf8162000f00565b92915050565b60008151905062000cf68162000f1a565b92915050565b60006020828403121562000d155762000d1462000ed2565b5b600062000d258482850162000cce565b91505092915050565b60006020828403121562000d475762000d4662000ed2565b5b600062000d578482850162000ce5565b91505092915050565b62000d6b8162000de8565b82525050565b600062000d80601d8362000dd7565b915062000d8d8262000ed7565b602082019050919050565b600060208201905062000daf600083018462000d60565b92915050565b6000602082019050818103600083015262000dd08162000d71565b9050919050565b600082825260208201905092915050565b600062000df58262000dfc565b9050919050565b600073ffffffffffffffffffffffffffffffffffffffff82169050919050565b6000819050919050565b600062000e338262000e1c565b91507fffffffffffffffffffffffffffffffffffffffffffffffffffffffffffffffff82141562000e695762000e6862000e74565b5b600182019050919050565b7f4e487b7100000000000000000000000000000000000000000000000000000000600052601160045260246000fd5b7f4e487b7100000000000000000000000000000000000000000000000000000000600052603260045260246000fd5b600080fd5b7f6f776e657227732062616c616e6365206973206e6f7420656e6f756768000000600082015250565b62000f0b8162000de8565b811462000f1757600080fd5b50565b62000f258162000e1c565b811462000f3157600080fd5b50565b613d3a8062000f446000396000f3fe608060405234801561001057600080fd5b50600436106101735760003560e01c8063854e9682116100de578063ceb9c75211610097578063efa6d0df11610071578063efa6d0df14610471578063f2fde38b1461048d578063fc0c546a146104a9578063ffb4b1be146104c757610173565b8063ceb9c752146103e1578063d018eb0f14610411578063df681c141461044157610173565b8063854e9682146102f65780638da5cb5b14610329578063933bdb9014610347578063b17a58cf14610365578063bd85b03914610395578063cbf9fe5f146103b157610173565b8063429b62e511610130578063429b62e51461022457806345f0a44f146102545780635daf08ca1461028457806370480275146102b4578063715018a6146102d057806373bea3b2146102da57610173565b806318a24b5b1461017857806329c6a24e146101825780632e1a7d4d1461019e5780632fe5a51f146101ba5780633405ba2f146101d6578063379607f514610208575b600080fd5b6101806104e3565b005b61019c60048036038101906101979190612af0565b610aac565b005b6101b860048036038101906101b39190612cc6565b610c0a565b005b6101d460048036038101906101cf9190612c04565b610f2e565b005b6101f060048036038101906101eb9190612cc6565b6110c0565b6040516101ff939291906134a5565b60405180910390f35b610222600480360381019061021d9190612cc6565b611107565b005b61023e60048036038101906102399190612ac3565b611425565b60405161024b919061310b565b60405180910390f35b61026e60048036038101906102699190612cc6565b611445565b60405161027b9190613461565b60405180910390f35b61029e60048036038101906102999190612cc6565b611469565b6040516102ab91906130c7565b60405180910390f35b6102ce60048036038101906102c99190612ac3565b6114a8565b005b6102d86116b3565b005b6102f460048036038101906102ef9190612b30565b61173b565b005b610310600480360381019061030b9190612af0565b611da9565b60405161032094939291906134dc565b60405180910390f35b610331611df3565b60405161033e91906130c7565b60405180910390f35b61034f611e1c565b60405161035c9190613461565b60405180910390f35b61037f600480360381019061037a9190612ac3565b611e26565b60405161038c9190613461565b60405180910390f35b6103af60048036038101906103aa9190612cc6565b611e3e565b005b6103cb60048036038101906103c69190612ac3565b6120be565b6040516103d89190613461565b60405180910390f35b6103fb60048036038101906103f69190612ac3565b6120d6565b6040516104089190613461565b60405180910390f35b61042b60048036038101906104269190612cc6565b61211f565b6040516104389190613461565b60405180910390f35b61045b60048036038101906104569190612ac3565b612143565b6040516104689190613461565b60405180910390f35b61048b60048036038101906104869190612b83565b61215b565b005b6104a760048036038101906104a29190612ac3565b6123e1565b005b6104b16124d9565b6040516104be9190613126565b60405180910390f35b6104e160048036038101906104dc9190612af0565b6124ff565b005b600073ffffffffffffffffffffffffffffffffffffffff166105036128e2565b73ffffffffffffffffffffffffffffffffffffffff161415801561057757506007600061052e6128e2565b73ffffffffffffffffffffffffffffffffffffffff1673ffffffffffffffffffffffffffffffffffffffff16815260200190815260200160002060009054906101000a900460ff165b6105b6576040517f08c379a00000000000000000000000000000000000000000000000000000000081526004016105ad90613361565b60405180910390fd5b600042905060006009600554815481106105d3576105d261376c565b5b90600052602060002090600302016001015490508082101561062a576040517f08c379a000000000000000000000000000000000000000000000000000000000815260040161062190613341565b60405180910390fd5b60066005541061066f576040517f08c379a000000000000000000000000000000000000000000000000000000000815260040161066690613241565b60405180910390fd5b6009600554815481106106855761068461376c565b5b906000526020600020906003020160020160009054906101000a900460ff16156106e4576040517f08c379a00000000000000000000000000000000000000000000000000000000081526004016106db906133e1565b60405180910390fd5b600060055414156107e057622625a0600160009054906101000a900473ffffffffffffffffffffffffffffffffffffffff1673ffffffffffffffffffffffffffffffffffffffff166370a08231306040518263ffffffff1660e01b815260040161074e91906130c7565b60206040518083038186803b15801561076657600080fd5b505afa15801561077a573d6000803e3d6000fd5b505050506040513d601f19601f8201168201806040525081019061079e9190612cf3565b10156107df576040517f08c379a00000000000000000000000000000000000000000000000000000000081526004016107d6906133a1565b60405180910390fd5b5b60005b6002805490508110156109fb576000600a60006002848154811061080a5761080961376c565b5b9060005260206000200160009054906101000a900473ffffffffffffffffffffffffffffffffffffffff1673ffffffffffffffffffffffffffffffffffffffff1673ffffffffffffffffffffffffffffffffffffffff168152602001908152602001600020600060055481526020019081526020016000206040518060800160405290816000820154815260200160018201548152602001600282015481526020016003820160009054906101000a900460ff161515151581525050905080602001518160000151146109e7576000816020015182600001516108ed9190613613565b9050600160009054906101000a900473ffffffffffffffffffffffffffffffffffffffff1673ffffffffffffffffffffffffffffffffffffffff1663a9059cbb600285815481106109415761094061376c565b5b9060005260206000200160009054906101000a900473ffffffffffffffffffffffffffffffffffffffff16836040518363ffffffff1660e01b815260040161098a9291906130e2565b602060405180830381600087803b1580156109a457600080fd5b505af11580156109b8573d6000803e3d6000fd5b505050506040513d601f19601f820116820180604052508101906109dc9190612c99565b6109e557600080fd5b505b5080806109f3906136c5565b9150506107e3565b507fe468a184bc2a1e5c9c5fbd34dda66145a553603678c8c126b4ff137d17f527a2600460055481548110610a3357610a3261376c565b5b9060005260206000200154604051610a4b9190613461565b60405180910390a16001600960055481548110610a6b57610a6a61376c565b5b906000526020600020906003020160020160006101000a81548160ff0219169083151502179055506001600554610aa29190613532565b6005819055505050565b600073ffffffffffffffffffffffffffffffffffffffff16610acc6128e2565b73ffffffffffffffffffffffffffffffffffffffff1614158015610b40575060076000610af76128e2565b73ffffffffffffffffffffffffffffffffffffffff1673ffffffffffffffffffffffffffffffffffffffff16815260200190815260200160002060009054906101000a900460ff165b610b7f576040517f08c379a0000000000000000000000000000000000000000000000000000000008152600401610b7690613361565b60405180910390fd5b60008111610bc2576040517f08c379a0000000000000000000000000000000000000000000000000000000008152600401610bb990613281565b60405180910390fd5b80600860008473ffffffffffffffffffffffffffffffffffffffff1673ffffffffffffffffffffffffffffffffffffffff168152602001908152602001600020819055505050565b600073ffffffffffffffffffffffffffffffffffffffff16610c2a6128e2565b73ffffffffffffffffffffffffffffffffffffffff1614158015610c9e575060076000610c556128e2565b73ffffffffffffffffffffffffffffffffffffffff1673ffffffffffffffffffffffffffffffffffffffff16815260200190815260200160002060009054906101000a900460ff165b610cdd576040517f08c379a0000000000000000000000000000000000000000000000000000000008152600401610cd490613361565b60405180910390fd5b80600c6000600160009054906101000a900473ffffffffffffffffffffffffffffffffffffffff1673ffffffffffffffffffffffffffffffffffffffff1673ffffffffffffffffffffffffffffffffffffffff16815260200190815260200160002054600160009054906101000a900473ffffffffffffffffffffffffffffffffffffffff1673ffffffffffffffffffffffffffffffffffffffff166370a08231306040518263ffffffff1660e01b8152600401610d9b91906130c7565b60206040518083038186803b158015610db357600080fd5b505afa158015610dc7573d6000803e3d6000fd5b505050506040513d601f19601f82011682018060405250810190610deb9190612cf3565b610df59190613613565b1015610e36576040517f08c379a0000000000000000000000000000000000000000000000000000000008152600401610e2d90613161565b60405180910390fd5b600160009054906101000a900473ffffffffffffffffffffffffffffffffffffffff1673ffffffffffffffffffffffffffffffffffffffff1663a9059cbb610e7c611df3565b836040518363ffffffff1660e01b8152600401610e9a9291906130e2565b602060405180830381600087803b158015610eb457600080fd5b505af1158015610ec8573d6000803e3d6000fd5b505050506040513d601f19601f82011682018060405250810190610eec9190612c99565b610f2b576040517f08c379a0000000000000000000000000000000000000000000000000000000008152600401610f22906131c1565b60405180910390fd5b50565b600073ffffffffffffffffffffffffffffffffffffffff16610f4e6128e2565b73ffffffffffffffffffffffffffffffffffffffff1614158015610fc2575060076000610f796128e2565b73ffffffffffffffffffffffffffffffffffffffff1673ffffffffffffffffffffffffffffffffffffffff16815260200190815260200160002060009054906101000a900460ff165b611001576040517f08c379a0000000000000000000000000000000000000000000000000000000008152600401610ff890613361565b60405180910390fd5b600085859050905080848490501461104e576040517f08c379a0000000000000000000000000000000000000000000000000000000008152600401611045906132a1565b60405180910390fd5b60005b818110156110b7576110a487878381811061106f5761106e61376c565b5b90506020020160208101906110849190612ac3565b8686848181106110975761109661376c565b5b905060200201358561173b565b80806110af906136c5565b915050611051565b50505050505050565b600981815481106110d057600080fd5b90600052602060002090600302016000915090508060000154908060010154908060020160009054906101000a900460ff16905083565b6000600a60003373ffffffffffffffffffffffffffffffffffffffff1673ffffffffffffffffffffffffffffffffffffffff1681526020019081526020016000206000838152602001908152602001600020905042816002015411156111a2576040517f08c379a0000000000000000000000000000000000000000000000000000000008152600401611199906132e1565b60405180910390fd5b60008160000154116111e9576040517f08c379a00000000000000000000000000000000000000000000000000000000081526004016111e090613421565b60405180910390fd5b6000816001015482600001546111ff9190613613565b90508160000154826001018190555080600c6000600160009054906101000a900473ffffffffffffffffffffffffffffffffffffffff1673ffffffffffffffffffffffffffffffffffffffff1673ffffffffffffffffffffffffffffffffffffffff1681526020019081526020016000205461127b9190613613565b600c6000600160009054906101000a900473ffffffffffffffffffffffffffffffffffffffff1673ffffffffffffffffffffffffffffffffffffffff1673ffffffffffffffffffffffffffffffffffffffff16815260200190815260200160002081905550600160009054906101000a900473ffffffffffffffffffffffffffffffffffffffff1673ffffffffffffffffffffffffffffffffffffffff1663a9059cbb33836040518363ffffffff1660e01b815260040161133d9291906130e2565b602060405180830381600087803b15801561135757600080fd5b505af115801561136b573d6000803e3d6000fd5b505050506040513d601f19601f8201168201806040525081019061138f9190612c99565b6113ce576040517f08c379a00000000000000000000000000000000000000000000000000000000081526004016113c5906132c1565b60405180910390fd5b3373ffffffffffffffffffffffffffffffffffffffff167f47cee97cb7acd717b3c0aa1435d004cd5b3c8c57d70dbceb4e4458bbd60e39d483600001546040516114189190613461565b60405180910390a2505050565b60076020528060005260406000206000915054906101000a900460ff1681565b6003818154811061145557600080fd5b906000526020600020016000915090505481565b6002818154811061147957600080fd5b906000526020600020016000915054906101000a900473ffffffffffffffffffffffffffffffffffffffff1681565b6114b06128e2565b73ffffffffffffffffffffffffffffffffffffffff166114ce611df3565b73ffffffffffffffffffffffffffffffffffffffff1614611524576040517f08c379a000000000000000000000000000000000000000000000000000000000815260040161151b90613321565b60405180910390fd5b600073ffffffffffffffffffffffffffffffffffffffff168173ffffffffffffffffffffffffffffffffffffffff161415611594576040517f08c379a000000000000000000000000000000000000000000000000000000000815260040161158b90613221565b60405180910390fd5b600760008273ffffffffffffffffffffffffffffffffffffffff1673ffffffffffffffffffffffffffffffffffffffff16815260200190815260200160002060009054906101000a900460ff1615611621576040517f08c379a000000000000000000000000000000000000000000000000000000000815260040161161890613141565b60405180910390fd5b6001600760008373ffffffffffffffffffffffffffffffffffffffff1673ffffffffffffffffffffffffffffffffffffffff16815260200190815260200160002060006101000a81548160ff0219169083151502179055507fe8545298d4f2a47282e100b4cbcf2645ab4d367b85c00b0fc35e03f4ee409b7f816040516116a891906130c7565b60405180910390a150565b6116bb6128e2565b73ffffffffffffffffffffffffffffffffffffffff166116d9611df3565b73ffffffffffffffffffffffffffffffffffffffff161461172f576040517f08c379a000000000000000000000000000000000000000000000000000000000815260040161172690613321565b60405180910390fd5b61173960006128ea565b565b600073ffffffffffffffffffffffffffffffffffffffff1661175b6128e2565b73ffffffffffffffffffffffffffffffffffffffff16141580156117cf5750600760006117866128e2565b73ffffffffffffffffffffffffffffffffffffffff1673ffffffffffffffffffffffffffffffffffffffff16815260200190815260200160002060009054906101000a900460ff165b61180e576040517f08c379a000000000000000000000000000000000000000000000000000000000815260040161180590613361565b60405180910390fd5b82826000600860008473ffffffffffffffffffffffffffffffffffffffff1673ffffffffffffffffffffffffffffffffffffffff168152602001908152602001600020549050600081141580156118655750818110155b6118a4576040517f08c379a000000000000000000000000000000000000000000000000000000000815260040161189b90613261565b60405180910390fd5b600085116118e7576040517f08c379a00000000000000000000000000000000000000000000000000000000081526004016118de906131e1565b60405180910390fd5b6000600c6000600160009054906101000a900473ffffffffffffffffffffffffffffffffffffffff1673ffffffffffffffffffffffffffffffffffffffff1673ffffffffffffffffffffffffffffffffffffffff16815260200190815260200160002054905085816119599190613532565b600160009054906101000a900473ffffffffffffffffffffffffffffffffffffffff1673ffffffffffffffffffffffffffffffffffffffff166370a08231306040518263ffffffff1660e01b81526004016119b491906130c7565b60206040518083038186803b1580156119cc57600080fd5b505afa1580156119e0573d6000803e3d6000fd5b505050506040513d601f19601f82011682018060405250810190611a049190612cf3565b1015611a45576040517f08c379a0000000000000000000000000000000000000000000000000000000008152600401611a3c90613401565b60405180910390fd5b6000600b60008973ffffffffffffffffffffffffffffffffffffffff1673ffffffffffffffffffffffffffffffffffffffff16815260200190815260200160002054905060008114611acc576040517f08c379a0000000000000000000000000000000000000000000000000000000008152600401611ac390613381565b60405180910390fd5b60005b600980549050811015611ceb576000606460098381548110611af457611af361376c565b5b9060005260206000209060030201600001548a611b1191906135b9565b611b1b9190613588565b9050600060098381548110611b3357611b3261376c565b5b90600052602060002090600302016001015490506040518060800160405280838152602001600081526020018281526020018a1515815250600a60008d73ffffffffffffffffffffffffffffffffffffffff1673ffffffffffffffffffffffffffffffffffffffff168152602001908152602001600020600086815260200190815260200160002060008201518160000155602082015181600101556040820151816002015560608201518160030160006101000a81548160ff021916908315150217905550905050600184611c099190613532565b600b60008d73ffffffffffffffffffffffffffffffffffffffff1673ffffffffffffffffffffffffffffffffffffffff168152602001908152602001600020819055508985611c589190613532565b600c6000600160009054906101000a900473ffffffffffffffffffffffffffffffffffffffff1673ffffffffffffffffffffffffffffffffffffffff1673ffffffffffffffffffffffffffffffffffffffff168152602001908152602001600020819055508960066000828254611ccf9190613532565b9250508190555050508080611ce3906136c5565b915050611acf565b506002889080600181540180825580915050600190039060005260206000200160009091909190916101000a81548173ffffffffffffffffffffffffffffffffffffffff021916908373ffffffffffffffffffffffffffffffffffffffff1602179055508773ffffffffffffffffffffffffffffffffffffffff167fe3b9a78308fbd313c084842efc8429b592f3980a893be12ed39018b5b16deb098888604051611d9792919061347c565b60405180910390a25050505050505050565b600a602052816000526040600020602052806000526040600020600091509150508060000154908060010154908060020154908060030160009054906101000a900460ff16905084565b60008060009054906101000a900473ffffffffffffffffffffffffffffffffffffffff16905090565b6000600654905090565b60086020528060005260406000206000915090505481565b600073ffffffffffffffffffffffffffffffffffffffff16611e5e6128e2565b73ffffffffffffffffffffffffffffffffffffffff1614158015611ed2575060076000611e896128e2565b73ffffffffffffffffffffffffffffffffffffffff1673ffffffffffffffffffffffffffffffffffffffff16815260200190815260200160002060009054906101000a900460ff165b611f11576040517f08c379a0000000000000000000000000000000000000000000000000000000008152600401611f0890613361565b60405180910390fd5b600081905080600160009054906101000a900473ffffffffffffffffffffffffffffffffffffffff1673ffffffffffffffffffffffffffffffffffffffff166370a08231611f5d611df3565b6040518263ffffffff1660e01b8152600401611f7991906130c7565b60206040518083038186803b158015611f9157600080fd5b505afa158015611fa5573d6000803e3d6000fd5b505050506040513d601f19601f82011682018060405250810190611fc99190612cf3565b101561200a576040517f08c379a000000000000000000000000000000000000000000000000000000000815260040161200190613181565b60405180910390fd5b600160009054906101000a900473ffffffffffffffffffffffffffffffffffffffff1673ffffffffffffffffffffffffffffffffffffffff1663a9059cbb30836040518363ffffffff1660e01b81526004016120679291906130e2565b602060405180830381600087803b15801561208157600080fd5b505af1158015612095573d6000803e3d6000fd5b505050506040513d601f19601f820116820180604052508101906120b99190612c99565b505050565b600c6020528060005260406000206000915090505481565b6000600860008373ffffffffffffffffffffffffffffffffffffffff1673ffffffffffffffffffffffffffffffffffffffff168152602001908152602001600020549050919050565b6004818154811061212f57600080fd5b906000526020600020016000915090505481565b600b6020528060005260406000206000915090505481565b600073ffffffffffffffffffffffffffffffffffffffff1661217b6128e2565b73ffffffffffffffffffffffffffffffffffffffff16141580156121ef5750600760006121a66128e2565b73ffffffffffffffffffffffffffffffffffffffff1673ffffffffffffffffffffffffffffffffffffffff16815260200190815260200160002060009054906101000a900460ff165b61222e576040517f08c379a000000000000000000000000000000000000000000000000000000000815260040161222590613361565b60405180910390fd5b600084849050905080838390501461227b576040517f08c379a000000000000000000000000000000000000000000000000000000000815260040161227290613441565b60405180910390fd5b60005b818110156123d957600073ffffffffffffffffffffffffffffffffffffffff168686838181106122b1576122b061376c565b5b90506020020160208101906122c69190612ac3565b73ffffffffffffffffffffffffffffffffffffffff1614158015612303575060008484838181106122fa576122f961376c565b5b90506020020135115b612342576040517f08c379a000000000000000000000000000000000000000000000000000000000815260040161233990613301565b60405180910390fd5b8383828181106123555761235461376c565b5b90506020020135600860008888858181106123735761237261376c565b5b90506020020160208101906123889190612ac3565b73ffffffffffffffffffffffffffffffffffffffff1673ffffffffffffffffffffffffffffffffffffffff1681526020019081526020016000208190555080806123d1906136c5565b91505061227e565b505050505050565b6123e96128e2565b73ffffffffffffffffffffffffffffffffffffffff16612407611df3565b73ffffffffffffffffffffffffffffffffffffffff161461245d576040517f08c379a000000000000000000000000000000000000000000000000000000000815260040161245490613321565b60405180910390fd5b600073ffffffffffffffffffffffffffffffffffffffff168173ffffffffffffffffffffffffffffffffffffffff1614156124cd576040517f08c379a00000000000000000000000000000000000000000000000000000000081526004016124c4906131a1565b60405180910390fd5b6124d6816128ea565b50565b600160009054906101000a900473ffffffffffffffffffffffffffffffffffffffff1681565b600073ffffffffffffffffffffffffffffffffffffffff1661251f6128e2565b73ffffffffffffffffffffffffffffffffffffffff161415801561259357506007600061254a6128e2565b73ffffffffffffffffffffffffffffffffffffffff1673ffffffffffffffffffffffffffffffffffffffff16815260200190815260200160002060009054906101000a900460ff165b6125d2576040517f08c379a00000000000000000000000000000000000000000000000000000000081526004016125c990613361565b60405180910390fd5b6000600a60008473ffffffffffffffffffffffffffffffffffffffff1673ffffffffffffffffffffffffffffffffffffffff168152602001908152602001600020600083815260200190815260200160002090508060030160009054906101000a900460ff1615612678576040517f08c379a000000000000000000000000000000000000000000000000000000000815260040161266f90613201565b60405180910390fd5b60008160010154826000015461268e9190613613565b905060008114156126d4576040517f08c379a00000000000000000000000000000000000000000000000000000000081526004016126cb906133c1565b60405180910390fd5b6000826000018190555080600c6000600160009054906101000a900473ffffffffffffffffffffffffffffffffffffffff1673ffffffffffffffffffffffffffffffffffffffff1673ffffffffffffffffffffffffffffffffffffffff1681526020019081526020016000205461274b9190613613565b600c6000600160009054906101000a900473ffffffffffffffffffffffffffffffffffffffff1673ffffffffffffffffffffffffffffffffffffffff1673ffffffffffffffffffffffffffffffffffffffff16815260200190815260200160002081905550600160009054906101000a900473ffffffffffffffffffffffffffffffffffffffff1673ffffffffffffffffffffffffffffffffffffffff1663a9059cbb6127f6611df3565b836040518363ffffffff1660e01b81526004016128149291906130e2565b602060405180830381600087803b15801561282e57600080fd5b505af1158015612842573d6000803e3d6000fd5b505050506040513d601f19601f820116820180604052508101906128669190612c99565b6128a5576040517f08c379a000000000000000000000000000000000000000000000000000000000815260040161289c906132c1565b60405180910390fd5b7f398bd6b21ae4164ec322fb0eb8c2eb6277f36fd41903fbbed594dfe125591281846040516128d491906130c7565b60405180910390a150505050565b600033905090565b60008060009054906101000a900473ffffffffffffffffffffffffffffffffffffffff169050816000806101000a81548173ffffffffffffffffffffffffffffffffffffffff021916908373ffffffffffffffffffffffffffffffffffffffff1602179055508173ffffffffffffffffffffffffffffffffffffffff168173ffffffffffffffffffffffffffffffffffffffff167f8be0079c531659141344cd1fd0a4f28419497f9722a3daafe3b4186f6b6457e060405160405180910390a35050565b6000813590506129bd81613cbf565b92915050565b60008083601f8401126129d9576129d86137a0565b5b8235905067ffffffffffffffff8111156129f6576129f561379b565b5b602083019150836020820283011115612a1257612a116137a5565b5b9250929050565b60008083601f840112612a2f57612a2e6137a0565b5b8235905067ffffffffffffffff811115612a4c57612a4b61379b565b5b602083019150836020820283011115612a6857612a676137a5565b5b9250929050565b600081359050612a7e81613cd6565b92915050565b600081519050612a9381613cd6565b92915050565b600081359050612aa881613ced565b92915050565b600081519050612abd81613ced565b92915050565b600060208284031215612ad957612ad86137af565b5b6000612ae7848285016129ae565b91505092915050565b60008060408385031215612b0757612b066137af565b5b6000612b15858286016129ae565b9250506020612b2685828601612a99565b9150509250929050565b600080600060608486031215612b4957612b486137af565b5b6000612b57868287016129ae565b9350506020612b6886828701612a99565b9250506040612b7986828701612a6f565b9150509250925092565b60008060008060408587031215612b9d57612b9c6137af565b5b600085013567ffffffffffffffff811115612bbb57612bba6137aa565b5b612bc7878288016129c3565b9450945050602085013567ffffffffffffffff811115612bea57612be96137aa565b5b612bf687828801612a19565b925092505092959194509250565b600080600080600060608688031215612c2057612c1f6137af565b5b600086013567ffffffffffffffff811115612c3e57612c3d6137aa565b5b612c4a888289016129c3565b9550955050602086013567ffffffffffffffff811115612c6d57612c6c6137aa565b5b612c7988828901612a19565b93509350506040612c8c88828901612a6f565b9150509295509295909350565b600060208284031215612caf57612cae6137af565b5b6000612cbd84828501612a84565b91505092915050565b600060208284031215612cdc57612cdb6137af565b5b6000612cea84828501612a99565b91505092915050565b600060208284031215612d0957612d086137af565b5b6000612d1784828501612aae565b91505092915050565b612d2981613647565b82525050565b612d3881613659565b82525050565b612d478161368f565b82525050565b6000612d5a602983613521565b9150612d65826137b4565b604082019050919050565b6000612d7d601783613521565b9150612d8882613803565b602082019050919050565b6000612da0601d83613521565b9150612dab8261382c565b602082019050919050565b6000612dc3602683613521565b9150612dce82613855565b604082019050919050565b6000612de6601883613521565b9150612df1826138a4565b602082019050919050565b6000612e09601f83613521565b9150612e14826138cd565b602082019050919050565b6000612e2c601983613521565b9150612e37826138f6565b602082019050919050565b6000612e4f600c83613521565b9150612e5a8261391f565b602082019050919050565b6000612e72603383613521565b9150612e7d82613948565b604082019050919050565b6000612e95601983613521565b9150612ea082613997565b602082019050919050565b6000612eb8601e83613521565b9150612ec3826139c0565b602082019050919050565b6000612edb601d83613521565b9150612ee6826139e9565b602082019050919050565b6000612efe601883613521565b9150612f0982613a12565b602082019050919050565b6000612f21601f83613521565b9150612f2c82613a3b565b602082019050919050565b6000612f44601983613521565b9150612f4f82613a64565b602082019050919050565b6000612f67602083613521565b9150612f7282613a8d565b602082019050919050565b6000612f8a602683613521565b9150612f9582613ab6565b604082019050919050565b6000612fad601783613521565b9150612fb882613b05565b602082019050919050565b6000612fd0601283613521565b9150612fdb82613b2e565b602082019050919050565b6000612ff3605483613521565b9150612ffe82613b57565b606082019050919050565b6000613016601e83613521565b915061302182613bcc565b602082019050919050565b6000613039602883613521565b915061304482613bf5565b604082019050919050565b600061305c601a83613521565b915061306782613c44565b602082019050919050565b600061307f601683613521565b915061308a82613c6d565b602082019050919050565b60006130a2601a83613521565b91506130ad82613c96565b602082019050919050565b6130c181613685565b82525050565b60006020820190506130dc6000830184612d20565b92915050565b60006040820190506130f76000830185612d20565b61310460208301846130b8565b9392505050565b60006020820190506131206000830184612d2f565b92915050565b600060208201905061313b6000830184612d3e565b92915050565b6000602082019050818103600083015261315a81612d4d565b9050919050565b6000602082019050818103600083015261317a81612d70565b9050919050565b6000602082019050818103600083015261319a81612d93565b9050919050565b600060208201905081810360008301526131ba81612db6565b9050919050565b600060208201905081810360008301526131da81612dd9565b9050919050565b600060208201905081810360008301526131fa81612dfc565b9050919050565b6000602082019050818103600083015261321a81612e1f565b9050919050565b6000602082019050818103600083015261323a81612e42565b9050919050565b6000602082019050818103600083015261325a81612e65565b9050919050565b6000602082019050818103600083015261327a81612e88565b9050919050565b6000602082019050818103600083015261329a81612eab565b9050919050565b600060208201905081810360008301526132ba81612ece565b9050919050565b600060208201905081810360008301526132da81612ef1565b9050919050565b600060208201905081810360008301526132fa81612f14565b9050919050565b6000602082019050818103600083015261331a81612f37565b9050919050565b6000602082019050818103600083015261333a81612f5a565b9050919050565b6000602082019050818103600083015261335a81612f7d565b9050919050565b6000602082019050818103600083015261337a81612fa0565b9050919050565b6000602082019050818103600083015261339a81612fc3565b9050919050565b600060208201905081810360008301526133ba81612fe6565b9050919050565b600060208201905081810360008301526133da81613009565b9050919050565b600060208201905081810360008301526133fa8161302c565b9050919050565b6000602082019050818103600083015261341a8161304f565b9050919050565b6000602082019050818103600083015261343a81613072565b9050919050565b6000602082019050818103600083015261345a81613095565b9050919050565b600060208201905061347660008301846130b8565b92915050565b600060408201905061349160008301856130b8565b61349e6020830184612d2f565b9392505050565b60006060820190506134ba60008301866130b8565b6134c760208301856130b8565b6134d46040830184612d2f565b949350505050565b60006080820190506134f160008301876130b8565b6134fe60208301866130b8565b61350b60408301856130b8565b6135186060830184612d2f565b95945050505050565b600082825260208201905092915050565b600061353d82613685565b915061354883613685565b9250827fffffffffffffffffffffffffffffffffffffffffffffffffffffffffffffffff0382111561357d5761357c61370e565b5b828201905092915050565b600061359382613685565b915061359e83613685565b9250826135ae576135ad61373d565b5b828204905092915050565b60006135c482613685565b91506135cf83613685565b9250817fffffffffffffffffffffffffffffffffffffffffffffffffffffffffffffffff04831182151516156136085761360761370e565b5b828202905092915050565b600061361e82613685565b915061362983613685565b92508282101561363c5761363b61370e565b5b828203905092915050565b600061365282613665565b9050919050565b60008115159050919050565b600073ffffffffffffffffffffffffffffffffffffffff82169050919050565b6000819050919050565b600061369a826136a1565b9050919050565b60006136ac826136b3565b9050919050565b60006136be82613665565b9050919050565b60006136d082613685565b91507fffffffffffffffffffffffffffffffffffffffffffffffffffffffffffffffff8214156137035761370261370e565b5b600182019050919050565b7f4e487b7100000000000000000000000000000000000000000000000000000000600052601160045260246000fd5b7f4e487b7100000000000000000000000000000000000000000000000000000000600052601260045260246000fd5b7f4e487b7100000000000000000000000000000000000000000000000000000000600052603260045260246000fd5b600080fd5b600080fd5b600080fd5b600080fd5b600080fd5b7f54686973206164647265737320697320616c726561647920616464656420617360008201527f20616e2061646d696e0000000000000000000000000000000000000000000000602082015250565b7f56657374696e673a2043616e2774207769746864726177000000000000000000600082015250565b7f6f776e657227732062616c616e6365206973206e6f7420656e6f756768000000600082015250565b7f4f776e61626c653a206e6577206f776e657220697320746865207a65726f206160008201527f6464726573730000000000000000000000000000000000000000000000000000602082015250565b7f56657374696e673a207769746864726177206661696c65640000000000000000600082015250565b7f56657374696e673a20696e76616c69642076657374696e6720706172616d7300600082015250565b7f56657374696e673a204163636f756e7420697320666978656400000000000000600082015250565b7f5a65726f20616464726573730000000000000000000000000000000000000000600082015250565b7f4c6f636b20706572696f6420456e6420616e6420416c6c206c6f636b6564207460008201527f6f6b656e73207765726520756e6c6f636b656400000000000000000000000000602082015250565b7f496e76616c69642077686974656c697374206d656d6265722100000000000000600082015250565b7f546965723a20696e646578206f66207469657220697320696e76616c69640000600082015250565b7f56657374696e673a204172726179206c656e6774687320646966666572000000600082015250565b7f56657374696e673a207472616e73666572206661696c65640000000000000000600082015250565b7f56657374696e673a20756e6c6f636b54696d65206e6f74207265616368656400600082015250565b7f546965723a20696e76616c6964207469657220706172616d7300000000000000600082015250565b7f4f776e61626c653a2063616c6c6572206973206e6f7420746865206f776e6572600082015250565b7f596f752063616e27742072756e20756e6c6f636b546f6b656e2066756e63746960008201527f6f6e206e6f770000000000000000000000000000000000000000000000000000602082015250565b7f43616c6c6572206973206e6f74207468652061646d696e000000000000000000600082015250565b7f616c726561647920657869737420757365720000000000000000000000000000600082015250565b7f596f75206e65656420746f206465706f7369742032353030303030204353504460008201527f7320696e746f207468697320636f6e7472616374206265666f726520796f752060208201527f7374617274207468697320636f6e74726163742e000000000000000000000000604082015250565b7f56657374696e673a206e6f206f75747374616e64696e6720746f6b656e730000600082015250565b7f416c726561647920756e6c6f636b656420746f6b656e73206f6620746869732060008201527f7363686564756c65000000000000000000000000000000000000000000000000602082015250565b7f56657374696e673a204e6f7420656e6f75676820746f6b656e73000000000000600082015250565b7f56657374696e673a206e6f7420636c61696d61626c6500000000000000000000600082015250565b7f546965723a204172726179206c656e6774687320646966666572000000000000600082015250565b613cc881613647565b8114613cd357600080fd5b50565b613cdf81613659565b8114613cea57600080fd5b50565b613cf681613685565b8114613d0157600080fd5b5056fea264697066735822122064caf2a048bf70508592f0864bf54fdaf08cd96d8656dd9cdf5ea5df8177c73164736f6c63430008070033",
  "immutableReferences": {},
  "source": "// SPDX-License-Identifier: GPL-3.0-only\r\npragma solidity 0.8.7;\r\n\r\nimport \"@openzeppelin/contracts/token/ERC20/IERC20.sol\";\r\nimport \"@openzeppelin/contracts/access/Ownable.sol\";\r\n\r\ninterface IBEP20 {\r\n    \r\n  /**\r\n   * @dev Returns the amount of tokens in existence.\r\n   */\r\n  function totalSupply() external view returns (uint256);\r\n\r\n  /**\r\n   * @dev Returns the token decimals.\r\n   */\r\n  function decimals() external view returns (uint8);\r\n\r\n  /**\r\n   * @dev Returns the token symbol.\r\n   */\r\n  function symbol() external view returns (string memory);\r\n\r\n  /**\r\n  * @dev Returns the token name.\r\n  */\r\n  function name() external view returns (string memory);\r\n\r\n  /**\r\n   * @dev Returns the bep token owner.\r\n   */\r\n  function getOwner() external view returns (address);\r\n\r\n  /**\r\n   * @dev Returns the amount of tokens owned by `account`.\r\n   */\r\n  function balanceOf(address account) external view returns (uint256);\r\n\r\n  /**\r\n   * @dev Moves `amount` tokens from the caller's account to `recipient`.\r\n   *\r\n   * Returns a boolean value indicating whether the operation succeeded.\r\n   *\r\n   * Emits a {Transfer} event.\r\n   */\r\n  function transfer(address recipient, uint256 amount) external returns (bool);\r\n\r\n  /**\r\n   * @dev Returns the remaining number of tokens that `spender` will be\r\n   * allowed to spend on behalf of `owner` through {transferFrom}. This is\r\n   * zero by default.\r\n   *\r\n   * This value changes when {approve} or {transferFrom} are called.\r\n   */\r\n  function allowance(address _owner, address spender) external view returns (uint256);\r\n\r\n  /**\r\n   * @dev Sets `amount` as the allowance of `spender` over the caller's tokens.\r\n   *\r\n   * Returns a boolean value indicating whether the operation succeeded.\r\n   *\r\n   * IMPORTANT: Beware that changing an allowance with this method brings the risk\r\n   * that someone may use both the old and the new allowance by unfortunate\r\n   * transaction ordering. One possible solution to mitigate this race\r\n   * condition is to first reduce the spender's allowance to 0 and set the\r\n   * desired value afterwards:\r\n   * https://github.com/ethereum/EIPs/issues/20#issuecomment-263524729\r\n   *\r\n   * Emits an {Approval} event.\r\n   */\r\n  function approve(address spender, uint256 amount) external returns (bool);\r\n\r\n  /**\r\n   * @dev Moves `amount` tokens from `sender` to `recipient` using the\r\n   * allowance mechanism. `amount` is then deducted from the caller's\r\n   * allowance.\r\n   *\r\n   * Returns a boolean value indicating whether the operation succeeded.\r\n   *\r\n   * Emits a {Transfer} event.\r\n   */\r\n  function transferFrom(address sender, address recipient, uint256 amount) external returns (bool);\r\n\r\n  /**\r\n   * @dev Emitted when `value` tokens are moved from one account (`from`) to\r\n   * another (`to`).\r\n   *\r\n   * Note that `value` may be zero.\r\n   */\r\n  event Transfer(address indexed from, address indexed to, uint256 value);\r\n\r\n  /**\r\n   * @dev Emitted when the allowance of a `spender` for an `owner` is set by\r\n   * a call to {approve}. `value` is the new allowance.\r\n   */\r\n  event Approval(address indexed owner, address indexed spender, uint256 value);\r\n  \r\n}\r\n/**\r\n * Tracer Standard Vesting Contract\r\n */\r\ncontract Vesting is Ownable {\r\n\r\n    //initialize data: token, member, vesting time\r\n    IBEP20 public token;\r\n    address[] public members;\r\n    uint256[] public amounts;\r\n    uint256[] public vestingTimeList;\r\n    uint256 releasedVestingId;\r\n    uint256 totalSoldAmount = 0;\r\n    mapping(address => bool) public admins;\r\n\r\n\r\n    //tiger of members\r\n    struct Tier {\r\n        uint256 tierId;\r\n        uint256 amountMax;\r\n    }\r\n\r\n    mapping(address => uint256) public whitelistOfTiers; //whitelist: (address => maxAmount)\r\n\r\n    struct Schedule {\r\n        uint256 amount;\r\n        uint256 claimedAmount;\r\n        uint256 unlockTime;\r\n        bool isFixed;\r\n    }\r\n\r\n    struct Plain {\r\n        uint256 percentage;\r\n        uint256 unlockTime;\r\n        bool isSent;\r\n    }\r\n    Plain[] public schedulePlain; // array of plains\r\n\r\n    // user => scheduleId => schedule\r\n    mapping(address => mapping(uint256 => Schedule)) public schedules;\r\n    mapping(address => uint256) public numberOfSchedules; //number of the schedule by address\r\n    mapping(address => uint256) public locked; //locked amount mapping by address\r\n\r\n    event Claim(address indexed claimer, uint256 amount);\r\n    event Cancelled(address account);\r\n    event NewVesting(address indexed investor, uint256 amount, bool isFixed);\r\n    event AddNewAdmin(address _address);\r\n    event UnlockTokens(uint256 _timestamp);\r\n\r\n    modifier onlyAdmin() {\r\n        require(_msgSender() != address(0x0) && admins[_msgSender()], \"Caller is not the admin\");\r\n        _;\r\n    }\r\n\r\n    modifier checkWhitelist(address account, uint256 amount) {\r\n        uint256 maxAmount = whitelistOfTiers[account];\r\n        require(maxAmount != 0 && maxAmount >= amount, \"Invalid whitelist member!\");\r\n        _;\r\n    }\r\n\r\n    constructor(address _token) {\r\n        require(_token != address(0x0));\r\n        token = IBEP20(_token); // token address\r\n\r\n        uint256 _preSaleAmount = 50000000 * 10 ** 18; //CSPD amount for presale\r\n        require(IBEP20(_token).balanceOf(owner()) >= _preSaleAmount, \"owner's balance is not enough\");\r\n        // IBEP20(_token).transfer(address(this), _preSaleAmount);\r\n\r\n        admins[owner()] = true;  // add owner to admin role\r\n        releasedVestingId = 0;   // set the initial releasedVestingId\r\n\r\n        //addresses for public sale\r\n        members.push(address(0x0C25363022587299510774E036ad078682991256));\r\n        members.push(address(0x026116102Ae7e558Cd436325158d54020EFCf0eF));\r\n        members.push(address(0x4B674Da5E20067B8213263720d958B5e7AbD7d8c));\r\n        members.push(address(0xD157D2Ff5393c509777765Cf612284d53d38dE30));\r\n        members.push(address(0xFcf2668C4EC68D2bbd36a476e30227744A0f5EB8));\r\n        members.push(address(0x3719D24Fa12f32877f894c6F51FeECF91F16b44f));\r\n        members.push(address(0xc0eaA0018b1192dE0c8ca46E57B84Ee907e01baC));\r\n        members.push(address(0xc50dD8028B1C6914B67F4657F0155e5D2cE1E226));\r\n        members.push(address(0x5B588e36FF358D4376A76FB163fd69Da02A2A9a5));\r\n        members.push(address(0xA5664dC01BB8369EDc6116d3B267d6014681dD2F));\r\n\r\n        //amount for public sale\r\n        amounts.push(5000000);\r\n        amounts.push(5000000);\r\n        amounts.push(5000000);\r\n        amounts.push(5000000);\r\n        amounts.push(5000000);\r\n        amounts.push(5000000);\r\n        amounts.push(5000000);\r\n        amounts.push(5000000);\r\n        amounts.push(5000000);\r\n        amounts.push(5000000);\r\n\r\n        // add schedule time\r\n        vestingTimeList.push(1639083600); // 2021-12-10 00:00:00\r\n        vestingTimeList.push(1641762000); // 2022-01-10 00:00:00\r\n        vestingTimeList.push(1644440400); // 2022-02-10 00:00:00\r\n        vestingTimeList.push(1646859600); // 2022-03-10 00:00:00\r\n        vestingTimeList.push(1649538000); // 2022-04-10 00:00:00\r\n        vestingTimeList.push(1652130000); // 2022-05-10 00:00:00\r\n\r\n        //set the schedule plain\r\n        for(uint256 i = 0; i < vestingTimeList.length; i++){\r\n            if(i == 0) { // after TGE \r\n                schedulePlain.push(Plain(\r\n                    5, //%\r\n                    vestingTimeList[i],\r\n                    false\r\n                ));\r\n            }else { // next steps\r\n                schedulePlain.push(Plain(\r\n                    19, //%\r\n                    vestingTimeList[i],\r\n                    false\r\n                ));\r\n            }\r\n        }\r\n        //initial kWhitelist\r\n        for(uint256 i = 0; i < members.length; i++){\r\n            whitelistOfTiers[members[i]] = 5000000;\r\n        }\r\n    }\r\n\r\n    function totalSupply(uint256 totalAmount) external onlyAdmin {\r\n        uint256 _preSaleAmount = totalAmount; //CSPD amount for presale 50000000\r\n        require(IBEP20(token).balanceOf(owner()) >= _preSaleAmount, \"owner's balance is not enough\");\r\n        IBEP20(token).transfer(address(this), _preSaleAmount);\r\n    }\r\n\r\n    function addAdmin(address _address) external onlyOwner {\r\n        require(_address != address(0x0), \"Zero address\");\r\n        require(!admins[_address], \"This address is already added as an admin\");\r\n        admins[_address] = true;\r\n        emit AddNewAdmin(_address);\r\n    }\r\n\r\n    function getTotalSoldAmount() external returns(uint256) {\r\n        return totalSoldAmount;\r\n    }\r\n    /**\r\n     * @notice Sets up a vesting schedule for a set user.\r\n     * @dev adds a new Schedule to the schedules mapping.\r\n     * @param account the account that a vesting schedule is being set up for. Will be able to claim tokens after\r\n     *                the cliff period.\r\n     * @param amount the amount of tokens being vested for the user.\r\n     * @param isFixed a flag for if the vesting schedule is fixed or not. Fixed vesting schedules can't be cancelled.\r\n     */\r\n    function addVest(\r\n        address account,\r\n        uint256 amount,\r\n        bool isFixed\r\n    ) public onlyAdmin checkWhitelist(account, amount) {\r\n        // check amount\r\n        require(amount > 0, \"Vesting: invalid vesting params\");\r\n\r\n        uint256 currentLocked = locked[address(token)];\r\n\r\n        // require the token is present\r\n        require(IBEP20(token).balanceOf(address(this)) >= currentLocked + amount, \"Vesting: Not enough tokens\");\r\n\r\n        // create the schedule\r\n        uint256 currentNumSchedules = numberOfSchedules[account];\r\n        require(currentNumSchedules == 0, \"already exist user\");\r\n        \r\n        for(uint256 i = 0; i < schedulePlain.length; i++){\r\n            uint256 _amount = amount * schedulePlain[i].percentage / 100;\r\n            uint256 _unlockTime = schedulePlain[i].unlockTime;\r\n\r\n            schedules[account][currentNumSchedules] = Schedule(\r\n                _amount,\r\n                0,\r\n                _unlockTime,\r\n                isFixed\r\n            );\r\n\r\n            numberOfSchedules[account] = currentNumSchedules + 1;\r\n            locked[address(token)] = currentLocked + amount;\r\n            totalSoldAmount += amount;\r\n        }\r\n        members.push(account);\r\n        emit NewVesting(account, amount, isFixed);\r\n    }\r\n\r\n    /**\r\n     * @notice Sets up vesting schedules for multiple users within 1 transaction.\r\n     * @dev adds a new Schedule to the schedules mapping.\r\n     * @param accounts an array of the accounts that the vesting schedules are being set up for.\r\n     *                 Will be able to claim tokens after the cliff period.\r\n     * @param amount an array of the amount of tokens being vested for each user.\r\n     * @param isFixed bool setting if these vesting schedules can be rugged or not.\r\n     */\r\n    function addMultiVest(\r\n        address[] calldata accounts,\r\n        uint256[] calldata amount,\r\n        bool isFixed\r\n    ) external onlyAdmin {\r\n        uint256 numberOfAccounts = accounts.length;\r\n        require(\r\n            amount.length == numberOfAccounts,\r\n            \"Vesting: Array lengths differ\"\r\n        );\r\n        for (uint256 i = 0; i < numberOfAccounts; i++) {\r\n            addVest(\r\n                accounts[i],\r\n                amount[i],\r\n                isFixed\r\n            );\r\n        }\r\n    }\r\n\r\n    /**\r\n     * @notice allows users to claim vested tokens if the cliff time has passed.\r\n     * @param scheduleNumber which schedule the user is claiming against\r\n     */\r\n    function claim(uint256 scheduleNumber) external {\r\n        Schedule storage schedule = schedules[msg.sender][scheduleNumber];\r\n        require(\r\n            schedule.unlockTime <= block.timestamp,\r\n            \"Vesting: unlockTime not reached\"\r\n        );\r\n        require(schedule.amount > 0, \"Vesting: not claimable\");\r\n\r\n        uint256 amountToTransfer = schedule.amount - schedule.claimedAmount;\r\n        schedule.claimedAmount = schedule.amount; // set new claimed amount based off the curve\r\n        locked[address(token)] = locked[address(token)] - amountToTransfer;\r\n        require(IBEP20(token).transfer(msg.sender, amountToTransfer), \"Vesting: transfer failed\");\r\n        emit Claim(msg.sender, schedule.amount);\r\n    }\r\n\r\n    /**\r\n     * @notice Allows a vesting schedule to be cancelled.\r\n     * @dev Any outstanding tokens are returned to the system.\r\n     * @param account the account of the user whos vesting schedule is being cancelled.\r\n     */\r\n    function rug(address account, uint256 scheduleId) external onlyAdmin {\r\n        Schedule storage schedule = schedules[account][scheduleId];\r\n        require(!schedule.isFixed, \"Vesting: Account is fixed\");\r\n        uint256 outstandingAmount = schedule.amount -\r\n            schedule.claimedAmount;\r\n        require(outstandingAmount != 0, \"Vesting: no outstanding tokens\");\r\n        schedule.amount = 0;\r\n        locked[address(token)] = locked[address(token)] - outstandingAmount;\r\n        require(IBEP20(token).transfer(owner(), outstandingAmount), \"Vesting: transfer failed\");\r\n        emit Cancelled(account);\r\n    }\r\n\r\n    /**\r\n     * @return calculates the amount of tokens to distribute to an account at any instance in time, based off some\r\n     *         total claimable amount.\r\n     * @param amount the total outstanding amount to be claimed for this vesting schedule.\r\n     * @param currentTime the current timestamp.\r\n     * @param startTime the timestamp this vesting schedule started.\r\n     * @param endTime the timestamp this vesting schedule ends.\r\n     */\r\n    \r\n    /**\r\n     * @notice Withdraws CSPD tokens from the contract.\r\n     * @dev blocks withdrawing locked tokens.\r\n     */\r\n    function withdraw(uint256 amount) external onlyAdmin {\r\n        require(\r\n            token.balanceOf(address(this)) - locked[address(token)] >= amount,\r\n            \"Vesting: Can't withdraw\"\r\n        );\r\n        require(token.transfer(owner(), amount), \"Vesting: withdraw failed\");\r\n    }\r\n\r\n    function multiSetTierOfAccount(\r\n        address[] calldata accounts,\r\n        uint256[] calldata _maxAmount\r\n    ) external onlyAdmin {\r\n        uint256 _numberOfAccounts = accounts.length;\r\n        require( _maxAmount.length == _numberOfAccounts, \"Tier: Array lengths differ\");\r\n\r\n        for (uint256 i = 0; i < _numberOfAccounts; i++) {\r\n            require( accounts[i] != address(0x0) && _maxAmount[i] > 0, \"Tier: invalid tier params\");\r\n            whitelistOfTiers[accounts[i]] = _maxAmount[i];\r\n        }\r\n    }\r\n\r\n    function setTierOfAccount(\r\n        address account,\r\n        uint256 _maxAmount\r\n    ) external onlyAdmin {\r\n        require(_maxAmount > 0, \"Tier: index of tier is invalid\");\r\n        whitelistOfTiers[account] = _maxAmount;\r\n    }\r\n\r\n    function getTierOfAccount(\r\n        address account\r\n    ) public view returns (uint256){\r\n        return whitelistOfTiers[account];\r\n    }\r\n\r\n    function unlockToken() external onlyAdmin {\r\n        uint256 currentTime = block.timestamp;\r\n        uint256 startTime = schedulePlain[releasedVestingId].unlockTime;\r\n        require(currentTime >= startTime, \"You can't run unlockToken function now\");\r\n        require(releasedVestingId < 6, \"Lock period End and All locked tokens were unlocked\");\r\n        require(!schedulePlain[releasedVestingId].isSent, \"Already unlocked tokens of this schedule\");\r\n\r\n        if (releasedVestingId == 0) {\r\n            require(token.balanceOf(address(this)) >= 2500000, \"You need to deposit 2500000 CSPDs into this contract before you start this contract.\");\r\n        }\r\n        for (uint256 i = 0; i < members.length; i++) {\r\n            Schedule memory _schedule = schedules[members[i]][releasedVestingId];\r\n            if (_schedule.amount != _schedule.claimedAmount) {\r\n                uint256 transferAmount = _schedule.amount - _schedule.claimedAmount;\r\n                require(token.transfer(members[i], transferAmount));\r\n            }\r\n        }\r\n        emit UnlockTokens(vestingTimeList[releasedVestingId]);\r\n        schedulePlain[releasedVestingId].isSent = true;\r\n        releasedVestingId = releasedVestingId + 1;\r\n    }\r\n}",
  "sourcePath": "D:\\Work Space\\CasperPad\\CasperPadToken_Contract\\contracts\\Vesting.sol",
  "compiler": {
    "name": "solc",
    "version": "0.8.7+commit.e28d00a7.Emscripten.clang"
  },
  "schemaVersion": "3.4.3",
  "updatedAt": "2021-12-02T12:46:58.313Z",
  "devdoc": {
    "kind": "dev",
    "methods": {
      "addMultiVest(address[],uint256[],bool)": {
        "details": "adds a new Schedule to the schedules mapping.",
        "params": {
          "accounts": "an array of the accounts that the vesting schedules are being set up for.                 Will be able to claim tokens after the cliff period.",
          "amount": "an array of the amount of tokens being vested for each user.",
          "isFixed": "bool setting if these vesting schedules can be rugged or not."
        }
      },
      "addVest(address,uint256,bool)": {
        "details": "adds a new Schedule to the schedules mapping.",
        "params": {
          "account": "the account that a vesting schedule is being set up for. Will be able to claim tokens after                the cliff period.",
          "amount": "the amount of tokens being vested for the user.",
          "isFixed": "a flag for if the vesting schedule is fixed or not. Fixed vesting schedules can't be cancelled."
        }
      },
      "claim(uint256)": {
        "params": {
          "scheduleNumber": "which schedule the user is claiming against"
        }
      },
      "owner()": {
        "details": "Returns the address of the current owner."
      },
      "renounceOwnership()": {
        "details": "Leaves the contract without owner. It will not be possible to call `onlyOwner` functions anymore. Can only be called by the current owner. NOTE: Renouncing ownership will leave the contract without an owner, thereby removing any functionality that is only available to the owner."
      },
      "rug(address,uint256)": {
        "details": "Any outstanding tokens are returned to the system.",
        "params": {
          "account": "the account of the user whos vesting schedule is being cancelled."
        }
      },
      "transferOwnership(address)": {
        "details": "Transfers ownership of the contract to a new account (`newOwner`). Can only be called by the current owner."
      },
      "withdraw(uint256)": {
        "details": "blocks withdrawing locked tokens."
      }
    },
    "version": 1
  },
  "userdoc": {
    "kind": "user",
    "methods": {
      "addMultiVest(address[],uint256[],bool)": {
        "notice": "Sets up vesting schedules for multiple users within 1 transaction."
      },
      "addVest(address,uint256,bool)": {
        "notice": "Sets up a vesting schedule for a set user."
      },
      "claim(uint256)": {
        "notice": "allows users to claim vested tokens if the cliff time has passed."
      },
      "rug(address,uint256)": {
        "notice": "Allows a vesting schedule to be cancelled."
      },
      "withdraw(uint256)": {
        "notice": "Withdraws CSPD tokens from the contract."
      }
    },
    "notice": "Tracer Standard Vesting Contract",
    "version": 1
  }
}