{
  "contractName": "Vesting",
  "abi": [
    {
      "inputs": [],
      "stateMutability": "nonpayable",
      "type": "constructor"
    },
    {
      "anonymous": false,
      "inputs": [
        {
          "indexed": false,
          "internalType": "address",
          "name": "account",
          "type": "address"
        }
      ],
      "name": "Cancelled",
      "type": "event"
    },
    {
      "anonymous": false,
      "inputs": [
        {
          "indexed": true,
          "internalType": "address",
          "name": "claimer",
          "type": "address"
        },
        {
          "indexed": false,
          "internalType": "uint256",
          "name": "amount",
          "type": "uint256"
        }
      ],
      "name": "Claim",
      "type": "event"
    },
    {
      "anonymous": false,
      "inputs": [
        {
          "indexed": true,
          "internalType": "address",
          "name": "previousOwner",
          "type": "address"
        },
        {
          "indexed": true,
          "internalType": "address",
          "name": "newOwner",
          "type": "address"
        }
      ],
      "name": "OwnershipTransferred",
      "type": "event"
    },
    {
      "anonymous": false,
      "inputs": [
        {
          "indexed": true,
          "internalType": "address",
          "name": "to",
          "type": "address"
        },
        {
          "indexed": false,
          "internalType": "uint256",
          "name": "amount",
          "type": "uint256"
        }
      ],
      "name": "Vest",
      "type": "event"
    },
    {
      "inputs": [
        {
          "internalType": "address",
          "name": "",
          "type": "address"
        }
      ],
      "name": "locked",
      "outputs": [
        {
          "internalType": "uint256",
          "name": "",
          "type": "uint256"
        }
      ],
      "stateMutability": "view",
      "type": "function"
    },
    {
      "inputs": [
        {
          "internalType": "address",
          "name": "",
          "type": "address"
        }
      ],
      "name": "numberOfSchedules",
      "outputs": [
        {
          "internalType": "uint256",
          "name": "",
          "type": "uint256"
        }
      ],
      "stateMutability": "view",
      "type": "function"
    },
    {
      "inputs": [],
      "name": "owner",
      "outputs": [
        {
          "internalType": "address",
          "name": "",
          "type": "address"
        }
      ],
      "stateMutability": "view",
      "type": "function"
    },
    {
      "inputs": [],
      "name": "renounceOwnership",
      "outputs": [],
      "stateMutability": "nonpayable",
      "type": "function"
    },
    {
      "inputs": [
        {
          "internalType": "address",
          "name": "",
          "type": "address"
        },
        {
          "internalType": "uint256",
          "name": "",
          "type": "uint256"
        }
      ],
      "name": "schedules",
      "outputs": [
        {
          "internalType": "uint256",
          "name": "totalAmount",
          "type": "uint256"
        },
        {
          "internalType": "uint256",
          "name": "claimedAmount",
          "type": "uint256"
        },
        {
          "internalType": "uint256",
          "name": "startTime",
          "type": "uint256"
        },
        {
          "internalType": "uint256",
          "name": "cliffTime",
          "type": "uint256"
        },
        {
          "internalType": "uint256",
          "name": "endTime",
          "type": "uint256"
        },
        {
          "internalType": "bool",
          "name": "isFixed",
          "type": "bool"
        },
        {
          "internalType": "address",
          "name": "asset",
          "type": "address"
        }
      ],
      "stateMutability": "view",
      "type": "function"
    },
    {
      "inputs": [
        {
          "internalType": "address",
          "name": "newOwner",
          "type": "address"
        }
      ],
      "name": "transferOwnership",
      "outputs": [],
      "stateMutability": "nonpayable",
      "type": "function"
    },
    {
      "inputs": [
        {
          "internalType": "address",
          "name": "account",
          "type": "address"
        },
        {
          "internalType": "uint256",
          "name": "amount",
          "type": "uint256"
        },
        {
          "internalType": "address",
          "name": "asset",
          "type": "address"
        },
        {
          "internalType": "bool",
          "name": "isFixed",
          "type": "bool"
        },
        {
          "internalType": "uint256",
          "name": "cliffWeeks",
          "type": "uint256"
        },
        {
          "internalType": "uint256",
          "name": "vestingWeeks",
          "type": "uint256"
        },
        {
          "internalType": "uint256",
          "name": "startTime",
          "type": "uint256"
        }
      ],
      "name": "vest",
      "outputs": [],
      "stateMutability": "nonpayable",
      "type": "function"
    },
    {
      "inputs": [
        {
          "internalType": "address[]",
          "name": "accounts",
          "type": "address[]"
        },
        {
          "internalType": "uint256[]",
          "name": "amount",
          "type": "uint256[]"
        },
        {
          "internalType": "address",
          "name": "asset",
          "type": "address"
        },
        {
          "internalType": "bool",
          "name": "isFixed",
          "type": "bool"
        },
        {
          "internalType": "uint256",
          "name": "cliffWeeks",
          "type": "uint256"
        },
        {
          "internalType": "uint256",
          "name": "vestingWeeks",
          "type": "uint256"
        },
        {
          "internalType": "uint256",
          "name": "startTime",
          "type": "uint256"
        }
      ],
      "name": "multiVest",
      "outputs": [],
      "stateMutability": "nonpayable",
      "type": "function"
    },
    {
      "inputs": [
        {
          "internalType": "uint256",
          "name": "scheduleNumber",
          "type": "uint256"
        }
      ],
      "name": "claim",
      "outputs": [],
      "stateMutability": "nonpayable",
      "type": "function"
    },
    {
      "inputs": [
        {
          "internalType": "address",
          "name": "account",
          "type": "address"
        },
        {
          "internalType": "uint256",
          "name": "scheduleId",
          "type": "uint256"
        }
      ],
      "name": "rug",
      "outputs": [],
      "stateMutability": "nonpayable",
      "type": "function"
    },
    {
      "inputs": [
        {
          "internalType": "uint256",
          "name": "amount",
          "type": "uint256"
        },
        {
          "internalType": "uint256",
          "name": "currentTime",
          "type": "uint256"
        },
        {
          "internalType": "uint256",
          "name": "startTime",
          "type": "uint256"
        },
        {
          "internalType": "uint256",
          "name": "endTime",
          "type": "uint256"
        }
      ],
      "name": "calcDistribution",
      "outputs": [
        {
          "internalType": "uint256",
          "name": "",
          "type": "uint256"
        }
      ],
      "stateMutability": "pure",
      "type": "function"
    },
    {
      "inputs": [
        {
          "internalType": "uint256",
          "name": "amount",
          "type": "uint256"
        },
        {
          "internalType": "address",
          "name": "asset",
          "type": "address"
        }
      ],
      "name": "withdraw",
      "outputs": [],
      "stateMutability": "nonpayable",
      "type": "function"
    }
  ],
  "bytecode": "0x608060405234801561001057600080fd5b5061002d61002261003260201b60201c565b61003a60201b60201c565b6100fe565b600033905090565b60008060009054906101000a900473ffffffffffffffffffffffffffffffffffffffff169050816000806101000a81548173ffffffffffffffffffffffffffffffffffffffff021916908373ffffffffffffffffffffffffffffffffffffffff1602179055508173ffffffffffffffffffffffffffffffffffffffff168173ffffffffffffffffffffffffffffffffffffffff167f8be0079c531659141344cd1fd0a4f28419497f9722a3daafe3b4186f6b6457e060405160405180910390a35050565b61221f806200010e6000396000f3fe608060405234801561001057600080fd5b50600436106100b35760003560e01c80638da5cb5b116100715780638da5cb5b146101685780639c4e64e014610186578063cbf9fe5f146101b6578063df681c14146101e6578063f2fde38b14610216578063ffb4b1be14610232576100b3565b8062f714ce146100b85780630d535883146100d457806329761136146100f0578063379607f51461010c578063715018a614610128578063854e968214610132575b600080fd5b6100d260048036038101906100cd919061186f565b61024e565b005b6100ee60048036038101906100e99190611664565b6104bc565b005b61010a60048036038101906101059190611706565b610953565b005b61012660048036038101906101219190611815565b610a96565b005b610130610de4565b005b61014c60048036038101906101479190611624565b610e6c565b60405161015f9796959493929190611cc6565b60405180910390f35b610170610ee8565b60405161017d9190611ae7565b60405180910390f35b6101a0600480360381019061019b91906118af565b610f11565b6040516101ad9190611cab565b60405180910390f35b6101d060048036038101906101cb91906115f7565b610f5c565b6040516101dd9190611cab565b60405180910390f35b61020060048036038101906101fb91906115f7565b610f74565b60405161020d9190611cab565b60405180910390f35b610230600480360381019061022b91906115f7565b610f8c565b005b61024c60048036038101906102479190611624565b611084565b005b610256611416565b73ffffffffffffffffffffffffffffffffffffffff16610274610ee8565b73ffffffffffffffffffffffffffffffffffffffff16146102ca576040517f08c379a00000000000000000000000000000000000000000000000000000000081526004016102c190611c2b565b60405180910390fd5b600081905082600360008473ffffffffffffffffffffffffffffffffffffffff1673ffffffffffffffffffffffffffffffffffffffff168152602001908152602001600020548273ffffffffffffffffffffffffffffffffffffffff166370a08231306040518263ffffffff1660e01b81526004016103499190611ae7565b60206040518083038186803b15801561036157600080fd5b505afa158015610375573d6000803e3d6000fd5b505050506040513d601f19601f820116820180604052508101906103999190611842565b6103a39190611e27565b10156103e4576040517f08c379a00000000000000000000000000000000000000000000000000000000081526004016103db90611b2b565b60405180910390fd5b8073ffffffffffffffffffffffffffffffffffffffff1663a9059cbb610408610ee8565b856040518363ffffffff1660e01b8152600401610426929190611b02565b602060405180830381600087803b15801561044057600080fd5b505af1158015610454573d6000803e3d6000fd5b505050506040513d601f19601f8201168201806040525081019061047891906117e8565b6104b7576040517f08c379a00000000000000000000000000000000000000000000000000000000081526004016104ae90611b6b565b60405180910390fd5b505050565b6104c4611416565b73ffffffffffffffffffffffffffffffffffffffff166104e2610ee8565b73ffffffffffffffffffffffffffffffffffffffff1614610538576040517f08c379a000000000000000000000000000000000000000000000000000000000815260040161052f90611c2b565b60405180910390fd5b6000821180156105485750828210155b80156105545750600086115b610593576040517f08c379a000000000000000000000000000000000000000000000000000000000815260040161058a90611b8b565b60405180910390fd5b6000600360008773ffffffffffffffffffffffffffffffffffffffff1673ffffffffffffffffffffffffffffffffffffffff16815260200190815260200160002054905086816105e39190611d46565b8673ffffffffffffffffffffffffffffffffffffffff166370a08231306040518263ffffffff1660e01b815260040161061c9190611ae7565b60206040518083038186803b15801561063457600080fd5b505afa158015610648573d6000803e3d6000fd5b505050506040513d601f19601f8201168201806040525081019061066c9190611842565b10156106ad576040517f08c379a00000000000000000000000000000000000000000000000000000000081526004016106a490611c6b565b60405180910390fd5b6000600260008a73ffffffffffffffffffffffffffffffffffffffff1673ffffffffffffffffffffffffffffffffffffffff1681526020019081526020016000205490506040518060e001604052808981526020016000815260200184815260200162093a808761071e9190611dcd565b856107299190611d46565b815260200162093a808661073d9190611dcd565b856107489190611d46565b815260200187151581526020018873ffffffffffffffffffffffffffffffffffffffff16815250600160008b73ffffffffffffffffffffffffffffffffffffffff1673ffffffffffffffffffffffffffffffffffffffff1681526020019081526020016000206000838152602001908152602001600020600082015181600001556020820151816001015560408201518160020155606082015181600301556080820151816004015560a08201518160050160006101000a81548160ff02191690831515021790555060c08201518160050160016101000a81548173ffffffffffffffffffffffffffffffffffffffff021916908373ffffffffffffffffffffffffffffffffffffffff1602179055509050506001816108689190611d46565b600260008b73ffffffffffffffffffffffffffffffffffffffff1673ffffffffffffffffffffffffffffffffffffffff1681526020019081526020016000208190555087826108b79190611d46565b600360008973ffffffffffffffffffffffffffffffffffffffff1673ffffffffffffffffffffffffffffffffffffffff168152602001908152602001600020819055508873ffffffffffffffffffffffffffffffffffffffff167fd4a50953e9ae2104f507446be8391c79b33e1e86e626473e34bb79eb5fea1f3e896040516109409190611cab565b60405180910390a2505050505050505050565b61095b611416565b73ffffffffffffffffffffffffffffffffffffffff16610979610ee8565b73ffffffffffffffffffffffffffffffffffffffff16146109cf576040517f08c379a00000000000000000000000000000000000000000000000000000000081526004016109c690611c2b565b60405180910390fd5b6000898990509050808888905014610a1c576040517f08c379a0000000000000000000000000000000000000000000000000000000008152600401610a1390611beb565b60405180910390fd5b60005b81811015610a8957610a768b8b83818110610a3d57610a3c611f4a565b5b9050602002016020810190610a5291906115f7565b8a8a84818110610a6557610a64611f4a565b5b9050602002013589898989896104bc565b8080610a8190611ea3565b915050610a1f565b5050505050505050505050565b6000600160003373ffffffffffffffffffffffffffffffffffffffff1673ffffffffffffffffffffffffffffffffffffffff168152602001908152602001600020600083815260200190815260200160002090504281600301541115610b31576040517f08c379a0000000000000000000000000000000000000000000000000000000008152600401610b2890611bcb565b60405180910390fd5b6000816000015411610b78576040517f08c379a0000000000000000000000000000000000000000000000000000000008152600401610b6f90611c8b565b60405180910390fd5b6000610b9282600001544284600201548560040154610f11565b905081600001548111610ba55780610bab565b81600001545b90506000826001015482610bbf9190611e27565b905081836001018190555080600360008560050160019054906101000a900473ffffffffffffffffffffffffffffffffffffffff1673ffffffffffffffffffffffffffffffffffffffff1673ffffffffffffffffffffffffffffffffffffffff16815260200190815260200160002054610c399190611e27565b600360008560050160019054906101000a900473ffffffffffffffffffffffffffffffffffffffff1673ffffffffffffffffffffffffffffffffffffffff1673ffffffffffffffffffffffffffffffffffffffff168152602001908152602001600020819055508260050160019054906101000a900473ffffffffffffffffffffffffffffffffffffffff1673ffffffffffffffffffffffffffffffffffffffff1663a9059cbb33836040518363ffffffff1660e01b8152600401610cff929190611b02565b602060405180830381600087803b158015610d1957600080fd5b505af1158015610d2d573d6000803e3d6000fd5b505050506040513d601f19601f82011682018060405250810190610d5191906117e8565b610d90576040517f08c379a0000000000000000000000000000000000000000000000000000000008152600401610d8790611c0b565b60405180910390fd5b3373ffffffffffffffffffffffffffffffffffffffff167f47cee97cb7acd717b3c0aa1435d004cd5b3c8c57d70dbceb4e4458bbd60e39d483604051610dd69190611cab565b60405180910390a250505050565b610dec611416565b73ffffffffffffffffffffffffffffffffffffffff16610e0a610ee8565b73ffffffffffffffffffffffffffffffffffffffff1614610e60576040517f08c379a0000000000000000000000000000000000000000000000000000000008152600401610e5790611c2b565b60405180910390fd5b610e6a600061141e565b565b6001602052816000526040600020602052806000526040600020600091509150508060000154908060010154908060020154908060030154908060040154908060050160009054906101000a900460ff16908060050160019054906101000a900473ffffffffffffffffffffffffffffffffffffffff16905087565b60008060009054906101000a900473ffffffffffffffffffffffffffffffffffffffff16905090565b600082841015610f245760009050610f54565b8282610f309190611e27565b8385610f3c9190611e27565b86610f479190611dcd565b610f519190611d9c565b90505b949350505050565b60036020528060005260406000206000915090505481565b60026020528060005260406000206000915090505481565b610f94611416565b73ffffffffffffffffffffffffffffffffffffffff16610fb2610ee8565b73ffffffffffffffffffffffffffffffffffffffff1614611008576040517f08c379a0000000000000000000000000000000000000000000000000000000008152600401610fff90611c2b565b60405180910390fd5b600073ffffffffffffffffffffffffffffffffffffffff168173ffffffffffffffffffffffffffffffffffffffff161415611078576040517f08c379a000000000000000000000000000000000000000000000000000000000815260040161106f90611b4b565b60405180910390fd5b6110818161141e565b50565b61108c611416565b73ffffffffffffffffffffffffffffffffffffffff166110aa610ee8565b73ffffffffffffffffffffffffffffffffffffffff1614611100576040517f08c379a00000000000000000000000000000000000000000000000000000000081526004016110f790611c2b565b60405180910390fd5b6000600160008473ffffffffffffffffffffffffffffffffffffffff1673ffffffffffffffffffffffffffffffffffffffff168152602001908152602001600020600083815260200190815260200160002090508060050160009054906101000a900460ff16156111a6576040517f08c379a000000000000000000000000000000000000000000000000000000000815260040161119d90611bab565b60405180910390fd5b6000816001015482600001546111bc9190611e27565b90506000811415611202576040517f08c379a00000000000000000000000000000000000000000000000000000000081526004016111f990611c4b565b60405180910390fd5b6000826000018190555080600360008460050160019054906101000a900473ffffffffffffffffffffffffffffffffffffffff1673ffffffffffffffffffffffffffffffffffffffff1673ffffffffffffffffffffffffffffffffffffffff1681526020019081526020016000205461127b9190611e27565b600360008460050160019054906101000a900473ffffffffffffffffffffffffffffffffffffffff1673ffffffffffffffffffffffffffffffffffffffff1673ffffffffffffffffffffffffffffffffffffffff168152602001908152602001600020819055508160050160019054906101000a900473ffffffffffffffffffffffffffffffffffffffff1673ffffffffffffffffffffffffffffffffffffffff1663a9059cbb61132a610ee8565b836040518363ffffffff1660e01b8152600401611348929190611b02565b602060405180830381600087803b15801561136257600080fd5b505af1158015611376573d6000803e3d6000fd5b505050506040513d601f19601f8201168201806040525081019061139a91906117e8565b6113d9576040517f08c379a00000000000000000000000000000000000000000000000000000000081526004016113d090611c0b565b60405180910390fd5b7f398bd6b21ae4164ec322fb0eb8c2eb6277f36fd41903fbbed594dfe125591281846040516114089190611ae7565b60405180910390a150505050565b600033905090565b60008060009054906101000a900473ffffffffffffffffffffffffffffffffffffffff169050816000806101000a81548173ffffffffffffffffffffffffffffffffffffffff021916908373ffffffffffffffffffffffffffffffffffffffff1602179055508173ffffffffffffffffffffffffffffffffffffffff168173ffffffffffffffffffffffffffffffffffffffff167f8be0079c531659141344cd1fd0a4f28419497f9722a3daafe3b4186f6b6457e060405160405180910390a35050565b6000813590506114f1816121a4565b92915050565b60008083601f84011261150d5761150c611f7e565b5b8235905067ffffffffffffffff81111561152a57611529611f79565b5b60208301915083602082028301111561154657611545611f83565b5b9250929050565b60008083601f84011261156357611562611f7e565b5b8235905067ffffffffffffffff8111156115805761157f611f79565b5b60208301915083602082028301111561159c5761159b611f83565b5b9250929050565b6000813590506115b2816121bb565b92915050565b6000815190506115c7816121bb565b92915050565b6000813590506115dc816121d2565b92915050565b6000815190506115f1816121d2565b92915050565b60006020828403121561160d5761160c611f8d565b5b600061161b848285016114e2565b91505092915050565b6000806040838503121561163b5761163a611f8d565b5b6000611649858286016114e2565b925050602061165a858286016115cd565b9150509250929050565b600080600080600080600060e0888a03121561168357611682611f8d565b5b60006116918a828b016114e2565b97505060206116a28a828b016115cd565b96505060406116b38a828b016114e2565b95505060606116c48a828b016115a3565b94505060806116d58a828b016115cd565b93505060a06116e68a828b016115cd565b92505060c06116f78a828b016115cd565b91505092959891949750929550565b600080600080600080600080600060e08a8c03121561172857611727611f8d565b5b60008a013567ffffffffffffffff81111561174657611745611f88565b5b6117528c828d016114f7565b995099505060208a013567ffffffffffffffff81111561177557611774611f88565b5b6117818c828d0161154d565b975097505060406117948c828d016114e2565b95505060606117a58c828d016115a3565b94505060806117b68c828d016115cd565b93505060a06117c78c828d016115cd565b92505060c06117d88c828d016115cd565b9150509295985092959850929598565b6000602082840312156117fe576117fd611f8d565b5b600061180c848285016115b8565b91505092915050565b60006020828403121561182b5761182a611f8d565b5b6000611839848285016115cd565b91505092915050565b60006020828403121561185857611857611f8d565b5b6000611866848285016115e2565b91505092915050565b6000806040838503121561188657611885611f8d565b5b6000611894858286016115cd565b92505060206118a5858286016114e2565b9150509250929050565b600080600080608085870312156118c9576118c8611f8d565b5b60006118d7878288016115cd565b94505060206118e8878288016115cd565b93505060406118f9878288016115cd565b925050606061190a878288016115cd565b91505092959194509250565b61191f81611e5b565b82525050565b61192e81611e6d565b82525050565b6000611941601783611d35565b915061194c82611f92565b602082019050919050565b6000611964602683611d35565b915061196f82611fbb565b604082019050919050565b6000611987601883611d35565b91506119928261200a565b602082019050919050565b60006119aa601f83611d35565b91506119b582612033565b602082019050919050565b60006119cd601983611d35565b91506119d88261205c565b602082019050919050565b60006119f0601a83611d35565b91506119fb82612085565b602082019050919050565b6000611a13601d83611d35565b9150611a1e826120ae565b602082019050919050565b6000611a36601883611d35565b9150611a41826120d7565b602082019050919050565b6000611a59602083611d35565b9150611a6482612100565b602082019050919050565b6000611a7c601e83611d35565b9150611a8782612129565b602082019050919050565b6000611a9f601a83611d35565b9150611aaa82612152565b602082019050919050565b6000611ac2601683611d35565b9150611acd8261217b565b602082019050919050565b611ae181611e99565b82525050565b6000602082019050611afc6000830184611916565b92915050565b6000604082019050611b176000830185611916565b611b246020830184611ad8565b9392505050565b60006020820190508181036000830152611b4481611934565b9050919050565b60006020820190508181036000830152611b6481611957565b9050919050565b60006020820190508181036000830152611b848161197a565b9050919050565b60006020820190508181036000830152611ba48161199d565b9050919050565b60006020820190508181036000830152611bc4816119c0565b9050919050565b60006020820190508181036000830152611be4816119e3565b9050919050565b60006020820190508181036000830152611c0481611a06565b9050919050565b60006020820190508181036000830152611c2481611a29565b9050919050565b60006020820190508181036000830152611c4481611a4c565b9050919050565b60006020820190508181036000830152611c6481611a6f565b9050919050565b60006020820190508181036000830152611c8481611a92565b9050919050565b60006020820190508181036000830152611ca481611ab5565b9050919050565b6000602082019050611cc06000830184611ad8565b92915050565b600060e082019050611cdb600083018a611ad8565b611ce86020830189611ad8565b611cf56040830188611ad8565b611d026060830187611ad8565b611d0f6080830186611ad8565b611d1c60a0830185611925565b611d2960c0830184611916565b98975050505050505050565b600082825260208201905092915050565b6000611d5182611e99565b9150611d5c83611e99565b9250827fffffffffffffffffffffffffffffffffffffffffffffffffffffffffffffffff03821115611d9157611d90611eec565b5b828201905092915050565b6000611da782611e99565b9150611db283611e99565b925082611dc257611dc1611f1b565b5b828204905092915050565b6000611dd882611e99565b9150611de383611e99565b9250817fffffffffffffffffffffffffffffffffffffffffffffffffffffffffffffffff0483118215151615611e1c57611e1b611eec565b5b828202905092915050565b6000611e3282611e99565b9150611e3d83611e99565b925082821015611e5057611e4f611eec565b5b828203905092915050565b6000611e6682611e79565b9050919050565b60008115159050919050565b600073ffffffffffffffffffffffffffffffffffffffff82169050919050565b6000819050919050565b6000611eae82611e99565b91507fffffffffffffffffffffffffffffffffffffffffffffffffffffffffffffffff821415611ee157611ee0611eec565b5b600182019050919050565b7f4e487b7100000000000000000000000000000000000000000000000000000000600052601160045260246000fd5b7f4e487b7100000000000000000000000000000000000000000000000000000000600052601260045260246000fd5b7f4e487b7100000000000000000000000000000000000000000000000000000000600052603260045260246000fd5b600080fd5b600080fd5b600080fd5b600080fd5b600080fd5b7f56657374696e673a2043616e2774207769746864726177000000000000000000600082015250565b7f4f776e61626c653a206e6577206f776e657220697320746865207a65726f206160008201527f6464726573730000000000000000000000000000000000000000000000000000602082015250565b7f56657374696e673a207769746864726177206661696c65640000000000000000600082015250565b7f56657374696e673a20696e76616c69642076657374696e6720706172616d7300600082015250565b7f56657374696e673a204163636f756e7420697320666978656400000000000000600082015250565b7f56657374696e673a20636c696666206e6f742072656163686564000000000000600082015250565b7f56657374696e673a204172726179206c656e6774687320646966666572000000600082015250565b7f56657374696e673a207472616e73666572206661696c65640000000000000000600082015250565b7f4f776e61626c653a2063616c6c6572206973206e6f7420746865206f776e6572600082015250565b7f56657374696e673a206e6f206f75747374616e64696e6720746f6b656e730000600082015250565b7f56657374696e673a204e6f7420656e6f75676820746f6b656e73000000000000600082015250565b7f56657374696e673a206e6f7420636c61696d61626c6500000000000000000000600082015250565b6121ad81611e5b565b81146121b857600080fd5b50565b6121c481611e6d565b81146121cf57600080fd5b50565b6121db81611e99565b81146121e657600080fd5b5056fea2646970667358221220c0e8c2f9b4d1674983b72019d01c549ca68fb3c4bc6e5e31df6b873ca3806de364736f6c63430008070033",
  "immutableReferences": {},
  "source": "// SPDX-License-Identifier: GPL-3.0-only\r\npragma solidity 0.8.7;\r\n\r\nimport \"@openzeppelin/contracts/token/ERC20/IERC20.sol\";\r\nimport \"@openzeppelin/contracts/access/Ownable.sol\";\r\n\r\ninterface IBEP20 {\r\n  /**\r\n   * @dev Returns the amount of tokens in existence.\r\n   */\r\n  function totalSupply() external view returns (uint256);\r\n\r\n  /**\r\n   * @dev Returns the token decimals.\r\n   */\r\n  function decimals() external view returns (uint8);\r\n\r\n  /**\r\n   * @dev Returns the token symbol.\r\n   */\r\n  function symbol() external view returns (string memory);\r\n\r\n  /**\r\n  * @dev Returns the token name.\r\n  */\r\n  function name() external view returns (string memory);\r\n\r\n  /**\r\n   * @dev Returns the bep token owner.\r\n   */\r\n  function getOwner() external view returns (address);\r\n\r\n  /**\r\n   * @dev Returns the amount of tokens owned by `account`.\r\n   */\r\n  function balanceOf(address account) external view returns (uint256);\r\n\r\n  /**\r\n   * @dev Moves `amount` tokens from the caller's account to `recipient`.\r\n   *\r\n   * Returns a boolean value indicating whether the operation succeeded.\r\n   *\r\n   * Emits a {Transfer} event.\r\n   */\r\n  function transfer(address recipient, uint256 amount) external returns (bool);\r\n\r\n  /**\r\n   * @dev Returns the remaining number of tokens that `spender` will be\r\n   * allowed to spend on behalf of `owner` through {transferFrom}. This is\r\n   * zero by default.\r\n   *\r\n   * This value changes when {approve} or {transferFrom} are called.\r\n   */\r\n  function allowance(address _owner, address spender) external view returns (uint256);\r\n\r\n  /**\r\n   * @dev Sets `amount` as the allowance of `spender` over the caller's tokens.\r\n   *\r\n   * Returns a boolean value indicating whether the operation succeeded.\r\n   *\r\n   * IMPORTANT: Beware that changing an allowance with this method brings the risk\r\n   * that someone may use both the old and the new allowance by unfortunate\r\n   * transaction ordering. One possible solution to mitigate this race\r\n   * condition is to first reduce the spender's allowance to 0 and set the\r\n   * desired value afterwards:\r\n   * https://github.com/ethereum/EIPs/issues/20#issuecomment-263524729\r\n   *\r\n   * Emits an {Approval} event.\r\n   */\r\n  function approve(address spender, uint256 amount) external returns (bool);\r\n\r\n  /**\r\n   * @dev Moves `amount` tokens from `sender` to `recipient` using the\r\n   * allowance mechanism. `amount` is then deducted from the caller's\r\n   * allowance.\r\n   *\r\n   * Returns a boolean value indicating whether the operation succeeded.\r\n   *\r\n   * Emits a {Transfer} event.\r\n   */\r\n  function transferFrom(address sender, address recipient, uint256 amount) external returns (bool);\r\n\r\n  /**\r\n   * @dev Emitted when `value` tokens are moved from one account (`from`) to\r\n   * another (`to`).\r\n   *\r\n   * Note that `value` may be zero.\r\n   */\r\n  event Transfer(address indexed from, address indexed to, uint256 value);\r\n\r\n  /**\r\n   * @dev Emitted when the allowance of a `spender` for an `owner` is set by\r\n   * a call to {approve}. `value` is the new allowance.\r\n   */\r\n  event Approval(address indexed owner, address indexed spender, uint256 value);\r\n}\r\n/**\r\n * Tracer Standard Vesting Contract\r\n */\r\ncontract Vesting is Ownable {\r\n    struct Schedule {\r\n        uint256 totalAmount;\r\n        uint256 claimedAmount;\r\n        uint256 startTime;\r\n        uint256 cliffTime;\r\n        uint256 endTime;\r\n        bool isFixed;\r\n        address asset;\r\n    }\r\n\r\n    // user => scheduleId => schedule\r\n    mapping(address => mapping(uint256 => Schedule)) public schedules;\r\n    mapping(address => uint256) public numberOfSchedules;\r\n\r\n    mapping(address => uint256) public locked;\r\n\r\n    event Claim(address indexed claimer, uint256 amount);\r\n    event Vest(address indexed to, uint256 amount);\r\n    event Cancelled(address account);\r\n\r\n    constructor() {}\r\n\r\n    /**\r\n     * @notice Sets up a vesting schedule for a set user.\r\n     * @dev adds a new Schedule to the schedules mapping.\r\n     * @param account the account that a vesting schedule is being set up for. Will be able to claim tokens after\r\n     *                the cliff period.\r\n     * @param amount the amount of tokens being vested for the user.\r\n     * @param asset the asset that the user is being vested\r\n     * @param isFixed a flag for if the vesting schedule is fixed or not. Fixed vesting schedules can't be cancelled.\r\n     * @param cliffWeeks the number of weeks that the cliff will be present at.\r\n     * @param vestingWeeks the number of weeks the tokens will vest over (linearly)\r\n     * @param startTime the timestamp for when this vesting should have started\r\n     */\r\n    function vest(\r\n        address account,\r\n        uint256 amount,\r\n        address asset,\r\n        bool isFixed,\r\n        uint256 cliffWeeks,\r\n        uint256 vestingWeeks,\r\n        uint256 startTime\r\n    ) public onlyOwner {\r\n        // ensure cliff is shorter than vesting\r\n        require(\r\n            vestingWeeks > 0 && \r\n            vestingWeeks >= cliffWeeks &&\r\n            amount > 0,\r\n            \"Vesting: invalid vesting params\"\r\n        );\r\n\r\n        uint256 currentLocked = locked[asset];\r\n\r\n        // require the token is present\r\n        require(\r\n            IBEP20(asset).balanceOf(address(this)) >= currentLocked + amount,\r\n            \"Vesting: Not enough tokens\"\r\n        );\r\n\r\n        // create the schedule\r\n        uint256 currentNumSchedules = numberOfSchedules[account];\r\n        schedules[account][currentNumSchedules] = Schedule(\r\n            amount,\r\n            0,\r\n            startTime,\r\n            startTime + (cliffWeeks * 1 weeks),\r\n            startTime + (vestingWeeks * 1 weeks),\r\n            isFixed,\r\n            asset\r\n        );\r\n        numberOfSchedules[account] = currentNumSchedules + 1;\r\n        locked[asset] = currentLocked + amount;\r\n        emit Vest(account, amount);\r\n    }\r\n\r\n    /**\r\n     * @notice Sets up vesting schedules for multiple users within 1 transaction.\r\n     * @dev adds a new Schedule to the schedules mapping.\r\n     * @param accounts an array of the accounts that the vesting schedules are being set up for.\r\n     *                 Will be able to claim tokens after the cliff period.\r\n     * @param amount an array of the amount of tokens being vested for each user.\r\n     * @param asset the asset that the user is being vested\r\n     * @param isFixed bool setting if these vesting schedules can be rugged or not.\r\n     * @param cliffWeeks the number of weeks that the cliff will be present at.\r\n     * @param vestingWeeks the number of weeks the tokens will vest over (linearly)\r\n     * @param startTime the timestamp for when this vesting should have started\r\n     */\r\n    function multiVest(\r\n        address[] calldata accounts,\r\n        uint256[] calldata amount,\r\n        address asset,\r\n        bool isFixed,\r\n        uint256 cliffWeeks,\r\n        uint256 vestingWeeks,\r\n        uint256 startTime\r\n    ) external onlyOwner {\r\n        uint256 numberOfAccounts = accounts.length;\r\n        require(\r\n            amount.length == numberOfAccounts,\r\n            \"Vesting: Array lengths differ\"\r\n        );\r\n        for (uint256 i = 0; i < numberOfAccounts; i++) {\r\n            vest(\r\n                accounts[i],\r\n                amount[i],\r\n                asset,\r\n                isFixed,\r\n                cliffWeeks,\r\n                vestingWeeks,\r\n                startTime\r\n            );\r\n        }\r\n    }\r\n\r\n    /**\r\n     * @notice allows users to claim vested tokens if the cliff time has passed.\r\n     * @param scheduleNumber which schedule the user is claiming against\r\n     */\r\n    function claim(uint256 scheduleNumber) external {\r\n        Schedule storage schedule = schedules[msg.sender][scheduleNumber];\r\n        require(\r\n            schedule.cliffTime <= block.timestamp,\r\n            \"Vesting: cliff not reached\"\r\n        );\r\n        require(schedule.totalAmount > 0, \"Vesting: not claimable\");\r\n\r\n        // Get the amount to be distributed\r\n        uint256 amount = calcDistribution(\r\n            schedule.totalAmount,\r\n            block.timestamp,\r\n            schedule.startTime,\r\n            schedule.endTime\r\n        );\r\n\r\n        // Cap the amount at the total amount\r\n        amount = amount > schedule.totalAmount ? schedule.totalAmount : amount;\r\n        uint256 amountToTransfer = amount - schedule.claimedAmount;\r\n        schedule.claimedAmount = amount; // set new claimed amount based off the curve\r\n        locked[schedule.asset] = locked[schedule.asset] - amountToTransfer;\r\n        require(IBEP20(schedule.asset).transfer(msg.sender, amountToTransfer), \"Vesting: transfer failed\");\r\n        emit Claim(msg.sender, amount);\r\n    }\r\n\r\n    /**\r\n     * @notice Allows a vesting schedule to be cancelled.\r\n     * @dev Any outstanding tokens are returned to the system.\r\n     * @param account the account of the user whos vesting schedule is being cancelled.\r\n     */\r\n    function rug(address account, uint256 scheduleId) external onlyOwner {\r\n        Schedule storage schedule = schedules[account][scheduleId];\r\n        require(!schedule.isFixed, \"Vesting: Account is fixed\");\r\n        uint256 outstandingAmount = schedule.totalAmount -\r\n            schedule.claimedAmount;\r\n        require(outstandingAmount != 0, \"Vesting: no outstanding tokens\");\r\n        schedule.totalAmount = 0;\r\n        locked[schedule.asset] = locked[schedule.asset] - outstandingAmount;\r\n        require(IBEP20(schedule.asset).transfer(owner(), outstandingAmount), \"Vesting: transfer failed\");\r\n        emit Cancelled(account);\r\n    }\r\n\r\n    /**\r\n     * @return calculates the amount of tokens to distribute to an account at any instance in time, based off some\r\n     *         total claimable amount.\r\n     * @param amount the total outstanding amount to be claimed for this vesting schedule.\r\n     * @param currentTime the current timestamp.\r\n     * @param startTime the timestamp this vesting schedule started.\r\n     * @param endTime the timestamp this vesting schedule ends.\r\n     */\r\n    function calcDistribution(\r\n        uint256 amount,\r\n        uint256 currentTime,\r\n        uint256 startTime,\r\n        uint256 endTime\r\n    ) public pure returns (uint256) {\r\n        // avoid uint underflow\r\n        if (currentTime < startTime) {\r\n            return 0;\r\n        }\r\n\r\n        // if endTime < startTime, this will throw. Since endTime should never be\r\n        // less than startTime in safe operation, this is fine.\r\n        return (amount * (currentTime - startTime)) / (endTime - startTime);\r\n    }\r\n\r\n    /**\r\n     * @notice Withdraws TCR tokens from the contract.\r\n     * @dev blocks withdrawing locked tokens.\r\n     */\r\n    function withdraw(uint256 amount, address asset) external onlyOwner {\r\n        IBEP20 token = IBEP20(asset);\r\n        require(\r\n            token.balanceOf(address(this)) - locked[asset] >= amount,\r\n            \"Vesting: Can't withdraw\"\r\n        );\r\n        require(token.transfer(owner(), amount), \"Vesting: withdraw failed\");\r\n    }\r\n}",
  "sourcePath": "D:\\Work Space\\CasperPad\\CasperPadToken_Contract\\contracts\\Vesting.sol",
  "compiler": {
    "name": "solc",
    "version": "0.8.7+commit.e28d00a7.Emscripten.clang"
  },
  "schemaVersion": "3.4.3",
  "updatedAt": "2021-11-25T01:54:22.489Z",
  "devdoc": {
    "kind": "dev",
    "methods": {
      "calcDistribution(uint256,uint256,uint256,uint256)": {
        "params": {
          "amount": "the total outstanding amount to be claimed for this vesting schedule.",
          "currentTime": "the current timestamp.",
          "endTime": "the timestamp this vesting schedule ends.",
          "startTime": "the timestamp this vesting schedule started."
        },
        "returns": {
          "_0": "calculates the amount of tokens to distribute to an account at any instance in time, based off some         total claimable amount."
        }
      },
      "claim(uint256)": {
        "params": {
          "scheduleNumber": "which schedule the user is claiming against"
        }
      },
      "multiVest(address[],uint256[],address,bool,uint256,uint256,uint256)": {
        "details": "adds a new Schedule to the schedules mapping.",
        "params": {
          "accounts": "an array of the accounts that the vesting schedules are being set up for.                 Will be able to claim tokens after the cliff period.",
          "amount": "an array of the amount of tokens being vested for each user.",
          "asset": "the asset that the user is being vested",
          "cliffWeeks": "the number of weeks that the cliff will be present at.",
          "isFixed": "bool setting if these vesting schedules can be rugged or not.",
          "startTime": "the timestamp for when this vesting should have started",
          "vestingWeeks": "the number of weeks the tokens will vest over (linearly)"
        }
      },
      "owner()": {
        "details": "Returns the address of the current owner."
      },
      "renounceOwnership()": {
        "details": "Leaves the contract without owner. It will not be possible to call `onlyOwner` functions anymore. Can only be called by the current owner. NOTE: Renouncing ownership will leave the contract without an owner, thereby removing any functionality that is only available to the owner."
      },
      "rug(address,uint256)": {
        "details": "Any outstanding tokens are returned to the system.",
        "params": {
          "account": "the account of the user whos vesting schedule is being cancelled."
        }
      },
      "transferOwnership(address)": {
        "details": "Transfers ownership of the contract to a new account (`newOwner`). Can only be called by the current owner."
      },
      "vest(address,uint256,address,bool,uint256,uint256,uint256)": {
        "details": "adds a new Schedule to the schedules mapping.",
        "params": {
          "account": "the account that a vesting schedule is being set up for. Will be able to claim tokens after                the cliff period.",
          "amount": "the amount of tokens being vested for the user.",
          "asset": "the asset that the user is being vested",
          "cliffWeeks": "the number of weeks that the cliff will be present at.",
          "isFixed": "a flag for if the vesting schedule is fixed or not. Fixed vesting schedules can't be cancelled.",
          "startTime": "the timestamp for when this vesting should have started",
          "vestingWeeks": "the number of weeks the tokens will vest over (linearly)"
        }
      },
      "withdraw(uint256,address)": {
        "details": "blocks withdrawing locked tokens."
      }
    },
    "version": 1
  },
  "userdoc": {
    "kind": "user",
    "methods": {
      "claim(uint256)": {
        "notice": "allows users to claim vested tokens if the cliff time has passed."
      },
      "multiVest(address[],uint256[],address,bool,uint256,uint256,uint256)": {
        "notice": "Sets up vesting schedules for multiple users within 1 transaction."
      },
      "rug(address,uint256)": {
        "notice": "Allows a vesting schedule to be cancelled."
      },
      "vest(address,uint256,address,bool,uint256,uint256,uint256)": {
        "notice": "Sets up a vesting schedule for a set user."
      },
      "withdraw(uint256,address)": {
        "notice": "Withdraws TCR tokens from the contract."
      }
    },
    "notice": "Tracer Standard Vesting Contract",
    "version": 1
  }
}