{
  "contractName": "Vesting",
  "abi": [
    {
      "inputs": [
        {
          "internalType": "address",
          "name": "_token",
          "type": "address"
        }
      ],
      "stateMutability": "nonpayable",
      "type": "constructor"
    },
    {
      "anonymous": false,
      "inputs": [
        {
          "indexed": false,
          "internalType": "address",
          "name": "_address",
          "type": "address"
        }
      ],
      "name": "AddNewAdmin",
      "type": "event"
    },
    {
      "anonymous": false,
      "inputs": [
        {
          "indexed": false,
          "internalType": "address",
          "name": "account",
          "type": "address"
        }
      ],
      "name": "Cancelled",
      "type": "event"
    },
    {
      "anonymous": false,
      "inputs": [
        {
          "indexed": true,
          "internalType": "address",
          "name": "claimer",
          "type": "address"
        },
        {
          "indexed": false,
          "internalType": "uint256",
          "name": "amount",
          "type": "uint256"
        }
      ],
      "name": "Claim",
      "type": "event"
    },
    {
      "anonymous": false,
      "inputs": [
        {
          "indexed": true,
          "internalType": "address",
          "name": "investor",
          "type": "address"
        },
        {
          "indexed": false,
          "internalType": "uint256",
          "name": "amount",
          "type": "uint256"
        },
        {
          "indexed": false,
          "internalType": "bool",
          "name": "isFixed",
          "type": "bool"
        }
      ],
      "name": "NewVesting",
      "type": "event"
    },
    {
      "anonymous": false,
      "inputs": [
        {
          "indexed": true,
          "internalType": "address",
          "name": "previousOwner",
          "type": "address"
        },
        {
          "indexed": true,
          "internalType": "address",
          "name": "newOwner",
          "type": "address"
        }
      ],
      "name": "OwnershipTransferred",
      "type": "event"
    },
    {
      "anonymous": false,
      "inputs": [
        {
          "indexed": false,
          "internalType": "uint256",
          "name": "_timestamp",
          "type": "uint256"
        }
      ],
      "name": "UnlockTokens",
      "type": "event"
    },
    {
      "inputs": [
        {
          "internalType": "address",
          "name": "",
          "type": "address"
        }
      ],
      "name": "admins",
      "outputs": [
        {
          "internalType": "bool",
          "name": "",
          "type": "bool"
        }
      ],
      "stateMutability": "view",
      "type": "function"
    },
    {
      "inputs": [
        {
          "internalType": "uint256",
          "name": "",
          "type": "uint256"
        }
      ],
      "name": "amounts",
      "outputs": [
        {
          "internalType": "uint256",
          "name": "",
          "type": "uint256"
        }
      ],
      "stateMutability": "view",
      "type": "function"
    },
    {
      "inputs": [
        {
          "internalType": "address",
          "name": "",
          "type": "address"
        }
      ],
      "name": "locked",
      "outputs": [
        {
          "internalType": "uint256",
          "name": "",
          "type": "uint256"
        }
      ],
      "stateMutability": "view",
      "type": "function"
    },
    {
      "inputs": [
        {
          "internalType": "uint256",
          "name": "",
          "type": "uint256"
        }
      ],
      "name": "members",
      "outputs": [
        {
          "internalType": "address",
          "name": "",
          "type": "address"
        }
      ],
      "stateMutability": "view",
      "type": "function"
    },
    {
      "inputs": [
        {
          "internalType": "address",
          "name": "",
          "type": "address"
        }
      ],
      "name": "numberOfSchedules",
      "outputs": [
        {
          "internalType": "uint256",
          "name": "",
          "type": "uint256"
        }
      ],
      "stateMutability": "view",
      "type": "function"
    },
    {
      "inputs": [],
      "name": "numberOfTiers",
      "outputs": [
        {
          "internalType": "uint256",
          "name": "",
          "type": "uint256"
        }
      ],
      "stateMutability": "view",
      "type": "function"
    },
    {
      "inputs": [],
      "name": "owner",
      "outputs": [
        {
          "internalType": "address",
          "name": "",
          "type": "address"
        }
      ],
      "stateMutability": "view",
      "type": "function"
    },
    {
      "inputs": [],
      "name": "renounceOwnership",
      "outputs": [],
      "stateMutability": "nonpayable",
      "type": "function"
    },
    {
      "inputs": [
        {
          "internalType": "uint256",
          "name": "",
          "type": "uint256"
        }
      ],
      "name": "schedulePlain",
      "outputs": [
        {
          "internalType": "uint256",
          "name": "percentage",
          "type": "uint256"
        },
        {
          "internalType": "uint256",
          "name": "unlockTime",
          "type": "uint256"
        },
        {
          "internalType": "bool",
          "name": "isSent",
          "type": "bool"
        }
      ],
      "stateMutability": "view",
      "type": "function"
    },
    {
      "inputs": [
        {
          "internalType": "address",
          "name": "",
          "type": "address"
        },
        {
          "internalType": "uint256",
          "name": "",
          "type": "uint256"
        }
      ],
      "name": "schedules",
      "outputs": [
        {
          "internalType": "uint256",
          "name": "amount",
          "type": "uint256"
        },
        {
          "internalType": "uint256",
          "name": "claimedAmount",
          "type": "uint256"
        },
        {
          "internalType": "uint256",
          "name": "unlockTime",
          "type": "uint256"
        },
        {
          "internalType": "bool",
          "name": "isFixed",
          "type": "bool"
        }
      ],
      "stateMutability": "view",
      "type": "function"
    },
    {
      "inputs": [
        {
          "internalType": "uint256",
          "name": "",
          "type": "uint256"
        }
      ],
      "name": "tiers",
      "outputs": [
        {
          "internalType": "uint256",
          "name": "tierId",
          "type": "uint256"
        },
        {
          "internalType": "uint256",
          "name": "amountMax",
          "type": "uint256"
        }
      ],
      "stateMutability": "view",
      "type": "function"
    },
    {
      "inputs": [],
      "name": "token",
      "outputs": [
        {
          "internalType": "contract IBEP20",
          "name": "",
          "type": "address"
        }
      ],
      "stateMutability": "view",
      "type": "function"
    },
    {
      "inputs": [
        {
          "internalType": "address",
          "name": "newOwner",
          "type": "address"
        }
      ],
      "name": "transferOwnership",
      "outputs": [],
      "stateMutability": "nonpayable",
      "type": "function"
    },
    {
      "inputs": [
        {
          "internalType": "uint256",
          "name": "",
          "type": "uint256"
        }
      ],
      "name": "vestingTimeList",
      "outputs": [
        {
          "internalType": "uint256",
          "name": "",
          "type": "uint256"
        }
      ],
      "stateMutability": "view",
      "type": "function"
    },
    {
      "inputs": [
        {
          "internalType": "address",
          "name": "",
          "type": "address"
        }
      ],
      "name": "whitelistOfTiers",
      "outputs": [
        {
          "internalType": "uint256",
          "name": "",
          "type": "uint256"
        }
      ],
      "stateMutability": "view",
      "type": "function"
    },
    {
      "inputs": [
        {
          "internalType": "address",
          "name": "_address",
          "type": "address"
        }
      ],
      "name": "addAdmin",
      "outputs": [],
      "stateMutability": "nonpayable",
      "type": "function"
    },
    {
      "inputs": [
        {
          "internalType": "address",
          "name": "account",
          "type": "address"
        },
        {
          "internalType": "uint256",
          "name": "amount",
          "type": "uint256"
        },
        {
          "internalType": "bool",
          "name": "isFixed",
          "type": "bool"
        }
      ],
      "name": "addVest",
      "outputs": [],
      "stateMutability": "nonpayable",
      "type": "function"
    },
    {
      "inputs": [
        {
          "internalType": "address[]",
          "name": "accounts",
          "type": "address[]"
        },
        {
          "internalType": "uint256[]",
          "name": "amount",
          "type": "uint256[]"
        },
        {
          "internalType": "bool",
          "name": "isFixed",
          "type": "bool"
        }
      ],
      "name": "addMultiVest",
      "outputs": [],
      "stateMutability": "nonpayable",
      "type": "function"
    },
    {
      "inputs": [
        {
          "internalType": "uint256",
          "name": "scheduleNumber",
          "type": "uint256"
        }
      ],
      "name": "claim",
      "outputs": [],
      "stateMutability": "nonpayable",
      "type": "function"
    },
    {
      "inputs": [
        {
          "internalType": "address",
          "name": "account",
          "type": "address"
        },
        {
          "internalType": "uint256",
          "name": "scheduleId",
          "type": "uint256"
        }
      ],
      "name": "rug",
      "outputs": [],
      "stateMutability": "nonpayable",
      "type": "function"
    },
    {
      "inputs": [
        {
          "internalType": "uint256",
          "name": "amount",
          "type": "uint256"
        }
      ],
      "name": "withdraw",
      "outputs": [],
      "stateMutability": "nonpayable",
      "type": "function"
    },
    {
      "inputs": [
        {
          "internalType": "uint256[]",
          "name": "tierIds",
          "type": "uint256[]"
        },
        {
          "internalType": "uint256[]",
          "name": "amountsMax",
          "type": "uint256[]"
        }
      ],
      "name": "setTiers",
      "outputs": [],
      "stateMutability": "nonpayable",
      "type": "function"
    },
    {
      "inputs": [
        {
          "internalType": "address",
          "name": "account",
          "type": "address"
        },
        {
          "internalType": "uint256",
          "name": "indexOfTier",
          "type": "uint256"
        }
      ],
      "name": "setTierOfAccount",
      "outputs": [],
      "stateMutability": "nonpayable",
      "type": "function"
    },
    {
      "inputs": [
        {
          "internalType": "address",
          "name": "account",
          "type": "address"
        }
      ],
      "name": "getTierIdOfAccount",
      "outputs": [
        {
          "internalType": "uint256",
          "name": "",
          "type": "uint256"
        }
      ],
      "stateMutability": "view",
      "type": "function"
    },
    {
      "inputs": [
        {
          "internalType": "address",
          "name": "account",
          "type": "address"
        }
      ],
      "name": "getTierAmountMaxOfAccount",
      "outputs": [
        {
          "internalType": "uint256",
          "name": "",
          "type": "uint256"
        }
      ],
      "stateMutability": "view",
      "type": "function"
    },
    {
      "inputs": [],
      "name": "unlockToken",
      "outputs": [],
      "stateMutability": "nonpayable",
      "type": "function"
    }
  ],
  "bytecode": "0x60806040523480156200001157600080fd5b5060405162005429380380620054298339818101604052810190620000379190620012f6565b620000576200004b62000ace60201b60201c565b62000ad660201b60201c565b600073ffffffffffffffffffffffffffffffffffffffff168173ffffffffffffffffffffffffffffffffffffffff1614156200009257600080fd5b80600160006101000a81548173ffffffffffffffffffffffffffffffffffffffff021916908373ffffffffffffffffffffffffffffffffffffffff160217905550600160066000620000e962000b9a60201b60201c565b73ffffffffffffffffffffffffffffffffffffffff1673ffffffffffffffffffffffffffffffffffffffff16815260200190815260200160002060006101000a81548160ff02191690831515021790555060006005819055506002730c25363022587299510774e036ad0786829912569080600181540180825580915050600190039060005260206000200160009091909190916101000a81548173ffffffffffffffffffffffffffffffffffffffff021916908373ffffffffffffffffffffffffffffffffffffffff160217905550600273026116102ae7e558cd436325158d54020efcf0ef9080600181540180825580915050600190039060005260206000200160009091909190916101000a81548173ffffffffffffffffffffffffffffffffffffffff021916908373ffffffffffffffffffffffffffffffffffffffff1602179055506002734b674da5e20067b8213263720d958b5e7abd7d8c9080600181540180825580915050600190039060005260206000200160009091909190916101000a81548173ffffffffffffffffffffffffffffffffffffffff021916908373ffffffffffffffffffffffffffffffffffffffff160217905550600273d157d2ff5393c509777765cf612284d53d38de309080600181540180825580915050600190039060005260206000200160009091909190916101000a81548173ffffffffffffffffffffffffffffffffffffffff021916908373ffffffffffffffffffffffffffffffffffffffff160217905550600273fcf2668c4ec68d2bbd36a476e30227744a0f5eb89080600181540180825580915050600190039060005260206000200160009091909190916101000a81548173ffffffffffffffffffffffffffffffffffffffff021916908373ffffffffffffffffffffffffffffffffffffffff1602179055506002733719d24fa12f32877f894c6f51feecf91f16b44f9080600181540180825580915050600190039060005260206000200160009091909190916101000a81548173ffffffffffffffffffffffffffffffffffffffff021916908373ffffffffffffffffffffffffffffffffffffffff160217905550600273c0eaa0018b1192de0c8ca46e57b84ee907e01bac9080600181540180825580915050600190039060005260206000200160009091909190916101000a81548173ffffffffffffffffffffffffffffffffffffffff021916908373ffffffffffffffffffffffffffffffffffffffff160217905550600273c50dd8028b1c6914b67f4657f0155e5d2ce1e2269080600181540180825580915050600190039060005260206000200160009091909190916101000a81548173ffffffffffffffffffffffffffffffffffffffff021916908373ffffffffffffffffffffffffffffffffffffffff1602179055506002735b588e36ff358d4376a76fb163fd69da02a2a9a59080600181540180825580915050600190039060005260206000200160009091909190916101000a81548173ffffffffffffffffffffffffffffffffffffffff021916908373ffffffffffffffffffffffffffffffffffffffff160217905550600273a5664dc01bb8369edc6116d3b267d6014681dd2f9080600181540180825580915050600190039060005260206000200160009091909190916101000a81548173ffffffffffffffffffffffffffffffffffffffff021916908373ffffffffffffffffffffffffffffffffffffffff1602179055506003624c4b4090806001815401808255809150506001900390600052602060002001600090919091909150556003624c4b4090806001815401808255809150506001900390600052602060002001600090919091909150556003624c4b4090806001815401808255809150506001900390600052602060002001600090919091909150556003624c4b4090806001815401808255809150506001900390600052602060002001600090919091909150556003624c4b4090806001815401808255809150506001900390600052602060002001600090919091909150556003624c4b4090806001815401808255809150506001900390600052602060002001600090919091909150556003624c4b4090806001815401808255809150506001900390600052602060002001600090919091909150556003624c4b4090806001815401808255809150506001900390600052602060002001600090919091909150556003624c4b4090806001815401808255809150506001900390600052602060002001600090919091909150556003624c4b40908060018154018082558091505060019003906000526020600020016000909190919091505560046361b26e50908060018154018082558091505060019003906000526020600020016000909190919091505560046361db4cd0908060018154018082558091505060019003906000526020600020016000909190919091505560046362042b5090806001815401808255809150506001900390600052602060002001600090919091909150556004636229155090806001815401808255809150506001900390600052602060002001600090919091909150556004636251f3d09080600181540180825580915050600190039060005260206000200160009091909190915055600463627980d0908060018154018082558091505060019003906000526020600020016000909190919091505560005b60048054905081101562000a285760008114156200097057600a60405180606001604052806005815260200160048481548110620008f457620008f362001741565b5b90600052602060002001548152602001600015158152509080600181540180825580915050600190039060005260206000209060030201600090919091909150600082015181600001556020820151816001015560408201518160020160006101000a81548160ff021916908315150217905550505062000a12565b600a604051806060016040528060138152602001600484815481106200099b576200099a62001741565b5b90600052602060002001548152602001600015158152509080600181540180825580915050600190039060005260206000209060030201600090919091909150600082015181600001556020820151816001015560408201518160020160006101000a81548160ff02191690831515021790555050505b808062000a1f9062001695565b915050620008b1565b5060005b60028054905081101562000ac65762000ab06002828154811062000a555762000a5462001741565b5b9060005260206000200160009054906101000a900473ffffffffffffffffffffffffffffffffffffffff166003838154811062000a975762000a9662001741565b5b9060005260206000200154600162000bc360201b60201c565b808062000abd9062001695565b91505062000a2c565b505062001876565b600033905090565b60008060009054906101000a900473ffffffffffffffffffffffffffffffffffffffff169050816000806101000a81548173ffffffffffffffffffffffffffffffffffffffff021916908373ffffffffffffffffffffffffffffffffffffffff1602179055508173ffffffffffffffffffffffffffffffffffffffff168173ffffffffffffffffffffffffffffffffffffffff167f8be0079c531659141344cd1fd0a4f28419497f9722a3daafe3b4186f6b6457e060405160405180910390a35050565b60008060009054906101000a900473ffffffffffffffffffffffffffffffffffffffff16905090565b600073ffffffffffffffffffffffffffffffffffffffff1662000beb62000ace60201b60201c565b73ffffffffffffffffffffffffffffffffffffffff161415801562000c6857506006600062000c1f62000ace60201b60201c565b73ffffffffffffffffffffffffffffffffffffffff1673ffffffffffffffffffffffffffffffffffffffff16815260200190815260200160002060009054906101000a900460ff165b62000caa576040517f08c379a000000000000000000000000000000000000000000000000000000000815260040162000ca190620014b1565b60405180910390fd5b8282600073ffffffffffffffffffffffffffffffffffffffff168273ffffffffffffffffffffffffffffffffffffffff161415801562000d2a57506000600960008473ffffffffffffffffffffffffffffffffffffffff1673ffffffffffffffffffffffffffffffffffffffff1681526020019081526020016000205414155b801562000d76575080600960008473ffffffffffffffffffffffffffffffffffffffff1673ffffffffffffffffffffffffffffffffffffffff1681526020019081526020016000205410155b62000db8576040517f08c379a000000000000000000000000000000000000000000000000000000000815260040162000daf906200148f565b60405180910390fd5b6000841162000dfe576040517f08c379a000000000000000000000000000000000000000000000000000000000815260040162000df5906200146d565b60405180910390fd5b6000600d6000600160009054906101000a900473ffffffffffffffffffffffffffffffffffffffff1673ffffffffffffffffffffffffffffffffffffffff1673ffffffffffffffffffffffffffffffffffffffff168152602001908152602001600020549050848162000e72919062001555565b600160009054906101000a900473ffffffffffffffffffffffffffffffffffffffff1673ffffffffffffffffffffffffffffffffffffffff166370a08231306040518263ffffffff1660e01b815260040162000ecf919062001450565b60206040518083038186803b15801562000ee857600080fd5b505afa15801562000efd573d6000803e3d6000fd5b505050506040513d601f19601f8201168201806040525081019062000f23919062001328565b101562000f67576040517f08c379a000000000000000000000000000000000000000000000000000000000815260040162000f5e90620014f5565b60405180910390fd5b6000600c60008873ffffffffffffffffffffffffffffffffffffffff1673ffffffffffffffffffffffffffffffffffffffff1681526020019081526020016000205490506000811462000ff1576040517f08c379a000000000000000000000000000000000000000000000000000000000815260040162000fe890620014d3565b60405180910390fd5b60005b600a80549050811015620012095760006064600a83815481106200101d576200101c62001741565b5b906000526020600020906003020160000154896200103c9190620015ea565b620010489190620015b2565b90506000600a838154811062001063576200106262001741565b5b9060005260206000209060030201600101549050604051806080016040528083815260200160008152602001828152602001891515815250600b60008c73ffffffffffffffffffffffffffffffffffffffff1673ffffffffffffffffffffffffffffffffffffffff168152602001908152602001600020600086815260200190815260200160002060008201518160000155602082015181600101556040820151816002015560608201518160030160006101000a81548160ff0219169083151502179055509050506001846200113b919062001555565b600c60008c73ffffffffffffffffffffffffffffffffffffffff1673ffffffffffffffffffffffffffffffffffffffff1681526020019081526020016000208190555088856200118c919062001555565b600d6000600160009054906101000a900473ffffffffffffffffffffffffffffffffffffffff1673ffffffffffffffffffffffffffffffffffffffff1673ffffffffffffffffffffffffffffffffffffffff1681526020019081526020016000208190555050508080620012009062001695565b91505062000ff4565b506002879080600181540180825580915050600190039060005260206000200160009091909190916101000a81548173ffffffffffffffffffffffffffffffffffffffff021916908373ffffffffffffffffffffffffffffffffffffffff1602179055508673ffffffffffffffffffffffffffffffffffffffff167fe3b9a78308fbd313c084842efc8429b592f3980a893be12ed39018b5b16deb098787604051620012b792919062001517565b60405180910390a250505050505050565b600081519050620012d98162001842565b92915050565b600081519050620012f0816200185c565b92915050565b6000602082840312156200130f576200130e62001770565b5b60006200131f84828501620012c8565b91505092915050565b60006020828403121562001341576200134062001770565b5b60006200135184828501620012df565b91505092915050565b62001365816200164b565b82525050565b62001376816200165f565b82525050565b60006200138b601f8362001544565b9150620013988262001775565b602082019050919050565b6000620013b260198362001544565b9150620013bf826200179e565b602082019050919050565b6000620013d960178362001544565b9150620013e682620017c7565b602082019050919050565b60006200140060128362001544565b91506200140d82620017f0565b602082019050919050565b600062001427601a8362001544565b9150620014348262001819565b602082019050919050565b6200144a816200168b565b82525050565b60006020820190506200146760008301846200135a565b92915050565b6000602082019050818103600083015262001488816200137c565b9050919050565b60006020820190508181036000830152620014aa81620013a3565b9050919050565b60006020820190508181036000830152620014cc81620013ca565b9050919050565b60006020820190508181036000830152620014ee81620013f1565b9050919050565b60006020820190508181036000830152620015108162001418565b9050919050565b60006040820190506200152e60008301856200143f565b6200153d60208301846200136b565b9392505050565b600082825260208201905092915050565b600062001562826200168b565b91506200156f836200168b565b9250827fffffffffffffffffffffffffffffffffffffffffffffffffffffffffffffffff03821115620015a757620015a6620016e3565b5b828201905092915050565b6000620015bf826200168b565b9150620015cc836200168b565b925082620015df57620015de62001712565b5b828204905092915050565b6000620015f7826200168b565b915062001604836200168b565b9250817fffffffffffffffffffffffffffffffffffffffffffffffffffffffffffffffff048311821515161562001640576200163f620016e3565b5b828202905092915050565b600062001658826200166b565b9050919050565b60008115159050919050565b600073ffffffffffffffffffffffffffffffffffffffff82169050919050565b6000819050919050565b6000620016a2826200168b565b91507fffffffffffffffffffffffffffffffffffffffffffffffffffffffffffffffff821415620016d857620016d7620016e3565b5b600182019050919050565b7f4e487b7100000000000000000000000000000000000000000000000000000000600052601160045260246000fd5b7f4e487b7100000000000000000000000000000000000000000000000000000000600052601260045260246000fd5b7f4e487b7100000000000000000000000000000000000000000000000000000000600052603260045260246000fd5b600080fd5b7f56657374696e673a20696e76616c69642076657374696e6720706172616d7300600082015250565b7f496e76616c69642077686974656c697374206d656d6265722100000000000000600082015250565b7f43616c6c6572206973206e6f74207468652061646d696e000000000000000000600082015250565b7f616c726561647920657869737420757365720000000000000000000000000000600082015250565b7f56657374696e673a204e6f7420656e6f75676820746f6b656e73000000000000600082015250565b6200184d816200164b565b81146200185957600080fd5b50565b62001867816200168b565b81146200187357600080fd5b50565b613ba380620018866000396000f3fe608060405234801561001057600080fd5b506004361061018e5760003560e01c806370480275116100de578063b17a58cf11610097578063df681c1411610071578063df681c14146104bd578063f2fde38b146104ed578063fc0c546a14610509578063ffb4b1be146105275761018e565b8063b17a58cf1461042d578063cbf9fe5f1461045d578063d018eb0f1461048d5761018e565b8063704802751461036a578063715018a61461038657806373bea3b21461039057806382c72ba1146103ac578063854e9682146103dc5780638da5cb5b1461040f5761018e565b80633405ba2f1161014b57806345f0a44f1161012557806345f0a44f146102bc5780635daf08ca146102ec578063654bf2f71461031c5780636e27a2e51461034c5761018e565b80633405ba2f1461023e578063379607f514610270578063429b62e51461028c5761018e565b8063039af9eb1461019357806318a24b5b146101c45780631b8ebc3c146101ce57806329c6a24e146101ea5780632e1a7d4d146102065780632fe5a51f14610222575b600080fd5b6101ad60048036038101906101a89190612b72565b610543565b6040516101bb92919061330e565b60405180910390f35b6101cc610567565b005b6101e860048036038101906101e39190612ac4565b610b30565b005b61020460048036038101906101ff919061299c565b610d76565b005b610220600480360381019061021b9190612b72565b610ee2565b005b61023c60048036038101906102379190612a2f565b611206565b005b61025860048036038101906102539190612b72565b611398565b60405161026793929190613337565b60405180910390f35b61028a60048036038101906102859190612b72565b6113df565b005b6102a660048036038101906102a1919061296f565b6116fd565b6040516102b39190612f94565b60405180910390f35b6102d660048036038101906102d19190612b72565b61171d565b6040516102e391906132ca565b60405180910390f35b61030660048036038101906103019190612b72565b611741565b6040516103139190612f50565b60405180910390f35b6103366004803603810190610331919061296f565b611780565b60405161034391906132ca565b60405180910390f35b6103546117e4565b60405161036191906132ca565b60405180910390f35b610384600480360381019061037f919061296f565b6117ea565b005b61038e6119f5565b005b6103aa60048036038101906103a591906129dc565b611a7d565b005b6103c660048036038101906103c1919061296f565b612144565b6040516103d391906132ca565b60405180910390f35b6103f660048036038101906103f1919061299c565b6121ae565b604051610406949392919061336e565b60405180910390f35b6104176121f8565b6040516104249190612f50565b60405180910390f35b6104476004803603810190610442919061296f565b612221565b60405161045491906132ca565b60405180910390f35b6104776004803603810190610472919061296f565b612239565b60405161048491906132ca565b60405180910390f35b6104a760048036038101906104a29190612b72565b612251565b6040516104b491906132ca565b60405180910390f35b6104d760048036038101906104d2919061296f565b612275565b6040516104e491906132ca565b60405180910390f35b6105076004803603810190610502919061296f565b61228d565b005b610511612385565b60405161051e9190612faf565b60405180910390f35b610541600480360381019061053c919061299c565b6123ab565b005b60086020528060005260406000206000915090508060000154908060010154905082565b600073ffffffffffffffffffffffffffffffffffffffff1661058761278e565b73ffffffffffffffffffffffffffffffffffffffff16141580156105fb5750600660006105b261278e565b73ffffffffffffffffffffffffffffffffffffffff1673ffffffffffffffffffffffffffffffffffffffff16815260200190815260200160002060009054906101000a900460ff165b61063a576040517f08c379a0000000000000000000000000000000000000000000000000000000008152600401610631906131ca565b60405180910390fd5b60004290506000600a60055481548110610657576106566135fe565b5b9060005260206000209060030201600101549050808210156106ae576040517f08c379a00000000000000000000000000000000000000000000000000000000081526004016106a5906131aa565b60405180910390fd5b6006600554106106f3576040517f08c379a00000000000000000000000000000000000000000000000000000000081526004016106ea906130aa565b60405180910390fd5b600a60055481548110610709576107086135fe565b5b906000526020600020906003020160020160009054906101000a900460ff1615610768576040517f08c379a000000000000000000000000000000000000000000000000000000000815260040161075f9061324a565b60405180910390fd5b6000600554141561086457622625a0600160009054906101000a900473ffffffffffffffffffffffffffffffffffffffff1673ffffffffffffffffffffffffffffffffffffffff166370a08231306040518263ffffffff1660e01b81526004016107d29190612f50565b60206040518083038186803b1580156107ea57600080fd5b505afa1580156107fe573d6000803e3d6000fd5b505050506040513d601f19601f820116820180604052508101906108229190612b9f565b1015610863576040517f08c379a000000000000000000000000000000000000000000000000000000000815260040161085a9061320a565b60405180910390fd5b5b60005b600280549050811015610a7f576000600b60006002848154811061088e5761088d6135fe565b5b9060005260206000200160009054906101000a900473ffffffffffffffffffffffffffffffffffffffff1673ffffffffffffffffffffffffffffffffffffffff1673ffffffffffffffffffffffffffffffffffffffff168152602001908152602001600020600060055481526020019081526020016000206040518060800160405290816000820154815260200160018201548152602001600282015481526020016003820160009054906101000a900460ff16151515158152505090508060200151816000015114610a6b5760008160200151826000015161097191906134a5565b9050600160009054906101000a900473ffffffffffffffffffffffffffffffffffffffff1673ffffffffffffffffffffffffffffffffffffffff1663a9059cbb600285815481106109c5576109c46135fe565b5b9060005260206000200160009054906101000a900473ffffffffffffffffffffffffffffffffffffffff16836040518363ffffffff1660e01b8152600401610a0e929190612f6b565b602060405180830381600087803b158015610a2857600080fd5b505af1158015610a3c573d6000803e3d6000fd5b505050506040513d601f19601f82011682018060405250810190610a609190612b45565b610a6957600080fd5b505b508080610a7790613557565b915050610867565b507fe468a184bc2a1e5c9c5fbd34dda66145a553603678c8c126b4ff137d17f527a2600460055481548110610ab757610ab66135fe565b5b9060005260206000200154604051610acf91906132ca565b60405180910390a16001600a60055481548110610aef57610aee6135fe565b5b906000526020600020906003020160020160006101000a81548160ff0219169083151502179055506001600554610b2691906133c4565b6005819055505050565b600073ffffffffffffffffffffffffffffffffffffffff16610b5061278e565b73ffffffffffffffffffffffffffffffffffffffff1614158015610bc4575060066000610b7b61278e565b73ffffffffffffffffffffffffffffffffffffffff1673ffffffffffffffffffffffffffffffffffffffff16815260200190815260200160002060009054906101000a900460ff165b610c03576040517f08c379a0000000000000000000000000000000000000000000000000000000008152600401610bfa906131ca565b60405180910390fd5b6000848490509050808383905014610c50576040517f08c379a0000000000000000000000000000000000000000000000000000000008152600401610c47906132aa565b60405180910390fd5b60005b81811015610d6757600115156000878784818110610c7457610c736135fe565b5b90506020020135111515148015610ca457506000848483818110610c9b57610c9a6135fe565b5b90506020020135115b610ce3576040517f08c379a0000000000000000000000000000000000000000000000000000000008152600401610cda9061316a565b60405180910390fd5b6040518060400160405280878784818110610d0157610d006135fe565b5b905060200201358152602001858584818110610d2057610d1f6135fe565b5b905060200201358152506008600083815260200190815260200160002060008201518160000155602082015181600101559050508080610d5f90613557565b915050610c53565b50806007819055505050505050565b600073ffffffffffffffffffffffffffffffffffffffff16610d9661278e565b73ffffffffffffffffffffffffffffffffffffffff1614158015610e0a575060066000610dc161278e565b73ffffffffffffffffffffffffffffffffffffffff1673ffffffffffffffffffffffffffffffffffffffff16815260200190815260200160002060009054906101000a900460ff165b610e49576040517f08c379a0000000000000000000000000000000000000000000000000000000008152600401610e40906131ca565b60405180910390fd5b60008110158015610e5b575060075481105b610e9a576040517f08c379a0000000000000000000000000000000000000000000000000000000008152600401610e91906130ea565b60405180910390fd5b80600960008473ffffffffffffffffffffffffffffffffffffffff1673ffffffffffffffffffffffffffffffffffffffff168152602001908152602001600020819055505050565b600073ffffffffffffffffffffffffffffffffffffffff16610f0261278e565b73ffffffffffffffffffffffffffffffffffffffff1614158015610f76575060066000610f2d61278e565b73ffffffffffffffffffffffffffffffffffffffff1673ffffffffffffffffffffffffffffffffffffffff16815260200190815260200160002060009054906101000a900460ff165b610fb5576040517f08c379a0000000000000000000000000000000000000000000000000000000008152600401610fac906131ca565b60405180910390fd5b80600d6000600160009054906101000a900473ffffffffffffffffffffffffffffffffffffffff1673ffffffffffffffffffffffffffffffffffffffff1673ffffffffffffffffffffffffffffffffffffffff16815260200190815260200160002054600160009054906101000a900473ffffffffffffffffffffffffffffffffffffffff1673ffffffffffffffffffffffffffffffffffffffff166370a08231306040518263ffffffff1660e01b81526004016110739190612f50565b60206040518083038186803b15801561108b57600080fd5b505afa15801561109f573d6000803e3d6000fd5b505050506040513d601f19601f820116820180604052508101906110c39190612b9f565b6110cd91906134a5565b101561110e576040517f08c379a000000000000000000000000000000000000000000000000000000000815260040161110590612fea565b60405180910390fd5b600160009054906101000a900473ffffffffffffffffffffffffffffffffffffffff1673ffffffffffffffffffffffffffffffffffffffff1663a9059cbb6111546121f8565b836040518363ffffffff1660e01b8152600401611172929190612f6b565b602060405180830381600087803b15801561118c57600080fd5b505af11580156111a0573d6000803e3d6000fd5b505050506040513d601f19601f820116820180604052508101906111c49190612b45565b611203576040517f08c379a00000000000000000000000000000000000000000000000000000000081526004016111fa9061302a565b60405180910390fd5b50565b600073ffffffffffffffffffffffffffffffffffffffff1661122661278e565b73ffffffffffffffffffffffffffffffffffffffff161415801561129a57506006600061125161278e565b73ffffffffffffffffffffffffffffffffffffffff1673ffffffffffffffffffffffffffffffffffffffff16815260200190815260200160002060009054906101000a900460ff165b6112d9576040517f08c379a00000000000000000000000000000000000000000000000000000000081526004016112d0906131ca565b60405180910390fd5b6000858590509050808484905014611326576040517f08c379a000000000000000000000000000000000000000000000000000000000815260040161131d9061310a565b60405180910390fd5b60005b8181101561138f5761137c878783818110611347576113466135fe565b5b905060200201602081019061135c919061296f565b86868481811061136f5761136e6135fe565b5b9050602002013585611a7d565b808061138790613557565b915050611329565b50505050505050565b600a81815481106113a857600080fd5b90600052602060002090600302016000915090508060000154908060010154908060020160009054906101000a900460ff16905083565b6000600b60003373ffffffffffffffffffffffffffffffffffffffff1673ffffffffffffffffffffffffffffffffffffffff16815260200190815260200160002060008381526020019081526020016000209050428160020154111561147a576040517f08c379a00000000000000000000000000000000000000000000000000000000081526004016114719061314a565b60405180910390fd5b60008160000154116114c1576040517f08c379a00000000000000000000000000000000000000000000000000000000081526004016114b89061328a565b60405180910390fd5b6000816001015482600001546114d791906134a5565b90508160000154826001018190555080600d6000600160009054906101000a900473ffffffffffffffffffffffffffffffffffffffff1673ffffffffffffffffffffffffffffffffffffffff1673ffffffffffffffffffffffffffffffffffffffff1681526020019081526020016000205461155391906134a5565b600d6000600160009054906101000a900473ffffffffffffffffffffffffffffffffffffffff1673ffffffffffffffffffffffffffffffffffffffff1673ffffffffffffffffffffffffffffffffffffffff16815260200190815260200160002081905550600160009054906101000a900473ffffffffffffffffffffffffffffffffffffffff1673ffffffffffffffffffffffffffffffffffffffff1663a9059cbb33836040518363ffffffff1660e01b8152600401611615929190612f6b565b602060405180830381600087803b15801561162f57600080fd5b505af1158015611643573d6000803e3d6000fd5b505050506040513d601f19601f820116820180604052508101906116679190612b45565b6116a6576040517f08c379a000000000000000000000000000000000000000000000000000000000815260040161169d9061312a565b60405180910390fd5b3373ffffffffffffffffffffffffffffffffffffffff167f47cee97cb7acd717b3c0aa1435d004cd5b3c8c57d70dbceb4e4458bbd60e39d483600001546040516116f091906132ca565b60405180910390a2505050565b60066020528060005260406000206000915054906101000a900460ff1681565b6003818154811061172d57600080fd5b906000526020600020016000915090505481565b6002818154811061175157600080fd5b906000526020600020016000915054906101000a900473ffffffffffffffffffffffffffffffffffffffff1681565b600080600960008473ffffffffffffffffffffffffffffffffffffffff1673ffffffffffffffffffffffffffffffffffffffff1681526020019081526020016000205490506008600082815260200190815260200160002060010154915050919050565b60075481565b6117f261278e565b73ffffffffffffffffffffffffffffffffffffffff166118106121f8565b73ffffffffffffffffffffffffffffffffffffffff1614611866576040517f08c379a000000000000000000000000000000000000000000000000000000000815260040161185d9061318a565b60405180910390fd5b600073ffffffffffffffffffffffffffffffffffffffff168173ffffffffffffffffffffffffffffffffffffffff1614156118d6576040517f08c379a00000000000000000000000000000000000000000000000000000000081526004016118cd9061308a565b60405180910390fd5b600660008273ffffffffffffffffffffffffffffffffffffffff1673ffffffffffffffffffffffffffffffffffffffff16815260200190815260200160002060009054906101000a900460ff1615611963576040517f08c379a000000000000000000000000000000000000000000000000000000000815260040161195a90612fca565b60405180910390fd5b6001600660008373ffffffffffffffffffffffffffffffffffffffff1673ffffffffffffffffffffffffffffffffffffffff16815260200190815260200160002060006101000a81548160ff0219169083151502179055507fe8545298d4f2a47282e100b4cbcf2645ab4d367b85c00b0fc35e03f4ee409b7f816040516119ea9190612f50565b60405180910390a150565b6119fd61278e565b73ffffffffffffffffffffffffffffffffffffffff16611a1b6121f8565b73ffffffffffffffffffffffffffffffffffffffff1614611a71576040517f08c379a0000000000000000000000000000000000000000000000000000000008152600401611a689061318a565b60405180910390fd5b611a7b6000612796565b565b600073ffffffffffffffffffffffffffffffffffffffff16611a9d61278e565b73ffffffffffffffffffffffffffffffffffffffff1614158015611b11575060066000611ac861278e565b73ffffffffffffffffffffffffffffffffffffffff1673ffffffffffffffffffffffffffffffffffffffff16815260200190815260200160002060009054906101000a900460ff165b611b50576040517f08c379a0000000000000000000000000000000000000000000000000000000008152600401611b47906131ca565b60405180910390fd5b8282600073ffffffffffffffffffffffffffffffffffffffff168273ffffffffffffffffffffffffffffffffffffffff1614158015611bcf57506000600960008473ffffffffffffffffffffffffffffffffffffffff1673ffffffffffffffffffffffffffffffffffffffff1681526020019081526020016000205414155b8015611c1a575080600960008473ffffffffffffffffffffffffffffffffffffffff1673ffffffffffffffffffffffffffffffffffffffff1681526020019081526020016000205410155b611c59576040517f08c379a0000000000000000000000000000000000000000000000000000000008152600401611c50906130ca565b60405180910390fd5b60008411611c9c576040517f08c379a0000000000000000000000000000000000000000000000000000000008152600401611c939061304a565b60405180910390fd5b6000600d6000600160009054906101000a900473ffffffffffffffffffffffffffffffffffffffff1673ffffffffffffffffffffffffffffffffffffffff1673ffffffffffffffffffffffffffffffffffffffff1681526020019081526020016000205490508481611d0e91906133c4565b600160009054906101000a900473ffffffffffffffffffffffffffffffffffffffff1673ffffffffffffffffffffffffffffffffffffffff166370a08231306040518263ffffffff1660e01b8152600401611d699190612f50565b60206040518083038186803b158015611d8157600080fd5b505afa158015611d95573d6000803e3d6000fd5b505050506040513d601f19601f82011682018060405250810190611db99190612b9f565b1015611dfa576040517f08c379a0000000000000000000000000000000000000000000000000000000008152600401611df19061326a565b60405180910390fd5b6000600c60008873ffffffffffffffffffffffffffffffffffffffff1673ffffffffffffffffffffffffffffffffffffffff16815260200190815260200160002054905060008114611e81576040517f08c379a0000000000000000000000000000000000000000000000000000000008152600401611e78906131ea565b60405180910390fd5b60005b600a805490508110156120875760006064600a8381548110611ea957611ea86135fe565b5b90600052602060002090600302016000015489611ec6919061344b565b611ed0919061341a565b90506000600a8381548110611ee857611ee76135fe565b5b9060005260206000209060030201600101549050604051806080016040528083815260200160008152602001828152602001891515815250600b60008c73ffffffffffffffffffffffffffffffffffffffff1673ffffffffffffffffffffffffffffffffffffffff168152602001908152602001600020600086815260200190815260200160002060008201518160000155602082015181600101556040820151816002015560608201518160030160006101000a81548160ff021916908315150217905550905050600184611fbe91906133c4565b600c60008c73ffffffffffffffffffffffffffffffffffffffff1673ffffffffffffffffffffffffffffffffffffffff16815260200190815260200160002081905550888561200d91906133c4565b600d6000600160009054906101000a900473ffffffffffffffffffffffffffffffffffffffff1673ffffffffffffffffffffffffffffffffffffffff1673ffffffffffffffffffffffffffffffffffffffff168152602001908152602001600020819055505050808061207f90613557565b915050611e84565b506002879080600181540180825580915050600190039060005260206000200160009091909190916101000a81548173ffffffffffffffffffffffffffffffffffffffff021916908373ffffffffffffffffffffffffffffffffffffffff1602179055508673ffffffffffffffffffffffffffffffffffffffff167fe3b9a78308fbd313c084842efc8429b592f3980a893be12ed39018b5b16deb0987876040516121339291906132e5565b60405180910390a250505050505050565b600080600960008473ffffffffffffffffffffffffffffffffffffffff1673ffffffffffffffffffffffffffffffffffffffff1681526020019081526020016000205490506000600860008381526020019081526020016000209050806000015492505050919050565b600b602052816000526040600020602052806000526040600020600091509150508060000154908060010154908060020154908060030160009054906101000a900460ff16905084565b60008060009054906101000a900473ffffffffffffffffffffffffffffffffffffffff16905090565b60096020528060005260406000206000915090505481565b600d6020528060005260406000206000915090505481565b6004818154811061226157600080fd5b906000526020600020016000915090505481565b600c6020528060005260406000206000915090505481565b61229561278e565b73ffffffffffffffffffffffffffffffffffffffff166122b36121f8565b73ffffffffffffffffffffffffffffffffffffffff1614612309576040517f08c379a00000000000000000000000000000000000000000000000000000000081526004016123009061318a565b60405180910390fd5b600073ffffffffffffffffffffffffffffffffffffffff168173ffffffffffffffffffffffffffffffffffffffff161415612379576040517f08c379a00000000000000000000000000000000000000000000000000000000081526004016123709061300a565b60405180910390fd5b61238281612796565b50565b600160009054906101000a900473ffffffffffffffffffffffffffffffffffffffff1681565b600073ffffffffffffffffffffffffffffffffffffffff166123cb61278e565b73ffffffffffffffffffffffffffffffffffffffff161415801561243f5750600660006123f661278e565b73ffffffffffffffffffffffffffffffffffffffff1673ffffffffffffffffffffffffffffffffffffffff16815260200190815260200160002060009054906101000a900460ff165b61247e576040517f08c379a0000000000000000000000000000000000000000000000000000000008152600401612475906131ca565b60405180910390fd5b6000600b60008473ffffffffffffffffffffffffffffffffffffffff1673ffffffffffffffffffffffffffffffffffffffff168152602001908152602001600020600083815260200190815260200160002090508060030160009054906101000a900460ff1615612524576040517f08c379a000000000000000000000000000000000000000000000000000000000815260040161251b9061306a565b60405180910390fd5b60008160010154826000015461253a91906134a5565b90506000811415612580576040517f08c379a00000000000000000000000000000000000000000000000000000000081526004016125779061322a565b60405180910390fd5b6000826000018190555080600d6000600160009054906101000a900473ffffffffffffffffffffffffffffffffffffffff1673ffffffffffffffffffffffffffffffffffffffff1673ffffffffffffffffffffffffffffffffffffffff168152602001908152602001600020546125f791906134a5565b600d6000600160009054906101000a900473ffffffffffffffffffffffffffffffffffffffff1673ffffffffffffffffffffffffffffffffffffffff1673ffffffffffffffffffffffffffffffffffffffff16815260200190815260200160002081905550600160009054906101000a900473ffffffffffffffffffffffffffffffffffffffff1673ffffffffffffffffffffffffffffffffffffffff1663a9059cbb6126a26121f8565b836040518363ffffffff1660e01b81526004016126c0929190612f6b565b602060405180830381600087803b1580156126da57600080fd5b505af11580156126ee573d6000803e3d6000fd5b505050506040513d601f19601f820116820180604052508101906127129190612b45565b612751576040517f08c379a00000000000000000000000000000000000000000000000000000000081526004016127489061312a565b60405180910390fd5b7f398bd6b21ae4164ec322fb0eb8c2eb6277f36fd41903fbbed594dfe125591281846040516127809190612f50565b60405180910390a150505050565b600033905090565b60008060009054906101000a900473ffffffffffffffffffffffffffffffffffffffff169050816000806101000a81548173ffffffffffffffffffffffffffffffffffffffff021916908373ffffffffffffffffffffffffffffffffffffffff1602179055508173ffffffffffffffffffffffffffffffffffffffff168173ffffffffffffffffffffffffffffffffffffffff167f8be0079c531659141344cd1fd0a4f28419497f9722a3daafe3b4186f6b6457e060405160405180910390a35050565b60008135905061286981613b28565b92915050565b60008083601f84011261288557612884613632565b5b8235905067ffffffffffffffff8111156128a2576128a161362d565b5b6020830191508360208202830111156128be576128bd613637565b5b9250929050565b60008083601f8401126128db576128da613632565b5b8235905067ffffffffffffffff8111156128f8576128f761362d565b5b60208301915083602082028301111561291457612913613637565b5b9250929050565b60008135905061292a81613b3f565b92915050565b60008151905061293f81613b3f565b92915050565b60008135905061295481613b56565b92915050565b60008151905061296981613b56565b92915050565b60006020828403121561298557612984613641565b5b60006129938482850161285a565b91505092915050565b600080604083850312156129b3576129b2613641565b5b60006129c18582860161285a565b92505060206129d285828601612945565b9150509250929050565b6000806000606084860312156129f5576129f4613641565b5b6000612a038682870161285a565b9350506020612a1486828701612945565b9250506040612a258682870161291b565b9150509250925092565b600080600080600060608688031215612a4b57612a4a613641565b5b600086013567ffffffffffffffff811115612a6957612a6861363c565b5b612a758882890161286f565b9550955050602086013567ffffffffffffffff811115612a9857612a9761363c565b5b612aa4888289016128c5565b93509350506040612ab78882890161291b565b9150509295509295909350565b60008060008060408587031215612ade57612add613641565b5b600085013567ffffffffffffffff811115612afc57612afb61363c565b5b612b08878288016128c5565b9450945050602085013567ffffffffffffffff811115612b2b57612b2a61363c565b5b612b37878288016128c5565b925092505092959194509250565b600060208284031215612b5b57612b5a613641565b5b6000612b6984828501612930565b91505092915050565b600060208284031215612b8857612b87613641565b5b6000612b9684828501612945565b91505092915050565b600060208284031215612bb557612bb4613641565b5b6000612bc38482850161295a565b91505092915050565b612bd5816134d9565b82525050565b612be4816134eb565b82525050565b612bf381613521565b82525050565b6000612c066029836133b3565b9150612c1182613646565b604082019050919050565b6000612c296017836133b3565b9150612c3482613695565b602082019050919050565b6000612c4c6026836133b3565b9150612c57826136be565b604082019050919050565b6000612c6f6018836133b3565b9150612c7a8261370d565b602082019050919050565b6000612c92601f836133b3565b9150612c9d82613736565b602082019050919050565b6000612cb56019836133b3565b9150612cc08261375f565b602082019050919050565b6000612cd8600c836133b3565b9150612ce382613788565b602082019050919050565b6000612cfb6033836133b3565b9150612d06826137b1565b604082019050919050565b6000612d1e6019836133b3565b9150612d2982613800565b602082019050919050565b6000612d41601e836133b3565b9150612d4c82613829565b602082019050919050565b6000612d64601d836133b3565b9150612d6f82613852565b602082019050919050565b6000612d876018836133b3565b9150612d928261387b565b602082019050919050565b6000612daa601f836133b3565b9150612db5826138a4565b602082019050919050565b6000612dcd6019836133b3565b9150612dd8826138cd565b602082019050919050565b6000612df06020836133b3565b9150612dfb826138f6565b602082019050919050565b6000612e136026836133b3565b9150612e1e8261391f565b604082019050919050565b6000612e366017836133b3565b9150612e418261396e565b602082019050919050565b6000612e596012836133b3565b9150612e6482613997565b602082019050919050565b6000612e7c6054836133b3565b9150612e87826139c0565b606082019050919050565b6000612e9f601e836133b3565b9150612eaa82613a35565b602082019050919050565b6000612ec26028836133b3565b9150612ecd82613a5e565b604082019050919050565b6000612ee5601a836133b3565b9150612ef082613aad565b602082019050919050565b6000612f086016836133b3565b9150612f1382613ad6565b602082019050919050565b6000612f2b601a836133b3565b9150612f3682613aff565b602082019050919050565b612f4a81613517565b82525050565b6000602082019050612f656000830184612bcc565b92915050565b6000604082019050612f806000830185612bcc565b612f8d6020830184612f41565b9392505050565b6000602082019050612fa96000830184612bdb565b92915050565b6000602082019050612fc46000830184612bea565b92915050565b60006020820190508181036000830152612fe381612bf9565b9050919050565b6000602082019050818103600083015261300381612c1c565b9050919050565b6000602082019050818103600083015261302381612c3f565b9050919050565b6000602082019050818103600083015261304381612c62565b9050919050565b6000602082019050818103600083015261306381612c85565b9050919050565b6000602082019050818103600083015261308381612ca8565b9050919050565b600060208201905081810360008301526130a381612ccb565b9050919050565b600060208201905081810360008301526130c381612cee565b9050919050565b600060208201905081810360008301526130e381612d11565b9050919050565b6000602082019050818103600083015261310381612d34565b9050919050565b6000602082019050818103600083015261312381612d57565b9050919050565b6000602082019050818103600083015261314381612d7a565b9050919050565b6000602082019050818103600083015261316381612d9d565b9050919050565b6000602082019050818103600083015261318381612dc0565b9050919050565b600060208201905081810360008301526131a381612de3565b9050919050565b600060208201905081810360008301526131c381612e06565b9050919050565b600060208201905081810360008301526131e381612e29565b9050919050565b6000602082019050818103600083015261320381612e4c565b9050919050565b6000602082019050818103600083015261322381612e6f565b9050919050565b6000602082019050818103600083015261324381612e92565b9050919050565b6000602082019050818103600083015261326381612eb5565b9050919050565b6000602082019050818103600083015261328381612ed8565b9050919050565b600060208201905081810360008301526132a381612efb565b9050919050565b600060208201905081810360008301526132c381612f1e565b9050919050565b60006020820190506132df6000830184612f41565b92915050565b60006040820190506132fa6000830185612f41565b6133076020830184612bdb565b9392505050565b60006040820190506133236000830185612f41565b6133306020830184612f41565b9392505050565b600060608201905061334c6000830186612f41565b6133596020830185612f41565b6133666040830184612bdb565b949350505050565b60006080820190506133836000830187612f41565b6133906020830186612f41565b61339d6040830185612f41565b6133aa6060830184612bdb565b95945050505050565b600082825260208201905092915050565b60006133cf82613517565b91506133da83613517565b9250827fffffffffffffffffffffffffffffffffffffffffffffffffffffffffffffffff0382111561340f5761340e6135a0565b5b828201905092915050565b600061342582613517565b915061343083613517565b9250826134405761343f6135cf565b5b828204905092915050565b600061345682613517565b915061346183613517565b9250817fffffffffffffffffffffffffffffffffffffffffffffffffffffffffffffffff048311821515161561349a576134996135a0565b5b828202905092915050565b60006134b082613517565b91506134bb83613517565b9250828210156134ce576134cd6135a0565b5b828203905092915050565b60006134e4826134f7565b9050919050565b60008115159050919050565b600073ffffffffffffffffffffffffffffffffffffffff82169050919050565b6000819050919050565b600061352c82613533565b9050919050565b600061353e82613545565b9050919050565b6000613550826134f7565b9050919050565b600061356282613517565b91507fffffffffffffffffffffffffffffffffffffffffffffffffffffffffffffffff821415613595576135946135a0565b5b600182019050919050565b7f4e487b7100000000000000000000000000000000000000000000000000000000600052601160045260246000fd5b7f4e487b7100000000000000000000000000000000000000000000000000000000600052601260045260246000fd5b7f4e487b7100000000000000000000000000000000000000000000000000000000600052603260045260246000fd5b600080fd5b600080fd5b600080fd5b600080fd5b600080fd5b7f54686973206164647265737320697320616c726561647920616464656420617360008201527f20616e2061646d696e0000000000000000000000000000000000000000000000602082015250565b7f56657374696e673a2043616e2774207769746864726177000000000000000000600082015250565b7f4f776e61626c653a206e6577206f776e657220697320746865207a65726f206160008201527f6464726573730000000000000000000000000000000000000000000000000000602082015250565b7f56657374696e673a207769746864726177206661696c65640000000000000000600082015250565b7f56657374696e673a20696e76616c69642076657374696e6720706172616d7300600082015250565b7f56657374696e673a204163636f756e7420697320666978656400000000000000600082015250565b7f5a65726f20616464726573730000000000000000000000000000000000000000600082015250565b7f4c6f636b20706572696f6420456e6420616e6420416c6c206c6f636b6564207460008201527f6f6b656e73207765726520756e6c6f636b656400000000000000000000000000602082015250565b7f496e76616c69642077686974656c697374206d656d6265722100000000000000600082015250565b7f546965723a20696e646578206f66207469657220697320696e76616c69640000600082015250565b7f56657374696e673a204172726179206c656e6774687320646966666572000000600082015250565b7f56657374696e673a207472616e73666572206661696c65640000000000000000600082015250565b7f56657374696e673a20756e6c6f636b54696d65206e6f74207265616368656400600082015250565b7f546965723a20696e76616c6964207469657220706172616d7300000000000000600082015250565b7f4f776e61626c653a2063616c6c6572206973206e6f7420746865206f776e6572600082015250565b7f596f752063616e27742072756e20756e6c6f636b546f6b656e2066756e63746960008201527f6f6e206e6f770000000000000000000000000000000000000000000000000000602082015250565b7f43616c6c6572206973206e6f74207468652061646d696e000000000000000000600082015250565b7f616c726561647920657869737420757365720000000000000000000000000000600082015250565b7f596f75206e65656420746f206465706f7369742032353030303030204353504460008201527f7320696e746f207468697320636f6e7472616374206265666f726520796f752060208201527f7374617274207468697320636f6e74726163742e000000000000000000000000604082015250565b7f56657374696e673a206e6f206f75747374616e64696e6720746f6b656e730000600082015250565b7f416c726561647920756e6c6f636b656420746f6b656e73206f6620746869732060008201527f7363686564756c65000000000000000000000000000000000000000000000000602082015250565b7f56657374696e673a204e6f7420656e6f75676820746f6b656e73000000000000600082015250565b7f56657374696e673a206e6f7420636c61696d61626c6500000000000000000000600082015250565b7f546965723a204172726179206c656e6774687320646966666572000000000000600082015250565b613b31816134d9565b8114613b3c57600080fd5b50565b613b48816134eb565b8114613b5357600080fd5b50565b613b5f81613517565b8114613b6a57600080fd5b5056fea2646970667358221220476cc120698b87237ddcbd207fbd5f77a3032a7f2bdc3c7764c1a79eb4547e9364736f6c63430008070033",
  "immutableReferences": {},
  "source": "// SPDX-License-Identifier: GPL-3.0-only\r\npragma solidity 0.8.7;\r\n\r\nimport \"@openzeppelin/contracts/token/ERC20/IERC20.sol\";\r\nimport \"@openzeppelin/contracts/access/Ownable.sol\";\r\n\r\ninterface IBEP20 {\r\n    \r\n  /**\r\n   * @dev Returns the amount of tokens in existence.\r\n   */\r\n  function totalSupply() external view returns (uint256);\r\n\r\n  /**\r\n   * @dev Returns the token decimals.\r\n   */\r\n  function decimals() external view returns (uint8);\r\n\r\n  /**\r\n   * @dev Returns the token symbol.\r\n   */\r\n  function symbol() external view returns (string memory);\r\n\r\n  /**\r\n  * @dev Returns the token name.\r\n  */\r\n  function name() external view returns (string memory);\r\n\r\n  /**\r\n   * @dev Returns the bep token owner.\r\n   */\r\n  function getOwner() external view returns (address);\r\n\r\n  /**\r\n   * @dev Returns the amount of tokens owned by `account`.\r\n   */\r\n  function balanceOf(address account) external view returns (uint256);\r\n\r\n  /**\r\n   * @dev Moves `amount` tokens from the caller's account to `recipient`.\r\n   *\r\n   * Returns a boolean value indicating whether the operation succeeded.\r\n   *\r\n   * Emits a {Transfer} event.\r\n   */\r\n  function transfer(address recipient, uint256 amount) external returns (bool);\r\n\r\n  /**\r\n   * @dev Returns the remaining number of tokens that `spender` will be\r\n   * allowed to spend on behalf of `owner` through {transferFrom}. This is\r\n   * zero by default.\r\n   *\r\n   * This value changes when {approve} or {transferFrom} are called.\r\n   */\r\n  function allowance(address _owner, address spender) external view returns (uint256);\r\n\r\n  /**\r\n   * @dev Sets `amount` as the allowance of `spender` over the caller's tokens.\r\n   *\r\n   * Returns a boolean value indicating whether the operation succeeded.\r\n   *\r\n   * IMPORTANT: Beware that changing an allowance with this method brings the risk\r\n   * that someone may use both the old and the new allowance by unfortunate\r\n   * transaction ordering. One possible solution to mitigate this race\r\n   * condition is to first reduce the spender's allowance to 0 and set the\r\n   * desired value afterwards:\r\n   * https://github.com/ethereum/EIPs/issues/20#issuecomment-263524729\r\n   *\r\n   * Emits an {Approval} event.\r\n   */\r\n  function approve(address spender, uint256 amount) external returns (bool);\r\n\r\n  /**\r\n   * @dev Moves `amount` tokens from `sender` to `recipient` using the\r\n   * allowance mechanism. `amount` is then deducted from the caller's\r\n   * allowance.\r\n   *\r\n   * Returns a boolean value indicating whether the operation succeeded.\r\n   *\r\n   * Emits a {Transfer} event.\r\n   */\r\n  function transferFrom(address sender, address recipient, uint256 amount) external returns (bool);\r\n\r\n  /**\r\n   * @dev Emitted when `value` tokens are moved from one account (`from`) to\r\n   * another (`to`).\r\n   *\r\n   * Note that `value` may be zero.\r\n   */\r\n  event Transfer(address indexed from, address indexed to, uint256 value);\r\n\r\n  /**\r\n   * @dev Emitted when the allowance of a `spender` for an `owner` is set by\r\n   * a call to {approve}. `value` is the new allowance.\r\n   */\r\n  event Approval(address indexed owner, address indexed spender, uint256 value);\r\n  \r\n}\r\n/**\r\n * Tracer Standard Vesting Contract\r\n */\r\ncontract Vesting is Ownable {\r\n\r\n    //initialize data: token, member, vesting time\r\n    IBEP20 public token;\r\n    address[] public members;\r\n    uint256[] public amounts;\r\n    uint256[] public vestingTimeList;\r\n    uint256 releasedVestingId;\r\n    mapping(address => bool) public admins;\r\n\r\n\r\n    //tiger of members\r\n    struct Tier {\r\n        uint256 tierId;\r\n        uint256 amountMax;\r\n    }\r\n\r\n    uint256 public numberOfTiers; // count of tiger\r\n    mapping(uint256 => Tier) public tiers; //mapping data of tier: (index => tier)\r\n    // Tier[] public tiers; //mapping data of tier: (index => tier)\r\n    mapping(address => uint256) public whitelistOfTiers; //whitelist: (address => tierId)\r\n\r\n    struct Schedule {\r\n        uint256 amount;\r\n        uint256 claimedAmount;\r\n        uint256 unlockTime;\r\n        bool isFixed;\r\n    }\r\n\r\n    struct Plain {\r\n        uint256 percentage;\r\n        uint256 unlockTime;\r\n        bool isSent;\r\n    }\r\n    Plain[] public schedulePlain; // array of plains\r\n\r\n    // user => scheduleId => schedule\r\n    mapping(address => mapping(uint256 => Schedule)) public schedules;\r\n    mapping(address => uint256) public numberOfSchedules; //number of the schedule by address\r\n    mapping(address => uint256) public locked; //locked amount mapping by address\r\n\r\n    event Claim(address indexed claimer, uint256 amount);\r\n    event Cancelled(address account);\r\n    event NewVesting(address indexed investor, uint256 amount, bool isFixed);\r\n    event AddNewAdmin(address _address);\r\n    event UnlockTokens(uint256 _timestamp);\r\n\r\n    modifier onlyAdmin() {\r\n        require(_msgSender() != address(0x0) && admins[_msgSender()], \"Caller is not the admin\");\r\n        _;\r\n    }\r\n\r\n    modifier checkWhitelist(address account, uint256 amount) {\r\n        require(account != address(0x0) && whitelistOfTiers[account] != 0 && whitelistOfTiers[account] >= amount, \"Invalid whitelist member!\");\r\n        _;\r\n    }\r\n\r\n    constructor(address _token) {\r\n        require(_token != address(0x0));\r\n        token = IBEP20(_token); // token address\r\n        admins[owner()] = true;  // add owner to admin role\r\n        releasedVestingId = 0;   // set the initial releasedVestingId\r\n\r\n        //addresses for public sale\r\n        members.push(address(0x0C25363022587299510774E036ad078682991256));\r\n        members.push(address(0x026116102Ae7e558Cd436325158d54020EFCf0eF));\r\n        members.push(address(0x4B674Da5E20067B8213263720d958B5e7AbD7d8c));\r\n        members.push(address(0xD157D2Ff5393c509777765Cf612284d53d38dE30));\r\n        members.push(address(0xFcf2668C4EC68D2bbd36a476e30227744A0f5EB8));\r\n        members.push(address(0x3719D24Fa12f32877f894c6F51FeECF91F16b44f));\r\n        members.push(address(0xc0eaA0018b1192dE0c8ca46E57B84Ee907e01baC));\r\n        members.push(address(0xc50dD8028B1C6914B67F4657F0155e5D2cE1E226));\r\n        members.push(address(0x5B588e36FF358D4376A76FB163fd69Da02A2A9a5));\r\n        members.push(address(0xA5664dC01BB8369EDc6116d3B267d6014681dD2F));\r\n\r\n        //amount for public sale\r\n        amounts.push(5000000);\r\n        amounts.push(5000000);\r\n        amounts.push(5000000);\r\n        amounts.push(5000000);\r\n        amounts.push(5000000);\r\n        amounts.push(5000000);\r\n        amounts.push(5000000);\r\n        amounts.push(5000000);\r\n        amounts.push(5000000);\r\n        amounts.push(5000000);\r\n\r\n        // add schedule time\r\n        vestingTimeList.push(1639083600); // 2021-12-10 00:00:00\r\n        vestingTimeList.push(1641762000); // 2022-01-10 00:00:00\r\n        vestingTimeList.push(1644440400); // 2022-02-10 00:00:00\r\n        vestingTimeList.push(1646859600); // 2022-03-10 00:00:00\r\n        vestingTimeList.push(1649538000); // 2022-04-10 00:00:00\r\n        vestingTimeList.push(1652130000); // 2022-05-10 00:00:00\r\n\r\n        //set the schedule plain\r\n        for(uint256 i = 0; i < vestingTimeList.length; i++){\r\n            if(i == 0) { // after TGE \r\n                schedulePlain.push(Plain(\r\n                    5, //%\r\n                    vestingTimeList[i],\r\n                    false\r\n                ));\r\n            }else { // next steps\r\n                schedulePlain.push(Plain(\r\n                    19, //%\r\n                    vestingTimeList[i],\r\n                    false\r\n                ));\r\n            }\r\n        }\r\n\r\n        //initialize the vesting schedule\r\n        for(uint256 i = 0; i < members.length; i++){\r\n            addVest(members[i], amounts[i], true);\r\n        }\r\n    }\r\n\r\n    function addAdmin(address _address) external onlyOwner {\r\n        require(_address != address(0x0), \"Zero address\");\r\n        require(!admins[_address], \"This address is already added as an admin\");\r\n        admins[_address] = true;\r\n        emit AddNewAdmin(_address);\r\n    }\r\n\r\n    /**\r\n     * @notice Sets up a vesting schedule for a set user.\r\n     * @dev adds a new Schedule to the schedules mapping.\r\n     * @param account the account that a vesting schedule is being set up for. Will be able to claim tokens after\r\n     *                the cliff period.\r\n     * @param amount the amount of tokens being vested for the user.\r\n     * @param isFixed a flag for if the vesting schedule is fixed or not. Fixed vesting schedules can't be cancelled.\r\n     */\r\n    function addVest(\r\n        address account,\r\n        uint256 amount,\r\n        bool isFixed\r\n    ) public onlyAdmin checkWhitelist(account, amount) {\r\n        // check amount\r\n        require(amount > 0, \"Vesting: invalid vesting params\");\r\n\r\n        uint256 currentLocked = locked[address(token)];\r\n\r\n        // require the token is present\r\n        require(\r\n            IBEP20(token).balanceOf(address(this)) >= currentLocked + amount,\r\n            \"Vesting: Not enough tokens\"\r\n        );\r\n\r\n        // create the schedule\r\n        uint256 currentNumSchedules = numberOfSchedules[account];\r\n        require(currentNumSchedules == 0, \"already exist user\");\r\n        \r\n        for(uint256 i = 0; i < schedulePlain.length; i++){\r\n            uint256 _amount = amount * schedulePlain[i].percentage / 100;\r\n            uint256 _unlockTime = schedulePlain[i].unlockTime;\r\n\r\n            schedules[account][currentNumSchedules] = Schedule(\r\n                _amount,\r\n                0,\r\n                _unlockTime,\r\n                isFixed\r\n            );\r\n\r\n            numberOfSchedules[account] = currentNumSchedules + 1;\r\n            locked[address(token)] = currentLocked + amount;\r\n        }\r\n        members.push(account);\r\n        emit NewVesting(account, amount, isFixed);\r\n    }\r\n\r\n    /**\r\n     * @notice Sets up vesting schedules for multiple users within 1 transaction.\r\n     * @dev adds a new Schedule to the schedules mapping.\r\n     * @param accounts an array of the accounts that the vesting schedules are being set up for.\r\n     *                 Will be able to claim tokens after the cliff period.\r\n     * @param amount an array of the amount of tokens being vested for each user.\r\n     * @param isFixed bool setting if these vesting schedules can be rugged or not.\r\n     */\r\n    function addMultiVest(\r\n        address[] calldata accounts,\r\n        uint256[] calldata amount,\r\n        bool isFixed\r\n    ) external onlyAdmin {\r\n        uint256 numberOfAccounts = accounts.length;\r\n        require(\r\n            amount.length == numberOfAccounts,\r\n            \"Vesting: Array lengths differ\"\r\n        );\r\n        for (uint256 i = 0; i < numberOfAccounts; i++) {\r\n            addVest(\r\n                accounts[i],\r\n                amount[i],\r\n                isFixed\r\n            );\r\n        }\r\n    }\r\n\r\n    /**\r\n     * @notice allows users to claim vested tokens if the cliff time has passed.\r\n     * @param scheduleNumber which schedule the user is claiming against\r\n     */\r\n    function claim(uint256 scheduleNumber) external {\r\n        Schedule storage schedule = schedules[msg.sender][scheduleNumber];\r\n        require(\r\n            schedule.unlockTime <= block.timestamp,\r\n            \"Vesting: unlockTime not reached\"\r\n        );\r\n        require(schedule.amount > 0, \"Vesting: not claimable\");\r\n\r\n        uint256 amountToTransfer = schedule.amount - schedule.claimedAmount;\r\n        schedule.claimedAmount = schedule.amount; // set new claimed amount based off the curve\r\n        locked[address(token)] = locked[address(token)] - amountToTransfer;\r\n        require(IBEP20(token).transfer(msg.sender, amountToTransfer), \"Vesting: transfer failed\");\r\n        emit Claim(msg.sender, schedule.amount);\r\n    }\r\n\r\n    /**\r\n     * @notice Allows a vesting schedule to be cancelled.\r\n     * @dev Any outstanding tokens are returned to the system.\r\n     * @param account the account of the user whos vesting schedule is being cancelled.\r\n     */\r\n    function rug(address account, uint256 scheduleId) external onlyAdmin {\r\n        Schedule storage schedule = schedules[account][scheduleId];\r\n        require(!schedule.isFixed, \"Vesting: Account is fixed\");\r\n        uint256 outstandingAmount = schedule.amount -\r\n            schedule.claimedAmount;\r\n        require(outstandingAmount != 0, \"Vesting: no outstanding tokens\");\r\n        schedule.amount = 0;\r\n        locked[address(token)] = locked[address(token)] - outstandingAmount;\r\n        require(IBEP20(token).transfer(owner(), outstandingAmount), \"Vesting: transfer failed\");\r\n        emit Cancelled(account);\r\n    }\r\n\r\n    /**\r\n     * @return calculates the amount of tokens to distribute to an account at any instance in time, based off some\r\n     *         total claimable amount.\r\n     * @param amount the total outstanding amount to be claimed for this vesting schedule.\r\n     * @param currentTime the current timestamp.\r\n     * @param startTime the timestamp this vesting schedule started.\r\n     * @param endTime the timestamp this vesting schedule ends.\r\n     */\r\n    \r\n    /**\r\n     * @notice Withdraws CSPD tokens from the contract.\r\n     * @dev blocks withdrawing locked tokens.\r\n     */\r\n    function withdraw(uint256 amount) external onlyAdmin {\r\n        require(\r\n            token.balanceOf(address(this)) - locked[address(token)] >= amount,\r\n            \"Vesting: Can't withdraw\"\r\n        );\r\n        require(token.transfer(owner(), amount), \"Vesting: withdraw failed\");\r\n    }\r\n\r\n    function setTiers(\r\n        uint256[] calldata tierIds,\r\n        uint256[] calldata amountsMax\r\n    ) external onlyAdmin {\r\n        uint256 _numberOfTiers = tierIds.length;\r\n        require(\r\n            amountsMax.length == _numberOfTiers,\r\n            \"Tier: Array lengths differ\"\r\n        );\r\n        for (uint256 i = 0; i < _numberOfTiers; i++) {\r\n            require(\r\n                tierIds[i] > 0 == true && amountsMax[i] > 0,\r\n                \"Tier: invalid tier params\"\r\n            );\r\n\r\n            tiers[i] = Tier(\r\n                tierIds[i],\r\n                amountsMax[i]\r\n            );\r\n        }\r\n\r\n        numberOfTiers = _numberOfTiers;\r\n    }\r\n\r\n    function setTierOfAccount(\r\n        address account,\r\n        uint256 indexOfTier\r\n    ) external onlyAdmin {\r\n        require(\r\n            indexOfTier >= 0 && indexOfTier < numberOfTiers,\r\n            \"Tier: index of tier is invalid\"\r\n        );\r\n\r\n        whitelistOfTiers[account] = indexOfTier;\r\n    }\r\n\r\n    function getTierIdOfAccount(\r\n        address account\r\n    ) public view returns (uint256){\r\n        uint256 indexOfTier = whitelistOfTiers[account];\r\n        Tier storage _tier = tiers[indexOfTier];\r\n        return _tier.tierId;\r\n    }\r\n\r\n    function getTierAmountMaxOfAccount(\r\n        address account\r\n    ) public view returns (uint256){\r\n        uint256 indexOfTier = whitelistOfTiers[account];\r\n        return tiers[indexOfTier].amountMax;\r\n    }\r\n\r\n    function unlockToken() external onlyAdmin {\r\n        uint256 currentTime = block.timestamp;\r\n        uint256 startTime = schedulePlain[releasedVestingId].unlockTime;\r\n        require(currentTime >= startTime, \"You can't run unlockToken function now\");\r\n        require(releasedVestingId < 6, \"Lock period End and All locked tokens were unlocked\");\r\n        require(!schedulePlain[releasedVestingId].isSent, \"Already unlocked tokens of this schedule\");\r\n\r\n        if (releasedVestingId == 0) {\r\n            require(token.balanceOf(address(this)) >= 2500000, \"You need to deposit 2500000 CSPDs into this contract before you start this contract.\");\r\n        }\r\n        for (uint256 i = 0; i < members.length; i++) {\r\n            Schedule memory _schedule = schedules[members[i]][releasedVestingId];\r\n            if (_schedule.amount != _schedule.claimedAmount) {\r\n                uint256 transferAmount = _schedule.amount - _schedule.claimedAmount;\r\n                require(token.transfer(members[i], transferAmount));\r\n            }\r\n        }\r\n        emit UnlockTokens(vestingTimeList[releasedVestingId]);\r\n        schedulePlain[releasedVestingId].isSent = true;\r\n        releasedVestingId = releasedVestingId + 1;\r\n    }\r\n}",
  "sourcePath": "D:\\Work Space\\CasperPad\\CasperPadToken_Contract\\contracts\\Vesting.sol",
  "compiler": {
    "name": "solc",
    "version": "0.8.7+commit.e28d00a7.Emscripten.clang"
  },
  "schemaVersion": "3.4.3",
  "updatedAt": "2021-11-29T14:34:16.950Z",
  "devdoc": {
    "kind": "dev",
    "methods": {
      "addMultiVest(address[],uint256[],bool)": {
        "details": "adds a new Schedule to the schedules mapping.",
        "params": {
          "accounts": "an array of the accounts that the vesting schedules are being set up for.                 Will be able to claim tokens after the cliff period.",
          "amount": "an array of the amount of tokens being vested for each user.",
          "isFixed": "bool setting if these vesting schedules can be rugged or not."
        }
      },
      "addVest(address,uint256,bool)": {
        "details": "adds a new Schedule to the schedules mapping.",
        "params": {
          "account": "the account that a vesting schedule is being set up for. Will be able to claim tokens after                the cliff period.",
          "amount": "the amount of tokens being vested for the user.",
          "isFixed": "a flag for if the vesting schedule is fixed or not. Fixed vesting schedules can't be cancelled."
        }
      },
      "claim(uint256)": {
        "params": {
          "scheduleNumber": "which schedule the user is claiming against"
        }
      },
      "owner()": {
        "details": "Returns the address of the current owner."
      },
      "renounceOwnership()": {
        "details": "Leaves the contract without owner. It will not be possible to call `onlyOwner` functions anymore. Can only be called by the current owner. NOTE: Renouncing ownership will leave the contract without an owner, thereby removing any functionality that is only available to the owner."
      },
      "rug(address,uint256)": {
        "details": "Any outstanding tokens are returned to the system.",
        "params": {
          "account": "the account of the user whos vesting schedule is being cancelled."
        }
      },
      "transferOwnership(address)": {
        "details": "Transfers ownership of the contract to a new account (`newOwner`). Can only be called by the current owner."
      },
      "withdraw(uint256)": {
        "details": "blocks withdrawing locked tokens."
      }
    },
    "version": 1
  },
  "userdoc": {
    "kind": "user",
    "methods": {
      "addMultiVest(address[],uint256[],bool)": {
        "notice": "Sets up vesting schedules for multiple users within 1 transaction."
      },
      "addVest(address,uint256,bool)": {
        "notice": "Sets up a vesting schedule for a set user."
      },
      "claim(uint256)": {
        "notice": "allows users to claim vested tokens if the cliff time has passed."
      },
      "rug(address,uint256)": {
        "notice": "Allows a vesting schedule to be cancelled."
      },
      "withdraw(uint256)": {
        "notice": "Withdraws CSPD tokens from the contract."
      }
    },
    "notice": "Tracer Standard Vesting Contract",
    "version": 1
  }
}