{
  "contractName": "Vesting",
  "abi": [
    {
      "inputs": [
        {
          "internalType": "address",
          "name": "_token",
          "type": "address"
        }
      ],
      "stateMutability": "nonpayable",
      "type": "constructor"
    },
    {
      "anonymous": false,
      "inputs": [
        {
          "indexed": false,
          "internalType": "address",
          "name": "_address",
          "type": "address"
        }
      ],
      "name": "AddNewAdmin",
      "type": "event"
    },
    {
      "anonymous": false,
      "inputs": [
        {
          "indexed": false,
          "internalType": "address",
          "name": "account",
          "type": "address"
        }
      ],
      "name": "Cancelled",
      "type": "event"
    },
    {
      "anonymous": false,
      "inputs": [
        {
          "indexed": true,
          "internalType": "address",
          "name": "claimer",
          "type": "address"
        },
        {
          "indexed": false,
          "internalType": "uint256",
          "name": "amount",
          "type": "uint256"
        }
      ],
      "name": "Claim",
      "type": "event"
    },
    {
      "anonymous": false,
      "inputs": [
        {
          "indexed": true,
          "internalType": "address",
          "name": "investor",
          "type": "address"
        },
        {
          "indexed": false,
          "internalType": "uint256",
          "name": "amount",
          "type": "uint256"
        },
        {
          "indexed": false,
          "internalType": "bool",
          "name": "isFixed",
          "type": "bool"
        }
      ],
      "name": "NewVesting",
      "type": "event"
    },
    {
      "anonymous": false,
      "inputs": [
        {
          "indexed": true,
          "internalType": "address",
          "name": "previousOwner",
          "type": "address"
        },
        {
          "indexed": true,
          "internalType": "address",
          "name": "newOwner",
          "type": "address"
        }
      ],
      "name": "OwnershipTransferred",
      "type": "event"
    },
    {
      "anonymous": false,
      "inputs": [
        {
          "indexed": false,
          "internalType": "uint256",
          "name": "_timestamp",
          "type": "uint256"
        }
      ],
      "name": "UnlockTokens",
      "type": "event"
    },
    {
      "inputs": [
        {
          "internalType": "address",
          "name": "",
          "type": "address"
        }
      ],
      "name": "admins",
      "outputs": [
        {
          "internalType": "bool",
          "name": "",
          "type": "bool"
        }
      ],
      "stateMutability": "view",
      "type": "function",
      "constant": true
    },
    {
      "inputs": [
        {
          "internalType": "uint256",
          "name": "",
          "type": "uint256"
        }
      ],
      "name": "amounts",
      "outputs": [
        {
          "internalType": "uint256",
          "name": "",
          "type": "uint256"
        }
      ],
      "stateMutability": "view",
      "type": "function",
      "constant": true
    },
    {
      "inputs": [
        {
          "internalType": "address",
          "name": "",
          "type": "address"
        }
      ],
      "name": "locked",
      "outputs": [
        {
          "internalType": "uint256",
          "name": "",
          "type": "uint256"
        }
      ],
      "stateMutability": "view",
      "type": "function",
      "constant": true
    },
    {
      "inputs": [
        {
          "internalType": "uint256",
          "name": "",
          "type": "uint256"
        }
      ],
      "name": "members",
      "outputs": [
        {
          "internalType": "address",
          "name": "",
          "type": "address"
        }
      ],
      "stateMutability": "view",
      "type": "function",
      "constant": true
    },
    {
      "inputs": [
        {
          "internalType": "address",
          "name": "",
          "type": "address"
        }
      ],
      "name": "numberOfSchedules",
      "outputs": [
        {
          "internalType": "uint256",
          "name": "",
          "type": "uint256"
        }
      ],
      "stateMutability": "view",
      "type": "function",
      "constant": true
    },
    {
      "inputs": [],
      "name": "owner",
      "outputs": [
        {
          "internalType": "address",
          "name": "",
          "type": "address"
        }
      ],
      "stateMutability": "view",
      "type": "function",
      "constant": true
    },
    {
      "inputs": [],
      "name": "renounceOwnership",
      "outputs": [],
      "stateMutability": "nonpayable",
      "type": "function"
    },
    {
      "inputs": [
        {
          "internalType": "uint256",
          "name": "",
          "type": "uint256"
        }
      ],
      "name": "schedulePlain",
      "outputs": [
        {
          "internalType": "uint256",
          "name": "percentage",
          "type": "uint256"
        },
        {
          "internalType": "uint256",
          "name": "unlockTime",
          "type": "uint256"
        },
        {
          "internalType": "bool",
          "name": "isSent",
          "type": "bool"
        }
      ],
      "stateMutability": "view",
      "type": "function",
      "constant": true
    },
    {
      "inputs": [
        {
          "internalType": "address",
          "name": "",
          "type": "address"
        },
        {
          "internalType": "uint256",
          "name": "",
          "type": "uint256"
        }
      ],
      "name": "schedules",
      "outputs": [
        {
          "internalType": "uint256",
          "name": "amount",
          "type": "uint256"
        },
        {
          "internalType": "uint256",
          "name": "claimedAmount",
          "type": "uint256"
        },
        {
          "internalType": "uint256",
          "name": "unlockTime",
          "type": "uint256"
        },
        {
          "internalType": "bool",
          "name": "isFixed",
          "type": "bool"
        }
      ],
      "stateMutability": "view",
      "type": "function",
      "constant": true
    },
    {
      "inputs": [],
      "name": "token",
      "outputs": [
        {
          "internalType": "contract IBEP20",
          "name": "",
          "type": "address"
        }
      ],
      "stateMutability": "view",
      "type": "function",
      "constant": true
    },
    {
      "inputs": [
        {
          "internalType": "address",
          "name": "newOwner",
          "type": "address"
        }
      ],
      "name": "transferOwnership",
      "outputs": [],
      "stateMutability": "nonpayable",
      "type": "function"
    },
    {
      "inputs": [
        {
          "internalType": "uint256",
          "name": "",
          "type": "uint256"
        }
      ],
      "name": "vestingTimeList",
      "outputs": [
        {
          "internalType": "uint256",
          "name": "",
          "type": "uint256"
        }
      ],
      "stateMutability": "view",
      "type": "function",
      "constant": true
    },
    {
      "inputs": [
        {
          "internalType": "address",
          "name": "",
          "type": "address"
        }
      ],
      "name": "whitelistOfTiers",
      "outputs": [
        {
          "internalType": "uint256",
          "name": "",
          "type": "uint256"
        }
      ],
      "stateMutability": "view",
      "type": "function",
      "constant": true
    },
    {
      "inputs": [
        {
          "internalType": "uint256",
          "name": "totalAmount",
          "type": "uint256"
        }
      ],
      "name": "tokenSupply",
      "outputs": [],
      "stateMutability": "payable",
      "type": "function",
      "payable": true
    },
    {
      "inputs": [
        {
          "internalType": "address",
          "name": "_address",
          "type": "address"
        }
      ],
      "name": "addAdmin",
      "outputs": [],
      "stateMutability": "nonpayable",
      "type": "function"
    },
    {
      "inputs": [
        {
          "internalType": "address",
          "name": "_address",
          "type": "address"
        }
      ],
      "name": "isAdmin",
      "outputs": [
        {
          "internalType": "bool",
          "name": "",
          "type": "bool"
        }
      ],
      "stateMutability": "view",
      "type": "function",
      "constant": true
    },
    {
      "inputs": [],
      "name": "getTotalSoldAmount",
      "outputs": [
        {
          "internalType": "uint256",
          "name": "",
          "type": "uint256"
        }
      ],
      "stateMutability": "view",
      "type": "function",
      "constant": true
    },
    {
      "inputs": [
        {
          "internalType": "address",
          "name": "account",
          "type": "address"
        },
        {
          "internalType": "uint256",
          "name": "amount",
          "type": "uint256"
        },
        {
          "internalType": "bool",
          "name": "isFixed",
          "type": "bool"
        }
      ],
      "name": "addVest",
      "outputs": [],
      "stateMutability": "nonpayable",
      "type": "function"
    },
    {
      "inputs": [
        {
          "internalType": "address[]",
          "name": "accounts",
          "type": "address[]"
        },
        {
          "internalType": "uint256[]",
          "name": "amount",
          "type": "uint256[]"
        },
        {
          "internalType": "bool",
          "name": "isFixed",
          "type": "bool"
        }
      ],
      "name": "addMultiVest",
      "outputs": [],
      "stateMutability": "nonpayable",
      "type": "function"
    },
    {
      "inputs": [
        {
          "internalType": "uint256",
          "name": "scheduleNumber",
          "type": "uint256"
        }
      ],
      "name": "claim",
      "outputs": [],
      "stateMutability": "nonpayable",
      "type": "function"
    },
    {
      "inputs": [
        {
          "internalType": "address",
          "name": "account",
          "type": "address"
        },
        {
          "internalType": "uint256",
          "name": "scheduleId",
          "type": "uint256"
        }
      ],
      "name": "rug",
      "outputs": [],
      "stateMutability": "nonpayable",
      "type": "function"
    },
    {
      "inputs": [
        {
          "internalType": "uint256",
          "name": "amount",
          "type": "uint256"
        }
      ],
      "name": "withdraw",
      "outputs": [],
      "stateMutability": "nonpayable",
      "type": "function"
    },
    {
      "inputs": [
        {
          "internalType": "address[]",
          "name": "accounts",
          "type": "address[]"
        },
        {
          "internalType": "uint256[]",
          "name": "_maxAmount",
          "type": "uint256[]"
        }
      ],
      "name": "multiSetTierOfAccount",
      "outputs": [],
      "stateMutability": "nonpayable",
      "type": "function"
    },
    {
      "inputs": [
        {
          "internalType": "address",
          "name": "account",
          "type": "address"
        },
        {
          "internalType": "uint256",
          "name": "_maxAmount",
          "type": "uint256"
        }
      ],
      "name": "setTierOfAccount",
      "outputs": [],
      "stateMutability": "nonpayable",
      "type": "function"
    },
    {
      "inputs": [
        {
          "internalType": "address",
          "name": "account",
          "type": "address"
        }
      ],
      "name": "getTierOfAccount",
      "outputs": [
        {
          "internalType": "uint256",
          "name": "",
          "type": "uint256"
        }
      ],
      "stateMutability": "view",
      "type": "function",
      "constant": true
    },
    {
      "inputs": [],
      "name": "unlockToken",
      "outputs": [],
      "stateMutability": "nonpayable",
      "type": "function"
    }
  ],
  "bytecode": "0x608060405260006006553480156200001657600080fd5b5060405162004feb38038062004feb83398181016040528101906200003c919062000d04565b6200005c6200005062000be160201b60201c565b62000be960201b60201c565b600073ffffffffffffffffffffffffffffffffffffffff168173ffffffffffffffffffffffffffffffffffffffff1614156200009757600080fd5b80600160006101000a81548173ffffffffffffffffffffffffffffffffffffffff021916908373ffffffffffffffffffffffffffffffffffffffff16021790555060006a295be96e640669720000009050808273ffffffffffffffffffffffffffffffffffffffff166370a082316200011562000cad60201b60201c565b6040518263ffffffff1660e01b815260040162000133919062000da0565b60206040518083038186803b1580156200014c57600080fd5b505afa15801562000161573d6000803e3d6000fd5b505050506040513d601f19601f8201168201806040525081019062000187919062000d36565b1015620001cb576040517f08c379a0000000000000000000000000000000000000000000000000000000008152600401620001c29062000dbd565b60405180910390fd5b600160076000620001e162000cad60201b60201c565b73ffffffffffffffffffffffffffffffffffffffff1673ffffffffffffffffffffffffffffffffffffffff16815260200190815260200160002060006101000a81548160ff02191690831515021790555060006005819055506002735b38da6a701c568545dcfcb03fcb875f56beddc49080600181540180825580915050600190039060005260206000200160009091909190916101000a81548173ffffffffffffffffffffffffffffffffffffffff021916908373ffffffffffffffffffffffffffffffffffffffff160217905550600273026116102ae7e558cd436325158d54020efcf0ef9080600181540180825580915050600190039060005260206000200160009091909190916101000a81548173ffffffffffffffffffffffffffffffffffffffff021916908373ffffffffffffffffffffffffffffffffffffffff1602179055506002734b674da5e20067b8213263720d958b5e7abd7d8c9080600181540180825580915050600190039060005260206000200160009091909190916101000a81548173ffffffffffffffffffffffffffffffffffffffff021916908373ffffffffffffffffffffffffffffffffffffffff160217905550600273d157d2ff5393c509777765cf612284d53d38de309080600181540180825580915050600190039060005260206000200160009091909190916101000a81548173ffffffffffffffffffffffffffffffffffffffff021916908373ffffffffffffffffffffffffffffffffffffffff160217905550600273fcf2668c4ec68d2bbd36a476e30227744a0f5eb89080600181540180825580915050600190039060005260206000200160009091909190916101000a81548173ffffffffffffffffffffffffffffffffffffffff021916908373ffffffffffffffffffffffffffffffffffffffff1602179055506002733719d24fa12f32877f894c6f51feecf91f16b44f9080600181540180825580915050600190039060005260206000200160009091909190916101000a81548173ffffffffffffffffffffffffffffffffffffffff021916908373ffffffffffffffffffffffffffffffffffffffff160217905550600273c0eaa0018b1192de0c8ca46e57b84ee907e01bac9080600181540180825580915050600190039060005260206000200160009091909190916101000a81548173ffffffffffffffffffffffffffffffffffffffff021916908373ffffffffffffffffffffffffffffffffffffffff160217905550600273c50dd8028b1c6914b67f4657f0155e5d2ce1e2269080600181540180825580915050600190039060005260206000200160009091909190916101000a81548173ffffffffffffffffffffffffffffffffffffffff021916908373ffffffffffffffffffffffffffffffffffffffff1602179055506002735b588e36ff358d4376a76fb163fd69da02a2a9a59080600181540180825580915050600190039060005260206000200160009091909190916101000a81548173ffffffffffffffffffffffffffffffffffffffff021916908373ffffffffffffffffffffffffffffffffffffffff160217905550600273a5664dc01bb8369edc6116d3b267d6014681dd2f9080600181540180825580915050600190039060005260206000200160009091909190916101000a81548173ffffffffffffffffffffffffffffffffffffffff021916908373ffffffffffffffffffffffffffffffffffffffff1602179055506003624c4b4090806001815401808255809150506001900390600052602060002001600090919091909150556003624c4b4090806001815401808255809150506001900390600052602060002001600090919091909150556003624c4b4090806001815401808255809150506001900390600052602060002001600090919091909150556003624c4b4090806001815401808255809150506001900390600052602060002001600090919091909150556003624c4b4090806001815401808255809150506001900390600052602060002001600090919091909150556003624c4b4090806001815401808255809150506001900390600052602060002001600090919091909150556003624c4b4090806001815401808255809150506001900390600052602060002001600090919091909150556003624c4b4090806001815401808255809150506001900390600052602060002001600090919091909150556003624c4b4090806001815401808255809150506001900390600052602060002001600090919091909150556003624c4b4090806001815401808255809150506001900390600052602060002001600090919091909150556004635bbc8d5090806001815401808255809150506001900390600052602060002001600090919091909150556004635bbc8e7c908060018154018082558091505060019003906000526020600020016000909190919091505560046362042b5090806001815401808255809150506001900390600052602060002001600090919091909150556004636229155090806001815401808255809150506001900390600052602060002001600090919091909150556004636251f3d09080600181540180825580915050600190039060005260206000200160009091909190915055600463627980d0908060018154018082558091505060019003906000526020600020016000909190919091505560005b60048054905081101562000b2057600081141562000a6857600960405180606001604052806005815260200160048481548110620009ec57620009eb62000eab565b5b90600052602060002001548152602001600015158152509080600181540180825580915050600190039060005260206000209060030201600090919091909150600082015181600001556020820151816001015560408201518160020160006101000a81548160ff021916908315150217905550505062000b0a565b60096040518060600160405280601381526020016004848154811062000a935762000a9262000eab565b5b90600052602060002001548152602001600015158152509080600181540180825580915050600190039060005260206000209060030201600090919091909150600082015181600001556020820151816001015560408201518160020160006101000a81548160ff02191690831515021790555050505b808062000b179062000e2e565b915050620009a9565b5060005b60028054905081101562000bd8576a0422ca8b0a00a425000000600860006002848154811062000b595762000b5862000eab565b5b9060005260206000200160009054906101000a900473ffffffffffffffffffffffffffffffffffffffff1673ffffffffffffffffffffffffffffffffffffffff1673ffffffffffffffffffffffffffffffffffffffff16815260200190815260200160002081905550808062000bcf9062000e2e565b91505062000b24565b50505062000f3c565b600033905090565b60008060009054906101000a900473ffffffffffffffffffffffffffffffffffffffff169050816000806101000a81548173ffffffffffffffffffffffffffffffffffffffff021916908373ffffffffffffffffffffffffffffffffffffffff1602179055508173ffffffffffffffffffffffffffffffffffffffff168173ffffffffffffffffffffffffffffffffffffffff167f8be0079c531659141344cd1fd0a4f28419497f9722a3daafe3b4186f6b6457e060405160405180910390a35050565b60008060009054906101000a900473ffffffffffffffffffffffffffffffffffffffff16905090565b60008151905062000ce78162000f08565b92915050565b60008151905062000cfe8162000f22565b92915050565b60006020828403121562000d1d5762000d1c62000eda565b5b600062000d2d8482850162000cd6565b91505092915050565b60006020828403121562000d4f5762000d4e62000eda565b5b600062000d5f8482850162000ced565b91505092915050565b62000d738162000df0565b82525050565b600062000d88601d8362000ddf565b915062000d958262000edf565b602082019050919050565b600060208201905062000db7600083018462000d68565b92915050565b6000602082019050818103600083015262000dd88162000d79565b9050919050565b600082825260208201905092915050565b600062000dfd8262000e04565b9050919050565b600073ffffffffffffffffffffffffffffffffffffffff82169050919050565b6000819050919050565b600062000e3b8262000e24565b91507fffffffffffffffffffffffffffffffffffffffffffffffffffffffffffffffff82141562000e715762000e7062000e7c565b5b600182019050919050565b7f4e487b7100000000000000000000000000000000000000000000000000000000600052601160045260246000fd5b7f4e487b7100000000000000000000000000000000000000000000000000000000600052603260045260246000fd5b600080fd5b7f6f776e657227732062616c616e6365206973206e6f7420656e6f756768000000600082015250565b62000f138162000df0565b811462000f1f57600080fd5b50565b62000f2d8162000e24565b811462000f3957600080fd5b50565b61409f8062000f4c6000396000f3fe6080604052600436106101815760003560e01c806373bea3b2116100d1578063ceb9c7521161008a578063efa6d0df11610064578063efa6d0df146105c0578063f2fde38b146105e9578063fc0c546a14610612578063ffb4b1be1461063d57610181565b8063ceb9c75214610509578063d018eb0f14610546578063df681c141461058357610181565b806373bea3b2146103d0578063854e9682146103f95780638da5cb5b14610439578063933bdb9014610464578063b17a58cf1461048f578063cbf9fe5f146104cc57610181565b80633405ba2f1161013e57806345f0a44f1161011857806345f0a44f146103165780635daf08ca146103535780637048027514610390578063715018a6146103b957610181565b80633405ba2f14610271578063379607f5146102b0578063429b62e5146102d957610181565b806318a24b5b1461018657806324d7806c1461019d5780632693ebf2146101da57806329c6a24e146101f65780632e1a7d4d1461021f5780632fe5a51f14610248575b600080fd5b34801561019257600080fd5b5061019b610666565b005b3480156101a957600080fd5b506101c460048036038101906101bf9190612e02565b610d51565b6040516101d1919061344a565b60405180910390f35b6101f460048036038101906101ef9190613005565b610da7565b005b34801561020257600080fd5b5061021d60048036038101906102189190612e2f565b610fe3565b005b34801561022b57600080fd5b5061024660048036038101906102419190613005565b611154565b005b34801561025457600080fd5b5061026f600480360381019061026a9190612f43565b61148e565b005b34801561027d57600080fd5b5061029860048036038101906102939190613005565b611620565b6040516102a7939291906137e4565b60405180910390f35b3480156102bc57600080fd5b506102d760048036038101906102d29190613005565b611667565b005b3480156102e557600080fd5b5061030060048036038101906102fb9190612e02565b611985565b60405161030d919061344a565b60405180910390f35b34801561032257600080fd5b5061033d60048036038101906103389190613005565b6119a5565b60405161034a91906137a0565b60405180910390f35b34801561035f57600080fd5b5061037a60048036038101906103759190613005565b6119c9565b6040516103879190613406565b60405180910390f35b34801561039c57600080fd5b506103b760048036038101906103b29190612e02565b611a08565b005b3480156103c557600080fd5b506103ce611c13565b005b3480156103dc57600080fd5b506103f760048036038101906103f29190612e6f565b611c9b565b005b34801561040557600080fd5b50610420600480360381019061041b9190612e2f565b612355565b604051610430949392919061381b565b60405180910390f35b34801561044557600080fd5b5061044e61239f565b60405161045b9190613406565b60405180910390f35b34801561047057600080fd5b506104796123c8565b60405161048691906137a0565b60405180910390f35b34801561049b57600080fd5b506104b660048036038101906104b19190612e02565b6123d2565b6040516104c391906137a0565b60405180910390f35b3480156104d857600080fd5b506104f360048036038101906104ee9190612e02565b6123ea565b60405161050091906137a0565b60405180910390f35b34801561051557600080fd5b50610530600480360381019061052b9190612e02565b612402565b60405161053d91906137a0565b60405180910390f35b34801561055257600080fd5b5061056d60048036038101906105689190613005565b61244b565b60405161057a91906137a0565b60405180910390f35b34801561058f57600080fd5b506105aa60048036038101906105a59190612e02565b61246f565b6040516105b791906137a0565b60405180910390f35b3480156105cc57600080fd5b506105e760048036038101906105e29190612ec2565b612487565b005b3480156105f557600080fd5b50610610600480360381019061060b9190612e02565b612720565b005b34801561061e57600080fd5b50610627612818565b6040516106349190613465565b60405180910390f35b34801561064957600080fd5b50610664600480360381019061065f9190612e2f565b61283e565b005b600073ffffffffffffffffffffffffffffffffffffffff16610686612c21565b73ffffffffffffffffffffffffffffffffffffffff16141580156106fa5750600760006106b1612c21565b73ffffffffffffffffffffffffffffffffffffffff1673ffffffffffffffffffffffffffffffffffffffff16815260200190815260200160002060009054906101000a900460ff165b610739576040517f08c379a0000000000000000000000000000000000000000000000000000000008152600401610730906136c0565b60405180910390fd5b6000429050600060096005548154811061075657610755613aab565b5b9060005260206000209060030201600101549050808210156107ad576040517f08c379a00000000000000000000000000000000000000000000000000000000081526004016107a4906136a0565b60405180910390fd5b6006600554106107f2576040517f08c379a00000000000000000000000000000000000000000000000000000000081526004016107e990613580565b60405180910390fd5b60096005548154811061080857610807613aab565b5b906000526020600020906003020160020160009054906101000a900460ff1615610867576040517f08c379a000000000000000000000000000000000000000000000000000000000815260040161085e90613720565b60405180910390fd5b6000600554141561096357622625a0600160009054906101000a900473ffffffffffffffffffffffffffffffffffffffff1673ffffffffffffffffffffffffffffffffffffffff166370a08231306040518263ffffffff1660e01b81526004016108d19190613406565b60206040518083038186803b1580156108e957600080fd5b505afa1580156108fd573d6000803e3d6000fd5b505050506040513d601f19601f820116820180604052508101906109219190613032565b1015610962576040517f08c379a0000000000000000000000000000000000000000000000000000000008152600401610959906136e0565b60405180910390fd5b5b60005b600280549050811015610ca0576000600a60006002848154811061098d5761098c613aab565b5b9060005260206000200160009054906101000a900473ffffffffffffffffffffffffffffffffffffffff1673ffffffffffffffffffffffffffffffffffffffff1673ffffffffffffffffffffffffffffffffffffffff168152602001908152602001600020600060055481526020019081526020016000206040518060800160405290816000820154815260200160018201548152602001600282015481526020016003820160009054906101000a900460ff16151515158152505090508060200151816000015114610c8c57600081602001518260000151610a709190613952565b9050600160009054906101000a900473ffffffffffffffffffffffffffffffffffffffff1673ffffffffffffffffffffffffffffffffffffffff1663a9059cbb60028581548110610ac457610ac3613aab565b5b9060005260206000200160009054906101000a900473ffffffffffffffffffffffffffffffffffffffff16836040518363ffffffff1660e01b8152600401610b0d929190613421565b602060405180830381600087803b158015610b2757600080fd5b505af1158015610b3b573d6000803e3d6000fd5b505050506040513d601f19601f82011682018060405250810190610b5f9190612fd8565b610b6857600080fd5b80600c6000600160009054906101000a900473ffffffffffffffffffffffffffffffffffffffff1673ffffffffffffffffffffffffffffffffffffffff1673ffffffffffffffffffffffffffffffffffffffff1681526020019081526020016000206000828254610bd99190613952565b9250508190555080600a600060028681548110610bf957610bf8613aab565b5b9060005260206000200160009054906101000a900473ffffffffffffffffffffffffffffffffffffffff1673ffffffffffffffffffffffffffffffffffffffff1673ffffffffffffffffffffffffffffffffffffffff168152602001908152602001600020600060055481526020019081526020016000206001016000828254610c839190613871565b92505081905550505b508080610c9890613a04565b915050610966565b507fe468a184bc2a1e5c9c5fbd34dda66145a553603678c8c126b4ff137d17f527a2600460055481548110610cd857610cd7613aab565b5b9060005260206000200154604051610cf091906137a0565b60405180910390a16001600960055481548110610d1057610d0f613aab565b5b906000526020600020906003020160020160006101000a81548160ff0219169083151502179055506001600554610d479190613871565b6005819055505050565b6000600760008373ffffffffffffffffffffffffffffffffffffffff1673ffffffffffffffffffffffffffffffffffffffff16815260200190815260200160002060009054906101000a900460ff169050919050565b610daf612c21565b73ffffffffffffffffffffffffffffffffffffffff16610dcd61239f565b73ffffffffffffffffffffffffffffffffffffffff1614610e23576040517f08c379a0000000000000000000000000000000000000000000000000000000008152600401610e1a90613680565b60405180910390fd5b6000670de0b6b3a764000082610e3991906138f8565b905080600160009054906101000a900473ffffffffffffffffffffffffffffffffffffffff1673ffffffffffffffffffffffffffffffffffffffff166370a08231610e8261239f565b6040518263ffffffff1660e01b8152600401610e9e9190613406565b60206040518083038186803b158015610eb657600080fd5b505afa158015610eca573d6000803e3d6000fd5b505050506040513d601f19601f82011682018060405250810190610eee9190613032565b1015610f2f576040517f08c379a0000000000000000000000000000000000000000000000000000000008152600401610f26906134c0565b60405180910390fd5b600160009054906101000a900473ffffffffffffffffffffffffffffffffffffffff1673ffffffffffffffffffffffffffffffffffffffff1663a9059cbb30836040518363ffffffff1660e01b8152600401610f8c929190613421565b602060405180830381600087803b158015610fa657600080fd5b505af1158015610fba573d6000803e3d6000fd5b505050506040513d601f19601f82011682018060405250810190610fde9190612fd8565b505050565b600073ffffffffffffffffffffffffffffffffffffffff16611003612c21565b73ffffffffffffffffffffffffffffffffffffffff161415801561107757506007600061102e612c21565b73ffffffffffffffffffffffffffffffffffffffff1673ffffffffffffffffffffffffffffffffffffffff16815260200190815260200160002060009054906101000a900460ff165b6110b6576040517f08c379a00000000000000000000000000000000000000000000000000000000081526004016110ad906136c0565b60405180910390fd5b600081116110f9576040517f08c379a00000000000000000000000000000000000000000000000000000000081526004016110f0906135e0565b60405180910390fd5b670de0b6b3a76400008161110d91906138f8565b600860008473ffffffffffffffffffffffffffffffffffffffff1673ffffffffffffffffffffffffffffffffffffffff168152602001908152602001600020819055505050565b600073ffffffffffffffffffffffffffffffffffffffff16611174612c21565b73ffffffffffffffffffffffffffffffffffffffff16141580156111e857506007600061119f612c21565b73ffffffffffffffffffffffffffffffffffffffff1673ffffffffffffffffffffffffffffffffffffffff16815260200190815260200160002060009054906101000a900460ff165b611227576040517f08c379a000000000000000000000000000000000000000000000000000000000815260040161121e906136c0565b60405180910390fd5b670de0b6b3a76400008161123b91906138f8565b905080600c6000600160009054906101000a900473ffffffffffffffffffffffffffffffffffffffff1673ffffffffffffffffffffffffffffffffffffffff1673ffffffffffffffffffffffffffffffffffffffff16815260200190815260200160002054600160009054906101000a900473ffffffffffffffffffffffffffffffffffffffff1673ffffffffffffffffffffffffffffffffffffffff166370a08231306040518263ffffffff1660e01b81526004016112fb9190613406565b60206040518083038186803b15801561131357600080fd5b505afa158015611327573d6000803e3d6000fd5b505050506040513d601f19601f8201168201806040525081019061134b9190613032565b6113559190613952565b1015611396576040517f08c379a000000000000000000000000000000000000000000000000000000000815260040161138d906134a0565b60405180910390fd5b600160009054906101000a900473ffffffffffffffffffffffffffffffffffffffff1673ffffffffffffffffffffffffffffffffffffffff1663a9059cbb6113dc61239f565b836040518363ffffffff1660e01b81526004016113fa929190613421565b602060405180830381600087803b15801561141457600080fd5b505af1158015611428573d6000803e3d6000fd5b505050506040513d601f19601f8201168201806040525081019061144c9190612fd8565b61148b576040517f08c379a000000000000000000000000000000000000000000000000000000000815260040161148290613500565b60405180910390fd5b50565b600073ffffffffffffffffffffffffffffffffffffffff166114ae612c21565b73ffffffffffffffffffffffffffffffffffffffff16141580156115225750600760006114d9612c21565b73ffffffffffffffffffffffffffffffffffffffff1673ffffffffffffffffffffffffffffffffffffffff16815260200190815260200160002060009054906101000a900460ff165b611561576040517f08c379a0000000000000000000000000000000000000000000000000000000008152600401611558906136c0565b60405180910390fd5b60008585905090508084849050146115ae576040517f08c379a00000000000000000000000000000000000000000000000000000000081526004016115a590613600565b60405180910390fd5b60005b81811015611617576116048787838181106115cf576115ce613aab565b5b90506020020160208101906115e49190612e02565b8686848181106115f7576115f6613aab565b5b9050602002013585611c9b565b808061160f90613a04565b9150506115b1565b50505050505050565b6009818154811061163057600080fd5b90600052602060002090600302016000915090508060000154908060010154908060020160009054906101000a900460ff16905083565b6000600a60003373ffffffffffffffffffffffffffffffffffffffff1673ffffffffffffffffffffffffffffffffffffffff168152602001908152602001600020600083815260200190815260200160002090504281600201541115611702576040517f08c379a00000000000000000000000000000000000000000000000000000000081526004016116f990613640565b60405180910390fd5b6000816000015411611749576040517f08c379a000000000000000000000000000000000000000000000000000000000815260040161174090613760565b60405180910390fd5b60008160010154826000015461175f9190613952565b90508160000154826001018190555080600c6000600160009054906101000a900473ffffffffffffffffffffffffffffffffffffffff1673ffffffffffffffffffffffffffffffffffffffff1673ffffffffffffffffffffffffffffffffffffffff168152602001908152602001600020546117db9190613952565b600c6000600160009054906101000a900473ffffffffffffffffffffffffffffffffffffffff1673ffffffffffffffffffffffffffffffffffffffff1673ffffffffffffffffffffffffffffffffffffffff16815260200190815260200160002081905550600160009054906101000a900473ffffffffffffffffffffffffffffffffffffffff1673ffffffffffffffffffffffffffffffffffffffff1663a9059cbb33836040518363ffffffff1660e01b815260040161189d929190613421565b602060405180830381600087803b1580156118b757600080fd5b505af11580156118cb573d6000803e3d6000fd5b505050506040513d601f19601f820116820180604052508101906118ef9190612fd8565b61192e576040517f08c379a000000000000000000000000000000000000000000000000000000000815260040161192590613620565b60405180910390fd5b3373ffffffffffffffffffffffffffffffffffffffff167f47cee97cb7acd717b3c0aa1435d004cd5b3c8c57d70dbceb4e4458bbd60e39d4836000015460405161197891906137a0565b60405180910390a2505050565b60076020528060005260406000206000915054906101000a900460ff1681565b600381815481106119b557600080fd5b906000526020600020016000915090505481565b600281815481106119d957600080fd5b906000526020600020016000915054906101000a900473ffffffffffffffffffffffffffffffffffffffff1681565b611a10612c21565b73ffffffffffffffffffffffffffffffffffffffff16611a2e61239f565b73ffffffffffffffffffffffffffffffffffffffff1614611a84576040517f08c379a0000000000000000000000000000000000000000000000000000000008152600401611a7b90613680565b60405180910390fd5b600073ffffffffffffffffffffffffffffffffffffffff168173ffffffffffffffffffffffffffffffffffffffff161415611af4576040517f08c379a0000000000000000000000000000000000000000000000000000000008152600401611aeb90613560565b60405180910390fd5b600760008273ffffffffffffffffffffffffffffffffffffffff1673ffffffffffffffffffffffffffffffffffffffff16815260200190815260200160002060009054906101000a900460ff1615611b81576040517f08c379a0000000000000000000000000000000000000000000000000000000008152600401611b7890613480565b60405180910390fd5b6001600760008373ffffffffffffffffffffffffffffffffffffffff1673ffffffffffffffffffffffffffffffffffffffff16815260200190815260200160002060006101000a81548160ff0219169083151502179055507fe8545298d4f2a47282e100b4cbcf2645ab4d367b85c00b0fc35e03f4ee409b7f81604051611c089190613406565b60405180910390a150565b611c1b612c21565b73ffffffffffffffffffffffffffffffffffffffff16611c3961239f565b73ffffffffffffffffffffffffffffffffffffffff1614611c8f576040517f08c379a0000000000000000000000000000000000000000000000000000000008152600401611c8690613680565b60405180910390fd5b611c996000612c29565b565b600073ffffffffffffffffffffffffffffffffffffffff16611cbb612c21565b73ffffffffffffffffffffffffffffffffffffffff1614158015611d2f575060076000611ce6612c21565b73ffffffffffffffffffffffffffffffffffffffff1673ffffffffffffffffffffffffffffffffffffffff16815260200190815260200160002060009054906101000a900460ff165b611d6e576040517f08c379a0000000000000000000000000000000000000000000000000000000008152600401611d65906136c0565b60405180910390fd5b82826000600860008473ffffffffffffffffffffffffffffffffffffffff1673ffffffffffffffffffffffffffffffffffffffff16815260200190815260200160002054905060008114158015611dd85750670de0b6b3a764000082611dd491906138f8565b8110155b611e17576040517f08c379a0000000000000000000000000000000000000000000000000000000008152600401611e0e906135c0565b60405180910390fd5b60008511611e5a576040517f08c379a0000000000000000000000000000000000000000000000000000000008152600401611e5190613520565b60405180910390fd5b6000600c6000600160009054906101000a900473ffffffffffffffffffffffffffffffffffffffff1673ffffffffffffffffffffffffffffffffffffffff1673ffffffffffffffffffffffffffffffffffffffff168152602001908152602001600020549050670de0b6b3a764000086611ed491906138f8565b81611edf9190613871565b600160009054906101000a900473ffffffffffffffffffffffffffffffffffffffff1673ffffffffffffffffffffffffffffffffffffffff166370a08231306040518263ffffffff1660e01b8152600401611f3a9190613406565b60206040518083038186803b158015611f5257600080fd5b505afa158015611f66573d6000803e3d6000fd5b505050506040513d601f19601f82011682018060405250810190611f8a9190613032565b1015611fcb576040517f08c379a0000000000000000000000000000000000000000000000000000000008152600401611fc290613740565b60405180910390fd5b6000600b60008973ffffffffffffffffffffffffffffffffffffffff1673ffffffffffffffffffffffffffffffffffffffff16815260200190815260200160002054905060008114612052576040517f08c379a0000000000000000000000000000000000000000000000000000000008152600401612049906135a0565b60405180910390fd5b60005b60098054905081101561229757600060646009838154811061207a57612079613aab565b5b906000526020600020906003020160000154670de0b6b3a76400008b6120a091906138f8565b6120aa91906138f8565b6120b491906138c7565b90506000600983815481106120cc576120cb613aab565b5b90600052602060002090600302016001015490506040518060800160405280838152602001600081526020018281526020018a1515815250600a60008d73ffffffffffffffffffffffffffffffffffffffff1673ffffffffffffffffffffffffffffffffffffffff168152602001908152602001600020600085815260200190815260200160002060008201518160000155602082015181600101556040820151816002015560608201518160030160006101000a81548160ff0219169083151502179055509050506001836121a29190613871565b600b60008d73ffffffffffffffffffffffffffffffffffffffff1673ffffffffffffffffffffffffffffffffffffffff16815260200190815260200160002081905550670de0b6b3a76400008a6121f991906138f8565b856122049190613871565b600c6000600160009054906101000a900473ffffffffffffffffffffffffffffffffffffffff1673ffffffffffffffffffffffffffffffffffffffff1673ffffffffffffffffffffffffffffffffffffffff16815260200190815260200160002081905550816006600082825461227b9190613871565b925050819055505050808061228f90613a04565b915050612055565b506002889080600181540180825580915050600190039060005260206000200160009091909190916101000a81548173ffffffffffffffffffffffffffffffffffffffff021916908373ffffffffffffffffffffffffffffffffffffffff1602179055508773ffffffffffffffffffffffffffffffffffffffff167fe3b9a78308fbd313c084842efc8429b592f3980a893be12ed39018b5b16deb0988886040516123439291906137bb565b60405180910390a25050505050505050565b600a602052816000526040600020602052806000526040600020600091509150508060000154908060010154908060020154908060030160009054906101000a900460ff16905084565b60008060009054906101000a900473ffffffffffffffffffffffffffffffffffffffff16905090565b6000600654905090565b60086020528060005260406000206000915090505481565b600c6020528060005260406000206000915090505481565b6000600860008373ffffffffffffffffffffffffffffffffffffffff1673ffffffffffffffffffffffffffffffffffffffff168152602001908152602001600020549050919050565b6004818154811061245b57600080fd5b906000526020600020016000915090505481565b600b6020528060005260406000206000915090505481565b600073ffffffffffffffffffffffffffffffffffffffff166124a7612c21565b73ffffffffffffffffffffffffffffffffffffffff161415801561251b5750600760006124d2612c21565b73ffffffffffffffffffffffffffffffffffffffff1673ffffffffffffffffffffffffffffffffffffffff16815260200190815260200160002060009054906101000a900460ff165b61255a576040517f08c379a0000000000000000000000000000000000000000000000000000000008152600401612551906136c0565b60405180910390fd5b60008484905090508083839050146125a7576040517f08c379a000000000000000000000000000000000000000000000000000000000815260040161259e90613780565b60405180910390fd5b60005b8181101561271857600073ffffffffffffffffffffffffffffffffffffffff168686838181106125dd576125dc613aab565b5b90506020020160208101906125f29190612e02565b73ffffffffffffffffffffffffffffffffffffffff161415801561262f5750600084848381811061262657612625613aab565b5b90506020020135115b61266e576040517f08c379a000000000000000000000000000000000000000000000000000000000815260040161266590613660565b60405180910390fd5b670de0b6b3a764000084848381811061268a57612689613aab565b5b9050602002013561269b91906138f8565b600860008888858181106126b2576126b1613aab565b5b90506020020160208101906126c79190612e02565b73ffffffffffffffffffffffffffffffffffffffff1673ffffffffffffffffffffffffffffffffffffffff16815260200190815260200160002081905550808061271090613a04565b9150506125aa565b505050505050565b612728612c21565b73ffffffffffffffffffffffffffffffffffffffff1661274661239f565b73ffffffffffffffffffffffffffffffffffffffff161461279c576040517f08c379a000000000000000000000000000000000000000000000000000000000815260040161279390613680565b60405180910390fd5b600073ffffffffffffffffffffffffffffffffffffffff168173ffffffffffffffffffffffffffffffffffffffff16141561280c576040517f08c379a0000000000000000000000000000000000000000000000000000000008152600401612803906134e0565b60405180910390fd5b61281581612c29565b50565b600160009054906101000a900473ffffffffffffffffffffffffffffffffffffffff1681565b600073ffffffffffffffffffffffffffffffffffffffff1661285e612c21565b73ffffffffffffffffffffffffffffffffffffffff16141580156128d2575060076000612889612c21565b73ffffffffffffffffffffffffffffffffffffffff1673ffffffffffffffffffffffffffffffffffffffff16815260200190815260200160002060009054906101000a900460ff165b612911576040517f08c379a0000000000000000000000000000000000000000000000000000000008152600401612908906136c0565b60405180910390fd5b6000600a60008473ffffffffffffffffffffffffffffffffffffffff1673ffffffffffffffffffffffffffffffffffffffff168152602001908152602001600020600083815260200190815260200160002090508060030160009054906101000a900460ff16156129b7576040517f08c379a00000000000000000000000000000000000000000000000000000000081526004016129ae90613540565b60405180910390fd5b6000816001015482600001546129cd9190613952565b90506000811415612a13576040517f08c379a0000000000000000000000000000000000000000000000000000000008152600401612a0a90613700565b60405180910390fd5b6000826000018190555080600c6000600160009054906101000a900473ffffffffffffffffffffffffffffffffffffffff1673ffffffffffffffffffffffffffffffffffffffff1673ffffffffffffffffffffffffffffffffffffffff16815260200190815260200160002054612a8a9190613952565b600c6000600160009054906101000a900473ffffffffffffffffffffffffffffffffffffffff1673ffffffffffffffffffffffffffffffffffffffff1673ffffffffffffffffffffffffffffffffffffffff16815260200190815260200160002081905550600160009054906101000a900473ffffffffffffffffffffffffffffffffffffffff1673ffffffffffffffffffffffffffffffffffffffff1663a9059cbb612b3561239f565b836040518363ffffffff1660e01b8152600401612b53929190613421565b602060405180830381600087803b158015612b6d57600080fd5b505af1158015612b81573d6000803e3d6000fd5b505050506040513d601f19601f82011682018060405250810190612ba59190612fd8565b612be4576040517f08c379a0000000000000000000000000000000000000000000000000000000008152600401612bdb90613620565b60405180910390fd5b7f398bd6b21ae4164ec322fb0eb8c2eb6277f36fd41903fbbed594dfe12559128184604051612c139190613406565b60405180910390a150505050565b600033905090565b60008060009054906101000a900473ffffffffffffffffffffffffffffffffffffffff169050816000806101000a81548173ffffffffffffffffffffffffffffffffffffffff021916908373ffffffffffffffffffffffffffffffffffffffff1602179055508173ffffffffffffffffffffffffffffffffffffffff168173ffffffffffffffffffffffffffffffffffffffff167f8be0079c531659141344cd1fd0a4f28419497f9722a3daafe3b4186f6b6457e060405160405180910390a35050565b600081359050612cfc81614024565b92915050565b60008083601f840112612d1857612d17613adf565b5b8235905067ffffffffffffffff811115612d3557612d34613ada565b5b602083019150836020820283011115612d5157612d50613ae4565b5b9250929050565b60008083601f840112612d6e57612d6d613adf565b5b8235905067ffffffffffffffff811115612d8b57612d8a613ada565b5b602083019150836020820283011115612da757612da6613ae4565b5b9250929050565b600081359050612dbd8161403b565b92915050565b600081519050612dd28161403b565b92915050565b600081359050612de781614052565b92915050565b600081519050612dfc81614052565b92915050565b600060208284031215612e1857612e17613aee565b5b6000612e2684828501612ced565b91505092915050565b60008060408385031215612e4657612e45613aee565b5b6000612e5485828601612ced565b9250506020612e6585828601612dd8565b9150509250929050565b600080600060608486031215612e8857612e87613aee565b5b6000612e9686828701612ced565b9350506020612ea786828701612dd8565b9250506040612eb886828701612dae565b9150509250925092565b60008060008060408587031215612edc57612edb613aee565b5b600085013567ffffffffffffffff811115612efa57612ef9613ae9565b5b612f0687828801612d02565b9450945050602085013567ffffffffffffffff811115612f2957612f28613ae9565b5b612f3587828801612d58565b925092505092959194509250565b600080600080600060608688031215612f5f57612f5e613aee565b5b600086013567ffffffffffffffff811115612f7d57612f7c613ae9565b5b612f8988828901612d02565b9550955050602086013567ffffffffffffffff811115612fac57612fab613ae9565b5b612fb888828901612d58565b93509350506040612fcb88828901612dae565b9150509295509295909350565b600060208284031215612fee57612fed613aee565b5b6000612ffc84828501612dc3565b91505092915050565b60006020828403121561301b5761301a613aee565b5b600061302984828501612dd8565b91505092915050565b60006020828403121561304857613047613aee565b5b600061305684828501612ded565b91505092915050565b61306881613986565b82525050565b61307781613998565b82525050565b613086816139ce565b82525050565b6000613099602983613860565b91506130a482613af3565b604082019050919050565b60006130bc601783613860565b91506130c782613b42565b602082019050919050565b60006130df601d83613860565b91506130ea82613b6b565b602082019050919050565b6000613102602683613860565b915061310d82613b94565b604082019050919050565b6000613125601883613860565b915061313082613be3565b602082019050919050565b6000613148601f83613860565b915061315382613c0c565b602082019050919050565b600061316b601983613860565b915061317682613c35565b602082019050919050565b600061318e600c83613860565b915061319982613c5e565b602082019050919050565b60006131b1603383613860565b91506131bc82613c87565b604082019050919050565b60006131d4602183613860565b91506131df82613cd6565b604082019050919050565b60006131f7601983613860565b915061320282613d25565b602082019050919050565b600061321a601e83613860565b915061322582613d4e565b602082019050919050565b600061323d601d83613860565b915061324882613d77565b602082019050919050565b6000613260601883613860565b915061326b82613da0565b602082019050919050565b6000613283601f83613860565b915061328e82613dc9565b602082019050919050565b60006132a6601983613860565b91506132b182613df2565b602082019050919050565b60006132c9602083613860565b91506132d482613e1b565b602082019050919050565b60006132ec602683613860565b91506132f782613e44565b604082019050919050565b600061330f601783613860565b915061331a82613e93565b602082019050919050565b6000613332605483613860565b915061333d82613ebc565b606082019050919050565b6000613355601e83613860565b915061336082613f31565b602082019050919050565b6000613378602883613860565b915061338382613f5a565b604082019050919050565b600061339b601a83613860565b91506133a682613fa9565b602082019050919050565b60006133be601683613860565b91506133c982613fd2565b602082019050919050565b60006133e1601a83613860565b91506133ec82613ffb565b602082019050919050565b613400816139c4565b82525050565b600060208201905061341b600083018461305f565b92915050565b6000604082019050613436600083018561305f565b61344360208301846133f7565b9392505050565b600060208201905061345f600083018461306e565b92915050565b600060208201905061347a600083018461307d565b92915050565b600060208201905081810360008301526134998161308c565b9050919050565b600060208201905081810360008301526134b9816130af565b9050919050565b600060208201905081810360008301526134d9816130d2565b9050919050565b600060208201905081810360008301526134f9816130f5565b9050919050565b6000602082019050818103600083015261351981613118565b9050919050565b600060208201905081810360008301526135398161313b565b9050919050565b600060208201905081810360008301526135598161315e565b9050919050565b6000602082019050818103600083015261357981613181565b9050919050565b60006020820190508181036000830152613599816131a4565b9050919050565b600060208201905081810360008301526135b9816131c7565b9050919050565b600060208201905081810360008301526135d9816131ea565b9050919050565b600060208201905081810360008301526135f98161320d565b9050919050565b6000602082019050818103600083015261361981613230565b9050919050565b6000602082019050818103600083015261363981613253565b9050919050565b6000602082019050818103600083015261365981613276565b9050919050565b6000602082019050818103600083015261367981613299565b9050919050565b60006020820190508181036000830152613699816132bc565b9050919050565b600060208201905081810360008301526136b9816132df565b9050919050565b600060208201905081810360008301526136d981613302565b9050919050565b600060208201905081810360008301526136f981613325565b9050919050565b6000602082019050818103600083015261371981613348565b9050919050565b600060208201905081810360008301526137398161336b565b9050919050565b600060208201905081810360008301526137598161338e565b9050919050565b60006020820190508181036000830152613779816133b1565b9050919050565b60006020820190508181036000830152613799816133d4565b9050919050565b60006020820190506137b560008301846133f7565b92915050565b60006040820190506137d060008301856133f7565b6137dd602083018461306e565b9392505050565b60006060820190506137f960008301866133f7565b61380660208301856133f7565b613813604083018461306e565b949350505050565b600060808201905061383060008301876133f7565b61383d60208301866133f7565b61384a60408301856133f7565b613857606083018461306e565b95945050505050565b600082825260208201905092915050565b600061387c826139c4565b9150613887836139c4565b9250827fffffffffffffffffffffffffffffffffffffffffffffffffffffffffffffffff038211156138bc576138bb613a4d565b5b828201905092915050565b60006138d2826139c4565b91506138dd836139c4565b9250826138ed576138ec613a7c565b5b828204905092915050565b6000613903826139c4565b915061390e836139c4565b9250817fffffffffffffffffffffffffffffffffffffffffffffffffffffffffffffffff048311821515161561394757613946613a4d565b5b828202905092915050565b600061395d826139c4565b9150613968836139c4565b92508282101561397b5761397a613a4d565b5b828203905092915050565b6000613991826139a4565b9050919050565b60008115159050919050565b600073ffffffffffffffffffffffffffffffffffffffff82169050919050565b6000819050919050565b60006139d9826139e0565b9050919050565b60006139eb826139f2565b9050919050565b60006139fd826139a4565b9050919050565b6000613a0f826139c4565b91507fffffffffffffffffffffffffffffffffffffffffffffffffffffffffffffffff821415613a4257613a41613a4d565b5b600182019050919050565b7f4e487b7100000000000000000000000000000000000000000000000000000000600052601160045260246000fd5b7f4e487b7100000000000000000000000000000000000000000000000000000000600052601260045260246000fd5b7f4e487b7100000000000000000000000000000000000000000000000000000000600052603260045260246000fd5b600080fd5b600080fd5b600080fd5b600080fd5b600080fd5b7f54686973206164647265737320697320616c726561647920616464656420617360008201527f20616e2061646d696e0000000000000000000000000000000000000000000000602082015250565b7f56657374696e673a2043616e2774207769746864726177000000000000000000600082015250565b7f6f776e657227732062616c616e6365206973206e6f7420656e6f756768000000600082015250565b7f4f776e61626c653a206e6577206f776e657220697320746865207a65726f206160008201527f6464726573730000000000000000000000000000000000000000000000000000602082015250565b7f56657374696e673a207769746864726177206661696c65640000000000000000600082015250565b7f56657374696e673a20696e76616c69642076657374696e6720706172616d7300600082015250565b7f56657374696e673a204163636f756e7420697320666978656400000000000000600082015250565b7f5a65726f20616464726573730000000000000000000000000000000000000000600082015250565b7f4c6f636b20706572696f6420456e6420616e6420416c6c206c6f636b6564207460008201527f6f6b656e73207765726520756e6c6f636b656400000000000000000000000000602082015250565b7f74686973206163636f756e742068617320616c7265616479207363686564756c60008201527f6500000000000000000000000000000000000000000000000000000000000000602082015250565b7f496e76616c69642077686974656c697374206d656d6265722100000000000000600082015250565b7f546965723a20696e646578206f66207469657220697320696e76616c69640000600082015250565b7f56657374696e673a204172726179206c656e6774687320646966666572000000600082015250565b7f56657374696e673a207472616e73666572206661696c65640000000000000000600082015250565b7f56657374696e673a20756e6c6f636b54696d65206e6f74207265616368656400600082015250565b7f546965723a20696e76616c6964207469657220706172616d7300000000000000600082015250565b7f4f776e61626c653a2063616c6c6572206973206e6f7420746865206f776e6572600082015250565b7f596f752063616e27742072756e20756e6c6f636b546f6b656e2066756e63746960008201527f6f6e206e6f770000000000000000000000000000000000000000000000000000602082015250565b7f43616c6c6572206973206e6f74207468652061646d696e000000000000000000600082015250565b7f596f75206e65656420746f206465706f7369742032353030303030204353504460008201527f7320696e746f207468697320636f6e7472616374206265666f726520796f752060208201527f7374617274207468697320636f6e74726163742e000000000000000000000000604082015250565b7f56657374696e673a206e6f206f75747374616e64696e6720746f6b656e730000600082015250565b7f416c726561647920756e6c6f636b656420746f6b656e73206f6620746869732060008201527f7363686564756c65000000000000000000000000000000000000000000000000602082015250565b7f56657374696e673a204e6f7420656e6f75676820746f6b656e73000000000000600082015250565b7f56657374696e673a206e6f7420636c61696d61626c6500000000000000000000600082015250565b7f546965723a204172726179206c656e6774687320646966666572000000000000600082015250565b61402d81613986565b811461403857600080fd5b50565b61404481613998565b811461404f57600080fd5b50565b61405b816139c4565b811461406657600080fd5b5056fea26469706673582212209c0e01d48c3df839cdd0024aee46aa0485d4b16bc1480e56d806fd5a316242df64736f6c63430008070033",
  "immutableReferences": {},
  "source": "// SPDX-License-Identifier: GPL-3.0-only\r\npragma solidity 0.8.7;\r\n\r\nimport \"@openzeppelin/contracts/token/ERC20/IERC20.sol\";\r\nimport \"@openzeppelin/contracts/access/Ownable.sol\";\r\n\r\ninterface IBEP20 {\r\n    \r\n  /**\r\n   * @dev Returns the amount of tokens in existence.\r\n   */\r\n  function totalSupply() external view returns (uint256);\r\n\r\n  /**\r\n   * @dev Returns the token decimals.\r\n   */\r\n  function decimals() external view returns (uint8);\r\n\r\n  /**\r\n   * @dev Returns the token symbol.\r\n   */\r\n  function symbol() external view returns (string memory);\r\n\r\n  /**\r\n  * @dev Returns the token name.\r\n  */\r\n  function name() external view returns (string memory);\r\n\r\n  /**\r\n   * @dev Returns the bep token owner.\r\n   */\r\n  function getOwner() external view returns (address);\r\n\r\n  /**\r\n   * @dev Returns the amount of tokens owned by `account`.\r\n   */\r\n  function balanceOf(address account) external view returns (uint256);\r\n\r\n  /**\r\n   * @dev Moves `amount` tokens from the caller's account to `recipient`.\r\n   *\r\n   * Returns a boolean value indicating whether the operation succeeded.\r\n   *\r\n   * Emits a {Transfer} event.\r\n   */\r\n  function transfer(address recipient, uint256 amount) external returns (bool);\r\n\r\n  /**\r\n   * @dev Returns the remaining number of tokens that `spender` will be\r\n   * allowed to spend on behalf of `owner` through {transferFrom}. This is\r\n   * zero by default.\r\n   *\r\n   * This value changes when {approve} or {transferFrom} are called.\r\n   */\r\n  function allowance(address _owner, address spender) external view returns (uint256);\r\n\r\n  /**\r\n   * @dev Sets `amount` as the allowance of `spender` over the caller's tokens.\r\n   *\r\n   * Returns a boolean value indicating whether the operation succeeded.\r\n   *\r\n   * IMPORTANT: Beware that changing an allowance with this method brings the risk\r\n   * that someone may use both the old and the new allowance by unfortunate\r\n   * transaction ordering. One possible solution to mitigate this race\r\n   * condition is to first reduce the spender's allowance to 0 and set the\r\n   * desired value afterwards:\r\n   * https://github.com/ethereum/EIPs/issues/20#issuecomment-263524729\r\n   *\r\n   * Emits an {Approval} event.\r\n   */\r\n  function approve(address spender, uint256 amount) external returns (bool);\r\n\r\n  /**\r\n   * @dev Moves `amount` tokens from `sender` to `recipient` using the\r\n   * allowance mechanism. `amount` is then deducted from the caller's\r\n   * allowance.\r\n   *\r\n   * Returns a boolean value indicating whether the operation succeeded.\r\n   *\r\n   * Emits a {Transfer} event.\r\n   */\r\n  function transferFrom(address sender, address recipient, uint256 amount) external returns (bool);\r\n\r\n  /**\r\n   * @dev Emitted when `value` tokens are moved from one account (`from`) to\r\n   * another (`to`).\r\n   *\r\n   * Note that `value` may be zero.\r\n   */\r\n  event Transfer(address indexed from, address indexed to, uint256 value);\r\n\r\n  /**\r\n   * @dev Emitted when the allowance of a `spender` for an `owner` is set by\r\n   * a call to {approve}. `value` is the new allowance.\r\n   */\r\n  event Approval(address indexed owner, address indexed spender, uint256 value);\r\n  \r\n}\r\n/**\r\n * Tracer Standard Vesting Contract\r\n */\r\ncontract Vesting is Ownable {\r\n\r\n    //initialize data: token, member, vesting time\r\n    IBEP20 public token;\r\n    address[] public members;\r\n    uint256[] public amounts;\r\n    uint256[] public vestingTimeList;\r\n    uint256 releasedVestingId;\r\n    uint256 totalSoldAmount = 0;\r\n    mapping(address => bool) public admins;\r\n\r\n\r\n    //tiger of members\r\n    struct Tier {\r\n        uint256 tierId;\r\n        uint256 amountMax;\r\n    }\r\n\r\n    mapping(address => uint256) public whitelistOfTiers; //whitelist: (address => maxAmount)\r\n\r\n    struct Schedule {\r\n        uint256 amount;\r\n        uint256 claimedAmount;\r\n        uint256 unlockTime;\r\n        bool isFixed;\r\n    }\r\n\r\n    struct Plain {\r\n        uint256 percentage;\r\n        uint256 unlockTime;\r\n        bool isSent;\r\n    }\r\n    Plain[] public schedulePlain; // array of plains\r\n\r\n    // user => scheduleId => schedule\r\n    mapping(address => mapping(uint256 => Schedule)) public schedules;\r\n    mapping(address => uint256) public numberOfSchedules; //number of the schedule by address\r\n    mapping(address => uint256) public locked; //locked amount mapping by address\r\n\r\n    event Claim(address indexed claimer, uint256 amount);\r\n    event Cancelled(address account);\r\n    event NewVesting(address indexed investor, uint256 amount, bool isFixed);\r\n    event AddNewAdmin(address _address);\r\n    event UnlockTokens(uint256 _timestamp);\r\n\r\n    modifier onlyAdmin() {\r\n        require(_msgSender() != address(0x0) && admins[_msgSender()], \"Caller is not the admin\");\r\n        _;\r\n    }\r\n\r\n    modifier checkWhitelist(address account, uint256 amount) {\r\n        uint256 maxAmount = whitelistOfTiers[account];\r\n        require(maxAmount != 0 && maxAmount >= amount * 10 ** 18, \"Invalid whitelist member!\");\r\n        _;\r\n    }\r\n\r\n    constructor(address _token) {\r\n        require(_token != address(0x0));\r\n        token = IBEP20(_token); // token address\r\n\r\n        uint256 _preSaleAmount = 50000000 * 10 ** 18; //CSPD amount for presale\r\n        require(IBEP20(_token).balanceOf(owner()) >= _preSaleAmount, \"owner's balance is not enough\");\r\n        // IBEP20(_token).transfer(address(this), _preSaleAmount);\r\n\r\n        admins[owner()] = true;  // add owner to admin role\r\n        releasedVestingId = 0;   // set the initial releasedVestingId\r\n\r\n        //addresses for public sale\r\n        members.push(address(0x5B38Da6a701c568545dCfcB03FcB875f56beddC4));\r\n        members.push(address(0x026116102Ae7e558Cd436325158d54020EFCf0eF));\r\n        members.push(address(0x4B674Da5E20067B8213263720d958B5e7AbD7d8c));\r\n        members.push(address(0xD157D2Ff5393c509777765Cf612284d53d38dE30));\r\n        members.push(address(0xFcf2668C4EC68D2bbd36a476e30227744A0f5EB8));\r\n        members.push(address(0x3719D24Fa12f32877f894c6F51FeECF91F16b44f));\r\n        members.push(address(0xc0eaA0018b1192dE0c8ca46E57B84Ee907e01baC));\r\n        members.push(address(0xc50dD8028B1C6914B67F4657F0155e5D2cE1E226));\r\n        members.push(address(0x5B588e36FF358D4376A76FB163fd69Da02A2A9a5));\r\n        members.push(address(0xA5664dC01BB8369EDc6116d3B267d6014681dD2F));\r\n\r\n        //amount for public sale\r\n        amounts.push(5000000);\r\n        amounts.push(5000000);\r\n        amounts.push(5000000);\r\n        amounts.push(5000000);\r\n        amounts.push(5000000);\r\n        amounts.push(5000000);\r\n        amounts.push(5000000);\r\n        amounts.push(5000000);\r\n        amounts.push(5000000);\r\n        amounts.push(5000000);\r\n\r\n        // add schedule time\r\n        vestingTimeList.push(1539083600); // 2021-12-10 00:00:00\r\n        vestingTimeList.push(1539083900); // 2021-12-10 00:00:00\r\n        // vestingTimeList.push(1639083600); // 2021-12-10 00:00:00\r\n        // vestingTimeList.push(1641762000); // 2022-01-10 00:00:00\r\n        vestingTimeList.push(1644440400); // 2022-02-10 00:00:00\r\n        vestingTimeList.push(1646859600); // 2022-03-10 00:00:00\r\n        vestingTimeList.push(1649538000); // 2022-04-10 00:00:00\r\n        vestingTimeList.push(1652130000); // 2022-05-10 00:00:00\r\n\r\n        //set the schedule plain\r\n        for(uint256 i = 0; i < vestingTimeList.length; i++){\r\n            if(i == 0) { // after TGE \r\n                schedulePlain.push(Plain(\r\n                    5, //%\r\n                    vestingTimeList[i],\r\n                    false\r\n                ));\r\n            }else { // next steps\r\n                schedulePlain.push(Plain(\r\n                    19, //%\r\n                    vestingTimeList[i],\r\n                    false\r\n                ));\r\n            }\r\n        }\r\n        //initial kWhitelist\r\n        for(uint256 i = 0; i < members.length; i++){\r\n            whitelistOfTiers[members[i]] = 5000000 * 10 ** 18;\r\n        }\r\n    }\r\n\r\n    function tokenSupply(uint256 totalAmount) external payable onlyOwner {\r\n        uint256 _preSaleAmount = totalAmount * 10 ** 18; //CSPD amount for presale 50000000\r\n        require(IBEP20(token).balanceOf(owner()) >= _preSaleAmount, \"owner's balance is not enough\");\r\n        token.transfer(address(this), _preSaleAmount);\r\n    }\r\n\r\n    function addAdmin(address _address) external onlyOwner {\r\n        require(_address != address(0x0), \"Zero address\");\r\n        require(!admins[_address], \"This address is already added as an admin\");\r\n        admins[_address] = true;\r\n        emit AddNewAdmin(_address);\r\n    }\r\n\r\n    function isAdmin(address _address) external view returns(bool) {\r\n        return admins[_address];\r\n    }\r\n\r\n    function getTotalSoldAmount() external view returns(uint256) {\r\n        return totalSoldAmount;\r\n    }\r\n    /**\r\n     * @notice Sets up a vesting schedule for a set user.\r\n     * @dev adds a new Schedule to the schedules mapping.\r\n     * @param account the account that a vesting schedule is being set up for. Will be able to claim tokens after\r\n     *                the cliff period.\r\n     * @param amount the amount of tokens being vested for the user.\r\n     * @param isFixed a flag for if the vesting schedule is fixed or not. Fixed vesting schedules can't be cancelled.\r\n     */\r\n    function addVest(\r\n        address account,\r\n        uint256 amount,\r\n        bool isFixed\r\n    ) public onlyAdmin checkWhitelist(account, amount) {\r\n        // check amount\r\n        require(amount > 0, \"Vesting: invalid vesting params\");\r\n\r\n        uint256 currentLocked = locked[address(token)];\r\n\r\n        // require the token is present\r\n        require(IBEP20(token).balanceOf(address(this)) >= currentLocked + amount * 10 ** 18, \"Vesting: Not enough tokens\");\r\n\r\n        // create the schedule\r\n        uint256 currentNumSchedules = numberOfSchedules[account];\r\n        require(currentNumSchedules == 0, \"this account has already schedule\");\r\n        \r\n        for(uint256 i = 0; i < schedulePlain.length; i++){\r\n            uint256 _amount = amount * 10 ** 18 * schedulePlain[i].percentage / 100;\r\n            uint256 _unlockTime = schedulePlain[i].unlockTime;\r\n\r\n            schedules[account][i] = Schedule(\r\n                _amount,\r\n                0,\r\n                _unlockTime,\r\n                isFixed\r\n            );\r\n\r\n            numberOfSchedules[account] = i + 1;\r\n            locked[address(token)] = currentLocked + amount * 10 ** 18;\r\n            totalSoldAmount += _amount;\r\n        }\r\n        members.push(account);\r\n        emit NewVesting(account, amount, isFixed);\r\n    }\r\n\r\n    /**\r\n     * @notice Sets up vesting schedules for multiple users within 1 transaction.\r\n     * @dev adds a new Schedule to the schedules mapping.\r\n     * @param accounts an array of the accounts that the vesting schedules are being set up for.\r\n     *                 Will be able to claim tokens after the cliff period.\r\n     * @param amount an array of the amount of tokens being vested for each user.\r\n     * @param isFixed bool setting if these vesting schedules can be rugged or not.\r\n     */\r\n    function addMultiVest(\r\n        address[] calldata accounts,\r\n        uint256[] calldata amount,\r\n        bool isFixed\r\n    ) external onlyAdmin {\r\n        uint256 numberOfAccounts = accounts.length;\r\n        require(\r\n            amount.length == numberOfAccounts,\r\n            \"Vesting: Array lengths differ\"\r\n        );\r\n        for (uint256 i = 0; i < numberOfAccounts; i++) {\r\n            addVest(\r\n                accounts[i],\r\n                amount[i],\r\n                isFixed\r\n            );\r\n        }\r\n    }\r\n\r\n    /**\r\n     * @notice allows users to claim vested tokens if the cliff time has passed.\r\n     * @param scheduleNumber which schedule the user is claiming against\r\n     */\r\n    function claim(uint256 scheduleNumber) external {\r\n        Schedule storage schedule = schedules[msg.sender][scheduleNumber];\r\n        require(\r\n            schedule.unlockTime <= block.timestamp,\r\n            \"Vesting: unlockTime not reached\"\r\n        );\r\n        require(schedule.amount > 0, \"Vesting: not claimable\");\r\n\r\n        uint256 amountToTransfer = schedule.amount - schedule.claimedAmount;\r\n        schedule.claimedAmount = schedule.amount; // set new claimed amount based off the curve\r\n        locked[address(token)] = locked[address(token)] - amountToTransfer;\r\n        require(IBEP20(token).transfer(msg.sender, amountToTransfer), \"Vesting: transfer failed\");\r\n        emit Claim(msg.sender, schedule.amount);\r\n    }\r\n\r\n    /**\r\n     * @notice Allows a vesting schedule to be cancelled.\r\n     * @dev Any outstanding tokens are returned to the system.\r\n     * @param account the account of the user whos vesting schedule is being cancelled.\r\n     */\r\n    function rug(address account, uint256 scheduleId) external onlyAdmin {\r\n        Schedule storage schedule = schedules[account][scheduleId];\r\n        require(!schedule.isFixed, \"Vesting: Account is fixed\");\r\n        uint256 outstandingAmount = schedule.amount -\r\n            schedule.claimedAmount;\r\n        require(outstandingAmount != 0, \"Vesting: no outstanding tokens\");\r\n        schedule.amount = 0;\r\n        locked[address(token)] = locked[address(token)] - outstandingAmount;\r\n        require(IBEP20(token).transfer(owner(), outstandingAmount), \"Vesting: transfer failed\");\r\n        emit Cancelled(account);\r\n    }\r\n\r\n    /**\r\n     * @return calculates the amount of tokens to distribute to an account at any instance in time, based off some\r\n     *         total claimable amount.\r\n     * @param amount the total outstanding amount to be claimed for this vesting schedule.\r\n     * @param currentTime the current timestamp.\r\n     * @param startTime the timestamp this vesting schedule started.\r\n     * @param endTime the timestamp this vesting schedule ends.\r\n     */\r\n    \r\n    /**\r\n     * @notice Withdraws CSPD tokens from the contract.\r\n     * @dev blocks withdrawing locked tokens.\r\n     */\r\n    function withdraw(uint256 amount) external onlyAdmin {\r\n        amount = amount * 10 ** 18;\r\n        require(\r\n            token.balanceOf(address(this)) - locked[address(token)] >= amount,\r\n            \"Vesting: Can't withdraw\"\r\n        );\r\n        require(token.transfer(owner(), amount), \"Vesting: withdraw failed\");\r\n    }\r\n\r\n    function multiSetTierOfAccount(\r\n        address[] calldata accounts,\r\n        uint256[] calldata _maxAmount\r\n    ) external onlyAdmin {\r\n        uint256 _numberOfAccounts = accounts.length;\r\n        require( _maxAmount.length == _numberOfAccounts, \"Tier: Array lengths differ\");\r\n\r\n        for (uint256 i = 0; i < _numberOfAccounts; i++) {\r\n            require( accounts[i] != address(0x0) && _maxAmount[i] > 0, \"Tier: invalid tier params\");\r\n            whitelistOfTiers[accounts[i]] = _maxAmount[i] * 10 ** 18;\r\n        }\r\n    }\r\n\r\n    function setTierOfAccount(\r\n        address account,\r\n        uint256 _maxAmount\r\n    ) external onlyAdmin {\r\n        require(_maxAmount > 0, \"Tier: index of tier is invalid\");\r\n        whitelistOfTiers[account] = _maxAmount * 10 ** 18;\r\n    }\r\n\r\n    function getTierOfAccount(\r\n        address account\r\n    ) public view returns (uint256){\r\n        return whitelistOfTiers[account];\r\n    }\r\n\r\n    function unlockToken() external onlyAdmin {\r\n        uint256 currentTime = block.timestamp;\r\n        uint256 startTime = schedulePlain[releasedVestingId].unlockTime;\r\n        require(currentTime >= startTime, \"You can't run unlockToken function now\");\r\n        require(releasedVestingId < 6, \"Lock period End and All locked tokens were unlocked\");\r\n        require(!schedulePlain[releasedVestingId].isSent, \"Already unlocked tokens of this schedule\");\r\n\r\n        if (releasedVestingId == 0) {\r\n            require(token.balanceOf(address(this)) >= 2500000, \"You need to deposit 2500000 CSPDs into this contract before you start this contract.\");\r\n        }\r\n        for (uint256 i = 0; i < members.length; i++) {\r\n            Schedule memory _schedule = schedules[members[i]][releasedVestingId];\r\n            if (_schedule.amount != _schedule.claimedAmount) {\r\n                uint256 transferAmount = _schedule.amount - _schedule.claimedAmount;\r\n                require(token.transfer(members[i], transferAmount));\r\n                locked[address(token)] -= transferAmount;\r\n                schedules[members[i]][releasedVestingId].claimedAmount += transferAmount;\r\n            }\r\n        }\r\n        emit UnlockTokens(vestingTimeList[releasedVestingId]);\r\n        schedulePlain[releasedVestingId].isSent = true;\r\n        releasedVestingId = releasedVestingId + 1;\r\n    }\r\n}",
  "sourcePath": "D:\\Work Space\\CasperPad\\CasperPadToken_Contract\\contracts\\Vesting.sol",
  "compiler": {
    "name": "solc",
    "version": "0.8.7+commit.e28d00a7.Emscripten.clang"
  },
  "schemaVersion": "3.4.3",
  "updatedAt": "2021-12-03T18:01:17.270Z",
  "networkType": "ethereum",
  "devdoc": {
    "kind": "dev",
    "methods": {
      "addMultiVest(address[],uint256[],bool)": {
        "details": "adds a new Schedule to the schedules mapping.",
        "params": {
          "accounts": "an array of the accounts that the vesting schedules are being set up for.                 Will be able to claim tokens after the cliff period.",
          "amount": "an array of the amount of tokens being vested for each user.",
          "isFixed": "bool setting if these vesting schedules can be rugged or not."
        }
      },
      "addVest(address,uint256,bool)": {
        "details": "adds a new Schedule to the schedules mapping.",
        "params": {
          "account": "the account that a vesting schedule is being set up for. Will be able to claim tokens after                the cliff period.",
          "amount": "the amount of tokens being vested for the user.",
          "isFixed": "a flag for if the vesting schedule is fixed or not. Fixed vesting schedules can't be cancelled."
        }
      },
      "claim(uint256)": {
        "params": {
          "scheduleNumber": "which schedule the user is claiming against"
        }
      },
      "owner()": {
        "details": "Returns the address of the current owner."
      },
      "renounceOwnership()": {
        "details": "Leaves the contract without owner. It will not be possible to call `onlyOwner` functions anymore. Can only be called by the current owner. NOTE: Renouncing ownership will leave the contract without an owner, thereby removing any functionality that is only available to the owner."
      },
      "rug(address,uint256)": {
        "details": "Any outstanding tokens are returned to the system.",
        "params": {
          "account": "the account of the user whos vesting schedule is being cancelled."
        }
      },
      "transferOwnership(address)": {
        "details": "Transfers ownership of the contract to a new account (`newOwner`). Can only be called by the current owner."
      },
      "withdraw(uint256)": {
        "details": "blocks withdrawing locked tokens."
      }
    },
    "version": 1
  },
  "userdoc": {
    "kind": "user",
    "methods": {
      "addMultiVest(address[],uint256[],bool)": {
        "notice": "Sets up vesting schedules for multiple users within 1 transaction."
      },
      "addVest(address,uint256,bool)": {
        "notice": "Sets up a vesting schedule for a set user."
      },
      "claim(uint256)": {
        "notice": "allows users to claim vested tokens if the cliff time has passed."
      },
      "rug(address,uint256)": {
        "notice": "Allows a vesting schedule to be cancelled."
      },
      "withdraw(uint256)": {
        "notice": "Withdraws CSPD tokens from the contract."
      }
    },
    "notice": "Tracer Standard Vesting Contract",
    "version": 1
  }
}